:020000040800F2
:10000000B014002001010008A7360008A92F00083D
:10001000A5360008690300087D5B000800000000A9
:100020000000000000000000000000002D3A000861
:100030000505000800000000033A0008313A0008F6
:100040001B0100081B0100081B0100081B01000820
:100050001B0100081B0100081B0100081B01000810
:100060001B0100081B0100081B010008B503000864
:100070001B0100081B0100081B0100081B010008F0
:100080001B0100081B0100081B0100081B010008E0
:10009000C55A00081B0100081B0100081B010008CD
:1000A0001B0100081B0100081B0100081B010008C0
:1000B0001B0100081B0100081B0100081B010008B0
:1000C0001B0100081B0100081B0100081B010008A0
:1000D0001B0100081B0100081B0100081B01000890
:1000E0001B0100081B0100081B010008DFF80CD0F1
:1000F00000F050F80048004739610008B0140020B3
:100100000648804706480047FEE7FEE7FEE7FEE7B1
:10011000FEE7FEE7FEE7FEE7FEE7FEE7B53A00088A
:10012000ED000008D2B201E000F8012B491EFBD21D
:1001300070470022F6E710B513460A4604461946F2
:10014000FFF7F0FF204610BD421C10F8011B0029EC
:10015000FBD1801A7047034611F8012B00F8012BE0
:10016000002AF9D11846704730B50B4601460020E9
:100170002022012409E021FA02F59D4205D303FA69
:1001800002F5491B04FA02F52844151EA2F10102EA
:10019000F1DC30BD064C074D06E0E06840F001039D
:1001A00094E8070098471034AC42F6D3FFF7A2FF5B
:1001B00098630008B863000870B58C1810F8015BEC
:1001C00015F0070301D110F8013B2A1106D110F8F0
:1001D000012B03E010F8016B01F8016B5B1EF9D1F4
:1001E0002B0705D40023521E0DD401F8013BFAE77A
:1001F00010F8013BCB1A921C03E013F8015B01F8E5
:10020000015B521EF9D5A142D8D3002070BD70B554
:1002100004462068816811F0010F24D0816821F024
:100220000101816000F028FE05462068806810F01A
:10023000010F18D000F020FE401B02280ED92068C4
:10024000806810F0010F09D0A06A40F01000A06291
:10025000E06A40F00100E062012070BD2068806823
:1002600010F0010FE6D1002070BD10B50246506AB3
:10027000816A11F0500F05D0006A016BBDE8104093
:1002800010460847816A41F40071816201688968FB
:100290004FF4602232EA01010DD1017B59B9816A24
:1002A00021F480718162816A11F4805F03D1816AD7
:1002B00041F00101816200F0FFF910BD10B5406A04
:1002C000816A41F040018162C16A41F00401C1626A
:1002D00000F00DFA10BD10B5406A00F007FA10BD2D
:1002E000F8B50446002600962068816811F0010FD9
:1002F00028D1816841F001018160194819490068DD
:10030000B0FBF1F00090009828B10098401E0090DA
:1003100000980028F9D100F0AFFD054620688068FC
:1003200010F0010F0ED100F0A7FD401B022804D9E8
:100330002068806810F0010F06D02068806810F0F7
:10034000010FF0D00020F8BDA06A40F01000A062BC
:10035000E06A40F00100E06284F824600120F8BD0A
:100360006C00002040420F00FEE704284FF0000020
:10037000704700207047000010B50022044905486E
:1003800003F037FE0449034803F02DFE002010BDA2
:10039000600900205C0400202009002010B50146FF
:1003A000034803F020FE024803F0FCFD002010BDCE
:1003B0005C040020014800F00BBB00000C0400208E
:1003C00010B490F840C0012404FA0CFCC46BC4F8CB
:1003D00004C0D0F800C0CCF804304368102B05D01E
:1003E000036899600068C26010BC704703689A6037
:1003F0000068C16010BC704700F00F01000900EBFD
:10040000800001EB4000C0B2704710B5042000F03E
:100410001FF8BDE81040FFF7EFBF10B5022000F055
:1004200017F8BDE8104000F03F00FFF7E5BF10B53A
:10043000012000F00DF8BDE81040FFF7DDBF10B55A
:10044000052000F005F8BDE81040FFF7D5BF00001B
:1004500031B582B0094D4FF47A740094012302AA99
:10046000D021286800F064FF0094012301AAD02164
:10047000286800F0D7FD9DF804003EBD0000002074
:1004800010B50020FFF7E4FFBDE8104000F07F004A
:10049000FFF7B2BF10B51020FFF7DAFF642100FBB1
:1004A00001F40620FFF7D4FFFFF7A6FF204410BD9C
:1004B00002490860002000F003B80000000000209E
:1004C00010B508B1802400E000240020FFF7C0FF31
:1004D00000F07F012143BDE810400020AFF3008011
:1004E0001CB502238DF804004FF47A700090044884
:1004F0008DF8051001AAD021006800F019FF1CBD7D
:100500000000002070477047002200F001B8000092
:1005100010B4844601200F4B5C7A012C17D8587A0E
:1005200000241C54587A03EB8000C0F804C0587AA9
:1005300003F1080C00F80C20587A421C5A72303033
:1005400008703A2048702F208870CC70002010BCB2
:10055000704700005004002070B50B480168001D72
:100560000568001D0068084400280CD0074C0822CC
:10057000A11C02F076FF04F112012846BDE870408C
:10058000042202F06EBF70BDE8F7FF1FC400002018
:1005900078B44FF0000C0024009490F82420012A35
:1005A00014D0012280F824204A681F25072A10D27F
:1005B00003685E6B521E02EB8202954026EA050537
:1005C0000E6806FA02F22A435A631FE078BC022042
:1005D00070470D2A0DD203681E6BD21F02EB8202F8
:1005E000954026EA05050E6806FA02F22A431A63C8
:1005F0000CE00368DE6A0D3A02EB8202954026EABF
:1006000005050E6806FA02F22A43DA620A6807252F
:100610000A2A0DD30368DE680A3A02EB42029540CB
:1006200026EA05058E6806FA02F22A43DA600BE034
:1006300003681E6902EB4202954026EA05058E68B2
:1006400006FA02F22A431A610A68102A01D0112A16
:1006500028D10268A2F18043B3F592331CD193688C
:1006600013F4000F1ED1936843F4000393600968EC
:10067000102917D10E490F4A0968B1FBF2F101EBBD
:10068000810149000091009961B10099491E0091D2
:1006900000990029F9D105E0816A41F020018162C9
:1006A0004FF0010C80F8244078BC60467047000091
:1006B0006C00002040420F00F8B50B4D64240094FC
:1006C00000234FF480573A461946286802F0E8FEA6
:1006D000A5F10C060023706000943A46194668683C
:1006E00002F0DEFEB060F8BD1000002070477047D9
:1006F0002DE9F041044600270025002C04D0A06815
:10070000A06A002618B108E00120BDE8F081E66289
:1007100084F82460204600F07DF82046FFF777FD3E
:100720000146A06A00F0100252EA010007D0A06A58
:1007300040F01000A06201210846BDE8F081A06AE7
:1007400020F4885040F00200A062E2696068237BD8
:10075000104347EA43020243A068B0F5807F08D007
:10076000012806D0002094F814C0BCF1010F03D07A
:100770000BE04FF48070F6E7F3B1A36A43F0200377
:10078000A362E36A43F00103E3622368D3F804C081
:100790002CF4694C4CEA0000586020688368DFF84C
:1007A0006CC003EA0C0313438360A068B0F5807F3C
:1007B00009D0012807D009E0A3695B1E40EA433055
:1007C00040F40060E1E7208A401E05052068C36A06
:1007D00023F470032B43C362206880680C4B1840DD
:1007E000904207D1E662A06A20F0020040F00100CA
:1007F000A062A1E7A06A20F0020040F01000A06211
:10080000E06A40F00100E062012195E7FDF7E1FFB9
:10081000FE0E1FFF70B586B00025064600950195B7
:10082000029503950068194988422DD118498869B5
:1008300040F400708861886900F400700490886951
:1008400040F0040088618869694600F00400049063
:100850000320009001900F4800F004FA0F4C0E485E
:10086000C4E900058020C4E90250800020618000B6
:1008700060612020C4E90605204600F061F908B156
:10088000FFF741FE3462666206B070BD002401408D
:100890000010024000080140080002400C04002043
:1008A0002DE9F0470446884691462068434F444E60
:1008B000A0F1804ABAF5923A01D0B84207D1306827
:1008C00010F4702F03D001252846BDE8F08794F876
:1008D000240001280BD0012084F824002046FFF7D3
:1008E000FFFC054600212DB184F82410ECE702201E
:1008F000BDE8F087A06A20F0010020F4606040F4B9
:100900008070A0622068B8421AD1326812F4702F49
:1009100016D0A26A42F48012A262306810F4806F8E
:1009200005D0A06A20F4005040F48050A062A06A74
:1009300010F4805F13D0E06A20F00600E0620FE060
:10094000A26A22F48012A262406810F4806FEED096
:10095000A06A20F4005040F48050A062E7E7E16212
:1009600084F82410216A17488862216A1648C862F0
:10097000216A1648086321686FF002000860206849
:10098000816841F48071816020684B4600F14C0120
:100990004246206A00F016F9206881684FF4602210
:1009A00032EA010104D0816841F4801181608BE753
:1009B000816841F4A001816086E7000000280140C1
:1009C000042401406B020008D7020008BD020008A1
:1009D0002DE9F05FC16B0A6801680B68D0F840C070
:1009E000042404FA0CF414424E4C4F4D4F4E504F19
:1009F000DFF84081DFF8409131D013F0040F2ED0A2
:100A00000A6812F0200F03D10A6822F004020A607B
:100A10000168A14201D1042119E0A94201D140217C
:100A200015E0B14202D14FF4806110E0B94202D129
:100A30004FF480410BE0414502D14FF4802106E0A4
:100A4000494502D14FF4800101E04FF080613B4AFB
:100A50005160C16A002962D0BDE8F05F08474FF0DD
:100A6000020A0AFA0CFA1AEA020F4FF0000A4FF0D3
:100A7000010B35D013F0020F32D00A6812F0200FAC
:100A800005D10A6822F00A020A6080F821B00168E4
:100A9000A14201D1022119E0A94201D1202115E092
:100AA000B14202D14FF4007110E0B94202D14FF4CB
:100AB00000510BE0414502D14FF4003106E04945B9
:100AC00002D14FF4001101E04FF000711B4A516058
:100AD00080F820A0816A002921D0BDE8F05F084796
:100AE000082404FA0CFC1CEA020F18D013F0080FBB
:100AF00015D00A6822F00E020A6090F84010C26B0E
:100B00000BFA01F15160C0F838B080F821B080F8DC
:100B100020A0016B002902D0BDE8F05F0847BDE8C6
:100B2000F09F0000080002401C000240300002401C
:100B300044000240580002406C00024000000240A5
:100B400010B4002834D01C4A01688B181B4AA2FB41
:100B50000332120992000264194AC263022280F829
:100B600021200A686FF30D12D0F808C043680469A9
:100B700043EA0C03D0F80CC04CEA040C43EA0C0323
:100B8000D0F814C043EA0C03D0F818C043EA0C03B1
:100B9000D0F81CC043EA0C031A430A6000218163A9
:100BA000012280F8212080F8201010BC002070471E
:100BB00010BC012070470000F8FFFDBFCDCCCCCCAD
:100BC0000000024070B50446002594F8200001287A
:100BD0000DD0012084F8200094F821C00020BCF141
:100BE000010F06D084F820000225284670BD02209F
:100BF00070BD4FF0020C84F821C0A0632068D0F8CB
:100C000000C02CF0010CC0F800C02046FFF7D8FB54
:100C1000E06A28B12068016841F00E01016009E036
:100C20002068016821F0040101602068016841F03A
:100C30000A0101602068016841F001010160D4E708
:100C400070B5044600F018F90546601C02D004484F
:100C50000078044400F010F9401BA042FAD370BDA4
:100C6000600000202DE9F84F4FF0000C00230A68C7
:100C7000002A7DD0DFF8D8810F2708F1040909F197
:100C8000040A0AF1040B012202FA0CF60A68324047
:100C9000B2426ED1DFF8BCE14C68A4EB0E0574459E
:100CA0002BD00DDC032C34D005DC34B3012C19D04F
:100CB000022C2FD11BE0112C16D0122C2AD119E0B6
:100CC000B5F5881F19D006DCB5F5803F15D0B5F510
:100CD000801F1FD111E0B5F5001F0ED0B5F5041F20
:100CE00018D10AE0CB6815E0CB681B1D12E0CB6879
:100CF00008330FE0CB680C330CE08B6823B1012B79
:100D000004D00823466105E0042303E008230661BC
:100D100000E00023B2F5807F01D2054601E000F13A
:100D2000040502D24FEA8C0403E0ACF108044FEA58
:100D300084042E6807FA04FE26EA0E0603FA04F479
:100D400046EA04042C604C6814F0805F77D0424C73
:100D5000A56945F00105A561A46904F001040094AA
:100D60002CF0030404F1804404F58034A66801E00B
:100D70006CE064E04FEA8C752D0F07FA05FE26EA59
:100D80000E0EA0F18046B6F5843600D115E0A0F134
:100D90008046B6F5863601D101260EE0A0F18046E8
:100DA000B6F5883601D1022607E0A0F18046B6F5F7
:100DB0008A3601D1032600E0042606FA05F545EA45
:100DC0000E05A5604C6814F4803F05D0D8F80040AB
:100DD0001443C8F8004004E0D8F800409443C8F831
:100DE00000404C6814F4003F05D0D9F8004014438B
:100DF000C9F8004004E0D9F800409443C9F8004025
:100E00004C6814F4801F05D0DAF800401443CAF887
:100E1000004004E0DAF800409443CAF800404C680F
:100E200014F4001F05D0DBF800402243CBF800206B
:100E300005E0DBF8004024EA0202CBF800200CF1C8
:100E4000010C0A6832FA0CF27FF41DAFBDE8F88F8E
:100E500000040140000011100010024080680842A8
:100E600001D00120704700207047002A01D00161A5
:100E700070470904016170470148806870470000AD
:100E80006000002070B50446002C04D094F83D00AA
:100E9000002510B106E0012070BD84F83C502046CA
:100EA00000F0F6FA242084F83D002068016821F063
:100EB000010101602068016841F40041016020687F
:100EC000016821F40041016001F092FA514B616820
:100ED000994203D85049884203D304E04F498842DD
:100EE00001D2012070BD4E49B0FBF1F12268D2F869
:100EF00004C02CF03F0C4CEA010CC2F804C062683C
:100F00009A4201D84A1C07E04FF4967251434FF4BD
:100F10007A72B1FBF2F14A1C2168D1F820C02CF0A2
:100F20003F0C42EA0C020A62616899420AD8490001
:100F3000401EB0FBF1F0401CC0F30B00042822D28D
:100F4000042020E0A268002A50D001EBC10303EB8B
:100F50000113A0F1010CBCFBF3F35B1C43F48043D1
:100F60001B051B0D4AD0002A4AD001EBC10202EB3F
:100F70000111401EB0FBF1F0401CC0F30B0040F427
:100F8000804040F400402168CA6922F0FF0222F448
:100F90004F421043C861216AE0690143206802683A
:100FA00022F0C00211430160E1682069014320681A
:100FB000826822F0FF0222F4034211438160A1699A
:100FC000606901432068C26822F0FF021143C160DA
:100FD0002068016841F0010101602564202084F847
:100FE0003D00256384F83E50002070BD01EB4103B5
:100FF000A0F1010CBCFBF3F35B1CB1E70120C2E7DD
:1010000001EB4101401EB0FBF1F0401CC0F30B00AE
:10101000B7E70000A086010080841E0000093D00A3
:1010200040420F002DE9F04F83B00446DDF830A0B8
:1010300089461746984600260296FFF71DFF05468B
:1010400094F83D00202803D003B00220BDE8F08FC3
:1010500019230122B2492046009502F0D8F818B1B0
:1010600003B00220BDE8F08F94F83C00012808D0BE
:10107000012084F83C002068016811F0010F04D0C1
:1010800007E003B00220BDE8F08F016841F00101E4
:1010900001602068016821F400610160222084F869
:1010A0003D00102084F83E0026646762A4F82A8080
:1010B000608D20859B48E0622B465246494620467B
:1010C00001F08CFF18B103B00120BDE8F08F208D36
:1010D00060B3012833D0022841D02068016841F470
:1010E000806101602068416980690190208D20271E
:1010F000002800F00B81DFF830B2DFF8308246F2D2
:10110000A819208D032800F2D680012837D00228A4
:101110004DD05346002259462046009502F077F8FC
:10112000002872D003B00120BDE8F08F206841692B
:1011300081690191016841F400710160D6E720687E
:10114000016821F48061016072B62068416981699B
:101150000191016841F40071016062B6C6E7206840
:10116000016841F40061016072B6206841698169DB
:101170000191016821F48061016062B6B6E72A46F8
:101180005146204602F002F918B103B00120BDE833
:10119000F08F20680069616A0870606A401C6062B4
:1011A000208D401E2085608D401E6085AAE053463C
:1011B000002259462046009502F029F818B103B0E4
:1011C0000120BDE8F08F72B62068016841F400711B
:1011D000016020680069616A0870606A401C606292
:1011E000218D491E2185618D491E618562B6216868
:1011F00009690170606A401C6062208D401E208574
:10120000608D401E60857DE0FFE72068016821F465
:101210008061016072B620680069616A0870606A66
:10122000401C6062208D401E2085608D401E6085C0
:10123000D8F80000B0FBF9F0C0EBC00000EB800074
:1012400002900298401E0290029820B320684069E4
:1012500010F0040FF5D02068016841F400710160BE
:1012600020680069616A0870606A401C6062218DB4
:10127000491E2185618D491E618562B62168096913
:101280000170606A401C6062208D401E2085608D68
:10129000401E608536E0266384F83D7084F83E6029
:1012A000206C40F02000206462B684F83C6003B0FB
:1012B0000120BDE8F08F2A465146204602F066F82C
:1012C00018B103B00120BDE8F08F20680069616AA1
:1012D0000870606A401C6062218D491E2185618D05
:1012E000491E618521684A6912F0040F0AD0096914
:1012F0000170606A401C6062208D401E2085608DF8
:10130000401E6085208D00287FF4FBAE84F83D7080
:1013100084F83E6084F83C6003B00020BDE8F08FA4
:10132000020010000000FFFF040001006C0000201C
:101330002DE9F84F04468A46904699460A9FFFF7E2
:101340009BFD064694F83D00202802D00220BDE80F
:10135000F88F192301224C492046009601F057FFCF
:1013600010B10220BDE8F88F94F83C00012808D0A5
:10137000012084F83C002068016811F0010F03D0BF
:1013800006E00220BDE8F88F016841F0010101602C
:101390002068016821F400610160212084F83D008B
:1013A000102084F83E0000252564C4F82480A4F8A9
:1013B0002A90608D20853548E06233463A46514692
:1013C000204601F09DFE10B10120BDE8F88F206895
:1013D000416980690090208D002846D03246394608
:1013E000204602F011F850B1206C042804D1206886
:1013F000016841F4007101600120BDE8F88F606A66
:10140000216800780861606A00F1010CC4F824C00A
:10141000608D401E6085208D401E80B22085226830
:10142000516911F0040F0CD058B19CF80000106104
:10143000606A401C6062608D401E6085208D401E89
:10144000208532463946204601F0B4FE50B1206C6A
:10145000042804D12068016841F400710160012072
:10146000BDE8F88F208D0028B8D12068016841F4CC
:1014700000710160202084F83D0084F83E5084F81B
:101480003C500020BDE8F88F020010000000FFFF74
:1014900030B585B0002100910191029103911E4D5C
:1014A00003681E4C122103221D48AB4216D1A369CA
:1014B00043F00803A361A369039203F008030493B4
:1014C000C023CDE900316946FFF7CCFBE06940F469
:1014D0000010E061E06900F4001019E0114DAB422A
:1014E00017D1A36943F00803A361A369039203F032
:1014F000080304934FF44063CDE900316946FFF7D8
:10150000B1FBE06940F48000E061E06900F4800034
:10151000049005B030BD00000054004000100240AF
:10152000000C0140005800400248816802781144D4
:10153000816070476000002010B50748016841F0E5
:1015400010010160032000F08FF8002000F006F881
:1015500000F026F8002010BD0020024070B50446BF
:101560000D4D4FF47A712878B1FBF0F00B49096802
:10157000B1FBF0F001F040FA08B1012070BD102C71
:1015800007D200222146501E00F038F86C6000207F
:1015900070BD012070BD0000600000206C000020C4
:1015A0000C4808B5816941F001018161816901F050
:1015B00001010091C16941F08051C161C06900F031
:1015C000805000900448416821F0E06141F00071D2
:1015D000416008BD001002400000014000280BDB04
:1015E00000F01F01012202FA01F140094FF0E02250
:1015F00002EB8000C0F800117047000010B4174BD8
:101600001B68C3F30223C3F1070CBCF1040F01D91B
:101610004FF0040C1C1D072C01D2002300E0DB1E40
:10162000012404FA0CFCACF1010C0CEA010101FAF2
:1016300003FC04FA03F1491E11404CEA01010028A1
:1016400004DB074A0901815410BC7047054A00F0C9
:101650000F000901815410BC704700000CED00E040
:1016600000E400E014ED00E000F00700064A116815
:101670004FF6FF03194041EA002040F0FD7040F0B2
:1016800080601060704700000CED00E011F0800FEA
:1016900007D001F0070101EB810100EBC100283008
:1016A00005E001EB810100EBC10000F5B47099B2D7
:1016B00032B1012202730181190C4181002070476F
:1016C00000220273C180F9E7704701EB810200EB51
:1016D000C202D0F8E802D26B02F05ABF01EB8102DD
:1016E00000EBC202D0F8E802D2F87C2102F0BBBFC6
:1016F00070B5044611F0800F01F0070000EB800187
:1017000004EBC1014FF001024FF0000502D0283177
:101710004A7002E001F5B4714D70087094F8A802A7
:10172000012808D084F8A822206803F0AAFC84F8D5
:10173000A852002070BD022070BD70B5044601F0B3
:101740000F006268904201D9012070BD11F0800F36
:1017500001F0070000EB800104EBC1014FF0010232
:101760004FF0000502D028314A7002E001F5B47153
:101770004D708D70087094F8A802012808D084F884
:10178000A822206803F059FD84F8A852002070BDFB
:10179000022070BD2DE9F0470B78D1F818C004681D
:1017A00012F4804F4FF0000848F2800748F2C0055D
:1017B0004FF480663ED0B4F850904FF0020A0AEB26
:1017C000C30AD14406EB4906A45BC4F30904A4454B
:1017D00004D3ACEB040CC1F818C001E0C1F81880C8
:1017E000D1F818C0BCF1000F0CD1D0F800C03CF803
:1017F000236026F0700626F4804686F400563E43A9
:101800002CF8236012F0400F0BD00B78026832F8EE
:1018100023C02CF0700C2CF4E04C4CEA050C22F8A0
:1018200023C0002C43D00A8949690068234604F08C
:1018300052F93CE0B4F850904FF0060A0AEBC30AA4
:10184000D14406EB4906A45BC4F30904A44504D3C0
:10185000ACEB040CC1F818C001E0C1F81880D1F855
:1018600018C0BCF1000F0CD1D0F800C03CF82360C8
:1018700026F0700626F4804686F400563E432CF887
:10188000236012F0400F0BD10B78026832F823C0AE
:101890002CF0700C2CF4E04C4CEA050C22F823C020
:1018A0002CB14A8949690068234604F014F920469E
:1018B000BDE8F0872DE9F05F05460C461646217815
:1018C000A269286816F0400F4CF280074FF6FF73AC
:1018D0004FF4806E4FF002094FF006084FF0000CF5
:1018E00000F0D680B0F850B009EBC10AD3440EEB3B
:1018F0004B0B30F80B00C0F30900824202D9121AD8
:10190000A26101E0C4F818C0A26992B116F4804F38
:1019100009D02A6832F8216026F0700626F4E046E5
:101920003E4322F8216094F82410012957D000F09A
:1019300084B9607810B1012811D018E02868B0F897
:101940005010084400EB4A0000F58060018821F443
:10195000F8410180018841F40041018007E02868D6
:10196000B0F85010084400EB4A00A0F800C4286802
:10197000617811B1012913D01CE0B0F8501008446F
:10198000217808EBC10100EB410000F5806001887F
:1019900021F4F8410180018841F40041018009E00F
:1019A000B0F850100844217808EBC10100EB410069
:1019B000A0F800C421782846FFF787FE16F4804F70
:1019C00000F03B812078296831F8202022F0700255
:1019D00022F4E0423A4321F8202000F02EB9616958
:1019E00001446161E1690144E1612269216A914236
:1019F00003D31046091A216205E049B184F824C0D6
:101A00000846C4F820C0617829B101292ED038E0F9
:101A100084F824C0F7E72968B1F8502011442278EF
:101A200009EBC20201EB420101F5806150B13E2891
:101A300011D8420810F0010F00D0521C03EA822294
:101A40000A801EE00A8822F4F8420A800A8842F4DA
:101A500000420A8015E0420910F01F0F00D1521E0B
:101A60004FF4004343EA82220A800AE02968B1F871
:101A700050201144227809EBC20201EB4201A1F887
:101A8000000483B222896169286804F04BF8D4E02D
:101A9000B0F850A008EBC10BDA440EEB4A0A30F85C
:101AA0000A00C0F30900824202D3121AA26101E0C7
:101AB000C4F818C0A2691AB116F4804F58D061E07A
:101AC000607810B1012813D01CE02868B0F85020CD
:101AD000104409EBC10100EB410000F58060018872
:101AE00021F4F8410180018841F40041018009E0BE
:101AF0002868B0F85020104409EBC10100EB410008
:101B0000A0F800C42868617811B1012913D01CE045
:101B1000B0F850100844217808EBC10100EB4100F7
:101B200000F58060018821F4F8410180018841F4CA
:101B30000041018009E0B0F850100844217808EB1A
:101B4000C10100EB4100A0F800C421782846FFF74E
:101B5000BCFD16F4804F70D12178286830F8212020
:101B600022F0700222F4E0423A4320F8212064E09F
:101B70002A6832F8216026F0700626F4E0463E43DB
:101B800022F8216094F82410012956D1616901449A
:101B90006161E1690144E1612269216A914203D3F3
:101BA0001046091A216205E051B10846C4F820C068
:101BB00084F824C0296862782AB1012A2DD036E041
:101BC00084F824C0F6E7B1F850201144227808EBDD
:101BD000C20201EB420101F5806150B13E2811D8EB
:101BE000420810F0010F00D0521C03EA82220A8042
:101BF0001DE00A8822F4F8420A800A8842F4004272
:101C00000A8014E0420910F01F0F00D1521E4FF459
:101C1000004343EA82220A8009E0B1F850201144CF
:101C2000227808EBC20201EB4201A1F8000483B262
:101C300062896169286803F075FF2078296831F8A6
:101C4000202022F4415222F4804282F0100282F0DD
:101C5000200248F280031A4321F820200020BDE82A
:101C6000F09F01F0070101EB810100EBC100D0F80A
:101C70008401704770B5044611F0800F01F0070031
:101C800000EB800104EBC1014FF0010C4FF00005A7
:101C900003D0283181F801C002E001F5B4714D7024
:101CA00008700A61CB704A7802B1C881022B00D15A
:101CB0000D7194F8A802012808D084F8A8C2206801
:101CC00003F05CF8284684F8A85270BD022070BD6D
:101CD00010B501F0070C0CEB8C0100EBC10101F514
:101CE000B4714A618B610022CA614A7081F800C0F8
:101CF000BCF1000F04D0006803F00BFB002010BD06
:101D0000006803F006FBF9E770B504460D4661680C
:101D100005F00700884201D9012070BD15F0800F41
:101D20004FF000064FF0010206D000EB800104EBFB
:101D3000C10128314A7006E005EB850104EBC101C1
:101D400001F5B4714E708A70087094F8A8020128E9
:101D500008D084F8A822206803F0BCFA15F0070F19
:101D600002D006E0022070BD04F52C71206803F05B
:101D700062FA84F8A862002070BD10B501F0070C6B
:101D80000CEB8C0100EBC10128314A618B6101220F
:101D900081F824200B620023CB614A7081F800C0D7
:101DA000BCF1000F04D0006803F0B3FA002010BDAE
:101DB000006803F0AEFAF9E710B584B00446206875
:101DC00003F086FE10F4004F02D0204601F06CFCB8
:101DD000206803F07DFE10F4806F0DD02068B0F80D
:101DE000441021F48061A0F84410204600F040F92E
:101DF0000021204600F057F9206803F069FE10F436
:101E0000804F06D02068B0F8441021F48041A0F83B
:101E10004410206803F05CFE10F4005F06D02068D8
:101E2000B0F8441021F40051A0F84410206803F0E9
:101E30004FFE10F4805F17D02068B0F8401021F0FA
:101E40000401A0F840102068B0F8401021F008010B
:101E5000A0F84010204600F01EF92068B0F84410A9
:101E600021F48051A0F84410206803F031FE10F4F2
:101E7000006F45D0002021686A4631F8203022F8F2
:101E80001030401CC0B20828F7D3B1F8400040F031
:101E90000100A1F840002068B0F8401021F00101D5
:101EA000A0F840102068B0F8441011F4806FFAD008
:101EB000B0F8441021F48061A0F844100020236899
:101EC00032F8101023F82010401CC0B20828F6D3B6
:101ED0002068B0F8401041F00801A0F840102068D8
:101EE000B0F8441021F40061A0F844102068B0F864
:101EF000401041F00401A0F84010204600F008F91D
:101F0000206803F0E5FD10F4007F09D02068B0F8E8
:101F1000441021F40071A0F84410204600F0BFF8EE
:101F2000206803F0D5FD10F4807F06D02068B0F85B
:101F3000441021F48071A0F8441004B010BDF0B535
:101F400085B00446002C04D094F8A902002518B1ED
:101F500007E005B00120F0BD84F8A852204600F04B
:101F600069F8032084F8A902206803F05CF904F101
:101F700010000FC88DE80F00206A049094E80F004D
:101F800003F07DF8022720B184F8A97205B0012082
:101F9000F0BD0021206803F0BCFD0021606801262F
:101FA000002812D901EB810004EBC00080F8296001
:101FB00080F82810C18680F82B508563C5630564BE
:101FC000481CC1B260688842ECD8002160680028D3
:101FD00014D901EB810004EBC00080F8695180F84E
:101FE000681180F86B51C0F87851C0F87C51C0F886
:101FF0008051481CC1B260688842EAD804F11000E0
:102000000FC88DE80F00206A049094E80F0003F0D9
:10201000FEF820B184F8A97205B00120F0BD84F863
:10202000245084F8A962206803F0EFF805B000207E
:10203000F0BD000008B50068A0F18041B1F5B841DD
:1020400012D10A48C16941F40001C161C06900F4BC
:1020500000000090002211461420FFF7CFFABDE8DF
:1020600008401420FFF7BABA08BD00000010024073
:1020700070B504460125A068022801D0FEF743FA96
:102080002946D4F8E80202F0DEFBD4F8E802BDE805
:10209000704002F099BBD0F8E80202F0BEBBD0F865
:1020A000E80202F0C4BB10B5044694F8A802012867
:1020B0000BD0012084F8A80284F82410206803F0D3
:1020C0002AFD002084F8A80210BD022010BDD0F81F
:1020D000E82200F52C71104602F0C1BB10B5044691
:1020E00094F8A802012810D0012084F8A8022068E2
:1020F00003F0DEFC01212046FFF7E6FA206803F03A
:1021000082F8002084F8A80210BD022010BD000053
:1021100010B50446D4F8E80202F0E2FBA0690028FA
:1021200004D00348016841F00601016010BD0000C1
:1021300010ED00E02DE9F8430446DFF81C8120781B
:1021400010F0010F6CD00027D8F81C0010F0805F51
:102150000BD1D8F81C0040F08050C8F81C00D8F80B
:102160001C0000F08050009001273C4D286810F4BE
:10217000807F16D1286840F480702860FEF77CFECE
:102180000646286810F4807F0BD1FEF775FE801B91
:10219000642802D90320BDE8F883286810F4807F02
:1021A000F3D0D8F8200000F4407048B3A18801F4BF
:1021B0004071814224D0D8F8200020F44070284992
:1021C00001220A6000220A60C8F8200010F0010F06
:1021D00016D0FEF751FE0546D8F8200010F0020F89
:1021E0000ED141F28836FEF747FE401BB04202D9BD
:1021F0000320BDE8F883D8F8200010F0020FF2D0D9
:10220000D8F82000616820F440700843C8F8200026
:10221000012F05D1D8F81C0020F08050C8F81C0010
:10222000207810F0020F07D0D8F80400A16820F43D
:1022300040400843C8F80400207810F0100F07D081
:10224000D8F80400E16820F480000843C8F80400CE
:102250000020BDE8F883000000100240007000403C
:10226000400442422DE9F04704460D46002C17D0A9
:10227000DFF85C81D8F8000000F00700A84212D215
:10228000D8F8000020F007002843C8F80000D8F86C
:10229000000000F00700A84205D00120BDE8F0874B
:1022A0000120BDE8F08720684A4E10F0020F14D0DC
:1022B00010F0040F03D0706840F4E0607060207884
:1022C00010F0080F03D0706840F4605070607068C0
:1022D00020F0F001A06808437060207810F0010F32
:1022E0003AD06068012806D002280BD0316811F07E
:1022F000020F27D00AE0316811F4003F06D1012017
:10230000BDE8F087316811F0007F18D0716821F0C6
:10231000030108437060FEF7AFFD0746706861680F
:1023200000F00C00B0EB810F16D041F28839FEF7B7
:10233000A3FDC01B484508D90320BDE8F087012054
:10234000BDE8F0870120BDE8F0877068616800F0A3
:102350000C00B0EB810FEAD1D8F8000000F00700C4
:10236000A8420FD9D8F8000020F007002843C8F889
:102370000000D8F8000000F00700A84202D00120B9
:10238000BDE8F087207810F0040F05D07068E16890
:1023900020F4E06008437060207810F0080F06D049
:1023A0007068216920F4605040EAC100706000F05C
:1023B0003FF87168084AC1F30311515CC8400749EE
:1023C000086007480068FFF7C9F80020BDE8F087FB
:1023D00000200240001002407E6300086C000020D4
:1023E0006400002001480068704700006C00002075
:1023F00000B5FFF7F7FF04494968044AC1F3022119
:10240000515CC84000BD0000001002408E6300080F
:1024100000B5FFF7E7FF04494968044AC1F3C22148
:10242000515CC84000BD0000001002408E630008EF
:1024300085B015A0836842680168C0680393029262
:102440000191049014A000680090144B596814483E
:1024500001F00C02042A11D0082A0FD101A8C1F3FF
:102460008342805C11F4803F0AD05968C1F3404137
:102470001DF801100A4A5043B0FBF1F005B0704757
:10248000084905B0484370470203040506070809D8
:102490000A0B0C0D0E0F101001020000001002407C
:1024A00000127A0000093D002DE9F84F0446002C87
:1024B0000FD02078F84D10F0010F6CD0686800F054
:1024C0000C0004280CD0686800F00C00082803D029
:1024D00010E00120BDE8F88F686810F4803F09D053
:1024E000286810F4003F56D06068002853D10120BE
:1024F000BDE8F88F6068B0F5803F15D0C8B1B0F581
:10250000A02F1FD0286820F480302860286820F48D
:1025100080202860606858B3FEF7AEFC0646286845
:1025200010F4003F17D036E0286840F4803028606F
:10253000F0E7286820F480302860286820F48020A4
:102540002860E7E7286840F480202860286840F485
:1025500080302860DEE7FEF78FFC801B642802D9FC
:102560000320BDE8F88F286810F4003FF3D012E094
:10257000FEF782FC0646286810F4003F0BD0FEF7F9
:102580007BFC801B642802D90320BDE8F88F2868F3
:1025900010F4003FF3D12078C04F10F0020F4FF03D
:1025A000010B4FF0000854D0686810F00C0F14D0E5
:1025B000686800F00C00082803D1686810F4803FB8
:1025C0000BD0206978B3C7F800B0FEF755FC06467B
:1025D000286810F0020F12D01DE0286810F0020FDA
:1025E00005D02069012802D00120BDE8F88F2868B5
:1025F000616920F0F80040EAC100286029E0FEF798
:102600003BFC801B022802D90320BDE8F88F286814
:1026100010F0020FF3D02868616920F0F80040EA5A
:10262000C100286015E0FFE7C7F80080FEF724FC32
:102630000646286810F0020F0BD0FEF71DFC801B29
:10264000022802D90320BDE8F88F286810F0020F95
:10265000F3D1207810F0080F30D09148A169C1B1B2
:10266000C0F800B0FEF708FC0646686A10F0020FDA
:102670000BD1FEF701FC801B022802D90320BDE824
:10268000F88F686A10F0020FF3D0012001F0BAF958
:1026900014E0C0F80080FEF7EFFB0646686A10F011
:1026A000020F0BD0FEF7E8FB801B022802D90320A3
:1026B000BDE8F88F686A10F0020FF3D1207810F0AF
:1026C000040F6FD00026E86910F0805F08D1E86938
:1026D00040F08050E861E86900F0805000900126E9
:1026E000DFF8C0A1DAF8000010F4807F1BD1DAF81F
:1026F000000040F48070CAF80000FEF7BDFB814680
:10270000DAF8000010F4807F0DD1FEF7B5FBA0EBE6
:102710000900642802D90320BDE8F88FDAF8000028
:1027200010F4807FF1D0E068012816D0D0B10528E0
:1027300021D0286A20F001002862286A20F00400D5
:102740002862E06841F2883A68B3FEF795FB81465B
:10275000286A10F0020F17D03AE0286A40F0010012
:102760002862EEE7286A20F001002862286A20F03B
:1027700004002862E5E7286A40F004002862286A1D
:1027800040F001002862DCE7FEF776FBA0EB0900D1
:10279000504502D90320BDE8F88F286A10F0020FD7
:1027A000F2D015E01AE0FFE7FEF766FB8146286AE3
:1027B00010F0020F0CD0FEF75FFBA0EB09005045B4
:1027C00002D90320BDE8F88F286A10F0020FF2D179
:1027D000012E03D1E86920F08050E861E069E8B398
:1027E000696801F00C0108295ED0022810D0C7F8F2
:1027F0006080FEF741FB0446286810F0007F66D039
:10280000FEF73AFB001B022841D90320BDE8F88FF0
:10281000C7F86080FEF730FB0646286810F0007F9E
:102820000BD0FEF729FB801B022802D90320BDE84C
:10283000F88F286810F0007FF3D1206AB0F5803F50
:1028400005D16868A16820F4003008436860616AB7
:10285000206A0843696821F4741100E037E00843F6
:102860006860C7F860B0FEF707FB0446286810F000
:10287000007F2CD1FEF700FB001B022802D90320A9
:10288000BDE8F88F286810F0007FF3D01FE02868BB
:1028900010F0007FB4D11AE0001002400000424264
:1028A000800442420070004001280DD06868226A0E
:1028B00000F48031914204D1616A00F470108842C2
:1028C00005D00120BDE8F88F0120BDE8F88F002079
:1028D000BDE8F88F70B50446002C09D0606A002569
:1028E00040B125616561A56294F8510040B10CE0EA
:1028F000012070BD6068B0F5827FF4D0E561F2E739
:1029000084F85050204600F03FF8022084F851002F
:102910002068016821F040010160A088218900F44D
:10292000827001F404410843A18901F40061084365
:10293000217C01F002010843217D01F001010843DF
:10294000218B01F400710843217F01F03801084315
:1029500094F8201001F080010843218D01F400510A
:10296000084321680860A169042000EA1140216839
:1029700048602068C16921F40061C161656501207A
:1029800084F85100002070BD30B585B0002400945B
:1029900001940294039400681449884223D1144896
:1029A000816941F480518161816901F48051049110
:1029B000816941F00401816180690E4D00F00400DD
:1029C0000490A0200090022001900320039069460B
:1029D0002846FEF747F94020CDE90004694628461D
:1029E0000294FEF73FF905B030BD00000030014011
:1029F0000010024000080140401EB0F1807F01D36A
:102A0000012070474FF0E0214861044AF020107027
:102A100000208861072008610020704723ED00E056
:102A200030B490F83C20012A2CD0012480F83C409E
:102A3000022280F83D200268D2F804C093682CF08E
:102A4000700C0D6845EA0C0CC2F804C00268A2F1D3
:102A5000804CBCF5963C08D0B2F1804F05D01CF5F7
:102A6000943C02D0BCF5806C04D123F0800349680B
:102A70001943916080F83D40002180F83C1030BC43
:102A80000020704730BC0220704710B50446002C6F
:102A900003D094F83D0010B107E0012010BD0020E4
:102AA00084F83C00204600F01FF8022084F83D0026
:102AB000211D206801F000F8012084F8460084F808
:102AC0003E0084F83F0084F8400084F8410084F818
:102AD000420084F8430084F8440084F8450084F8F8
:102AE0003D00002010BD000008B50068B0F1804F27
:102AF00008D10548C16941F00101C161C06900F018
:102B00000100009008BD00000010024070B50446AE
:102B100094F83C00012818D0012584F83C5002208C
:102B200084F83D002068826822F0770222F47F4218
:102B300082600868502832D00EDC20284DD006DC98
:102B400000284AD010284DD147E0022070BD30281F
:102B500043D0402846D136E060282AD0702806D0DD
:102B6000B0F5805F3ED0B0F5005F3BD10BE0CB68A5
:102B70004A688968206800F0EAFF2068816841F0AF
:102B8000770181602EE0CB684A688968206800F090
:102B9000DEFF2068816841F48041816022E0CA68DC
:102BA0004968206801F0A9F85021206800F0DAFF98
:102BB00018E0CA684968206801F0B2F8602120680E
:102BC00000F0D0FF0EE0CA684968206801F095F86F
:102BD0004021206800F0C6FF04E02268014610464C
:102BE00000F0C0FF84F83D50002084F83C0070BD28
:102BF00000B585B000210091019102910391006818
:102C0000B0F1804F1AD10E48816941F0080181610D
:102C10008069694600F008000490082000900220B6
:102C2000019003900748FEF71DF80748416821F41A
:102C3000407141F0E06141F48071416005B000BD38
:102C400000100240000C01400000014070B5044635
:102C50000D4694F83C0001280AD0012084F83C007D
:102C600042B1042A1AD0082A2DD00C2A53D13EE0B2
:102C7000022070BD2946206800F07CFF2068816931
:102C800041F0080181612068816921F004018161BE
:102C9000206881692A69114381613CE029462068E6
:102CA00000F09CFF2068816941F400618161206827
:102CB000816921F480618161206881692A6941EA22
:102CC0000221816127E02946206800F0BBFF2068CF
:102CD000C16941F00801C1612068C16921F00401A6
:102CE000C1612068C1692A691143C16113E02946A5
:102CF000206800F0DBFF2068C16941F40061C16118
:102D00002068C16921F48061C1612068C1692A69B4
:102D100041EA0221C161002084F83C0070BD10B579
:102D20000446002C03D094F83D0010B107E00120C8
:102D300010BD002084F83C00204600F01EF8022060
:102D400084F83D00211D206800F0B6FE012084F8C3
:102D5000460084F83E0084F83F0084F8400084F880
:102D6000410084F8420084F8430084F8440084F869
:102D7000450084F83D00002010BD704710B50446A2
:102D8000002909D004290AD008290BD094F8410061
:102D900001280AD0012010BD94F83E00F8E794F80D
:102DA0003F00F5E794F84000F2E7022049B3042918
:102DB0002AD008292BD084F841000122206800F095
:102DC000B7FE17492068884203D1426C42F40042A2
:102DD0004264206888420AD0B0F1804F07D0A0F149
:102DE0008041B1F5806102D0B1F5806112D1816876
:102DF00001F00701062911D0016841F001010160CD
:102E00000CE084F83E00D8E784F83F00D5E784F86A
:102E10004000D2E7016841F001010160002010BDCF
:102E2000002C014030B504460D460022294620689A
:102E300000F07EFE206841F211129110A0F1804353
:102E4000B3F5963309D1036A134206D1036A0B42E4
:102E500003D1436C23F4004343642068036A1342A4
:102E600006D1026A0A4203D1016821F00101016022
:102E700001203DB1042D08D0082D09D084F841006F
:102E8000002030BD84F83E00FAE784F83F00F7E701
:102E900084F84000F4E770B50446002C04D094F8A0
:102EA0003D00002510B106E0012070BD84F83C50C3
:102EB000204600F023F8242084F83D002068C168F3
:102EC00021F40051C160204600F03CFF20680169F8
:102ED00021F4904101612068416921F02A0141619A
:102EE0002068C16841F40051C1602564202084F845
:102EF0003D0084F83E00002070BD000070B586B033
:102F000000240094019402940394234E03682349FF
:102F100002200322224DB34219D18B6943F480432E
:102F20008B618B6903F4804304938B6943F0040342
:102F30008B618969039201F0040104910102CDE9DA
:102F4000001069462846FDF78DFE28151BE0154E3A
:102F5000B3421FD1CB6943F40033CB61CB6903F497
:102F6000003304938B6943F004038B6189690392F6
:102F700001F0040104910421CDE9001069462846BE
:102F8000FDF770FE0820CDE900046946284602944A
:102F9000FDF768FE06B070BD003801400010024029
:102FA0000008014000440040FEE701684A6912F44D
:102FB000806F11D06FF480624A610021016320228A
:102FC00080F83D2080F83E10026C42F0040202645A
:102FD00080F83C1001207047002070472DE9F84F21
:102FE00004460D4691461E46E06A21680A6842F48E
:102FF00080620A60082808D0012806D010F5803FBA
:1030000003D0206B112806D00AE02068016841F443
:103010008071016004E02068016841F48071016002
:103020004B4600224FF001112046009600F0EFF8C9
:103030004FF4007848B12068006810F4807F01D018
:10304000C4F840800320BDE8F88F2069DFF8ACA009
:10305000B0F5804F11D0216805F44077F02040EAA8
:10306000D710086133464A460AF10601204600F0AF
:1030700027F940B10120BDE8F88F2168E8B240F09F
:10308000010008612CE02168E8B2086133464A4635
:103090005146204600F014F910B10120BDE8F88F28
:1030A0002068416981690091016841F48071016083
:1030B0004B4600224FF001112046009600F0A7F881
:1030C00048B12068006810F4807F01D0C4F84080C7
:1030D0000320BDE8F88F2168F12040EAD71008618D
:1030E00033464A465146204600F0EAF810B1012026
:1030F000BDE8F88F0020BDE8F88F00000200010055
:10310000F8B504460D4617461E46E06A082808D062
:10311000012806D010F5803F03D0206B122806D07E
:103120000AE02068016841F48071016004E02068D1
:10313000016841F4807101603B4600224FF00111AB
:103140002046009600F063F848B12068006810F44B
:10315000807F02D04FF4007020640320F8BD206906
:10316000B0F5804F0FD005F44070F02141EAD01047
:103170002168086133463A460C49204600F0A0F821
:1031800030B10120F8BD216805F0FE00086102E0C1
:103190002168E8B2086133463A460549204600F006
:1031A0008FF808B10120F8BD0020F8BD080001002B
:1031B0000200010070B504460D46164620684069BD
:1031C00010F0040F12D12046FFF7EFFE08B10120E6
:1031D00070BD681C05D0FDF74FFE801BA84207D8C4
:1031E00035B12068406910F0040FECD0002070BDAC
:1031F00000202063202184F83D1084F83E00216CDB
:1032000041F02001216484F83C00012070BD2DE9CB
:10321000F0470446DDF820900D4617461E46C5F3DC
:1032200007482068B8F1010F21D0806925EA000025
:103230000004000C25D00020B84215D1701C06D027
:10324000FDF71AFEA0EB0900B0421CD8DEB1B8F1C0
:10325000010F28D02068806925EA00000004000CD6
:103260002CD00020B842E9D00020BDE8F0874069AA
:1032700025EA00000004000C01D00020DCE701205A
:10328000DAE70120D8E700202063202184F83D10F0
:1032900084F83E00216C41F02001216484F83C0058
:1032A0000120BDE8F0872068406925EA000000049D
:1032B000000C01D00020D5E70120D3E70120D1E7A1
:1032C0002DE9F04704460D4616461F46C5F307484C
:1032D0002068B8F1010F26D0806925EA00000004BB
:1032E000000C39D04FF000094FF0200A20684069E7
:1032F00010F4806F1ED02068016841F400710160F5
:1033000021686FF480604861C4F8309084F83DA073
:1033100084F83E90206C40F00400206484F83C90D7
:103320000120BDE8F087406925EA00000004000C98
:1033300012D0D7E7701C05D0FDF79EFDC01BB04230
:103340000DD866B1B8F1010F18D02068806925EA60
:1033500000000004000CC9D10020BDE8F087C4F8CB
:10336000309084F83DA084F83E90206C40F020001E
:10337000206484F83C900120BDE8F0872068406913
:1033800025EA00000004000CB0D1E5E72DE9F0418A
:1033900004460D4616462068406910F0400F22D1C1
:1033A00000274FF020082068406910F0100F0FD060
:1033B00021686FF010004861276384F83D8084F82D
:1033C0003E70206C206484F83C700120BDE8F081E0
:1033D000FDF752FD801BA84208D83DB12068406926
:1033E00010F0400FDFD00020BDE8F081276384F8A3
:1033F0003D8084F83E70206C40F02000206484F80A
:103400003C700120BDE8F08170B504460D461646BB
:103410002068406910F0800F12D12046FFF7C5FDEB
:1034200008B1012070BD681C05D0FDF725FD801B8B
:10343000A84207D835B12068406910F0800FECD061
:10344000002070BD00202063202184F83D1084F806
:103450003E00216C41F02001216484F83C000120F1
:1034600070BDF0B40023002A18D90A24302537266D
:103470009C46B4EB107F04D905EB107701F813706C
:1034800003E006EB107701F81370000101EB43072E
:1034900087F801C05B1CDBB29342EAD3F0BC7047F3
:1034A00010B5401A029CE41A6043511AB0FBF1F0C7
:1034B000184410BDFEB500241148009401940F4932
:1034C0000294016089158160012505730475022647
:1034D00006614FF460214460C161FDF709F90720DE
:1034E0000094CDE9015069460548FDF751F8CDE952
:1034F000005669460248FDF74BF8FEBD0024014026
:103500000C02002010B503490348FCF7FDFF0349F6
:10351000087010BD89000020740000208800002081
:1035200070B586B000241B48009401940294039463
:10353000816941F020018161816901F020010491DC
:10354000816941F004018161816901F00401049104
:10355000816941F00801816180690F4E00F0080027
:103560000490002201213046FDF77FFC1020012548
:103570008DE8310069460948FDF774FB0220CDE96A
:1035800002400095694601953046FDF76BFB06B099
:1035900070BD000000100240000C01400008014016
:1035A0000C480B494FF4007201604FF48271416086
:1035B00000218160C1600161C0E905121022C0E9EB
:1035C0000721416281620A21C162FFF783B90000CD
:1035D00000300140E402002010B58EB000240794B2
:1035E000089409940A940B941C2168460C94FCF7E7
:1035F000A0FD16484FF0804101604FF47A71C0E998
:1036000001146421C0E903148461FFF73EFA4FF40A
:103610008050079007A90D48FFF778FA0B48FFF78D
:103620007EFB0B940BA909480C94FFF7F9F9602075
:10363000CDE9000402940422694604480494FFF78B
:1036400005FB0248FFF7D4FA0EB010BD3C03002082
:1036500010B500220F49104800F072FF08B1FCF7C6
:1036600052FF0E490C4801F061F908B1FCF74BFF1D
:103670000B49094800F0AFFC08B1FCF744FF0648CD
:1036800001F006FA002803D0BDE81040FCF73BBF6C
:1036900010BD0000900000205C040020CC01002040
:1036A000E0000020FEE770472DE9F05F0446206847
:1036B000B0F8440010F4004F00F07B814FF0060892
:1036C0004FF002094FF480672068B0F8441001F011
:1036D0000F06002E47D030F826A01AF4004F00F055
:1036E000408130F8261021F0700121F4704141F042
:1036F000800120F8261006EB860004EBC00000F5E0
:10370000B475287B002800F0EA80E878022800F0F1
:10371000FB802978206830F8212022F0700222F402
:10372000E04248F2C0031A4320F82120297820689B
:1037300030F8212012F4804F00F0ED80B0F85020D6
:1037400009EBC101114407EB4101415AC1F3090BD7
:10375000BBF1000F00F0F1802A895B46696902F035
:10376000BAF900F0EAB811F0100F25D004F5B475DD
:10377000018811F4006F4FD0B0F850102A7808EB90
:10378000C202114407EB4101405AC0F30903EB6147
:10379000EA8804F52C71206802F09DF92068018800
:1037A00021F0700121F4704141F080010180204638
:1037B000FEF78DFC00F0F6B8018821F0F00121F44D
:1037C000E04141F40041018004F128052068B0F88F
:1037D00050102A7809EBC202114407EB4101405A0C
:1037E000C0F30900E8616969084468610021204666
:1037F000FDF76BFF94F8240000286FD0A86900281B
:103800006CD194F82400216840F08000A1F84C00AD
:10381000002084F82400C5E011F4004F5ED0018838
:1038200021F0700121F4704141F080010180206895
:10383000B0F850102A7808EBC202114407EB41019E
:10384000405AC0F30900E86170B1696961B183B29F
:10385000EA88206802F03FF9E9696869084468610C
:1038600000212046FDF73AFF2068018811F4006F1F
:1038700034D1B0F85010084400F20C40296961B10D
:103880003E2913D84A0811F0010F00D0521C4FF600
:10389000FF7101EA8221018012E0018821F4F841E0
:1038A0000180018841F40041018009E04A0911F0DA
:1038B0001F0F00D1521E4FF4004141EA82210180C6
:1038C0002068018821F0700121F4804181F4805149
:1038D00081F4005148F280021143018062E02068C7
:1038E000B0F850102A7808EBC202114407EB4101EE
:1038F000415AC1F3090BBBF1000F1ED0EA885B46A9
:10390000696902F0E8F818E0524629462046FDF7BA
:1039100041FF834611E0B0F8502008EBC10111448B
:1039200007EB4101415AC1F3090BBBF1000F04D071
:103930006A895B46696902F0CEF8E8695844E86133
:10394000686958446861A86910B12869584504D964
:1039500029782046FDF7C2FE03E02946206801F0E1
:10396000D8FC1AF0800F1DD006EB860004EBC000D7
:1039700000F12801206830F8262022F0F00222F41D
:10398000E04242F4004220F82620C878032813D0F1
:1039900090B1022802D11AF4807F0DD05246204601
:1039A000FDF788FF2068B0F8440010F4004F7FF462
:1039B0008BAE0020BDE8F09F2068B0F850200B7857
:1039C00009EBC3031A4407EB4202805AC0F3090013
:1039D0008A69824202D9121A8A6101E000228A6150
:1039E0008A694AB14A6902444A61CA691044C86195
:1039F000206801F08EFCD5E709782046FDF765FECA
:103A0000D0E7704781B008494FF4FA520968B1FB1A
:103A1000F2F14843009000BF0098411E0091002839
:103A2000F9D101B0704700006C0000207047000021
:103A30000549088808B1401E08800449088808B173
:103A4000401E0880FDF770BD1C0000201E000020F5
:103A500030B593B028216846FCF76BFB14210AA807
:103A6000FCF767FB002401200F94109411940104CB
:103A700012948DE8130004900005CDE9081002258A
:103A800007956846FEF710FD0F20CDE90A0568028C
:103A9000CDE90C4001210AA80E94FEF7E3FB1220A9
:103AA0000F9068031190000212900FA8FEF742FBDE
:103AB00013B030BD7047000030B40268194B1A4C87
:103AC000DFF868C0984206D0B0F1804F03D0A04222
:103AD00001D0604503D122F070024D682A4398421C
:103AE00006D0B0F1804F03D0A04201D0604505D18F
:103AF00022F44072D1F80CC04CEA0202D1F814C092
:103B000022F0800242EA0C0202608A68C2620A68FD
:103B10008262984201D1096901630121416130BC8F
:103B200070470000002C01400004004000080040E5
:103B300001F01F0101238B40D0F820C02CEA0303C1
:103B40000362036A02FA01F1194301627047D0F877
:103B500008C02CF47F4C42EA0322114341EA0C01D5
:103B600081607047826822F07002114341F00701C2
:103B70008160704710B4026A22F001020262036A97
:103B80004268D0F818C02CF0700C2CF0030C0C68B4
:103B900044EA0C0C23F002038C6823430E4CA04231
:103BA00006D123F00803CC6844EA030323F004039E
:103BB00009D122F4807222F400724C6944EA0202B4
:103BC0008C6944EA02024260C0F818C04968416347
:103BD000036210BC70470000002C014010B4026A60
:103BE00022F010020262036A4268D0F818C02CF476
:103BF000E04C2CF4407C0C684CEA042C23F02003AD
:103C00008C6843EA04130E4CA04206D123F08003D3
:103C1000CC6843EA041323F0400309D122F4806204
:103C200022F400624C6942EA84028C6942EA84020E
:103C30004260C0F818C049688163036210BC7047D5
:103C4000002C014010B4026A22F480720262036AFE
:103C50004268D0F81CC02CF0700C2CF0030C0C68DF
:103C600044EA0C0C23F400738C6843EA04230E4CE2
:103C7000A04206D123F40063CC6843EA042323F472
:103C8000806309D122F4805222F400524C6942EA46
:103C900004128C6942EA04124260C0F81CC04968F0
:103CA000C163036210BC7047002C014010B4026A6B
:103CB00022F480520262036A4268D0F81CC02CF4DD
:103CC000E04C2CF4407C0C684CEA042C23F40053A8
:103CD0008C6843EA0433A0F18044B4F5963404D1EF
:103CE00022F480424C6942EA84124260C0F81CC04F
:103CF00049680164036210BC7047036AD0F820C0B1
:103D00002CF0010CC0F820C0D0F818C02CF0F00C3A
:103D10004CEA021223F00A031943826101627047E0
:103D2000036A23F010030362D0F818C0036A2CF46E
:103D3000704C4CEA023223F0A00343EA0111826185
:103D40000162704710B5044620680169E26821F4F9
:103D50004051114301612169A06808436169014331
:103D60002068C26822F4037222F4A0521143C16099
:103D700020684169A26921F44071114341612068C2
:103D8000A0F18041B1F59C3102D1FEF741FB01E089
:103D9000FEF72EFB00EBC00101EB001061680E4A3C
:103DA0008900B0FBF1F1A2FB013040096FF018036C
:103DB000434301EB8303322101EB0311A2FB0121F9
:103DC000490901F0F00202EB001001F00F01084474
:103DD0002168886010BD00001F85EB5170B5D0F8D8
:103DE000B822D0F8C052002A1BD001EB810C00EBA6
:103DF0008C030026DC6954B105EBCC0CDCF838C030
:103E0000B4FBFCF50CFB154CBCF1000F03D0C2F861
:103E10001462002070BDDE6100231A4600F069FDC7
:103E2000F7E7022070BD70B50546D5F8B8422846C0
:103E300000F05EFCC4F80C02D5F8B80248B1D5F821
:103E4000BC12D4F80402CA6804F50371904700203C
:103E500070BD022070BD70B5044600268121204649
:103E600000F08DFB0025E5620121204600F087FB74
:103E7000C4F86C518221204600F081FB2564D4F8FF
:103E8000B80248B1D4F8BC0240688047D4F8B80200
:103E900000F06EFFC4F8B852304670BD10B5D0F8CF
:103EA000B842D0F8BC1200290BD094F80002FF28C9
:103EB00007D08B6894F8012221469847FF2084F8A8
:103EC0000002002010BD00000A2101800048704758
:103ED000F400002043210180004870474401002085
:103EE00043210180004870470001002043210180E8
:103EF000004870478801002070B504460026207CE9
:103F00000125002831D0402302228121204600F0E3
:103F100046FCE562402302220121204600F03FFCDE
:103F2000C4F86C51082303228221204600F037FC9C
:103F300025644FF4077000F01DFFC4F8B80230B3D9
:103F40000546D4F8BC02006880470020C5F814027A
:103F5000C5F81802207CE0B1402301212046D5F8A5
:103F6000042200F028FC304670BD4FF4007302229A
:103F70008121204600F013FCE5624FF40073022219
:103F80000121204600F00BFCC4F86C51CAE7012661
:103F9000E9E74FF4007301212046D5F8042200F030
:103FA0000AFCE0E710B5D0F8B812002911D0027C65
:103FB0003AB1D1F804224023012100F0FCFB00209B
:103FC00010BDD1F804224FF40073012100F0F3FB7F
:103FD000F5E7022010BD02460220002902D0C2F8F7
:103FE000BC1200207047D0F8B802C0F804120020BC
:103FF0007047D0F8B802C0F80812C0F810220020AC
:104000007047F0B583B005460C46D5F8B87200206D
:10401000029001900026207810F060012ED0202917
:1040200007D02146284600F089F8022603B0304622
:10403000F0BDE288D2B110F0800F0BD0D5F8BC12E1
:1040400060788B6839469847E2883946284600F000
:104050009BF8EBE7607887F80002A07987F8010207
:10406000E2883946284600F075F8DFE7D5F8BC123B
:10407000607800228B6821469847D7E7607848B17E
:104080000A2817D00B2825D02146284600F056F8DC
:104090000226CBE795F89C02032805D02146284646
:1040A00000F04CF80226C1E7022201A9284600F0E0
:1040B0006BF8BBE795F89C02032805D021462846FB
:1040C00000F03CF80226B1E7012202A9284600F0E0
:1040D0005BF8ABE795F89C020328A7D02146284659
:1040E00000F02CF80226A1E710B5D0F8B4225268EF
:1040F0009047002010BD90F89C22012A05D0022A8A
:1041000003D0032A01D000F019B84988012904D14D
:104110000021C0F8A41200F044B8704710B513464F
:104120000A46002100F047FB002010BD10B51346E1
:104130000A46002100F0DDFB002010BD10B504464A
:104140008021204600F0BAFB2046BDE81040002147
:1041500000F0B4BB10B50323C0F89432C0F85C2162
:10416000C0F8602113460A46002100F024FB00201D
:1041700010BD10B50521C0F8941200231A46194647
:1041800000F019FB002010BD10B50223C0F89432D6
:10419000C261026213460A46002100F0AAFB002019
:1041A00010BD10B50421C0F8941200231A46194618
:1041B00000F09FFB002010BD10B5002806D00A4675
:1041C000054906A000F088F9034810BD0A460249D7
:1041D00002A000F081F9F7E72007002043444320C4
:1041E000436F6E66696700001220088000487047C0
:1041F000B000002010B5002806D00A46054906A0E8
:1042000000F06AF9034810BD0A46024902A000F016
:1042100063F9F7E72007002043444320496E7465A3
:1042200072666163650000000420088000487047E2
:10423000AC00002010B50A46024903A000F04CF97A
:10424000004810BD2007002053544D6963726F650C
:104250006C656374726F6E696373000010B500283B
:1042600006D00A46054906A000F036F9034810BDFD
:104270000A46024902A000F02FF9F7E720070020C4
:1042800053544D3332205669727475616C20436FFC
:104290006D506F727400000010B51A200880FCF792
:1042A0005BF9014810BD0000C4000020CA88012A43
:1042B00001D0FFF743BF90F89C22012A05D0022AC3
:1042C00003D0032A08D0FFF739BF00218160012203
:1042D00000F10801FFF758BF0122011DFFF754BF8D
:1042E0002DE9F84304460F460020009000260025E3
:1042F0007888010A082970D2DFE801F0AB040C22AB
:10430000ABAB8B9AD4F8B012207C0A686946904710
:104310000646A3E0207C4FF0020840B1D4F8B40276
:10432000C16A68468847064686F8018096E0D4F858
:10433000B402816A68468847064686F801808DE0A7
:10434000C0B206285FD2DFE800F0031221303F4FF1
:10435000D4F8B002426822B1207C694690470646F4
:104360007CE039462046FFF7E9FE012576E0D4F8E7
:10437000B002826822B1207C6946904706466DE013
:1043800039462046FFF7DAFE012567E0D4F8B0028F
:10439000C26822B1207C6946904706465EE03946F5
:1043A0002046FFF7CBFE012558E0D4F8B0020269A1
:1043B00022B1207C6946904706464FE039462046A8
:1043C000FFF7BCFE012549E0D4F8B00242692AB1EA
:1043D000207C69469047064640E03AE03946204650
:1043E000FFF7ACFE012539E0D4F8B002826922B1B2
:1043F000207C69469047064630E039462046FFF764
:104400009DFE01252AE039462046FFF797FE01254B
:1044100024E0207C28B139462046FFF78FFE012595
:104420001CE0D4F8B402416B68468847064615E0A4
:10443000207C28B139462046FFF780FE01250DE09B
:10444000D4F8B402016B68468847064607217170AC
:1044500004E039462046FFF771FE0125002D12D1F8
:10446000BDF8000048B1FA883AB1824200D902464C
:10447000009231462046FFF787FEF888002802D1D7
:104480002046FFF78EFEBDE8F88300210278002A5F
:1044900005D0491CC9B2401C0278002AF9D108464F
:1044A000704790F89C22012A05D0022A03D0032AE3
:1044B00001D0FFF743BECA88022A01D0FFF73EBEF3
:1044C0000121C160D0F8A41209B10321C160022208
:1044D00000F10C01FFF758BE70B504460D461646B4
:1044E000002C1AD02046FFF7D0FF022101EB40003C
:1044F00030803078287003210220697021780029EB
:104500000BD0002214F8013B411CC9B22B54481CAB
:10451000C0B26A5421780029F4D170BD0146002050
:10452000002906D0012905D0022905D0032905D08C
:104530000220704702207047012070470220704718
:1045400010B5002810D0D0F8B43213B10023C0F851
:10455000B43209B1C0F8B012012180F89C12027087
:1045600000F0CAF8002010BD022010BD10B5D0F830
:10457000C002FDF7E2F8BDE81040FFF7CFBF10B56D
:10458000D0F8C002FDF7B4F8BDE81040FFF7C6BF91
:1045900070B504469446002909D0D4F8B4024269A3
:1045A0001AB194F89C02032859D0022070BD04F17E
:1045B0001400D4F894120025022904D0042940D014
:1045C00000293ED041E0C36801698B420DD9591AD8
:1045D000C1608AB261462046FFF7A8FD00231A4653
:1045E0001946204600F0E7F82FE08068B0FBF1F2B2
:1045F00001FB12029AB9884211D3D4F8981288426A
:104600000DD2002211462046FFF790FDC4F89852C3
:1046100000231A461946204600F0CDF815E0D4F8DC
:10462000B402C16829B194F89C02032801D1204644
:1046300088478021204600F041F92046FFF799FD88
:1046400003E08021204600F039F994F8A002012807
:1046500007D1204600F073F984F8A05201E020460B
:104660009047002070BD10B504460846114600284A
:1046700009D0D4F8B4128A691AB194F89C120329AB
:1046800031D0022010BD04F5AA70D4F89432032B67
:1046900002D0052B1FD029E0D0F810C0C3686345B5
:1046A0000BD9A3EB0C03C3600069834200D303461C
:1046B0009AB22046FFF732FD18E0D4F8B40201693F
:1046C00029B194F89C02032801D12046884720464E
:1046D000FFF767FD0AE00020C4F89402002120469D
:1046E00000F0ECF802E0014620469047002010BDA3
:1046F000D0F8C002FDF7B5BA10B504461D48C0F8A1
:10470000E842C4F8C0021C4901600821416002214E
:10471000816000218161C1610162FDF710FC08B177
:10472000FBF7F1FE002218231146D4F8C002FCF773
:10473000ADFF582300228021D4F8C002FCF7A6FF69
:10474000C02300228121D4F8C002FCF79FFF4FF460
:10475000887300220121D4F8C002FCF797FF4FF4C0
:10476000807300228221D4F8C002FCF78FFF002062
:1047700010BD0000C00B0020005C004011F0800F55
:1047800001F07F01D0F8C00201EB810100EBC10014
:1047900002D090F82A00704790F86A01704710B56F
:1047A0009C461346D0F8C0026246FDF763FABDE8A6
:1047B0001040FFF7B3BE10B5D0F8C002FDF788FA7D
:1047C000BDE81040FFF7AABE70B5044600224023A2
:1047D00011462046FFF7E3FF0125C4F85851402653
:1047E000C4F864614023002280212046FFF7D7FFF0
:1047F000A561666284F89C520020C4F8940260604F
:10480000C4F8A402D4F8B80228B1D4F8B402002144
:10481000426820469047002070BD90F89C12042901
:1048200003D190F89D1280F89C120020704710B5BB
:1048300090F89C12032904D1D0F8B412C96901B1CF
:104840008847002010BD01740020704710B5D0F8D3
:10485000C002FDF728FCBDE81040FFF75FBE10B5B1
:10486000044604F52A7000F04DF80120C4F89402C3
:10487000B4F8AE02C4F8980294F8A81211F01F0020
:104880000AD001280ED0022812D001F08001204663
:1048900000F014F8002010BD04F52A71204600F045
:1048A000FCF8F7E704F52A71204600F02EFAF1E74C
:1048B00004F52A71204600F030F9EBE710B5D0F886
:1048C000C002FDF721FABDE81040FFF727BE10B582
:1048D000D0F8C002FDF702FCBDE81040FFF71EBE95
:1048E00090F89C1280F89D12042180F89C12002000
:1048F000704710B5D0F8C002FDF73FFABDE8104090
:10490000FFF70CBE0A7802704A7842708A78CB783A
:1049100002EB032242800A794B7902EB0322828068
:104920008A79C97902EB0121C180704702460020D3
:10493000002902D0C2F8B41270470220704700204C
:10494000704770B504468888002821D1C888F8B916
:10495000488880281CD200F07F0594F89C02032828
:104960000DD084F89E5229462046FFF76FFF20465F
:10497000FFF717FC45B1022084F89C0270BD204669
:10498000BDE87040FFF7DABB012084F89C0270BDDF
:104990002046BDE87040FFF7D1BB10B50224D0F827
:1049A000B422002A03D01268904700B900242046A0
:1049B00010BD000070B504460D46304EA978317028
:1049C000012905D929462046BDE87040FFF7B6BB4E
:1049D00094F89C0202280BD0032823D029462046B5
:1049E000FFF7ACFB31782046BDE87040FFF77CBB99
:1049F00099B16160032084F89C022046FFF7CDFF47
:104A0000022804D02046BDE87040FFF7CABB294603
:104A10002046BDE87040FFF791BB2046BDE87040DE
:104A2000FFF7BFBB91B16068884221D0C1B2204678
:104A3000FFF75AFB317861602046FFF7AEFF02288E
:104A400010D02046BDE87040FFF7ABBB022084F8D1
:104A50009C0261602046FFF747FB2046BDE870409E
:104A6000FFF79FBB29462046BDE87040FFF766BBB5
:104A70002046BDE87040FFF794BB0000F000002026
:104A80004988012903D1C0F8A412FFF78ABB7047F7
:104A900010B5FFF71CFF002010BD10B584460024A0
:104AA000087810F060020ED0202A06D0402A04D0E8
:104AB0006046FFF743FB204610BDDCF8B402826875
:104AC00060469047F7E748780A2822D2DFE800F0EE
:104AD000151D211921090521110D6046FFF700FC64
:104AE000E9E76046FFF72DFFE5E76046FFF762FF65
:104AF000E1E76046FFF7DAFBDDE76046FFF7D1FC50
:104B0000D9E76046FFF7BCFFD5E76046FFF7F3FA49
:104B1000D1E76046FFF712FBCDE72DE9F0410446EF
:104B2000084600260179037813F0600211D0202A8C
:104B300008D0402A06D001462046FFF7FFFA30464B
:104B4000BDE8F081D4F8B4128A6801462046904747
:104B5000F5E703F06002202A0BD04278002A61D0EA
:104B6000012A37D0032A0CD001462046FFF7E6FA87
:104B7000E5E7D4F8B4128A6801462046BDE8F04162
:104B8000104794F89C22022A06D0032A14D001462A
:104B90002046FFF7D3FAD2E749B1802907D0204653
:104BA000FFF78CFE80212046FFF788FEC7E701460D
:104BB0002046FFF7C3FAC2E742883AB931B18029EB
:104BC00004D0C08810B92046FFF778FE2046FFF7D2
:104BD000E8FAB4E794F89C22022A06D0032A14D0FB
:104BE00001462046FFF7AAFAA9E749B1802907D074
:104BF0002046FFF763FE80212046FFF75FFE9EE719
:104C000001462046FFF79AFA99E74088002896D196
:104C100011F07F0F02D02046FFF7A8FC2046FFF7D7
:104C2000C0FA8CE794F89C220027022A06D0032AB7
:104C300026D001462046FFF781FA80E731B180296E
:104C400004D001462046FFF779FA78E711F0800F8B
:104C500008D001F07F0000EB800004EB800000F141
:104C6000140107E001F07F0000EB800004EB8000FE
:104C700000F5AA710F6002222046FFF785FA5EE771
:104C800011F0800F0CD001F00F0202EB820204EB56
:104C9000820292696AB901462046FFF74FFA4EE751
:104CA00001F00F0202EB820204EB8202D2F85821DB
:104CB0005AB111F0800F0DD001F07F0000EB8000A1
:104CC00004EB800000F114050CE001462046FFF7DC
:104CD00035FA34E701F07F0000EB800004EB800040
:104CE00000F5AA7541B1802906D02046FFF746FDA0
:104CF00020B10120286002E02F6000E02F60022236
:104D000029462046FFF740FA19E770B505460C46DC
:104D1000207810F0600209D0202A07D0402A05D060
:104D200021462846FFF70AFA002070BD95F89C221C
:104D3000012A08D0022A06D0032A04D02146284698
:104D4000FFF7FCF9F0E7207901280CD8D5F8B40278
:104D50002146826828469047E1880843E4D12846E6
:104D6000FFF71FFAE0E721462846FFF7E7F9DBE700
:104D70007047000000487047A00900202DE9F001AD
:104D8000002591F800C030F82C2022F4CE6222F4E5
:104D9000E042CB78002B7DD0012B79D0022B02D0C2
:104DA000032B7AD0012548F28004224320F82C20DE
:104DB0000A7830F8223023F0700323F4E0431343E1
:104DC000234320F822300A7B042748F2C0034CF228
:104DD0008006002A67D00A7830F822C02CF0700CC8
:104DE0002CF4E04C48F280184CEA080C20F822C061
:104DF000B0F85020024491F800C002EB0C12B1F858
:104E000008C02CF0010CA2F800C4B0F850200244F5
:104E100091F800C007EBCC0C02EB4C02B1F80AC0D1
:104E20002CF0010CA2F800C44A78002A76D00A7847
:104E300030F822C01CF4804F09D030F822C02CF08A
:104E4000700C2CF4E04C4CEA060C20F822C00A78D6
:104E500030F822C01CF0400F09D030F822C02CF0EE
:104E6000700C2CF4E04C4CEA030320F82230CA7892
:104E7000012A7DD00A7830F8223023F4415323F4FC
:104E8000804383F02003234320F82230E9E001E04F
:104E900006E002E042F4007285E742F4C06282E775
:104EA00042F480627FE74A78BAB3B0F850200244F7
:104EB00091F800C002EB0C12B1F806C02CF0010C06
:104EC000A2F800C40A7830F822C01CF0400F09D0C4
:104ED00030F822C02CF0700C2CF4E04C4CEA0303A8
:104EE00020F82230CA78012A0CD0097830F8212025
:104EF00022F4415222F4804282F02002224320F820
:104F00002120B8E0097830F8212022F4415222F41F
:104F10008042224320F82120ADE000E05EE0B0F8BE
:104F2000502002440B7807EBC30302EB4302CB880B
:104F300023F00103A2F80034B0F8502002440B78AB
:104F40004FF0060C0CEBC30302EB430202F5806248
:104F50000B6983B13E2B17D84FEA530C13F0010FA6
:104F600001D00CF1010C4FF6FF7303EA8C2300E033
:104F70006DE0138014E0138823F4F8431380138842
:104F800043F4004313800BE04FEA531C13F01F0F50
:104F900001D1ACF1010C4FF4004343EA8C231380A0
:104FA0000A7830F8223013F4804F08D030F82230DD
:104FB00023F0700323F4E043334320F822300978D0
:104FC00030F8212022F0700222F4804282F48052D4
:104FD00082F40052224320F821204CE00A7830F875
:104FE00022C01CF4804F09D030F822C02CF0700C85
:104FF0002CF4E04C4CEA060C20F822C00A7830F879
:1050000022C01CF0400F09D030F822C02CF0700CE8
:105010002CF4E04C4CEA030320F822300A7830F8F4
:10502000223023F0700323F4804383F4805383F40D
:105030000053234320F82230097830F8212022F44D
:10504000415222F48042224320F8212013E00A78C2
:1050500030F8223023F4415323F48043234320F8D3
:105060002230097830F8212022F0700222F48042A8
:10507000224320F821202846BDE8F0017047002097
:10508000704770B40E7B4B780A7848F2800C48F277
:10509000C0044CF28005002E41D0002B75D030F8B2
:1050A000223013F4804F08D030F8223023F0700300
:1050B00023F4E0432B4320F822300A7830F82230E2
:1050C00013F0400F08D030F8223023F0700323F49F
:1050D000E043234320F822300A7830F8223023F0CE
:1050E000700323F4E0432B4320F822300A7830F891
:1050F000223023F4415323F4804343EA0C0320F885
:105100002230097830F8212022F0700222F4804207
:1051100042EA0C0220F8212070BC00207047CBB17D
:1051200030F8223013F0400F08D030F8223023F04E
:10513000700323F4E043234320F82230097830F849
:10514000212022F4415222F4804242EA0C0220F84B
:105150002120E1E730F8223013F4804F08D030F8F6
:10516000223023F0700323F4E0432B4320F8223055
:10517000097830F8212022F0700222F4804242EABD
:105180000C0220F82120C7E7FFE730F8223013F4A3
:10519000804F08D030F8223023F0700323F4E0432E
:1051A0002B4320F822300A7830F8223013F0400FD9
:1051B00008D030F8223023F0700323F4E043234377
:1051C00020F822300A7830F8223023F0700323F4DC
:1051D000E043234320F822300A7830F8223023F0CD
:1051E000700323F4804343EA0C0320F8223009784B
:1051F00030F8212022F4415222F4804242EA0C028B
:1052000020F8212088E70020704700207047012106
:10521000A0F840100021A0F84010A0F84410A0F819
:10522000501000207047B0F8401021F43F41A0F822
:105230004010002070470020704710B40A7B002AFD
:1052400045D14A7848F2800C0AB30A7830F8223007
:1052500013F0400F0AD030F8223023F0700323F40B
:10526000E04348F2C004234320F82230CA78012AE0
:105270002DD0097830F8212022F4415222F48042C6
:1052800082F0200242EA0C0220F821201FE00A7876
:1052900030F8223013F4804F0AD030F8223023F057
:1052A000700323F4E0434CF28004234320F82230BF
:1052B000097830F8212022F0700222F4804282F432
:1052C000805282F4005242EA0C0220F8212010BCE5
:1052D000002070474A78097848F28003002A0BD0F2
:1052E00030F8212022F4415222F4804282F0100250
:1052F0001A4320F821200AE030F8212022F0700221
:1053000022F4804282F480521A4320F821200020A7
:1053100070472DE9F04F06460C4606276278217B40
:105320004FF0000B4FF0020A4FF6FF784FF40049A0
:10533000012A0CD0002900F08D82E078022800F0CC
:10534000BB82012800F037830120BDE8F08FA569FA
:105350002069854200D9054609B3E17848F28012F8
:1053600002292ED0207836F8201021F0700121F487
:10537000E041114326F82010206A401B206220786B
:1053800036F8201011F0400F00F0D6816178002926
:1053900000F05981012900F07D8100F084B9ABB2A1
:1053A000E2883046616900F0BDFBB6F85000304439
:1053B00021780AEBC10100EB4100A0F8005400F095
:1053C00038BA216A814240F22181207836F82010D3
:1053D00021F0700121F4E041114326F82010206AE9
:1053E000401B2062207836F8201011F0400F74D056
:1053F000617811B1012927D02FE0B6F8501031445F
:1054000007EBC00001EB400000F5806055B13E2D78
:1054100011D8690815F0010F00D0491C08EA812154
:1054200001801AE0018821F4F8410180018841F4EB
:105430000041018011E0690915F01F0F00D1491EDC
:1054400049EA8121018008E0B6F85020911907EB64
:10545000C00001EB4000A0F800546289ABB23046B6
:10546000616900F05FFB6069284460612169206A1E
:10547000884202D9401B206202E00546C4F820B0F1
:10548000607810B1012829D032E0B6F850003044DD
:1054900021780AEBC10100EB410000F5806055B1B5
:1054A0003E2D11D8690815F0010F00D0491C08EAFB
:1054B000812101801CE0018821F4F84101800188EC
:1054C00041F40041018013E0690915F01F0F00D17C
:1054D000491E49EA812101800AE011E0B6F8500036
:1054E000304421780AEBC10100EB4100A0F80054E0
:1054F0002289ABB23046616900F014FB00F099B923
:10550000617811B1012927D02FE0B6F8501031444D
:105510000AEBC00001EB400000F5806055B13E2D64
:1055200011D8690815F0010F00D0491C08EA812143
:1055300001801AE0018821F4F8410180018841F4DA
:105540000041018011E0690915F01F0F00D1491ECB
:1055500049EA8121018008E0B6F8501031440AEB95
:10556000C00001EB4000A0F800542289ABB23046E5
:10557000616900F0D7FA6069284460612169206A96
:10558000884202D9401B206202E00546C4F820B0E0
:10559000607810B1012828D031E0B6F850003044CE
:1055A000217807EBC10100EB410000F5806055B1A7
:1055B0003E2D11D8690815F0010F00D0491C08EAEA
:1055C000812101801BE0018821F4F84101800188DC
:1055D00041F40041018012E0690915F01F0F00D16C
:1055E000491E49EA8121018009E0B6F85010881966
:1055F000217807EBC10100EB4100A0F8005462895B
:10560000ABB23046616900F08DFA12E1207836F8CD
:10561000202022F4B87222F4E04248F280031A43B8
:1056200026F82020B6F85000304422780AEBC20257
:1056300000EB42008BB2A0F8003422893046616949
:1056400000F070FAF5E0B6F85010314407EBC000F6
:1056500001EB400000F5806055B13E2D11D869087E
:1056600015F0010F00D0491C08EA812101801AE0E1
:10567000018821F4F8410180018841F40041018052
:1056800011E0690915F01F0F00D1491E49EA812177
:10569000018008E0B6F85020911907EBC00001EB3B
:1056A0004000A0F800546289ABB23046616900F056
:1056B00039FA6069284460612169206A884202D908
:1056C000401B206202E00546C4F820B0002D78D0CF
:1056D000607810B101281ED027E0B6F850003044A1
:1056E00021780AEBC10100EB410000F580613E2DFD
:1056F00008D8680815F0010F00D0401C08EA802087
:10570000088012E0680915F01F0F00D1401E49EA19
:105710008020088009E0B6F85000304421780AEB78
:10572000C10100EB4100A0F800542289ABB2304621
:10573000616900F0F7F97CE0617811B1012927D0A7
:105740002FE0B6F8501031440AEBC00001EB4000E6
:1057500000F5806055B13E2D11D8690815F0010F94
:1057600000D0491C08EA812101801AE0018821F457
:10577000F8410180018841F40041018011E069098C
:1057800015F01F0F00D1491E49EA8121018008E070
:10579000B6F8501031440AEBC00001EB4000A0F80D
:1057A00000542289ABB23046616900F0BBF96069F0
:1057B000284460612169206A884203D9401B206225
:1057C00003E036E00546C4F820B095B3607810B128
:1057D00001281ED027E0B6F850003044217807EBAE
:1057E000C10100EB410000F580613E2D08D868083A
:1057F00015F0010F00D0401C08EA8020088012E05C
:10580000680915F01F0F00D1401E49EA802008806A
:1058100009E0B6F850108819217807EBC10100EBB8
:105820004100A0F800546289ABB23046616900F0D3
:1058300079F9207836F8201021F4415121F4804183
:1058400081F0100181F0200148F28002114326F816
:1058500020102AE1A1692069814202D9091AA161B7
:1058600002E00846C4F818B0B6F850103144227867
:1058700007EBC20201EB420101F5806150B13E2805
:1058800011D8420810F0010F00D0521C08EA822003
:105890000880FAE0088820F4F8400880088840F47E
:1058A00000400880F1E0420910F01F0F00D1521EA5
:1058B00049EA82200880E8E03ABBB6F8500030445C
:1058C00021780AEBC10100EB410000F580602169FD
:1058D00051B13E2911D84A0811F0010F00D0521CD5
:1058E00008EA8221018010E0018821F4F84101805A
:1058F000018841F40041018007E04A0911F01F0FBF
:1059000000D1521E49EA82210180607810B101283D
:1059100029D033E0B6F850003044217807EBC101BC
:1059200000EB410000F58060216951B13E2911D89A
:105930004A0811F0010F00D0521C08EA82210180B0
:105940001CE0018821F4F8410180018841F4004104
:10595000018013E04A0911F01F0F00D1521E49EADD
:10596000822101800AE0B6F850108819217807EBEF
:10597000C10100EB4100218AA0F80014E069D8B30E
:10598000217836F8210010F4804F02D010F0400F3B
:1059900005D100F4804200F04000104375D136F884
:1059A000210020F0700020F4E04048F2C0021043D3
:1059B00026F8210069E0A1692069814202D9091A0B
:1059C000A16102E00846C4F818B03ABBB6F850101E
:1059D000314422780AEBC20201EB420101F58061F9
:1059E00058B13E2812D8420810F0010F00D0521CC6
:1059F00008EA82220A8011E047E00A8822F4F8428D
:105A00000A800A8842F400420A8007E0420910F046
:105A10001F0F00D1521E49EA82220A80617811B11B
:105A2000012928D031E0B6F850103144227807EB34
:105A3000C20201EB420101F5806150B13E2811D84C
:105A4000420810F0010F00D0521C08EA82200880A2
:105A50001BE0088820F4F8400880088840F40040E3
:105A6000088012E0420910F01F0F00D1521E49EACF
:105A70008220088009E0B6F850209119227807EBBF
:105A8000C20201EB4201A1F80004207836F8201090
:105A900021F0700121F4804181F4805181F40051A2
:105AA00048F28002114326F820100020BDE8F08F54
:105AB0000021A0F844104FF43F41A0F8401000200E
:105AC000704700000148FCF777B90000C00B0020C8
:105AD000B0F84400704710B44FEA530C00EB42009A
