:020000040800F2
:100000009806002001010008672600088F210008DB
:1000100065260008D9020008F12A00080000000047
:100020000000000000000000000000009126000811
:10003000210300080000000069260008932600083C
:100040001B0100081B0100081B0100081B01000820
:100050001B0100081B0100081B0100081B01000810
:100060001B0100081B0100081B010008DD0200083D
:100070001B0100081B0100081B0100081B010008F0
:100080001B0100081B0100081B0100081B010008E0
:100090001B0100081B0100081B0100081B010008D0
:1000A0001B0100081B0100081B0100081B010008C0
:1000B0001B0100081B0100081B0100081B010008B0
:1000C0001B0100081B0100081B0100081B010008A0
:1000D0001B0100081B0100081B0100081B01000890
:1000E0001B0100081B0100081B010008DFF80CD0F1
:1000F00000F032F800480047A92C000898060020BC
:100100000648804706480047FEE7FEE7FEE7FEE7B1
:10011000FEE7FEE7FEE7FEE7FEE7FEE7F72600085C
:10012000ED000008D2B201E000F8012B491EFBD21D
:1001300070470022F6E710B513460A4604461946F2
:10014000FFF7F0FF204610BD421C10F8011B0029EC
:10015000FBD1801A70470000064C074D06E0E068AE
:1001600040F0010394E8070098471034AC42F6D3FE
:10017000FFF7C0FF402E0008602E000870B504464F
:100180002068816811F0010F24D0816821F00101FD
:10019000816000F065FD05462068806810F0010F61
:1001A00018D000F05DFD401B02280ED92068806841
:1001B00010F0010F09D0A06A40F01000A062E06AC0
:1001C00040F00100E062012070BD2068806810F0FE
:1001D000010FE6D1002070BD10B50246506A816A59
:1001E00011F0500F05D0006A016BBDE810401046B9
:1001F0000847816A41F400718162016889684FF49F
:10020000602232EA01010DD1017B59B9816A21F4E2
:1002100080718162816A11F4805F03D1816A41F04B
:100220000101816200F03AF910BD10B5406A816A9F
:1002300041F040018162C16A41F00401C16200F0F5
:1002400048F910BD10B5406A00F042F910BD000039
:10025000F8B50446002600962068816811F0010F69
:1002600028D1816841F0010181601948194900686D
:10027000B0FBF1F00090009828B10098401E00906B
:1002800000980028F9D100F0EBFC05462068806852
:1002900010F0010F0ED100F0E3FC401B022804D93E
:1002A0002068806810F0010F06D02068806810F088
:1002B000010FF0D00020F8BDA06A40F01000A0624D
:1002C000E06A40F00100E06284F824600120F8BD9B
:1002D0002000002040420F00FEE70000014800F02F
:1002E00067BA00004402002010B490F840C0012416
:1002F00004FA0CFCC46BC4F804C0D0F800C0CCF8FD
:1003000004304368102B05D0036899600068C26010
:1003100010BC704703689A600068C16010BC7047E9
:1003200070477047002200F001B8000010B4844606
:1003300001200F4B5C7A012C17D8587A00241C54EA
:10034000587A03EB8000C0F804C0587A03F1080C17
:1003500000F80C20587A421C5A72303008703A204B
:1003600048702F208870CC70002010BC70470000AF
:100370008802002078B44FF0000C0024009490F81C
:100380002420012A14D0012280F824204A681F2545
:10039000072A10D203685E6B521E02EB8202954060
:1003A00026EA05050E6806FA02F22A435A631FE0A0
:1003B00078BC022070470D2A0DD203681E6BD21F35
:1003C00002EB8202954026EA05050E6806FA02F263
:1003D0002A431A630CE00368DE6A0D3A02EB8202DC
:1003E000954026EA05050E6806FA02F22A43DA620B
:1003F0000A6807250A2A0DD30368DE680A3A02EB69
:100400004202954026EA05058E6806FA02F22A4362
:10041000DA600BE003681E6902EB4202954026EAAF
:1004200005058E6806FA02F22A431A610A68102A44
:1004300001D0112A0BD10268A2F18043B3F59233A7
:100440000AD0816A41F0200181624FF0010C80F8EE
:10045000244078BC60467047936813F4000FF6D1CF
:10046000936843F40003936009681029EFD10949A8
:10047000094A0968B1FBF2F101EB810149000091E1
:1004800000990029E3D00099491E009100990029A4
:10049000F9D1DCE72000002040420F00F8B50B4DF9
:1004A0006424009400234FF480573A461946286884
:1004B00001F0FFFFA5F10C060023706000943A469E
:1004C0001946686801F0F5FFB060F8BD0C00002027
:1004D000704770472DE9F041044600270025002CA5
:1004E00003D0A06A002618B108E00120BDE8F08121
:1004F000E66284F82460204600F07CF82046FFF78E
:100500003DFE0146A06A10F0100F00D139B1A06A7B
:1005100040F01000A06201210846BDE8F081A06A09
:1005200020F4885040F00200A062E2696068237BFA
:10053000104347EA43020243A068B0F5807F08D029
:10054000012806D0002094F814C0BCF1010F03D09C
:100550000BE04FF48070F6E7F3B1A36A43F0200399
:10056000A362E36A43F00103E3622368D3F804C0A3
:100570002CF4694C4CEA0000586020688368DFF86E
:100580006CC003EA0C0313438360A068B0F5807F5E
:1005900009D0012807D009E0A3695B1E40EA433077
:1005A00040F40060E1E7208A401E05052068C36A28
:1005B00023F470032B43C362206880680C4B1840FF
:1005C000904207D1E662A06A20F0020040F00100EC
:1005D000A062A1E7A06A20F0020040F01000A06233
:1005E000E06A40F00100E062012195E7FDF7E1FFDC
:1005F000FE0E1FFF70B586B00025064600950195DA
:10060000029503950068194988422DD118498869D7
:1006100040F400708861886900F400700490886973
:1006200040F0040088618869694600F00400049085
:100630000320009001900F4800F006FA0F4C0E487E
:10064000C4E900058020C4E90250800020618000D8
:1006500060612020C4E90605204600F061F908B178
:10066000FFF75FFE3462666206B070BD0024014091
:10067000001002400008014008000240440200202F
:100680002DE9F0470446884691462068434F444E82
:10069000A0F1804ABAF5923A01D0B84207D1306849
:1006A00010F4702F03D001252846BDE8F08794F898
:1006B000240001280BD0012084F824002046FFF7F5
:1006C000C7FD054600212DB184F82410ECE7022077
:1006D000BDE8F087A06A20F0010020F4606040F4DB
:1006E0008070A0622068B8421AD1326812F4702F6C
:1006F00016D0A26A42F48012A262306810F4806FB1
:1007000005D0A06A20F4005040F48050A062A06A96
:1007100010F4805F13D0E06A20F00600E0620FE082
:10072000A26A22F48012A262406810F4806FEED0B8
:10073000A06A20F4005040F48050A062E7E7E16234
:1007400084F82410216A17488862216A1648C86212
:10075000216A1648086321686FF00200086020686B
:10076000816841F48071816020684B4600F14C0142
:100770004246206A00F016F9206881684FF4602232
:1007800032EA010104D0816841F4801181608BE775
:10079000816841F4A001816086E7000000280140E3
:1007A00004240140D9010008450200082B0200087A
:1007B0002DE9F05FC16B0A6801680B68D0F840C092
:1007C000042404FA0CF414424E4C4F4D4F4E504F3B
:1007D000DFF84081DFF8409131D013F0040F2ED0C4
:1007E0000A6812F0200F03D10A6822F004020A609E
:1007F0000168A14201D1042119E0A94201D140219F
:1008000015E0B14202D14FF4806110E0B94202D14B
:100810004FF480410BE0414502D14FF4802106E0C6
:10082000494502D14FF4800101E04FF080613B4A1D
:100830005160C16A002962D0BDE8F05F08474FF0FF
:10084000020A0AFA0CFA1AEA020F4FF0000A4FF0F5
:10085000010B35D013F0020F32D00A6812F0200FCE
:1008600005D10A6822F00A020A6080F821B0016806
:10087000A14201D1022119E0A94201D1202115E0B4
:10088000B14202D14FF4007110E0B94202D14FF4ED
:1008900000510BE0414502D14FF4003106E04945DB
:1008A00002D14FF4001101E04FF000711B4A51607A
:1008B00080F820A0816A002921D0BDE8F05F0847B8
:1008C000082404FA0CFC1CEA020F18D013F0080FDD
:1008D00015D00A6822F00E020A6090F84010C26B30
:1008E0000BFA01F15160C0F838B080F821B080F8FF
:1008F00020A0016B002902D0BDE8F05F0847BDE8E9
:10090000F09F0000080002401C000240300002403E
:1009100044000240580002406C00024000000240C7
:1009200010B4002834D01C4A01688B181B4AA2FB63
:100930000332120992000264194AC263022280F84B
:1009400021200A686FF30D12D0F808C043680469CB
:1009500043EA0C03D0F80CC04CEA040C43EA0C0345
:10096000D0F814C043EA0C03D0F818C043EA0C03D3
:10097000D0F81CC043EA0C031A430A6000218163CB
:10098000012280F8212080F8201010BC0020704740
:1009900010BC012070470000F8FFFDBFCDCCCCCCCF
:1009A0000000024070B50446002594F8200001289C
:1009B0000DD0012084F8200094F821C00020BCF163
:1009C000010F06D084F820000225284670BD0220C1
:1009D00070BD4FF0020C84F821C0A0632068D0F8ED
:1009E00000C02CF0010CC0F800C02046FFF77CFCD2
:1009F000E06A28B12068016841F00E01016009E059
:100A00002068016821F0040101602068016841F05C
:100A10000A0101602068016841F001010160D4E72A
:100A200070B5044600F01CF90546B4F1FF3F02D052
:100A300004480078044400F013F9401BA042FAD3A4
:100A400070BD0000140000202DE9F84F4FF0000C9D
:100A500000230A68002A7DD0DFF8DC810F2708F127
:100A6000040909F1040A0AF1040B012202FA0CF646
:100A70000A683240B2426ED1DFF8C0E14C68A4EBA4
:100A80000E0574452BD00DDC032C34D005DC34B3BB
:100A9000012C19D0022C2FD11BE0112C16D0122CB6
:100AA0002AD119E0B5F5881F19D006DCB5F5803FCD
:100AB00015D0B5F5801F1FD111E0B5F5001F0ED080
:100AC000B5F5041F18D10AE0CB6815E0CB681B1DF3
:100AD00012E0CB6808330FE0CB680C330CE08B6876
:100AE00023B1012B04D00823466105E0042303E071
:100AF0000823066100E00023B2F5807F01D205469D
:100B000001E000F1040502D24FEA8C0403E0ACF1ED
:100B100008044FEA84042E6807FA04FE26EA0E064B
:100B200003FA04F446EA04042C604C6814F0805F75
:100B300079D0434CA56945F00105A561A46904F08D
:100B4000010400942CF0030404F1804404F5803483
:100B5000A66801E06EE066E04FEA8C754FEA157515
:100B600007FA05FE26EA0E0EA0F18046B6F5843699
:100B70001ED0A0F18046B6F586361BD0A0F1804687
:100B8000B6F5883618D0A0F18046B6F58A3615D06D
:100B9000042606FA05F545EA0E05A5604C6814F42E
:100BA000803F0DD0D8F800401443C8F800400CE056
:100BB0000026EEE70126ECE70226EAE70326E8E74F
:100BC000D8F800409443C8F800404C6814F4003F43
:100BD00005D0D9F800401443C9F8004004E0D9F822
:100BE00000409443C9F800404C6814F4801F05D0BD
:100BF000DAF800401443CAF8004004E0DAF8004094
:100C00009443CAF800404C6814F4001F05D0DBF888
:100C100000402243CBF8002005E0DBF8004024EA46
:100C20000202CBF800200CF1010C0A6832FA0CF237
:100C30007FF41BAFBDE8F88F0004014000001110E5
:100C4000001002408068084201D001207047002057
:100C50007047002A01D001617047090401617047A3
:100C600001488068704700001400002070B50446F9
:100C7000002C04D094F83D00002510B106E00120BE
:100C800070BD84F83C50204600F076F9242084F8AA
:100C90003D002068016821F00101016020680168C1
:100CA00041F4004101602068016821F400410160C5
:100CB00000F0BAFB544B6168994203D8534988420B
:100CC00003D304E05249884201D2012070BD51494A
:100CD000B0FBF1F12268D2F804C02CF03F0C4CEAD2
:100CE000010CC2F804C062689A4201D84A1C07E0AD
:100CF0004FF4967251434FF47A72B1FBF2F14A1CF1
:100D00002168D1F820C02CF03F0C42EA0C020A62A4
:100D10006168994210D84900401EB0FBF1F2521CA4
:100D2000C2F30B02042A01D2042026E0B0FBF1F04A
:100D3000401CC0F30B0020E0A268002A50D001EB59
:100D4000C10303EB0113A0F1010CBCFBF3F35B1C2B
:100D500043F480431B051B0D4AD0002A4AD001EB07
:100D6000C10202EB0111401EB0FBF1F0401CC0F3C8
:100D70000B0040F4804040F400402168CA6922F032
:100D8000FF0222F44F421043C861216AE069014327
:100D90002068026822F0C00211430160E168206906
:100DA00001432068826822F0FF0222F403421143CB
:100DB0008160A169606901432068C26822F0FF0276
:100DC0001143C1602068016841F0010101602564A0
:100DD000202084F83D00256384F83E50002070BD3B
:100DE00001EB4103A0F1010CBCFBF3F35B1CB1E789
:100DF0000120C2E701EB4101401EB0FBF1F0401CB5
:100E0000C0F30B00B7E70000A086010080841E003D
:100E100000093D0040420F002DE9F84F04468A4684
:100E2000904699460A9FFFF71BFF064694F83D003F
:100E3000202802D00220BDE8F88F192301224C4956
:100E40002046009601F046FA10B10220BDE8F88F66
:100E500094F83C00012808D0012084F83C00206868
:100E6000016811F0010F03D006E00220BDE8F88F01
:100E7000016841F0010101602068016821F400610E
:100E80000160212084F83D00102084F83E000025F8
:100E90002564C4F82480A4F82A90608D2085354804
:100EA000E06233463A465146204601F08BF910B1D4
:100EB0000120BDE8F88F2068416980690090208D8D
:100EC000002846D032463946204601F0C4FA50B1D7
:100ED000206C042804D12068016841F4007101608D
:100EE0000120BDE8F88F606A216800780861606AB7
:100EF00000F1010CC4F824C0608D401E6085208D77
:100F0000401E80B220852268516911F0040F0CD078
:100F100058B19CF800001061606A401C6062608DEE
:100F2000401E6085208D401E208532463946204671
:100F300001F0A2F950B1206C042804D120680168A6
:100F400041F4007101600120BDE8F88F208D002878
:100F5000B8D12068016841F400710160202084F854
:100F60003D0084F83E5084F83C500020BDE8F88FE6
:100F7000020010000000FFFF30B585B00021009195
:100F80000191029103911E4D03681E4C1221032210
:100F90001D48AB4216D1A36943F00803A361A369BE
:100FA000039203F008030493C023CDE9003169469E
:100FB000FFF74AFDE06940F40010E061E06900F4E9
:100FC000001019E0114DAB4217D1A36943F008039B
:100FD000A361A369039203F0080304934FF44063F1
:100FE000CDE900316946FFF72FFDE06940F480004C
:100FF000E061E06900F48000049005B030BD0000BD
:101000000054004000100240000C01400058004015
:101010000248816802781144816070471400002002
:1010200010B50748016841F010010160032000F08D
:101030008BF8002000F006F800F026F8002010BD24
:101040000020024070B504460D4D4FF47A712878A7
:10105000B1FBF0F00B490968B1FBF0F000F0E8FCDF
:1010600008B1012070BD102C07D200222146501E6D
:1010700000F036F86C60002070BD012070BD0000EB
:1010800014000020200000200C4808B5816941F0C0
:1010900001018161816901F001010091C16941F0A3
:1010A0008051C161C06900F08050009004484168DF
:1010B00021F0E06141F00071416008BD0010024084
:1010C0000000014000280ADB00F01F01012202FAA3
:1010D00001F14009800000F1E020C0F800117047E4
:1010E00010B4184B1B68C3F30223C3F1070CBCF107
:1010F000040F01D94FF0040C1C1D072C01D2002352
:1011000000E0DB1E012404FA0CFCACF1010C0CEA3B
:101110000101994004FA03F35B1E1A4011430028B1
:1011200006DB00F1E020090180F8001410BC7047D4
:1011300000F00F0000F1E020090180F8141D10BC40
:10114000704700000CED00E000F00700064A11684F
:101150004FF6FF03194041EA002040F0FD7040F0D7
:1011600080601060704700000CED00E02DE9F8434E
:101170000446DFF81C81207810F0010F6CD00027A6
:10118000D8F81C0010F0805F0BD1D8F81C0040F09C
:101190008050C8F81C00D8F81C0000F08050009067
:1011A00001273C4D286810F4807F16D1286840F450
:1011B00080702860FFF754FD0646286810F4807F91
:1011C0000BD1FFF74DFD801B642802D90320BDE839
:1011D000F883286810F4807FF3D0D8F8200000F45A
:1011E000407048B3A18801F44071814224D0D8F8FE
:1011F000200020F44070284901220A6000220A6081
:10120000C8F8200010F0010F16D0FFF729FD0546A1
:10121000D8F8200010F0020F0ED141F28836FFF707
:101220001FFD401BB04202D90320BDE8F883D8F867
:10123000200010F0020FF2D0D8F82000616820F4EE
:1012400040700843C8F82000012F05D1D8F81C00D1
:1012500020F08050C8F81C00207810F0020F07D052
:10126000D8F80400A16820F440400843C8F80400FE
:10127000207810F0100F07D0D8F80400E16820F4AF
:1012800080000843C8F804000020BDE8F88300008F
:101290000010024000700040400442422DE9F04737
:1012A00004460D46002C17D0DFF85C81D8F800000A
:1012B00000F00700A84212D2D8F8000020F0070082
:1012C0002843C8F80000D8F8000000F00700A84242
:1012D00005D00120BDE8F0870120BDE8F087206837
:1012E0004A4E10F0020F14D010F0040F03D07068B3
:1012F00040F4E0607060207810F0080F03D0706850
:1013000040F460507060706820F0F001A0680843FD
:101310007060207810F0010F3AD06068012806D084
:1013200002280BD0316811F0020F27D00AE0316893
:1013300011F4003F06D10120BDE8F087316811F0BB
:10134000007F18D0716821F0030108437060FFF737
:1013500087FC07467068616800F00C00B0EB810FF5
:1013600016D041F28839FFF77BFCC01B484508D9ED
:101370000320BDE8F0870120BDE8F0870120BDE82B
:10138000F0877068616800F00C00B0EB810FEAD163
:10139000D8F8000000F00700A8420FD9D8F80000E4
:1013A00020F007002843C8F80000D8F8000000F03B
:1013B0000700A84202D00120BDE8F087207810F095
:1013C000040F05D07068E16820F4E06008437060A5
:1013D000207810F0080F06D07068216920F4605062
:1013E00040EAC100706000F03FF87168084AC1F33C
:1013F0000311515CC8400749086007480068FFF7BF
:1014000021FE0020BDE8F0870020024000100240CD
:10141000262E000820000020180000200148006847
:10142000704700002000002000B5FFF7F7FF0449D7
:101430004968044AC1F30221515CC84000BD000064
:1014400000100240362E000800B5FFF7E7FF044900
:101450004968044AC1F3C221515CC84000BD000084
:1014600000100240362E000885B015A0836842683F
:101470000168C068039302920191049014A000686F
:101480000090144B5968144801F00C02042A11D042
:10149000082A0FD101A8C1F38342805C11F4803F78
:1014A0000AD05968C1F340411DF801100A4A50435F
:1014B000B0FBF1F005B07047084905B048437047EC
:1014C00002030405060708090A0B0C0D0E0F101085
:1014D000010200000010024000127A0000093D00E5
:1014E0002DE9F84F0446002C0FD02078F84D10F06D
:1014F000010F6CD0686800F00C0004280CD06868FC
:1015000000F00C00082803D010E00120BDE8F88F9F
:10151000686810F4803F09D0286810F4003F56D066
:101520006068002853D10120BDE8F88F6068B0F5ED
:10153000803F15D0C8B1B0F5A02F1FD0286820F487
:1015400080302860286820F480202860606858B3C4
:10155000FFF786FB0646286810F4003F17D036E0F8
:10156000286840F480302860F0E7286820F4803054
:101570002860286820F480202860E7E7286840F485
:1015800080202860286840F480302860DEE7FFF77C
:1015900067FB801B642802D90320BDE8F88F286808
:1015A00010F4003FF3D012E0FFF75AFB064628681C
:1015B00010F4003F0BD0FFF753FB801B642802D9C7
:1015C0000320BDE8F88F286810F4003FF3D120789D
:1015D000C04F10F0020F4FF0010B4FF0000854D035
:1015E000686810F00C0F14D0686800F00C00082830
:1015F00003D1686810F4803F0BD0206978B3C7F836
:1016000000B0FFF72DFB0646286810F0020F12D03D
:101610001DE0286810F0020F05D02069012802D0D3
:101620000120BDE8F88F2868616920F0F80040EAE1
:10163000C100286029E0FFF713FB801B022802D9B4
:101640000320BDE8F88F286810F0020FF3D0286857
:10165000616920F0F80040EAC100286015E0FFE76A
:10166000C7F80080FFF7FCFA0646286810F0020F62
:101670000BD0FFF7F5FA801B022802D90320BDE842
:10168000F88F286810F0020FF3D1207810F0080FBF
:1016900030D09148A169C1B1C0F800B0FFF7E0FABD
:1016A0000646686A10F0020F0BD1FFF7D9FA801BCB
:1016B000022802D90320BDE8F88F686A10F0020FF3
:1016C000F3D0012000F0D2FF14E0C0F80080FFF753
:1016D000C7FA0646686A10F0020F0BD0FFF7C0FA8F
:1016E000801B022802D90320BDE8F88F686A10F039
:1016F000020FF3D1207810F0040F6FD00026E869B4
:1017000010F0805F08D1E86940F08050E861E86936
:1017100000F0805000900126DFF8C0A1DAF8000048
:1017200010F4807F1BD1DAF8000040F48070CAF812
:101730000000FFF795FA8146DAF8000010F4807F88
:101740000DD1FFF78DFAA0EB0900642802D9032020
:10175000BDE8F88FDAF8000010F4807FF1D0E0687F
:10176000012816D0D0B1052821D0286A20F0010028
:101770002862286A20F004002862E06841F2883A72
:1017800068B3FFF76DFA8146286A10F0020F17D090
:101790003AE0286A40F001002862EEE7286A20F06B
:1017A00001002862286A20F004002862E5E7286A20
:1017B00040F004002862286A40F001002862DCE75B
:1017C000FFF74EFAA0EB0900504502D90320BDE80F
:1017D000F88F286A10F0020FF2D015E01AE0FFE748
:1017E000FFF73EFA8146286A10F0020F0CD0FFF78F
:1017F00037FAA0EB0900504502D90320BDE8F88F65
:10180000286A10F0020FF2D1012E03D1E86920F00E
:101810008050E861E069E8B3696801F00C010829CB
:101820005ED0022810D0C7F86080FFF719FA04468E
:10183000286810F0007F66D0FFF712FA001B02281C
:1018400041D90320BDE8F88FC7F86080FFF708FA98
:101850000646286810F0007F0BD0FFF701FA801BC6
:10186000022802D90320BDE8F88F286810F0007F15
:10187000F3D1206AB0F5803F05D16868A16820F4F3
:10188000003008436860616A206A0843696821F48F
:10189000741100E037E008436860C7F860B0FFF7F4
:1018A000DFF90446286810F0007F2CD1FFF7D8F943
:1018B000001B022802D90320BDE8F88F286810F029
:1018C000007FF3D01FE0286810F0007FB4D11AE049
:1018D000001002400000424280044242007000407A
:1018E00001280DD06868226A00F48031914204D149
:1018F000616A00F47010884205D00120BDE8F88FBD
:101900000120BDE8F88F0020BDE8F88F70B50446CF
:10191000002C09D0606A002540B125616561A5628F
:1019200094F8510040B10CE0012070BD6068B0F542
:10193000827FF4D0E561F2E784F85050204600F051
:101940003FF8022084F851002068016821F040012E
:101950000160A088218900F4827001F404410843E9
:10196000A18901F400610843217C01F002010843D0
:10197000217D01F001010843218B01F4007108432E
:10198000217F01F03801084394F8201001F0800114
:101990000843218D01F40051084321680860A169C2
:1019A000042000EA1140216848602068C16921F4E0
:1019B0000061C1616565012084F85100002070BD9F
:1019C00030B585B00024009401940294039400681B
:1019D0001449884223D11448816941F480518161BE
:1019E000816901F480510491816941F004018161B0
:1019F00080690E4D00F004000490A02000900220A9
:101A000001900320039069462846FFF71DF8402007
:101A1000CDE90004694628460294FFF715F805B0A1
:101A200030BD0000003001400010024000080140BD
:101A3000401EB0F1807F01D3012070474FF0E021BC
:101A40004861044AF0201070002088610720086176
:101A50000020704723ED00E030B490F83C20012ACC
:101A600030D0012480F83C40022280F83D200268FA
:101A7000D2F804C093682CF0700C0D6845EA0C0C89
:101A8000C2F804C00268A2F1804CBCF5963C0CD0B0
:101A9000B2F1804F09D0A2F1804CBCF5806C04D02B
:101AA000A2F1804CBCF5006C04D123F0800349689E
:101AB0001943916080F83D40002180F83C1030BC13
:101AC0000020704730BC0220704710B50446002C3F
:101AD00003D094F83D0010B107E0012010BD0020B4
:101AE00084F83C00204600F01FF8022084F83D00F6
:101AF000211D206800F000FE012084F8460084F8D3
:101B00003E0084F83F0084F8400084F8410084F8E7
:101B1000420084F8430084F8440084F8450084F8C7
:101B20003D00002010BD000008B50068B0F1804FF6
:101B300008D10548C16941F00101C161C06900F0E7
:101B40000100009008BD00000010024070B504467E
:101B500094F83C00012818D0012584F83C5002205C
:101B600084F83D002068826822F0770222F47F42E8
:101B700082600868502832D00EDC20284DD006DC68
:101B800000284AD010284DD147E0022070BD3028EF
:101B900043D0402846D136E060282AD0702806D0AD
:101BA000B0F5805F3ED0B0F5005F3BD10BE0CB6875
:101BB0004A688968206800F0EAFD2068816841F081
:101BC000770181602EE0CB684A688968206800F060
:101BD000DEFD2068816841F48041816022E0CA68AE
:101BE0004968206800F0A9FE5021206800F0DAFD65
:101BF00018E0CA684968206800F0B2FE60212068D9
:101C000000F0D0FD0EE0CA684968206800F095FE3B
:101C10004021206800F0C6FD04E02268014610461D
:101C200000F0C0FD84F83D50002084F83C0070BDF9
:101C300000B585B0002100910191029103910068E7
:101C4000B0F1804F1AD10E48816941F008018161DD
:101C50008069694600F00800049008200090022086
:101C6000019003900748FEF7EFFE0748416821F412
:101C7000407141F0E06141F48071416005B000BD08
:101C800000100240000C01400000014070B5044605
:101C90000D4694F83C0001280AD0012084F83C004D
:101CA00042B1042A1AD0082A2DD00C2A53D13EE082
:101CB000022070BD2946206800F07CFD2068816903
:101CC00041F0080181612068816921F0040181618E
:101CD000206881692A69114381613CE029462068B6
:101CE00000F09CFD2068816941F4006181612068F9
:101CF000816921F480618161206881692A6941EAF2
:101D00000221816127E02946206800F0BBFD2068A0
:101D1000C16941F00801C1612068C16921F0040175
:101D2000C1612068C1692A691143C16113E0294674
:101D3000206800F0DBFD2068C16941F40061C161E9
:101D40002068C16921F48061C1612068C1692A6984
:101D500041EA0221C161002084F83C0070BD10B549
:101D60000446002C03D094F83D0010B107E0012098
:101D700010BD002084F83C00204600F01EF8022030
:101D800084F83D00211D206800F0B6FC012084F895
:101D9000460084F83E0084F83F0084F8400084F850
:101DA000410084F8420084F8430084F8440084F839
:101DB000450084F83D00002010BD704710B5044672
:101DC000002909D004290AD008290BD094F8410031
:101DD00001280AD0012010BD94F83E00F8E794F8DD
:101DE0003F00F5E794F84000F2E7022089B30429A8
:101DF00033D0082934D084F841000122206800F053
:101E0000B7FC19492068884203D1426C42F4004271
:101E100042642068884212D0B0F1804F0FD0A0F108
:101E20008041B1F580610AD0A0F18041B1F5006137
:101E300005D0016841F001010160002010BD8168FA
:101E400001F007010629F8D0016841F001010160A5
:101E5000F3E7FFE784F83E00CFE784F83F00CCE7E4
:101E600084F84000C9E70000002C014030B504466A
:101E70000D4600222946206800F07AFC206841F2D5
:101E800011129110A0F18043B3F5963309D1036A82
:101E9000134206D1036A0B4203D1436C23F400437F
:101EA00043642068036A134206D1026A0A4203D1DE
:101EB000016821F00101016001203DB1042D08D02D
:101EC000082D09D084F84100002030BD84F83E0080
:101ED000FAE784F83F00F7E784F84000F4E770B5CC
:101EE0000446002C04D094F83D00002510B106E013
:101EF000012070BD84F83C50204600F023F82420D7
:101F000084F83D002068C16821F40051C16020467A
:101F100000F038FD2068016921F4904101612068DA
:101F2000416921F02A0141612068C16841F40051F2
:101F3000C1602564202084F83D0084F83E00002024
:101F400070BD000070B586B0002400940194029426
:101F50000394234E0368234902200322224DB342F7
:101F600019D18B6943F480438B618B6903F48043FF
:101F700004938B6943F004038B618969039201F038
:101F8000040104910102CDE9001069462846FEF7DC
:101F90005BFD28151BE0154EB3421FD1CB6943F4FE
:101FA0000033CB61CB6903F4003304938B6943F0B6
:101FB00004038B618969039201F0040104910421F7
:101FC000CDE9001069462846FEF73EFD0820CDE920
:101FD0000004694628460294FEF736FD06B070BD3F
:101FE0000038014000100240000801400044004059
:101FF0002DE9F84304460E4615461F4694F83E0068
:10200000202802D00220BDE8F883D6B1CDB194F8E3
:102010003C00012818D0012084F83C004FF0000952
:10202000C4F84090222084F83E00C4F83090FEF7B7
:1020300017FE8046A585E585A068B0F5805F06D0CF
:1020400007E00120BDE8F8830220BDE8F88320699D
:1020500080B13546002684F83C90E08D40B343467D
:10206000002220212046009700F0F0FC20B1032040
:10207000BDE8F8830025EEE72DB1A068B0F5805FDC
:102080001CD038B108E020684068C0F308003080F8
:10209000B61C07E0206988B12068406800F07F0026
:1020A00028706D1CE08D401EE085E08D0028D6D1A3
:1020B000202084F83E000020BDE8F88320684068B6
:1020C0002870EEE72DE9F84304460E4615461F46F4
:1020D00094F83D00202802D00220BDE8F883C6B164
:1020E000BDB194F83C00012816D0012084F83C00D2
:1020F0004FF00009C4F84090212084F83D00FEF71D
:10210000AFFD8046A584E584A068B0F5805F06D069
:1021100007E00120BDE8F8830220BDE8F8832069CC
:1021200080B13546002684F83C90E08CB8B1434637
:10213000002280212046009700F088FC20B1032077
:10214000BDE8F8830025EEE7A5B12168287848604E
:102150006D1CE08C401EE084E08C0028E7D14346F3
:10216000002240212046009700F070FC48B1032077
:10217000BDE8F88330882168C0F308004860B61CC9
:10218000E7E7202084F83D000020BDE8F883FEE763
:1021900001684A6912F4806F11D06FF480624A615D
:1021A00000210163202280F83D2080F83E10026C5F
:1021B00042F00402026480F83C10012070470020C5
:1021C00070470000F8B504460D4617461E46E06A03
:1021D000082808D0012806D010F5803F03D0206BD6
:1021E000122806D00AE02068016841F4807101607D
:1021F00004E02068016841F4807101603B460022E0
:102200004FF001112046009600F064F848B12068B4
:10221000006810F4807F02D04FF400702064032027
:10222000F8BD2069B0F5804F0FD005F44070F02163
:1022300041EAD0102168086133463A460C492046ED
:1022400000F0A2F830B10120F8BD216805F0FE00D1
:10225000086102E02168E8B2086133463A46054960
:10226000204600F091F808B10120F8BD0020F8BD2B
:10227000080001000200010070B504460D46164634
:102280002068406910F0040F13D12046FFF780FF4B
:1022900008B1012070BDB5F1FF3F05D0FEF7E0FCAD
:1022A000801BA84207D835B12068406910F0040FA0
:1022B000EBD0002070BD00202063202184F83D1069
:1022C00084F83E00216C41F02001216484F83C0038
:1022D000012070BD2DE9F0470446DDF820900D4641
:1022E00017461E46C5F307482068B8F1010F22D0F3
:1022F000806925EA00000004000C26D00020B842C6
:1023000016D1B6F1FF3F06D0FEF7AAFCA0EB0900FC
:10231000B0421CD8DEB1B8F1010F28D02068806926
:1023200025EA00000004000C2CD00020B842E8D0C0
:102330000020BDE8F087406925EA00000004000C99
:1023400001D00020DBE70120D9E70120D7E70020FA
:102350002063202184F83D1084F83E00216C41F078
:102360002001216484F83C000120BDE8F08720684A
:10237000406925EA00000004000C01D00020D5E7E8
:102380000120D3E70120D1E72DE9F04704460D46AF
:1023900016461F46C5F307482068B8F1010F26D03E
:1023A000806925EA00000004000C3AD04FF00009D3
:1023B0004FF0200A2068406910F4806F1ED020681A
:1023C000016841F40071016021686FF48060486128
:1023D000C4F8309084F83DA084F83E90206C40F022
:1023E0000400206484F83C900120BDE8F087406937
:1023F00025EA00000004000C13D0D7E7B6F1FF3F38
:1024000005D0FEF72DFCC01BB0420DD866B1B8F167
:10241000010F18D02068806925EA00000004000C34
:10242000C8D10020BDE8F087C4F8309084F83DA002
:1024300084F83E90206C40F02000206484F83C90AA
:102440000120BDE8F0872068406925EA000000040B
:10245000000CAFD1E5E770B504460D46164620687E
:10246000406910F0800F13D12046FFF791FE08B1AC
:10247000012070BDB5F1FF3F05D0FEF7F1FB801BD9
:10248000A84207D835B12068406910F0800FEBD022
:10249000002070BD00202063202184F83D1084F8C6
:1024A0003E00216C41F02001216484F83C000120B1
:1024B00070BD10B5401A029CE41A6043511AB0FB7B
:1024C000F1F0184410BD0000FEB50024114800943E
:1024D00001940F49029401608915816001250573FB
:1024E0000475022606614FF460214460C161FDF766
:1024F000F1FF07200094CDE9015069460548FDF73A
:1025000039FFCDE9005669460248FDF733FFFEBDAD
:10251000002401404400002010B503490348FDF7A2
:1025200001FF0349087010BD3D0000202800002075
:102530003C00002070B586B000241B480094019434
:1025400002940394816941F020018161816901F065
:1025500020010491816941F004018161816901F0E8
:1025600004010491816941F00801816180690F4E85
:1025700000F008000490002201213046FEF769FBBC
:10258000102001258DE8310069460948FEF75CFA04
:102590000220CDE902400095694601953046FEF7DC
:1025A00053FA06B070BD000000100240000C01405C
:1025B000000801400C480B494FF4007201604FF4D1
:1025C0008271416000218160C1600161C0E9051232
:1025D0001022C0E90721416281620A21C162FFF72E
:1025E00095B90000003001401C01002010B58EB0EC
:1025F00000240794089409940A940B941C216846BB
:102600000C94FDF796FD16484FF0804101604FF4A1
:102610007A71C0E901146421C0E903148461FFF7F1
:1026200054FA4FF48050079007A90D48FFF78EFA2F
:102630000B48FFF794FB0B940BA909480C94FFF788
:102640000BFA6020CDE90004029404226946044894
:102650000494FFF71BFB0248FFF7EAFA0EB010BD27
:1026600074010020FEE770477047000081B0074901
:102670004FF4FA520968B1FBF2F14843009000BFF1
:102680000098411E0091FAD201B07047200000204E
:102690007047FEF7BDBC30B593B028216846FDF702
:1026A00048FD14210AA8FDF744FD002401200F94E1
:1026B00010941194010412948DE8130004904FF4C7
:1026C000E010CDE90810022507956846FEF708FFDF
:1026D0000F20CDE90A056802CDE90C4002210AA8C5
:1026E0000E94FEF7DBFDA80311900F950FA8FEF7DF
:1026F0003DFD13B030BD704730B40268194B1A4C21
:10270000DFF868C0984206D0B0F1804F03D0A042F5
:1027100001D0604503D122F070024D682A439842EF
:1027200006D0B0F1804F03D0A04201D0604505D162
:1027300022F44072D1F80CC04CEA0202D1F814C065
:1027400022F0800242EA0C0202608A68C2620A68D1
:102750008262984201D1096901630121416130BC63
:1027600070470000002C01400004004000080040B9
:1027700001F01F0101238B40D0F820C02CEA030395
:102780000362036A02FA01F1194301627047D0F84B
:1027900008C02CF47F4C42EA0322114341EA0C01A9
:1027A00081607047826822F07002114341F0070196
:1027B0008160704710B4026A22F001020262036A6B
:1027C0004268D0F818C02CF0700C2CF0030C0C6888
:1027D00044EA0C0C23F002038C6823430E4CA04205
:1027E00006D123F00803CC6844EA030323F0040372
:1027F00009D122F4807222F400724C6944EA020288
:102800008C6944EA02024260C0F818C0496841631A
:10281000036210BC70470000002C014010B4026A33
:1028200022F010020262036A4268D0F818C02CF449
:10283000E04C2CF4407C0C684CEA042C23F0200380
:102840008C6843EA04130E4CA04206D123F08003A7
:10285000CC6843EA041323F0400309D122F48062D8
:1028600022F400624C6942EA84028C6942EA8402E2
:102870004260C0F818C049688163036210BC7047A9
:10288000002C014010B4026A22F480720262036AD2
:102890004268D0F81CC02CF0700C2CF0030C0C68B3
:1028A00044EA0C0C23F400738C6843EA04230E4CB6
:1028B000A04206D123F40063CC6843EA042323F446
:1028C000806309D122F4805222F400524C6942EA1A
:1028D00004128C6942EA04124260C0F81CC04968C4
:1028E000C163036210BC7047002C014010B4026A3F
:1028F00022F480520262036A4268D0F81CC02CF4B1
:10290000E04C2CF4407C0C684CEA042C23F400537B
:102910008C6843EA0433A0F18044B4F5963404D1C2
:1029200022F480424C6942EA84124260C0F81CC022
:1029300049680164036210BC7047036AD0F820C084
:102940002CF0010CC0F820C0D0F818C02CF0F00C0E
:102950004CEA021223F00A031943826101627047B4
:10296000036A23F010030362D0F818C0036A2CF442
:10297000704C4CEA023223F0A00343EA0111826159
:102980000162704770B5044620680169E26821F46D
:102990004051114301612169A06808436169014305
:1029A0002068C26822F4037222F4A0521143C1606D
:1029B00020684169A26921F4407111434161206896
:1029C000A0F18041B1F59C313AD0FEF72DFD00EB2E
:1029D000C00101EB001061681B4A8900B0FBF1F3F4
:1029E000A2FB0353B0FBF1FC5B096FF018056B43CE
:1029F0000CEB83034FF0320C0CEB0313A2FB0353DD
:102A00005B0903F0F005B0FBF1F3A2FB03635B0984
:102A100005EB0313B0FBF1F5B0FBF1F0A2FB0010E6
:102A200040096FF01801484305EB80000CEB0010E3
:102A3000A2FB00102168C0F343101844886070BDE9
:102A4000FEF702FDC3E700001F85EB512DE9F041C1
:102A50000446069D884617461E462068006838EAE8
:102A6000000020D00020B84227D1B5F1FF3F1CD094
:102A700025B1FEF7F5F8801BA84216D92068C16879
:102A800021F4D071C1602068416921F001014161E8
:102A9000202084F83D0084F83E00002084F83C00AB
:102AA0000320BDE8F0810120DDE72068006838EAF6
:102AB000000005D00020B842D7D00020BDE8F0814A
:102AC0000120F8E7024801210170007870470000FA
:102AD0002400002001207047002070470248012197
:102AE000017000787047000024000020002070472B
:102AF000FEE702E008C8121F08C1002AFAD1704799
:102B00007047002001E001C1121F002AFBD170476D
:102B10002DE9F04700240E4681461E27114D4FF047
:102B20000F0816E02868C762EF602968C1F838808E
:102B30004846FDF775FF04210A48FFF797F9484614
:102B4000FDF76EFFB44203D004210648FFF736F9C3
:102B5000641CB442E6DDBDE8F04704210148FFF7FC
:102B600085B900007401002070B50FA28AB007CAB1
:102B700007AC642384E807000C2207A90D48FFF77F
:102B8000A1FA0C25002402AE311964230122094860
:102B9000FFF72EFA00B9641CAC42F5DB701910F88F
:102BA000030C0AB070BD0000EF01FFFFFFFF010042
:102BB00003010005BC01002010B510210948FEF7F3
:102BC00041F80949087020B148680A2803D2022058
:102BD00010BD012010BD5A2801D9032010BD0020CE
:102BE00010BD000000080140000000200222014941
:102BF000FDF746BD0C00002010B5802000F014F851
:102C00000024202000F030F8641C462CF9DB10BDB5
:102C100010B1012805D102E041F0800101E041F04E
:102C2000C001C8B2AFF300801CB500F0F00141F064
:102C30000C028DF8042041F0080100018DF8051008
:102C400040F00C018DF8061040F008008DF80700E8
:102C500064200090042301AA4E210248FEF7DCF80C
:102C60001CBD0000740000201CB500F0F00141F014
:102C70000D028DF8042041F0090100018DF80510C6
:102C800040F00D018DF8061040F009008DF80700A6
:102C900064200090042301AA4E210248FEF7BCF8EC
:102CA0001CBD00007400002008B5FEF7B9F9FFF75D
:102CB000F2FCFFF73FFC3E48416941F001014161F0
:102CC0004069002200F00100009011460B20FEF741
:102CD00007FA0B20FEF7F6F937483649374D00243E
:102CE0000160C0E901544FF48048C0E903484461E1
:102CF0008461C4610462FDF7B9FF324830494FF482
:102D0000E1360160C0E901640C27C460C0E90447F2
:102D10008461C461FFF7E3F827482B495430016010
:102D2000C0E90154C0E9034844618461C46104629C
:102D3000FDF79CFF2348254944300160C0E9016448
:102D4000C460C0E904478461C461FFF7C8F8FFF7B5
:102D500031FCFFF74BFCFFF7B7FBFFF7DDFB164835
:102D60003038FFF743FF1AA000F03CF8FFF724FFCC
:102D7000012808D0022818D00328F7D103216420A5
:102D8000FFF7C6FEF2E701216420FFF7C1FE12A0A3
:102D900000F028F802E000BFFFF7E6FEFFF7E4FED0
:102DA0000028F9D10221C820EAE70221E7E7000064
:102DB000001002400054004074000020A086010072
:102DC00000380140BC010020005800400044004091
:102DD00046494E4745520000446174206375207691
:102DE000616F00002DE9F0418046FFF705FF404686
:102DF000FDF7AAF900260746344635460FE021467E
:102E00003046FFF705FF18F80500FFF72DFF641C9B
:102E1000102C03D10024761C022E02D06D1CBD4262
:102E2000EDDBBDE8F08100000000000000000102C1
:102E30000304060708090000000001020304000063
:102E4000602E00080000002044000000F22A000864
:102E5000A42E00084400002054060000022B0008A5
:102E60000000000000000000000000000000000062
:102E70000000000001000000100000000000000041
:102E80000024F40001000000C52A0008DD2A000823
:102E9000D92A0008ED2A0008D52A00080000000001
:042EA000000000002E
:04000005080000ED02
:00000001FF
