:020000040800F2
:10000000D029002001010008F72B0008272700084D
:10001000F52B0008E10400084F370008000000003D
:10002000000000000000000000000000193300087C
:100030004505000800000000F92B00081D330008EA
:100040001B0100081B0100081B0100081B01000820
:100050001B0100081B0100081B0100081B01000810
:100060001B0100081B0100081B0100080105000816
:100070001B0100081B0100081B0100081B010008F0
:100080001B0100081B0100081B0100081B010008E0
:100090001B0100081B0100081B0100081B010008D0
:1000A0001B0100081B0100081B0100081B010008C0
:1000B0001B0100081B0100081B0100081B010008B0
:1000C0001B0100081B0100081B0100081B010008A0
:1000D0001B0100081B0100081B0100081B01000890
:1000E0001B0100081B0100081B010008DFF80CD0F1
:1000F00000F0D6F800480047495B0008D0290020EE
:100100000648804706480047FEE7FEE7FEE7FEE7B1
:10011000FEE7FEE7FEE7FEE7FEE7FEE79D330008A9
:10012000ED00000840EA01039B0703D009E008C97D
:10013000121F08C0042AFAD203E011F8013B00F8AC
:10014000013B521EF9D27047D2B201E000F8012BF8
:10015000491EFBD270470022F6E710B513460A4647
:1001600004461946FFF7F0FF204610BD421E12F864
:10017000013F002BFBD111F8013B02F8013B002BA2
:10018000F9D17047421C10F8011B0029FBD1801ADD
:100190007047034611F8012B00F8012B002AF9D112
:1001A0001846704770B50F4D00B92868002412E05A
:1001B0000A4602E09E4203D0521C1378002BF9D16C
:1001C000DAB2224305D02BB124B1002100F8011B83
:1001D00004E00446401C0678002EE9D12860204641
:1001E00070BD0000C800002070B5064603F0DCFAC0
:1001F000046805460A220021304600F018F82C60F9
:1002000070BD30B50B46014600202022012409E0D4
:1002100021FA02F59D4205D303FA02F5491B04FABF
:1002200002F52844151EA2F10102F1DC30BD2DE9D2
:10023000F04791460F4680460446002614F8015BBD
:100240002DB100F03FF80068405DC007F6D12B2DBE
:1002500002D02D2D18D0641E4A463946204600F0A3
:1002600035F827B13968A14201D1C7F8008071057E
:100270004FF002040BD54042002803DD03F094FA4E
:100280000460A007BDE8F08746F48066E4E7002834
:10029000F8DA03F089FA04606FF00040F2E700003A
:1002A000064C074D06E0E06840F0010394E80700C3
:1002B00098471034AC42F6D3FFF71CFF0C6B0008D4
:1002C0002C6B000800487047086B00082DE9F05FB0
:1002D00082460078002715468B460AF10104B9468C
:1002E000302801D09DB113E014F8010B01277828C4
:1002F00003D0582801D045B10AE00DB1102D07D127
:100300000027102514F8010B02E0082500E00A255B
:100310000026B0460EE005FB080005FB06F10127AC
:1003200001EB10461FFA80F8B6F5803F00D3B946BE
:1003300014F8010B294600F018F80028EBDABBF19D
:10034000000F05D00FB1641E00E05446CBF800400A
:10035000B9F1000F06D003F027FA02210160C81E90
:10036000BDE8F09F48EA0640FAE73A2800D2303864
:1003700020F02002412A01D3A2F13700884201D3A4
:100380004FF0FF30704770B504462068816811F067
:10039000010F24D0816821F00101816000F070FD1F
:1003A00005462068806810F0010F18D000F068FD45
:1003B000401B02280ED92068806810F0010F09D078
:1003C000A06A40F01000A062E06A40F00100E06224
:1003D000012070BD2068806810F0010FE6D1002078
:1003E00070BD10B50246506A816A11F0500F05D0F9
:1003F000006A016BBDE8104010460847816A41F46D
:1004000000718162016889684FF4602232EA01015B
:100410000DD1017B59B9816A21F480718162816AB1
:1004200011F4805F03D1816A41F00101816200F023
:1004300047F910BD10B5406A816A41F04001816200
:10044000C16A41F00401C16200F055F910BD10B558
:10045000406A00F04FF910BDF8B50446002600963A
:100460002068816811F0010F28D1816841F00101F5
:100470008160194819490068B0FBF1F000900098BC
:1004800028B10098401E009000980028F9D100F093
:10049000F7FC05462068806810F0010F0ED100F0CF
:1004A000EFFC401B022804D92068806810F0010F7F
:1004B00006D02068806810F0010FF0D00020F8BD51
:1004C000A06A40F01000A062E06A40F00100E06223
:1004D00084F824600120F8BDA000002040420F00F5
:1004E000FEE7000010B501221146044800F0C1FCEF
:1004F000BDE81040012000F0A7BB0000000C014047
:10050000014800F069BA00006823002010B490F898
:1005100040C0012404FA0CFCC46BC4F804C0D0F839
:1005200000C0CCF804304368102B05D003689960F4
:100530000068C26010BC704703689A600068C160C0
:1005400010BC704770477047002200F001B80000EF
:1005500010B4844601200F4B5C7A012C17D8587ACE
:1005600000241C54587A03EB8000C0F804C0587A69
:1005700003F1080C00F80C20587A421C5A723030F3
:1005800008703A2048702F208870CC70002010BC72
:1005900070470000C425002078B44FF0000C002400
:1005A000009490F82420012A14D0012280F82420FD
:1005B0004A681F25072A10D203685E6B521E02EBA1
:1005C0008202954026EA05050E6806FA02F22A43E1
:1005D0005A631FE078BC022070470D2A0DD20368D1
:1005E0001E6BD21F02EB8202954026EA05050E68BB
:1005F00006FA02F22A431A630CE00368DE6A0D3A37
:1006000002EB8202954026EA05050E6806FA02F220
:100610002A43DA620A6807250A2A0DD30368DE68CE
:100620000A3A02EB4202954026EA05058E6806FA70
:1006300002F22A43DA600BE003681E6902EB420211
:10064000954026EA05058E6806FA02F22A431A61E9
:100650000A68102A01D0112A28D10268A2F1804329
:10066000B3F592331CD1936813F4000F1ED1936835
:1006700043F4000393600968102917D10E490F4A0B
:100680000968B1FBF2F101EB810149000091009989
:1006900061B10099491E009100990029F9D105E046
:1006A000816A41F0200181624FF0010C80F8244002
:1006B00078BC604670470000A000002040420F0058
:1006C000F8B50B4D6424009400234FF480573A464C
:1006D0001946286802F0B5F9A5F10C0600237060F0
:1006E00000943A461946686802F0ABF9B060F8BD6C
:1006F0000C000020704770472DE9F04104460027A8
:100700000025002C04D0A068A06A002618B108E0DB
:100710000120BDE8F081E66284F82460204600F004
:100720007DF82046FFF72FFE0146A06A00F0100278
:1007300052EA010007D0A06A40F01000A062012137
:100740000846BDE8F081A06A20F4885040F002001D
:10075000A062E2696068237B104347EA43020243D8
:10076000A068B0F5807F08D0012806D0002094F85A
:1007700014C0BCF1010F03D00BE04FF48070F6E71A
:10078000F3B1A36A43F02003A362E36A43F00103D9
:10079000E3622368D3F804C02CF4694C4CEA0000EF
:1007A000586020688368DFF86CC003EA0C031343C9
:1007B0008360A068B0F5807F09D0012807D009E0E8
:1007C000A3695B1E40EA433040F40060E1E7208A01
:1007D000401E05052068C36A23F470032B43C362DF
:1007E000206880680C4B1840904207D1E662A06AEE
:1007F00020F0020040F00100A062A1E7A06A20F012
:10080000020040F01000A062E06A40F00100E062E7
:10081000012195E7FDF7E1FFFE0E1FFF70B586B0E1
:100820000025064600950195029503950068194933
:1008300088422DD11849886940F400708861886920
:1008400000F400700490886940F0040088618869B1
:10085000694600F0040004900320009001900F48C6
:1008600000F004FA0F4C0E48C4E900058020C4E9EA
:10087000025080002061800060612020C4E90605EC
:10088000204600F061F908B1FFF75DFE3462666250
:1008900006B070BD00240140001002400008014075
:1008A00008000240682300202DE9F04704468846EE
:1008B00091462068434F444EA0F1804ABAF5923ADF
:1008C00001D0B84207D1306810F4702F03D0012551
:1008D0002846BDE8F08794F8240001280BD00120B9
:1008E00084F824002046FFF7B7FD054600212DB10E
:1008F00084F82410ECE70220BDE8F087A06A20F01D
:10090000010020F4606040F48070A0622068B8426A
:100910001AD1326812F4702F16D0A26A42F48012F3
:10092000A262306810F4806F05D0A06A20F40050F5
:1009300040F48050A062A06A10F4805F13D0E06A97
:1009400020F00600E0620FE0A26A22F48012A262A8
:10095000406810F4806FEED0A06A20F4005040F49C
:100960008050A062E7E7E16284F82410216A17480A
:100970008862216A1648C862216A1648086321689D
:100980006FF0020008602068816841F48071816026
:1009900020684B4600F14C014246206A00F016F9EF
:1009A000206881684FF4602232EA010104D0816836
:1009B00041F4801181608BE7816841F4A00181607E
:1009C00086E700000028014004240140E3030008FA
:1009D0004F040008350400082DE9F05FC16B0A6878
:1009E00001680B68D0F840C0042404FA0CF41442E7
:1009F0004E4C4F4D4F4E504FDFF84081DFF8409145
:100A000031D013F0040F2ED00A6812F0200F03D15A
:100A10000A6822F004020A600168A14201D104219F
:100A200019E0A94201D1402115E0B14202D14FF4B1
:100A3000806110E0B94202D14FF480410BE04145A2
:100A400002D14FF4802106E0494502D14FF48001E4
:100A500001E04FF080613B4A5160C16A002962D0D9
:100A6000BDE8F05F08474FF0020A0AFA0CFA1AEAEA
:100A7000020F4FF0000A4FF0010B35D013F0020FB8
:100A800032D00A6812F0200F05D10A6822F00A025B
:100A90000A6080F821B00168A14201D1022119E069
:100AA000A94201D1202115E0B14202D14FF40071D9
:100AB00010E0B94202D14FF400510BE0414502D1A0
:100AC0004FF4003106E0494502D14FF4001101E036
:100AD0004FF000711B4A516080F820A0816A002904
:100AE00021D0BDE8F05F0847082404FA0CFC1CEA9A
:100AF000020F18D013F0080F15D00A6822F00E026A
:100B00000A6090F84010C26B0BFA01F15160C0F816
:100B100038B080F821B080F820A0016B002902D005
:100B2000BDE8F05F0847BDE8F09F00000800024004
:100B30001C000240300002404400024058000240C5
:100B40006C0002400000024010B4002834D01C4A5F
:100B500001688B181B4AA2FB03321209920002643F
:100B6000194AC263022280F821200A686FF30D122D
:100B7000D0F808C04368046943EA0C03D0F80CC0FD
:100B80004CEA040C43EA0C03D0F814C043EA0C030B
:100B9000D0F818C043EA0C03D0F81CC043EA0C0399
:100BA0001A430A6000218163012280F8212080F825
:100BB000201010BC0020704710BC012070470000BE
:100BC000F8FFFDBFCDCCCCCC0000024070B5044690
:100BD000002594F8200001280DD0012084F8200081
:100BE00094F821C00020BCF1010F06D084F8200049
:100BF0000225284670BD022070BD4FF0020C84F81B
:100C000021C0A0632068D0F800C02CF0010CC0F80F
:100C100000C02046FFF77AFCE06A28B1206801682E
:100C200041F00E01016009E02068016821F0040133
:100C300001602068016841F00A01016020680168D4
:100C400041F001010160D4E770B5044600F018F9E5
:100C50000546601C02D004480078044400F010F9F6
:100C6000401BA042FAD370BD940000202DE9F84F3C
:100C70004FF0000C00230A68002A7DD0DFF8D881ED
:100C80000F2708F1040909F1040A0AF1040B0122F3
:100C900002FA0CF60A683240B2426ED1DFF8BCE1CB
:100CA0004C68A4EB0E0574452BD00DDC032C34D01E
:100CB00005DC34B3012C19D0022C2FD11BE0112CF0
:100CC00016D0122C2AD119E0B5F5881F19D006DCF0
:100CD000B5F5803F15D0B5F5801F1FD111E0B5F5F2
:100CE000001F0ED0B5F5041F18D10AE0CB6815E03F
:100CF000CB681B1D12E0CB6808330FE0CB680C33C8
:100D00000CE08B6823B1012B04D00823466105E079
:100D1000042303E00823066100E00023B2F5807F8E
:100D200001D2054601E000F1040502D24FEA8C042D
:100D300003E0ACF108044FEA84042E6807FA04FECD
:100D400026EA0E0603FA04F446EA04042C604C6812
:100D500014F0805F77D0424CA56945F00105A5618C
:100D6000A46904F0010400942CF0030404F180440D
:100D700004F58034A66801E06CE064E04FEA8C750D
:100D80002D0F07FA05FE26EA0E0EA0F18046B6F5F5
:100D9000843600D115E0A0F18046B6F5863601D143
:100DA00001260EE0A0F18046B6F5883601D1022674
:100DB00007E0A0F18046B6F58A3601D1032600E0AF
:100DC000042606FA05F545EA0E05A5604C6814F4FC
:100DD000803F05D0D8F800401443C8F8004004E034
:100DE000D8F800409443C8F800404C6814F4003F21
:100DF00005D0D9F800401443C9F8004004E0D9F800
:100E000000409443C9F800404C6814F4801F05D09A
:100E1000DAF800401443CAF8004004E0DAF8004071
:100E20009443CAF800404C6814F4001F05D0DBF866
:100E300000402243CBF8002005E0DBF8004024EA24
:100E40000202CBF800200CF1010C0A6832FA0CF215
:100E50007FF41DAFBDE8F88F0004014000001110C1
:100E6000001002408068084201D001207047002035
:100E70007047002A01D00161704709040161704781
:100E800001488068704700009400002070B5044657
:100E9000002C04D094F83D00002510B106E001209C
:100EA00070BD84F83C50204600F070F9242084F88E
:100EB0003D002068016821F001010160206801689F
:100EC00041F4004101602068016821F400410160A3
:100ED00000F0B8FB514B6168994203D850498842F1
:100EE00003D304E04F49884201D2012070BD4E492E
:100EF000B0FBF1F12268D2F804C02CF03F0C4CEAB0
:100F0000010CC2F804C062689A4201D84A1C07E08A
:100F10004FF4967251434FF47A72B1FBF2F14A1CCE
:100F20002168D1F820C02CF03F0C42EA0C020A6282
:100F3000616899420AD84900401EB0FBF1F0401C9C
:100F4000C0F30B00042822D2042020E0A268002A6B
:100F500050D001EBC10303EB0113A0F1010CBCFB6A
:100F6000F3F35B1C43F480431B051B0D4AD0002A9E
:100F70004AD001EBC10202EB0111401EB0FBF1F0BF
:100F8000401CC0F30B0040F4804040F40040216856
:100F9000CA6922F0FF0222F44F421043C861216A5D
:100FA000E06901432068026822F0C0021143016039
:100FB000E168206901432068826822F0FF0222F480
:100FC000034211438160A169606901432068C268DE
:100FD00022F0FF021143C1602068016841F0010165
:100FE00001602564202084F83D00256384F83E508C
:100FF000002070BD01EB4103A0F1010CBCFBF3F339
:101000005B1CB1E70120C2E701EB4101401EB0FBD0
:10101000F1F0401CC0F30B00B7E70000A086010010
:1010200080841E0000093D0040420F002DE9F84F6A
:1010300004468A46904699460A9FFFF721FF0646D6
:1010400094F83D00202802D00220BDE8F88F192333
:1010500001224C492046009601F007FC10B1022005
:10106000BDE8F88F94F83C00012808D0012084F8EE
:101070003C002068016811F0010F03D006E0022057
:10108000BDE8F88F016841F0010101602068016846
:1010900021F400610160212084F83D00102084F8D3
:1010A0003E0000252564C4F82480A4F82A90608DB1
:1010B00020853548E06233463A465146204601F0E5
:1010C0004DFB10B10120BDE8F88F206841698069AF
:1010D0000090208D002846D032463946204601F047
:1010E00083FC50B1206C042804D12068016841F4CD
:1010F000007101600120BDE8F88F606A2168007806
:101100000861606A00F1010CC4F824C0608D401EC3
:101110006085208D401E80B220852268516911F0C3
:10112000040F0CD058B19CF800001061606A401C9C
:101130006062608D401E6085208D401E2085324695
:101140003946204601F064FB50B1206C042804D1DC
:101150002068016841F4007101600120BDE8F88F4A
:10116000208D0028B8D12068016841F40071016029
:10117000202084F83D0084F83E5084F83C50002044
:10118000BDE8F88F020010000000FFFF30B585B009
:10119000002100910191029103911E4D03681E4CA4
:1011A000122103221D48AB4216D1A36943F0080364
:1011B000A361A369039203F008030493C023CDE95C
:1011C00000316946FFF752FDE06940F40010E0612C
:1011D000E06900F4001019E0114DAB4217D1A3698A
:1011E00043F00803A361A369039203F00803049387
:1011F0004FF44063CDE900316946FFF737FDE06900
:1012000040F48000E061E06900F48000049005B0E3
:1012100030BD00000054004000100240000C0140AE
:10122000005800400248816802781144816070478C
:101230009400002010B50748016841F010010160DA
:10124000032000F08FF8002000F006F800F026F8E8
:10125000002010BD0020024070B504460D4D4FF433
:101260007A712878B1FBF0F00B490968B1FBF0F016
:1012700000F0B2FE08B1012070BD102C07D2002290
:101280002146501E00F038F86C60002070BD01202F
:1012900070BD000094000020A00000200C4808B59C
:1012A000816941F001018161816901F001010091D1
:1012B000C16941F08051C161C06900F08050009067
:1012C0000448416821F0E06141F00071416008BDCF
:1012D000001002400000014000280BDB00F01F015D
:1012E000012202FA01F140094FF0E02202EB8000F6
:1012F000C0F800117047000010B4174B1B68C3F30F
:101300000223C3F1070CBCF1040F01D94FF0040C08
:101310001C1D072C01D2002300E0DB1E012404FA6F
:101320000CFCACF1010C0CEA010101FA03FC04FA1B
:1013300003F1491E11404CEA0101002804DB074A71
:101340000901815410BC7047054A00F00F000901E3
:10135000815410BC704700000CED00E000E400E098
:1013600014ED00E000F00700064A11684FF6FF0395
:10137000194041EA002040F0FD7040F080601060AC
:10138000704700000CED00E02DE9F8430446DFF85B
:101390001C81207810F0010F6CD00027D8F81C00B9
:1013A00010F0805F0BD1D8F81C0040F08050C8F8D6
:1013B0001C00D8F81C0000F08050009001273C4D24
:1013C000286810F4807F16D1286840F48070286067
:1013D000FFF756FD0646286810F4807F0BD1FFF713
:1013E0004FFD801B642802D90320BDE8F8832868DC
:1013F00010F4807FF3D0D8F8200000F4407048B398
:10140000A18801F44071814224D0D8F8200020F452
:101410004070284901220A6000220A60C8F82000B2
:1014200010F0010F16D0FFF72BFD0546D8F820006D
:1014300010F0020F0ED141F28836FFF721FD401B5C
:10144000B04202D90320BDE8F883D8F8200010F09C
:10145000020FF2D0D8F82000616820F440700843F1
:10146000C8F82000012F05D1D8F81C0020F08050CA
:10147000C8F81C00207810F0020F07D0D8F804003C
:10148000A16820F440400843C8F80400207810F018
:10149000100F07D0D8F80400E16820F4800008435A
:1014A000C8F804000020BDE8F883000000100240E6
:1014B00000700040400442422DE9F04704460D46CA
:1014C000002C17D0DFF85C81D8F8000000F007008E
:1014D000A84212D2D8F8000020F007002843C8F82C
:1014E0000000D8F8000000F00700A84205D0012055
:1014F000BDE8F0870120BDE8F08720684A4E10F073
:10150000020F14D010F0040F03D0706840F4E060B4
:101510007060207810F0080F03D0706840F46050BD
:101520007060706820F0F001A06808437060207857
:1015300010F0010F3AD06068012806D002280BD0C5
:10154000316811F0020F27D00AE0316811F4003F32
:1015500006D10120BDE8F087316811F0007F18D076
:10156000716821F0030108437060FFF789FC0746AA
:101570007068616800F00C00B0EB810F16D041F28A
:101580008839FFF77DFCC01B484508D90320BDE81A
:10159000F0870120BDE8F0870120BDE8F087706882
:1015A000616800F00C00B0EB810FEAD1D8F80000C0
:1015B00000F00700A8420FD9D8F8000020F007007B
:1015C0002843C8F80000D8F8000000F00700A8423F
:1015D00002D00120BDE8F087207810F0040F05D07C
:1015E0007068E16820F4E06008437060207810F0D3
:1015F000080F06D07068216920F4605040EAC100ED
:10160000706000F03FF87168084AC1F30311515C43
:10161000C8400749086007480068FFF71DFE002022
:10162000BDE8F0870020024000100240F26400088C
:10163000A0000020980000200148006870470000CA
:10164000A000002000B5FFF7F7FF04494968044AED
:10165000C1F30221515CC84000BD000000100240EF
:101660000265000800B5FFF7E7FF04494968044A2E
:10167000C1F3C221515CC84000BD0000001002400F
:101680000265000885B015A0836842680168C068DB
:10169000039302920191049014A000680090144BEF
:1016A0005968144801F00C02042A11D0082A0FD1FD
:1016B00001A8C1F38342805C11F4803F0AD05968CD
:1016C000C1F340411DF801100A4A5043B0FBF1F04C
:1016D00005B07047084905B0484370470203040548
:1016E000060708090A0B0C0D0E0F1010010200006E
:1016F0000010024000127A0000093D002DE9F84F69
:101700000446002C0FD02078F84D10F0010F6CD05B
:10171000686800F00C0004280CD0686800F00C0029
:10172000082803D010E00120BDE8F88F686810F4A5
:10173000803F09D0286810F4003F56D06068002828
:1017400053D10120BDE8F88F6068B0F5803F15D017
:10175000C8B1B0F5A02F1FD0286820F480302860D1
:10176000286820F480202860606858B3FFF788FB61
:101770000646286810F4003F17D036E0286840F489
:1017800080302860F0E7286820F4803028602868DE
:1017900020F480202860E7E7286840F48020286053
:1017A000286840F480302860DEE7FFF769FB801B83
:1017B000642802D90320BDE8F88F286810F4003FA0
:1017C000F3D012E0FFF75CFB0646286810F4003FF8
:1017D0000BD0FFF755FB801B642802D90320BDE81E
:1017E000F88F286810F4003FF3D12078C04F10F034
:1017F000020F4FF0010B4FF0000854D0686810F052
:101800000C0F14D0686800F00C00082803D1686839
:1018100010F4803F0BD0206978B3C7F800B0FFF711
:101820002FFB0646286810F0020F12D01DE0286832
:1018300010F0020F05D02069012802D00120BDE878
:10184000F88F2868616920F0F80040EAC10028603C
:1018500029E0FFF715FB801B022802D90320BDE811
:10186000F88F286810F0020FF3D02868616920F023
:10187000F80040EAC100286015E0FFE7C7F80080E3
:10188000FFF7FEFA0646286810F0020F0BD0FFF7AC
:10189000F7FA801B022802D90320BDE8F88F2868D8
:1018A00010F0020FF3D1207810F0080F30D09148DB
:1018B000A169C1B1C0F800B0FFF7E2FA0646686A54
:1018C00010F0020F0BD1FFF7DBFA801B022802D9C0
:1018D0000320BDE8F88F686A10F0020FF3D00120F2
:1018E00001F08CF914E0C0F80080FFF7C9FA064651
:1018F000686A10F0020F0BD0FFF7C2FA801B0228B3
:1019000002D90320BDE8F88F686A10F0020FF3D106
:10191000207810F0040F6FD00026E86910F0805F87
:1019200008D1E86940F08050E861E86900F0805033
:1019300000900126DFF8C0A1DAF8000010F4807FE3
:101940001BD1DAF8000040F48070CAF80000FFF7FD
:1019500097FA8146DAF8000010F4807F0DD1FFF786
:101960008FFAA0EB0900642802D90320BDE8F88FA4
:10197000DAF8000010F4807FF1D0E068012816D07A
:10198000D0B1052821D0286A20F001002862286AF9
:1019900020F004002862E06841F2883A68B3FFF75B
:1019A0006FFA8146286A10F0020F17D03AE0286AD1
:1019B00040F001002862EEE7286A20F0010028626A
:1019C000286A20F004002862E5E7286A40F0040055
:1019D0002862286A40F001002862DCE7FFF750FA2D
:1019E000A0EB0900504502D90320BDE8F88F286A12
:1019F00010F0020FF2D015E01AE0FFE7FFF740FA0F
:101A00008146286A10F0020F0CD0FFF739FAA0EBDC
:101A10000900504502D90320BDE8F88F286A10F06C
:101A2000020FF2D1012E03D1E86920F08050E86165
:101A3000E069E8B3696801F00C0108295ED002286A
:101A400010D0C7F86080FFF71BFA0446286810F032
:101A5000007F66D0FFF714FA001B022841D903204B
:101A6000BDE8F88FC7F86080FFF70AFA06462868D5
:101A700010F0007F0BD0FFF703FA801B022802D979
:101A80000320BDE8F88F286810F0007FF3D1206AAA
:101A9000B0F5803F05D16868A16820F400300843A4
:101AA0006860616A206A0843696821F4741100E083
:101AB00037E008436860C7F860B0FFF7E1F9044613
:101AC000286810F0007F2CD1FFF7DAF9001B0228FC
:101AD00002D90320BDE8F88F286810F0007FF3D00A
:101AE0001FE0286810F0007FB4D11AE00010024017
:101AF00000004242800442420070004001280DD0A4
:101B00006868226A00F48031914204D1616A00F46D
:101B10007010884205D00120BDE8F88F0120BDE893
:101B2000F88F0020BDE8F88F70B50446002C09D06E
:101B3000606A002540B125616561A56294F8510095
:101B400040B10CE0012070BD6068B0F5827FF4D038
:101B5000E561F2E784F85050204600F03FF802209B
:101B600084F851002068016821F040010160A088DC
:101B7000218900F4827001F404410843A18901F431
:101B800000610843217C01F002010843217D01F03E
:101B900001010843218B01F400710843217F01F00A
:101BA0003801084394F8201001F080010843218D8A
:101BB00001F40051084321680860A169042000EA8B
:101BC0001140216848602068C16921F40061C16149
:101BD0006565012084F85100002070BD30B585B0E6
:101BE00000240094019402940394006814498842EC
:101BF00023D11448816941F480518161816901F4E4
:101C000080510491816941F00401816180690E4D28
:101C100000F004000490A020009002200190032016
:101C2000039069462846FFF721F84020CDE90004DB
:101C3000694628460294FFF719F805B030BD000048
:101C40000030014000100240000801402DE9F84F2B
:101C500004468B4692461D46002694F85000012803
:101C60000DD04FF0010984F85090FFF709F90746AD
:101C700094F85100B046012804D00226ABE00220BF
:101C8000BDE8F88FBBF1000F1CD0BAF1000F19D0DE
:101C9000032084F85100C4F85480C4F830B0A4F88C
:101CA00034A0A4F836A0C4F83880A4F83C80A4F886
:101CB0003E80C4F84480C4F84080A068B0F5004F6E
:101CC00002D00BE0012686E02068016821F0400187
:101CD00001602068016841F480410160206801686A
:101CE00011F0400F03D1016841F040010160E0684C
:101CF000B0F5006F05D0606880B3BAF1010F30D045
:101D000039E0606810B1BAF1010F09D1206B216888
:101D10000088C860206B801C2063E08E401EE08637
:101D2000E08E002843D02068816811F0020F09D0AE
:101D3000216B0988C160206B801C2063E08E401EEF
:101D4000E08607E0FFF79CF8C01BA84201D3681C9F
:101D500005D125B1E08E0028E5D128E001E0032679
:101D600039E0206B216800780873206B401C2063E9
:101D7000E08E401EE086E08EC8B12068816811F0D8
:101D8000020F09D0216B09780173206B401C20637E
:101D9000E08E401EE08607E0FFF772F8C01BA84205
:101DA00001D3681C0ED16DB1E08E0028E5D13A4612
:101DB0002946204601F0FEF908B120206065A068A0
:101DC00010B105E0032606E02068C1688068009035
:101DD000606D00B1012684F8519084F8508030463F
:101DE000BDE8F88F2DE9F84F04460A9E8A469346CF
:101DF0001F4601254FF0000894F8500001280ED02E
:101E0000012084F85000FFF73BF8814694F8510018
:101E1000616801280ED0B1F5827F07D102E002206F
:101E2000BDE8F88FA16809B9042803D04FF0020873
:101E300000F0C8B8BAF1000F1CD0BBF1000F19D0E8
:101E4000C7B194F85100042802D0052084F851004D
:101E500000206065C4F838B0E787A787C4F830A0D1
:101E6000E786A786206460642068016811F0400F4F
:101E700003D006E04FF00108A4E0016841F0400102
:101E80000160E068B0F5006F05D06068002847D0B9
:101E9000012F45D07CE0606808B1012F39D1206B5B
:101EA00021680088C860206B801C2063E08E401E83
:101EB000E0862EE02068816811F0020F0DD0E18EDF
:101EC00059B1012D09D1216B0988C160206B801C9B
:101ED0002063E08E401EE08600252068816811F0B6
:101EE000010F0BD0E18F49B1C068A16B0880A06BD6
:101EF000801CA063E08F401EE0870125FEF7C0FF35
:101F0000A0EB0900B04204D3701C02D04FF00308CC
:101F100058E0E08E0028CDD1E08F0028CAD13DE006
:101F2000206B216800780873206B401C2063E08ED2
:101F3000401EE0862CE02068816811F0020F0DD071
:101F4000E18E59B1012D09D1216B09780173206B04
:101F5000401C2063E08E401EE086002520688168DA
:101F600011F0010F0BD0E18F49B1C068A16B08706F
:101F7000A06B401CA063E08F401EE0870125FEF7A8
:101F80007FFFA0EB0900B04201D3701C11D186B1D4
:101F9000E08E0028CFD1E08F0028CCD14A463146D0
:101FA000204601F007F938B14FF0010820206065A4
:101FB00008E04FF0030805E0A06818B92068C16880
:101FC00080680090012084F85100002084F85000BF
:101FD0004046BDE8F88F0000401EB0F1807F01D37D
:101FE000012070474FF0E0214861044AF020107052
:101FF00000208861072008610020704723ED00E081
:1020000030B490F83C20012A2CD0012480F83C40C8
:10201000022280F83D200268D2F804C093682CF0B8
:10202000700C0D6845EA0C0CC2F804C00268A2F1FD
:10203000804CBCF5963C08D0B2F1804F05D01CF521
:10204000943C02D0BCF5806C04D123F08003496835
:102050001943916080F83D40002180F83C1030BC6D
:102060000020704730BC0220704710B50446002C99
:1020700003D094F83D0010B107E0012010BD00200E
:1020800084F83C00204600F01FF8022084F83D0050
:10209000211D206801F084F9012084F8460084F8AD
:1020A0003E0084F83F0084F8400084F8410084F842
:1020B000420084F8430084F8440084F8450084F822
:1020C0003D00002010BD000008B50068B0F1804F51
:1020D00008D10548C16941F00101C161C06900F042
:1020E0000100009008BD00000010024070B50446D9
:1020F00094F83C00012818D0012584F83C500220B7
:1021000084F83D002068826822F0770222F47F4242
:1021100082600868502832D00EDC20284DD006DCC2
:1021200000284AD010284DD147E0022070BD302849
:1021300043D0402846D136E060282AD0702806D007
:10214000B0F5805F3ED0B0F5005F3BD10BE0CB68CF
:102150004A688968206801F06EF92068816841F05A
:10216000770181602EE0CB684A688968206801F0B9
:1021700062F92068816841F48041816022E0CA6888
:102180004968206801F02DFA5021206801F05EF9BD
:1021900018E0CA684968206801F036FA60212068B2
:1021A00001F054F90EE0CA684968206801F019FA94
:1021B0004021206801F04AF904E0226801461046F7
:1021C00001F044F984F83D50002084F83C0070BDD3
:1021D00000B585B000210091019102910391006842
:1021E000B0F1804F1AD10E48816941F00801816138
:1021F0008069694600F008000490082000900220E1
:10220000019003900748FEF731FD0748416821F42B
:10221000407141F0E06141F48071416005B000BD62
:1022200000100240000C01400000014070B504465F
:102230000D4694F83C0001280AD0012084F83C00A7
:1022400042B1042A1AD0082A2DD00C2A53D13EE0DC
:10225000022070BD2946206801F000F920688169DC
:1022600041F0080181612068816921F004018161E8
:10227000206881692A69114381613CE02946206810
:1022800001F020F92068816941F4006181612068D2
:10229000816921F480618161206881692A6941EA4C
:1022A0000221816127E02946206801F03FF920687A
:1022B000C16941F00801C1612068C16921F00401D0
:1022C000C1612068C1692A691143C16113E02946CF
:1022D000206801F05FF92068C16941F40061C161C3
:1022E0002068C16921F48061C1612068C1692A69DF
:1022F00041EA0221C161002084F83C0070BD10B5A4
:102300000446002C03D094F83D0010B107E00120F2
:1023100010BD002084F83C00204600F01EF802208A
:1023200084F83D00211D206801F03AF8012084F86E
:10233000460084F83E0084F83F0084F8400084F8AA
:10234000410084F8420084F8430084F8440084F893
:10235000450084F83D00002010BD704710B50446CC
:10236000002909D004290AD008290BD094F841008B
:1023700001280AD0012010BD94F83E00F8E794F837
:102380003F00F5E794F84000F2E7022049B3042942
:102390002AD008292BD084F841000122206801F0BE
:1023A0003BF817492068884203D1426C42F400424E
:1023B0004264206888420AD0B0F1804F07D0A0F173
:1023C0008041B1F5806102D0B1F5806112D18168A0
:1023D00001F00701062911D0016841F001010160F7
:1023E0000CE084F83E00D8E784F83F00D5E784F895
:1023F0004000D2E7016841F001010160002010BDFA
:10240000002C014030B504460D46002229462068C4
:1024100001F002F8206841F211129110A0F18043FE
:10242000B3F5963309D1036A134206D1036A0B420E
:1024300003D1436C23F4004343642068036A1342CE
:1024400006D1026A0A4203D1016821F0010101604C
:1024500001203DB1042D08D0082D09D084F8410099
:10246000002030BD84F83E00FAE784F83F00F7E72B
:1024700084F84000F4E770B50446002C04D094F8CA
:102480003D00002510B106E0012070BD84F83C50ED
:10249000204600F023F8242084F83D002068C1681D
:1024A00021F40051C160204601F0C0F820680169A4
:1024B00021F4904101612068416921F02A014161C4
:1024C0002068C16841F40051C1602564202084F86F
:1024D0003D0084F83E00002070BD000070B586B05D
:1024E00000240094019402940394234E036823492A
:1024F00002200322224DB34219D18B6943F4804359
:102500008B618B6903F4804304938B6943F004036C
:102510008B618969039201F0040104910102CDE904
:10252000001069462846FEF7A1FB28151BE0154E52
:10253000B3421FD1CB6943F40033CB61CB6903F4C1
:10254000003304938B6943F004038B618969039220
:1025500001F0040104910421CDE9001069462846E8
:10256000FEF784FB0820CDE9000469462846029462
:10257000FEF77CFB06B070BD003801400010024041
:1025800000080140004400402DE9F84304460E468F
:1025900015461F4694F83E00202802D00220BDE8D0
:1025A000F883D6B1CDB194F83C00012818D00120B1
:1025B00084F83C004FF00009C4F84090222084F8D1
:1025C0003E00C4F83090FEF75BFC8046A585E585AB
:1025D000A068B0F5805F06D007E00120BDE8F88371
:1025E0000220BDE8F883206980B13546002684F8D2
:1025F0003C90E08D40B343460022202120460097C6
:1026000001F060F820B10320BDE8F8830025EEE773
:102610002DB1A068B0F5805F1CD038B108E020680B
:102620004068C0F308003080B61C07E0206988B11C
:102630002068406800F07F0028706D1CE08D401E0F
:10264000E085E08D0028D6D1202084F83E000020CF
:10265000BDE8F883206840682870EEE72DE9F8436C
:1026600004460E4615461F4694F83D00202802D029
:102670000220BDE8F883C6B1BDB194F83C00012842
:1026800016D0012084F83C004FF00009C4F84090B7
:10269000212084F83D00FEF7F3FB8046A584E58405
:1026A000A068B0F5805F06D007E00120BDE8F883A0
:1026B0000220BDE8F883206980B13546002684F801
:1026C0003C90E08CB8B14346002280212046009720
:1026D00000F0F8FF20B10320BDE8F8830025EEE705
:1026E000A5B12168287848606D1CE08C401EE0840C
:1026F000E08C0028E7D14346002240212046009785
:1027000000F0E0FF48B10320BDE8F883308821687D
:10271000C0F308004860B61CE7E7202084F83D00BD
:102720000020BDE8F883FEE701684A6912F4806F73
:1027300011D06FF480624A6100210163202280F889
:102740003D2080F83E10026C42F00402026480F8E2
:102750003C1001207047002070470000F8B5044687
:102760000D4617461E46E06A082808D0012806D004
:1027700010F5803F03D0206B122806D00AE02068B5
:10278000016841F48071016004E02068016841F44F
:10279000807101603B4600224FF0011120460096F7
:1027A00000F063F848B12068006810F4807F02D020
:1027B0004FF4007020640320F8BD2069B0F5804F0D
:1027C0000FD005F44070F02141EAD0102168086173
:1027D00033463A460C49204600F0A0F830B10120BB
:1027E000F8BD216805F0FE00086102E02168E8B24A
:1027F000086133463A460549204600F08FF808B193
:102800000120F8BD0020F8BD080001000200010011
:1028100070B504460D4616462068406910F0040F56
:1028200012D12046FFF780FF08B1012070BD681C5F
:1028300005D0FEF725FB801BA84207D835B12068DC
:10284000406910F0040FECD0002070BD0020206320
:10285000202184F83D1084F83E00216C41F02001D5
:10286000216484F83C00012070BD2DE9F047044646
:10287000DDF820900D4617461E46C5F30748206830
:10288000B8F1010F21D0806925EA00000004000C96
:1028900025D00020B84215D1701C06D0FEF7F0FA02
:1028A000A0EB0900B0421CD8DEB1B8F1010F28D06E
:1028B0002068806925EA00000004000C2CD000206C
:1028C000B842E9D00020BDE8F087406925EA000061
:1028D0000004000C01D00020DCE70120DAE7012031
:1028E000D8E700202063202184F83D1084F83E00C2
:1028F000216C41F02001216484F83C000120BDE8F6
:10290000F0872068406925EA00000004000C01D02F
:102910000020D5E70120D3E70120D1E72DE9F047DA
:1029200004460D4616461F46C5F307482068B8F111
:10293000010F26D0806925EA00000004000C39D080
:102940004FF000094FF0200A2068406910F4806FB2
:102950001ED02068016841F40071016021686FF4A5
:1029600080604861C4F8309084F83DA084F83E90BF
:10297000206C40F00400206484F83C900120BDE805
:10298000F087406925EA00000004000C12D0D7E768
:10299000701C05D0FEF774FAC01BB0420DD866B1AA
:1029A000B8F1010F18D02068806925EA0000000402
:1029B000000CC9D10020BDE8F087C4F8309084F83D
:1029C0003DA084F83E90206C40F02000206484F804
:1029D0003C900120BDE8F0872068406925EA0000AE
:1029E0000004000CB0D1E5E770B504460D4616466C
:1029F0002068406910F0800F12D12046FFF794FE46
:102A000008B1012070BD681C05D0FEF739FA801BA3
:102A1000A84207D835B12068406910F0800FECD08B
:102A2000002070BD00202063202184F83D1084F830
:102A30003E00216C41F02001216484F83C0001201B
:102A400070BD10B5401A029CE41A6043511AB0FBE5
:102A5000F1F0184410BD0000FEB5002411480094A8
:102A600001940F4902940160891581600125057365
:102A70000475022606614FF460214460C161FDF7D0
:102A80003BFE07200094CDE9015069460548FDF75B
:102A900083FDCDE9005669460248FDF77DFDFEBD88
:102AA000002401400C01002010B503490348FDF744
:102AB0004BFD0349087010BDB9000020A4000020A0
:102AC000B800002070B586B000241B480094019423
:102AD00002940394816941F020018161816901F0D0
:102AE00020010491816941F004018161816901F053
:102AF00004010491816941F00801816180690F4EF0
:102B000000F008000490002201213046FEF7B1F9E0
:102B1000102001258DE8310069460948FEF7A6F826
:102B20000220CDE902400095694601953046FEF746
:102B30009DF806B070BD000000100240000C01407E
:102B4000000801400C480B494FF4007201604FF43B
:102B50008271416000218160C1600161C0E905129C
:102B60001022C0E90721416281620A21C162FEF799
:102B7000DBBF000000300140E401002010B58EB042
:102B800000240794089409940A940B941C21684625
:102B90000C94FDF7E0FA16484FF0804101604FF4C5
:102BA0007A71C0E901146421C0E903148461FFF75C
:102BB0005CFA4FF48050079007A90D48FFF796FA8A
:102BC0000B48FFF79CFB0B940BA909480C94FFF7EB
:102BD00017FA6020CDE900040294042269460448F3
:102BE0000494FFF723FB0248FFF7F2FA0EB010BD82
:102BF0003C020020FEE770477047000081B00849A2
:102C00004FF4FA520968B1FBF2F14843009000BF5B
:102C10000098411E00910028F9D101B070470000D2
:102C2000A00000207CB541F6FF74FDF75BFC002599
:102C3000FF2000F0F5FA6D1C0A2DF9DB00F0ACFA6C
:102C400040208DF8000000208DF801008DF8020072
:102C50008DF803008DF8040095208DF805000621FD
:102C6000684600F0CFFA00F0B7FA012806D0641EDB
:102C700000F0B2FA012801D0002CF8D1FDF732FCA7
:102C8000FF2000F0CDFA0249012048707CBD000011
:102C90001600002010B5064C4FF4FA70A4F8060098
:102CA00000F09AFAFF2802D0E1880029F8D110BD7F
:102CB0001600002070B50F4C0546C8200E46A080B7
:102CC00000F08AFAFF2803D0FE2805D0002070BD4E
:102CD000A0880028F4D1F9E72C466D1C00F07CFA9E
:102CE0002070761EF8D200F077FA00F075FA012015
:102CF00070BD00001600002070B50C460546FFF7B9
:102D0000C9FFFF2801D0FF2070BD284600F088FAD7
:102D1000200E00F085FAC4F3074000F081FAC4F3F6
:102D2000072000F07DFAE0B200F07AFA402D07D0DB
:102D3000482D07D0012000F073FA4C2D06D007E093
:102D4000952000E0872000F06BFA01E000F044FAE3
:102D50005FF00A0400F040FA0106D5D5641E14F0B5
:102D6000FF04F7D170BD2DE9F04100250E4607465E
:102D70002C46FFF78FFFFF2820D1304600F050FA95
:102D8000FD2E17D04FF40071384600F03BFA00F0EA
:102D900023FA00F021FA00F01FFA054600F01F00A8
:102DA000052803D0641CE4B2402CF4D900F014FAD6
:102DB0000028FBD005F01F00052802D00020BDE848
:102DC000F0810120FBE70000F8B508B10120F8BD53
:102DD000484C2078800772D4FFF724FF00F0DCF91C
:102DE000002529464020FFF787FF012872D14FF4C4
:102DF0007A70A0804FF4D5714820FFF77DFF01283D
:102E00000DD000217720FFF777FF012841D800215E
:102E10006920FFF771FF01283BD8022540E000261A
:102E20004FEA0D0700F0D8F9B855761CF6B2042E1B
:102E3000F8D39DF8020001284CD19DF80300AA2880
:102E400048D1460700217720FFF756FF012804D814
:102E500031466920FFF750FF18B1A0880028F1D152
:102E600038E0A08860B300217A20FFF745FF38BB27
:102E70005FF0000500F0B0F978556D1CEDB2042D3F
:102E8000F8D39DF80000400601D50C2522E004256A
:102E900020E0012501E0022D02D00021412007E0C1
:102EA00000217720FFF728FF012804D8002169209E
:102EB000FFF722FF28B1A0880028ECD109E016E036
:102EC00008E0A08828B14FF400715020FFF714FFEC
:102ED00000B10025A570FDF705FB00F07DF925B1D7
:102EE000207820F00100207001E000206070207840
:102EF000F8BD0000160000207FB515460E4610B143
:102F0000042004B070BD01244A48052E04D0007886
:102F1000C00713D00320F4E7297829B1012906D08E
:102F2000022907D0042482E00021417004E0FFF769
:102F300079FE01E040785070002478E000F02CF930
:102F40000B2E51D005DCEEB3012E07D0022E69D135
:102F500041E00C2E4BD00D2E64D154E000214920CD
:102F6000FFF7CAFE78BB10216846FFF7A3FE50B3F7
:102F70009DF800100120B0EB911F09D19DF80820A9
:102F80009DF8091000EB022008440004800920E0AD
:102F90009DF805009DF80A1000F00F0000EBD1101D
:102FA0009DF809109DF8072001F0030100EB410195
:102FB0009DF80800800900EB82009DF8062002F0D1
:102FC000030201E00BE02EE000EB8220401CC91F51
:102FD0008840286015E04FF40070288011E0FFF76A
:102FE00059FEFF280DD01EE00021492001E00021FC
:102FF0004A20FFF781FEB0B910212846FFF75AFE9C
:1030000088B100240FE000217A20FFF775FE48B94F
:103010005FF0000400F0E0F8641CE4B205F8010B76
:10302000042CF7D30424FDF75DFA00F0D5F8204610
:1030300067E70000160000202DE9F0411C46154608
:103040000E4638B934B121480178C90704D00320AD
:10305000BDE8F0810420FBE78078400700D45502EA
:1030600000F09AF84FF40077012C294604D0522042
:10307000FFF742FE70B11AE05120FFF73DFEE0B9C4
:1030800039463046FFF716FEB8B1FDF72BFA00F0CF
:10309000A3F818E039463046FFF70CFE18B106F5E4
:1030A0000076641EF6D100214C20FFF725FEFDF7C7
:1030B00019FA00F091F824B905E0FDF713FA00F0D1
:1030C0008BF80120C4E70020C2E7000016000020B2
:1030D00008B10120704701480078704716000020B1
:1030E0002DE9F0411C4616460F4638B934B1294D3A
:1030F0002878C00704D00320BDE8F0810420FBE756
:103100002878400701D50220F6E7A878400700D4C8
:10311000560200F041F8012C10D0A878800707D59E
:1031200000217720FFF7E8FD21465720FFF7E4FD57
:1031300031465920FFF7E0FD78B11CE031465820B8
:10314000FFF7DAFDF0B9FE213846FFF70CFEC8B1F3
:10315000FDF7C8F900F040F819E0FC213846FFF708
:1031600002FE18B107F50077641EF6D1FD2100209C
:10317000FFF7F9FD30B1FDF7B5F900F02DF834B1E6
:103180000120B9E7FDF7AEF900F026F8F8E70020D6
:10319000B2E700001600002010B50022012104480B
:1031A000FDF767FEBDE810400120FDF74DBD0000B2
:1031B000000C014038B504460B46009200228021E5
:1031C000204600F03DF828B1606D40F020006065B9
:1031D000032038BD002038BD0EB5FF208DF8040057
:1031E0000748006881688907FCD5642000900123A6
:1031F00002AA01A90248FEF7F5FD9DF808000EBDE0
:10320000E4010020054A126893689B07FCD50A4632
:10321000014664230148FEF719BD0000E4010020C7
:1032200001B50648006881688907FCD5642301223E
:1032300069460248FEF70AFD08BD0000E4010020CF
:103240002DE9F84304460F4690469946089DFDF740
:1032500017FE401BA9EB0005FDF712FE06462D48A0
:103260000068C0F3CB30684300902068806837EA7C
:1032700000000ED00020404546D019F101003BD09F
:10328000FDF7FEFD801BA84205D225B1009870B362
:103290002FE00120EFE72068416821F0E001416064
:1032A0006068B0F5827F0BD1A068B0F5004F02D006
:1032B000B0F5806F04D12068016821F04001016001
:1032C000A06AB0F5005F09D12068016821F40051BF
:1032D00001602068016841F400510160012084F818
:1032E0005100002084F850000320BDE8F883FFE778
:1032F00000250098401E00902068806837EA000092
:1033000005D000204045B8D10020BDE8F883012059
:10331000F8E70000A0000020704700000549088879
:1033200008B1401E08800449088808B1401E088082
:10333000FDF778BF1A0000201C00002030B593B0C4
:1033400028216846FCF707FF14210AA8FCF703FFB1
:10335000002401200F9410941194010412948DE81C
:10336000130004904FF4E010CDE9081002250795F2
:103370006846FEF7C3F90F20CDE90A056802CDE9DA
:103380000C4002210AA80E94FEF796F8A8031190AB
:103390000F950FA8FDF7F8FF13B030BD7047000080
:1033A00030B40268194B1A4CDFF868C0984206D056
:1033B000B0F1804F03D0A04201D0604503D122F08C
:1033C00070024D682A43984206D0B0F1804F03D076
:1033D000A04201D0604505D122F44072D1F80CC062
:1033E0004CEA0202D1F814C022F0800242EA0C0238
:1033F00002608A68C2620A688262984201D10969E1
:1034000001630121416130BC70470000002C014084
:10341000000400400008004001F01F0101238B4020
:10342000D0F820C02CEA03030362036A02FA01F118
:10343000194301627047D0F808C02CF47F4C42EA6F
:103440000322114341EA0C0181607047826822F037
:103450007002114341F007018160704710B4026AA5
:1034600022F001020262036A4268D0F818C02CF010
:10347000700C2CF0030C0C6844EA0C0C23F00203D3
:103480008C6823430E4CA04206D123F00803CC687D
:1034900044EA030323F0040309D122F4807222F4E6
:1034A00000724C6944EA02028C6944EA02024260FA
:1034B000C0F818C049684163036210BC704700003F
:1034C000002C014010B4026A22F010020262036A6A
:1034D0004268D0F818C02CF4E04C2CF4407C0C6806
:1034E0004CEA042C23F020038C6843EA04130E4CAE
:1034F000A04206D123F08003CC6843EA041323F0F2
:10350000400309D122F4806222F400624C6942EA4D
:1035100084028C6942EA84024260C0F818C049689B
:103520008163036210BC7047002C014010B4026A32
:1035300022F480720262036A4268D0F81CC02CF048
:10354000700C2CF0030C0C6844EA0C0C23F4007390
:103550008C6843EA04230E4CA04206D123F4006396
:10356000CC6843EA042323F4806309D122F4805217
:1035700022F400524C6942EA04128C6942EA0412B5
:103580004260C0F81CC04968C163036210BC704748
:10359000002C014010B4026A22F480520262036AD5
:1035A0004268D0F81CC02CF4E04C2CF4407C0C6831
:1035B0004CEA042C23F400538C6843EA0433A0F152
:1035C0008044B4F5963404D122F480424C6942EA36
:1035D00084124260C0F81CC049680164036210BCD8
:1035E0007047036AD0F820C02CF0010CC0F820C04E
:1035F000D0F818C02CF0F00C4CEA021223F00A03A9
:103600001943826101627047036A23F01003036269
:10361000D0F818C0036A2CF4704C4CEA023223F044
:10362000A00343EA011182610162704710B50446AC
:1036300020680169E26821F4405111430161216968
:10364000A0680843616901432068C26822F40372DC
:1036500022F4A0521143C16020684169A26921F49B
:103660004071114341612068A0F18041B1F59C3166
:1036700002D1FDF7F7FF01E0FDF7E4FF00EBC00129
:1036800001EB001061680E4A8900B0FBF1F1A2FB6A
:10369000013040096FF01803434301EB83033221EB
:1036A00001EB0311A2FB0121490901F0F00202EB39
:1036B000001001F00F0108442168886010BD00006F
:1036C0001F85EB512DE9F0410446069D88461746BB
:1036D0001E462068006838EA00001FD00020B8426B
:1036E00026D1681C1CD025B1FDF7CAFB801BA8425F
:1036F00016D92068C16821F4D071C1602068416981
:1037000021F001014161202084F83D0084F83E0051
:10371000002084F83C000320BDE8F0810120DEE7B2
:103720002068006838EA000005D00020B842D8D0F0
:103730000020BDE8F0810120F8E7FFF745BBFFF767
:10374000DBBBFFF779BCFFF7C3BCFFF7C9BCFEE7E3
:103750000FB41CB50246002007AC00290BD0491E4F
:10376000CDE90021054B6A462146069800F030F865
:10377000009A002111701CBC5DF814FB133B00087B
:103780000FB4084B10B504A902AA039800F020F862
:10379000044602A9002000F0C7F9204610BC5DF8DD
:1037A00014FB0000293B000800487047CC000020B3
:1037B00002E008C8121F08C1002AFAD170477047FA
:1037C000002001E001C1121F002AFBD17047000058
:1037D0002DE9FF4F8BB088460546002606E02528D8
:1037E0000BD0DDE90D1290476D1C761C287800285F
:1037F000F5D10FB03046BDE8F08F0024A146A246B7
:103800000122AE4900E0044315F8013F203B02FAD3
:1038100003F00842F7D128782A2810D06FF02F0241
:103820002878A0F13001092915D809EB890102EBAC
:10383000410144F0020400EB01096D1CF0E758F867
:10384000041B5FEA010903D544F40054C9F10009DF
:1038500044F002046D1C28782E2817D115F8010FAA
:1038600044F004042A280ED06FF02F022878A0F12B
:10387000300109290AD80AEB8A0102EB410100EB69
:10388000010A6D1CF2E758F804AB6D1C28786C280F
:103890000FD006DC4C2817D068280DD06A2814D128
:1038A00004E0742810D07A280FD10DE044F40014FD
:1038B0000AE044F4801401E044F440146978814241
:1038C00002D104F580146D1C6D1C2878692865D020
:1038D00006DC00288DD0632827D0642806D15DE05F
:1038E0006E2808D073282AD0752877D0DDE90D120C
:1038F0009047761CE0E0C4F30250022809D0032868
:103900000DD0D8F8001004280DD00E6008F104087E
:10391000D2E0D8F80010F217C1E90062F6E7D8F853
:1039200000100E80F2E70E70F0E718F8041B8DF817
:10393000001000208DF80100EB46012003E058F84C
:1039400004BB4FF0FF3061074FF0000701D40AE0DD
:103950007F1C57450DDA8742FADB1BF80710002958
:10396000F6D106E07F1C8742FCDB1BF8071000291C
:10397000F8D1DDE90D23A9EB07008146214600F0CF
:10398000B1F83044C61904E0DDE90D121BF8010B53
:1039900090477F1EF8D22146484688E058F8040B2D
:1039A000C4F302514FF00A0B032900D100B20429DD
:1039B00000D140B2002802DA40422D2102E0210568
:1039C00005D52B218DF82410012104E006E0E10744
:1039D00010D02021F6E708AF089113E058F8040B47
:1039E000C4F302514FF00A0B032900D180B204291D
:1039F00000D1C0B20021EEE75946FCF702FC30319D
:103A000007F8011D0028F7D1ADEB070000F1200BEE
:103A1000600702D524F4803401E04FF0010ADA4552
:103A200002DDAAEB0B0000E00020824600EB0B0158
:103A300008980144A9EB01000A90E00306D4DDE9EF
:103A40000D2321460A9800F04DF806444FF0000976
:103A500008E009A911F80900DDE90D12904709F104
:103A60000109761C08998945F3DBE0030CD5DDE9F3
:103A70000D2321460A9800F035F8064404E0DDE9FC
:103A80000D1230209047761CBAF10001AAF1010A0C
:103A9000F5DC05E0DDE90D1217F8010B9047761C07
:103AA000BBF10001ABF1010BF4DC0A982146DDE922
:103AB0000D2300F005F806446D1C97E60928010067
:103AC0002DE9F041044600251E461746880404D41B
:103AD00005E039462020B0476D1C641EF9D5284604
:103AE000BDE8F0812DE9F041044600251E469046D0
:103AF000C80301D5302700E02027880404D505E05D
:103B000041463846B0476D1C641EF9D52846BDE8CD
:103B1000F0814A68002A06D00A68531C0B601070B6
:103B20004868401E486070470A68531C0B6010705C
:103B30007047000070B5054600F060F90E4CFF2696
:103B40002670E8B202F07EFB20706420FDF77CF85E
:103B5000207802F061FB20780028F2D107A002F063
:103B600039FB0221322000F00FF84FF47A70FDF794
:103B70006BF8267070BD00001400002053544F52A3
:103B80004520444F4E4500002DE9F04700240E46E5
:103B900081461E27114D4FF00F0816E02868C762B6
:103BA000EF602968C1F838804846FDF74DF80421D8
:103BB0000A48FEF727FC4846FDF746F8B44203D012
:103BC00004210648FEF7CAFB641CB442E6DDBDE8EA
:103BD000F04704210148FEF715BC00003C0200201C
:103BE00010B5044604F5805000220271521EC262D4
:103BF000204602F002F908B1032010BD94F8FE013E
:103C000094F8FF1140EA0120A0F52A41553901D06E
:103C1000022010BD94F8360094F8391094F837203B
:103C200040EA016094F83810090441EA022108438F
:103C300020F07F410D48814201D1002010BD94F851
:103C4000521094F8552094F8533041EA026194F8E8
:103C50005420120442EA0322114321F07F418142A1
:103C600001D1002010BD012010BD000046415400CC
:103C700000E0401C02780AB18A42FAD1007870470D
:103C800070B4002214461C4D00F5805002EB420334
:103C900055F823C0BCF1000F0FD00668B4450DD114
:103CA00005EB83038668D3F804C0B44506D11B89AD
:103CB000B0F806C0634504D000E00124521C022A7B
:103CC000E4D3022A01D0A1B908E024B9022902D024
:103CD00070BC1220704770BC0020704702EB42009D
:103CE00005EB80004089B0F5807F02D070BC0020D9
:103CF000704770BC10207047AC23002010B4002126
:103D0000074B8C4601EB410253F82240844201D11B
:103D100043F822C0491C0229F4D310BC70470000AC
:103D2000AC23002000F58050426A121D006800F5A7
:103D30008050438980785843B1FBF0F052F8041B5F
:103D400021B1884204D211680844704700207047AE
:103D5000401A121DF2E7891E00F580504269921E3A
:103D60008A4201D800207047826A807801FB0020D7
:103D7000704700002DE9F05F80460F46387820F04C
:103D80004000401E00EB800101EBC004002501262D
:103D9000DFF864A007F101094FF6FF7B1AF8050070
:103DA000395C10F8090041EA00207EB101F02EFADA
:103DB0000646FF2C07D22046641C38F8100001F09C
:103DC00025FAB04207D00020BDE8F09F584502D048
:103DD0000020BDE8F09F6D1C0D2DDFD3387810F06A
:103DE000400F06D02EB138F8140010B10020BDE805
:103DF000F09F0120BDE8F09F8A65000870B5324C45
:103E0000FF2532A002F0E6F901213220FFF7BCFEC7
:103E100003E000BF00F09EF8207000F09BF800283F
:103E2000F8D12DA002F0D6F92570012001F0A0FDF7
:103E300010F0FF002070F8D12CA002F0CBF9257013
:103E400000F088F810F0FF002070F9D12CA002F0EB
:103E5000C1F92570022001F08BFD10F0FF002070E9
:103E6000F8D12DA002F0B6F984F8005001F088FFD7
:103E700020706420FCF7E8FE207808281BD0012879
:103E800019D002F0C9F920780028EFD127A002F05C
:103E9000A1F9257002F032F920706420FCF7D4FEFD
:103EA000207802F0B9F920780028F3D122A002F09E
:103EB00091F9012070BD24A002F08CF94FF47A70C2
:103EC000FCF7C2FE9DE7000014000020444154208E
:103ED0005441592056414F00434F4C4C45435420C8
:103EE00046494E47455220444F4E4500494D4732C2
:103EF000545A28307830312920444F4E4500000074
:103F0000434F4C4C4543542046494E47455220446C
:103F10004F4E456565000000494D4732545A2830E0
:103F20007830322920444F4E450000004D41544323
:103F30004820444F4E4500005245474D4F44454CA4
:103F400020444F4E450000004C4F492C4C414D2021
:103F50004C4149003EB509A24FF0FF3407CA8DE835
:103F6000070023460C2269460748FEF777FB08B195
:103F700020463EBD0C2002F073F83EBDEF01FFFF6E
:103F8000FFFF010003010005840200202DE9F0413C
:103F900080460F4608F58055002F08D03946404628
:103FA00001F023FC022809D20120BDE8F081EE686F
:103FB00016B16869B04207D8012605E0411CF4D06B
:103FC00069698142F1D83E463446641C6869A04262
:103FD00005D80224022E02D20020BDE8F08121463D
:103FE000404601F002FC40B1411CF6D00128F4D05B
:103FF000B442EAD10020BDE8F0816FF07042214662
:10400000404601F017FF28B927B1224639464046FD
:1040100001F010FF28B101280ED001242046BDE890
:10402000F081EC602869411CF8D0401E2861687955
:1040300040F001006871F1E74FF0FF34EEE7000057
:104040002DE9F84F8846D8F8005000E06D1C29781B
:104050002F29FBD05C29F9D000F580500090D0F8D2
:104060002090002426463046761C285C202808D361
:104070002F2806D05C2804D0FF2C09D30620BDE8E9
:10408000F88FA919C8F80010202819D2042618E0C2
:10409000C0B2012101F09EF807464FB1802F0AD22D
:1040A000394661A0FFF7E4FD28B10620BDE8F88F8E
:1040B0000620BDE8F88F2046641C29F81070D2E76E
:1040C00000264CB1601E39F81000202801D02E289F
:1040D00002D1641E002CF5D154B1002029F814003F
:1040E00000980B222021806901F07EFE002703E06A
:1040F0000620BDE8F88F7F1C39F817002028FAD079
:104100002E28F8D01FB146F0030600E0641E24B14B
:10411000601E39F810002E28F8D14FF00008C24672
:104120004FF0080B38467F1C39F8105005B3202D8E
:1041300003D02E2D04D1A74202D046F00306F1E7AA
:10414000DA4501D2A74219D1BBF10B0F0ED0A7421D
:1041500001D046F003060BD827464FF0080A4FF06F
:104160000B0B4FEA88604FEA1068DBE746F0030666
:10417000009880690178E5292ED02FE0802D0BD39F
:104180000021284601F026F805461DB1294828449B
:1041900010F8805C46F0020625B1294626A0FFF7FC
:1041A00067FD18B15F2546F003060EE0A5F141005A
:1041B000192802D848F0020807E0A5F16100192883
:1041C00003D848F00108413085B200988169504613
:1041D0000AF1010A0D54A5E705210170BBF1080F92
:1041E00003D14FEA88604FEA10680C2030EA0800DB
:1041F00003D0032030EA080001D146F0020616F091
:10420000020F0BD108F00300012801D146F010067F
:1042100008F00C00042801D146F0080600988069D7
:10422000C6720020BDE8F88F222A3A3C3E3F7C7FD0
:10423000000000000A6500082B2C3B3D5B5D000080
:10424000401E022813D20B4B00EB400103EB81020E
:104250005089B0F5807F00D1002008B1401E80B2A7
:10426000508110B9002043F821000020704702203F
:1042700070470000AC23002010B500F087FA02213F
:104280004FF4FA70FFF780FCBDE8104001A001F088
:10429000A1BF0000586F6120746F616E20626F00D3
:1042A0002DE9F04107460E460021384600F0C8F9D6
:1042B00098B9002407F580552969286801F09DFD0B
:1042C00058B969690A78E52A0CD05AB1002401214D
:1042D000384600F073F80028EED0042800D10720FB
:1042E000BDE8F081641CB442F7D0F0E72DE9F05F3F
:1042F00083460021584600F0A3F900285CD1FF2630
:10430000B0460BF580544FF6FF7AA4F824A021693B
:10431000206801F072FD8146B9F1000F4BD1676949
:104320003D786DB1F87A00F03F00E52D04D010F033
:10433000080F08D00F2806D0FF26A4F824A032E0EA
:104340004FF0040937E00F2801D0D6B11EE0206AF3
:1043500048B315F0400F06D097F80D8025F04005C2
:104360002E46E188A184B54208D1797B414505D12B
:104370003946FFF7FFFC08B1701E00E0FF20C6B20F
:1043800011E0384601F080FF404514D0A169C87A99
:1043900010F0010F04D10B22384601F00FFD50B18F
:1043A000FF26A4F824A00021584600F007F8814613
:1043B000B9F1000FABD04846BDE8F09F2DE9F041C0
:1043C0000D4600F58054E088471C3804000C0CD0E2
:1043D000226952B1206800F580514B895B09B7FB17
:1043E000F3FC03FB1C731BB183E00420BDE8F081E8
:1043F000521C2261E26842B14B8989785B09B7FBA4
:10440000F3F3491E0B4206D073E00889B84270D816
:104410000420BDE8F081114601F0E7F90646012EBF
:1044200002D80220BDE8F081701C16D0206841F24D
:1044300014010958B14256D895B1E168FFF7A6FDBD
:10444000064686B1012E11D0701C12D0206801F0F2
:104450007EFF88B10120BDE8F0810120BDE8F08138
:104460000420BDE8F0810720BDE8F0810220BDE80E
:10447000F0810120BDE8F08141F20A0120680A5A6A
:10448000002101F0B1FC31462068FFF764FC21688F
:1044900001F58051C8620025206800F580508078C1
:1044A00000281AD94FF00108206800F5805080F8E4
:1044B0000480206801F04BFF10B10120BDE8F081BD
:1044C000206800F58050C16A491CC1626D1C2068DB
:1044D00000F580508078A842E6D8206800F580502A
:1044E000C16A491BC162E66031462068FFF733FCB0
:1044F0002061E78041F20A012068095A4909B7FBA7
:10450000F1F201FB127100EB411060610020BDE887
:10451000F08100002DE9F04383B0074607F5805491
:10452000D4F81880266A0C224146684601F052FCF5
:104530009DF80B0010F0010F1AD0002088F80B0036
:10454000206201252B4632466946404601F001F9BA
:104550003846FFF7CBFE10B96D1C642DF2D3642DE5
:104560000DD004280CD19DF80B0088F80B002662B2
:104570009DF80B0010F0020F10D0002004E007207F
:1045800003B0BDE8F083401C36F810100029FAD1C2
:104590002A491930A1FB0010860800E001263146A7
:1045A0003846FFF77DFE05464FF001082DBB761E0D
:1045B00023D0E088811B384600F042F80546E5B973
:1045C000A06901F061FE81462169206801F015FCB7
:1045D000054695B9F2B24B466169206A01F042F88E
:1045E000206800F5805080F8048000213846FFF7ED
:1045F000E5FE05460DB9761EE6D1D5B921692068DC
:1046000001F0FBFB0546A5B920220021606901F0FD
:10461000EBFB0B22A169606901F0DCFBA069616919
:10462000C07A00F018000873206800F5805080F808
:10463000048003B02846BDE8F08300004FECC44E70
:1046400070B50D4600F58054E580A368012B05D0B8
:10465000206800F580504169994201D8022070BD60
:104660001BB90178032900D1436ABBB14189807825
:10467000490901FB00F6B5421CD31946206801F038
:10468000B4F80346581C10D0022B05D3206800F55F
:104690008050406998420AD8022070BD0189A94221
:1046A00001D8022070BD406A08E0012070BDAD1B3A
:1046B000B542E2D219462068FFF74DFBE36098B19E
:1046C000216801F5805253895B09B5FBF3F3184467
:1046D000206150894009B5FBF0F200FB125001EB5C
:1046E00040106061002070BD022070BD10B5002236
:1046F00008490B5C002B0AD101220A540A1801EB6D
:104700008000127A406801681046884702461046C9
:1047100010BD0000C4250020054B03EB000C03EB8B
:1047200080009CF808C04068036960461847000094
:10473000C425002030B4DFF818C00CEB00040CEBEB
:104740008000247A4068D0F808C0204630BC60471A
:10475000C425002004490A1801EB8000127A406841
:104760004168104608470000C425002030B4DFF837
:1047700018C00CEB00040CEB8000247A4068D0F8E1
:104780000CC0204630BC6047C42500200EB507A2EF
:104790004FF0FF3307CA8DE807000C226946064830
:1047A000FDF75CFF0C2001F05BFC0EBDEF01FFFF8D
:1047B000FFFF0100030D00118402002000200849C2
:1047C00000E0401C022805D200EB400251F82220F4
:1047D000002AF6D1022801D001207047002070473E
:1047E000AC23002010B50446204600F0A9FB0028A9
:1047F0000DD1204601F0D6FD002808D104F58054E3
:10480000A06AFFF71DFD002801D10021216010BD25
:104810002DE9F04182B00746904600253C464E1EE9
:10482000002E13DD6B46012201A9404600F0B6FAC6
:10483000009801280AD19DF804000D2804D004F83E
:10484000010B6D1C0A2801D0B542EBDB0020207063
:104850001DB102B03846BDE8F08102B00020BDE8CD
:10486000F0812DE9F84F80460D46404601F09AFD53
:104870000090009810B10098BDE8F88F08F58054BA
:10488000E0790028F8D1606A4FF0010A002874D05E
:10489000691C3ED0E068A84200D20546A560002D04
:1048A00000F04881691E4046FFF73CFA60612268CB
:1048B00001461046FFF74FFA0246002A66D02068EC
:1048C0006B1E00F58050418990F802C0B3FBF1F3F4
:1048D000ACF1010C03EA0C039D18A268B2FBF1F3E2
:1048E00001FB1321002900F02581A269AA4200F0F2
:1048F0002181A17911F0400F50D040780123414629
:10490000FFF734FF002845D084F807A00120BDE858
:10491000F88FD0F800B000F104080226216919B31D
:1049200089460025B61C0F466D1C206800F05DFF0F
:104930000146012903D80220E071BDE8F88F481C28
:104940001CD0781C8142EED05E4507D808F10400E7
:10495000C8F8005000F10408C0F80090206800F585
:10496000805040698842DBD8606A06605E450AD89C
:104970000020C8F8000000F0DDB820E084F807A0AF
:104980000120BDE8F88F11200090D3E00220E071F3
:10499000BDE8F88FA07920F04000A07120680123C5
:1049A00000F580502A4640784146FFF7C3FE20B10B
:1049B00084F807A00120BDE8F88FA561BAE0E0689F
:1049C000A84204D2A17911F0020F00D10546A068D7
:1049D0000027A760002D70D0226802F580518B78E7
:1049E000498903FB01F668B1691E401EB1FBF6F16F
:1049F000B0FBF6F3994205D3711E8843A0602D1ACF
:104A000061690CE0216949B900211046FFF7BEFA3F
:104A10000146012910D0481C12D021616161F1B317
:104A2000B54232D9A07910F0020F10D02068FFF7FC
:104A3000ADFA014649B10EE00220E071BDE8F88F01
:104A400084F807A00120BDE8F88F35461DE02068F6
:104A500000F0CBFE0146481C0BD0012905D9206887
:104A600000F580504069884208D80220E071BDE816
:104A7000F88F84F807A00120BDE8F88F6161A06875
:104A80003044A060AD1BB542CCD8A0682844A060DB
:104A900041F20A022068125AB5FBF2F300E00CE082
:104AA00002FB13524AB1FFF756F910B3216801F522
:104AB00080514989B5FBF1F10F182068A16800F514
:104AC00080504289B1FBF2F302FB131149B3A26992
:104AD000BA4226D0A17911F0400F12D040780123BC
:104AE0004146FFF743FE40B184F807A00120BDE82E
:104AF000F88F0220E071BDE8F88FA07920F0400027
:104B0000A0712068012300F580503A464078414664
:104B1000FFF710FE20B184F807A00120BDE8F88F50
:104B2000A761E168A068884204D9E060A07940F0FC
:104B30002000A0710098BDE8F88F00002DE9F74132
:104B400081B0164602980090684600F0E9FE0446DF
:104B5000002C03DA04B00B20BDE8F081124F57F8A7
:104B600024504FF0000835B12846FFF7C7F84FF43E
:104B7000805000F805800198002803D04FF4805140
:104B800001F8008047F8240001D0012E03D004B0C2
:104B90000020BDE8F081002202A901A800F092FBEC
:104BA00004B0BDE8F0810000C40000202DE9F74FFB
:104BB000ADF5825D002816D000F580574FF0000853
:104BC000C7F8008002F01F0641F244010DF11809F8
:104BD00026F00102694409F5805000F073FB054698
:104BE0003DB100F0D7B8092013B00DF5805DBDE8E8
:104BF000F08F0DF5805103A8086367488863496CFE
:104C0000484600F069FD05460DF58051CC6A65B94E
:104C100024B136F0010003D0012102E0062504E0B2
:104C200000214846FFF72CF8054616F01C0F65D00A
:104C300085B1042D08D1FFF7C1FD20B14846FFF72B
:104C400069FC054600E0122546F008060DF5805087
:104C5000C46A09E0E07A10F0110F01D0072503E0E3
:104C600016F0040F00D00825002D55D116F0080FBE
:104C700052D000F038FEA073010AE173010C2174D8
:104C8000000E607484F80B8084F81C8084F81D800A
:104C900084F81E8084F81F800DF5805021468069BD
:104CA00000F040FF82460021204601F0C3FA0DF5D6
:104CB00080510120896901F580510871BAF1000F16
:104CC0002AD00DF58050806900F58050D0F82CB0C6
:104CD0000DF580505146806901F028FA0546DDB98E
:104CE0000DF58052AAF10100916901F58051C8606B
:104CF0005946906901F081F805460DE065B9E07A02
:104D000010F0100F01D0042506E016F0020F03D0BA
:104D100010F0010F00D00725C5B916F0080F01D01B
:104D200046F020060DF58050806900F58050C06A7D
:104D3000F8613C6236F0010001D0012100E0002161
:104D4000484600F039FEB86200B9022515BBBE71B5
:104D500087F807800DF580502146806900F0E2FE5B
:104D60003861207FE17F627F40EA0160A17F090412
:104D700041EA02210843F860C7F80880C7F81880A4
:104D8000C7F824800DF580508069386000F58050A8
:104D9000C088B880284627E7C42300202DE9F05FAB
:104DA00082468846164699460020C9F800005046BB
:104DB00001F0F8FA00281FD10AF58054E0790028A4
:104DC0001AD1A07910F0010F15D0A168E068401A3F
:104DD000864200D90646002E6AD02268A16802F5F4
:104DE0008053B3F80AC0B1FBFCF00CFB101CBCF103
:104DF000000F03D082E00720BDE8F09F9B785B1E88
:104E00001840C7B2AFB929B1606A28B15046FEF761
:104E100089FF05E0206903E01046616900F0E5FCC8
:104E2000022803D20220E071BDE8F09F411C1ED091
:104E3000606161692068FEF78EFFE0B100EB070B4F
:104E4000206800F580504189B6FBF1F57DB381788B
:104E50007A198A4200D9CD1B40782B465A464146E2
:104E6000FFF768FC58B10120E071BDE8F09F012018
:104E7000E071BDE8F09F0220E071BDE8F09FA079ED
:104E800010F0400F0DD0A069A0EB0B00A84208D293
:104E9000216801F580514A89514600FB028000F0EB
:104EA00099FF206800F580504089454338E000E0D4
:104EB00043E0A2695A451FD0A17911F0400F0DD0EF
:104EC000407801235146FFF751FC18B10120E071F1
:104ED000BDE8F09FA07920F04000A0712068012378
:104EE00000F580505A4640785146FFF723FC18B130
:104EF0000120E071BDE8F09FC4F818B02068A168F7
:104F000000F580504089B1FBF0F200FB1211451A08
:104F1000B54200D9354651442A46404600F05AFF72
:104F2000A844A0682844A060D9F800002844C9F823
:104F30000000761B002E7FF450AF0020BDE8F09FEC
:104F400070B50546284601F02DFA0246002A4CD1DC
:104F500005F58054A07910F0200F46D010F0400FD6
:104F60000FD02068012300F5805029464078A269BF
:104F7000FFF7FCFB08B1012070BDA07920F04000D4
:104F8000A071E169206800F038FF0246002A2CD1A8
:104F9000256AE87A40F02000E872207B2877A08913
:104FA000000A6877E068000CA877E068000EE877F0
:104FB0002846216901F03EF900F095FCA875010A28
:104FC000E975010C2976000E68760020A874E87453
:104FD000A07920F02000A0712168012001F5805106
:104FE0000871206801F05DF90246104670BD2DE998
:104FF000F05F81460F46164698460020C8F800002C
:10500000484601F0CFF900281ED109F58054E07917
:10501000002819D1A07910F0020F14D0A0688119CE
:1050200000D30026002E00F0C9802268A16802F596
:105030008050B0F80AC0B1FBFCF30CFB131CBCF1B0
:10504000000F03D096E00720BDE8F09F8078401E57
:10505000184000F0FF0ABAF1000F24D129B1606AAC
:1050600050B14846FEF75EFE0AE0206940B90021D3
:105070001046FEF78BFF03E010466169FEF786FFDE
:10508000002874D0012805D0411C07D06061216937
:1050900041B108E00220E071BDE8F09F0120E0711D
:1050A000BDE8F09F2061A07910F0400F11D020687A
:1050B000012300F5805049464078A269FFF756FB6E
:1050C00018B10120E071BDE8F09FA07920F0400008
:1050D000A07161692068FEF73EFED0B100EB0A0BBB
:1050E000206800F580504189B6FBF1F56DB38178F9
:1050F0000AEB05028A4201D9A1EB0A0540782B464A
:105100005A463946FFF732FB38B10120E071BDE85D
:10511000F09F0220E071BDE8F09FA069A0EB0B00BA
:10512000A8420CD2216801F580514A8900FB027126
:10513000484600F04FFEA07920F04000A0712068A2
:1051400000F58050408945432BE0A16959450FD0B7
:10515000E268A16891420BD2407801235A46494641
:10516000FFF7E8FA20B10120E071BDE8F09F25E0EB
:10517000C4F818B02068A16800F580504089B1FBE0
:10518000F0F200FB1211451AB54200D9354601EB89
:1051900009002A46394600F01DFEA07940F0400083
:1051A000A0712F44A0682844A060D8F800002844CB
:1051B000C8F80000761B002E7FF437AFE168A068C6
:1051C000884200D9E060A07940F02000A071002062
:1051D000BDE8F09F802805D30B4A41B1B0F5807F30
:1051E00001D300207047803832F81000704700214A
:1051F00032F81130834203D0491C89B28029F7D399
:1052000001F18000C0B27047C46500080021084B5E
:1052100000E0491C33F811200AB18242F9D133F879
:105220001120002A02D0034830F811007047000016
:10523000C4660008A468000830B5054699B001228C
:105240001948FFF7B3FC10B318A000F0C3FF25E026
:1052500019A16846FAF7A6FFFAF7C6FFA84216D1C9
:1052600015A10020FAF79EFF144C0146201DFAF705
:1052700090FF13A10020FAF795FFFAF7B5FF25601C
:10528000A0630948FFF7AEFA204619B030BD064AC0
:1052900064216846FFF7BCFA0028D9D10248FFF71D
:1052A000A1FA0020F1E700003C1300204F70656E6A
:1052B000206572726F7200002C000000D000002088
:1052C0002C0A00002DE9F04F054685B00846174628
:1052D0004FF00008C5F8008000F022FB0646002EC3
:1052E00003DA05B00B20BDE8F08FDA4850F826400D
:1052F000BCB12C6004F58055287828B16878FFF798
:1053000029FA10F0010F10D085F80080F0B2687013
:10531000FFF7ECF910F0010F13D005B00320BDE842
:10532000F08F05B00C20BDE8F08F37B110F0040FFE
:1053300003D005B00A20BDE8F08F05B00020BDE81D
:10534000F08F37B110F0040F03D005B00A20BDE88C
:10535000F08F41F20A01621868780221FFF7DCF948
:1053600030B96889B0F5007F02D3B0F5805F03D90A
:1053700005B00120BDE8F08F002631462046FEF73B
:105380002FFC012829D100216F4604EB011000F504
:10539000DF70027952B1027AC37A42EA0362837AF9
:1053A000407A1B0443EA0020104300E0002047F845
:1053B0002100491C0429E8D34FF0000957F829605F
:1053C00026B131462046FEF70BFC00E0022020B15A
:1053D00009F10109B9F1040FF0D3032804D038B161
:1053E00005B00D20BDE8F08F05B00120BDE8F08FBD
:1053F000E07A217B6A8940EA0120904203D005B01F
:105400000D20BDE8F08FA07DE17D40EA012068B964
:1054100094F8240094F8271094F8253040EA0160AD
:1054200094F82610090441EA03210843A861217C6D
:10543000E970012905D0022903D005B00D20BDE88F
:10544000F08F01FB00FA677BAF7017B1791E0F4236
:1054500003D005B00D20BDE8F08F617CA37C41EA4C
:105460000329A5F808905109B9FBF1F301FB139149
:1054700019B105B00D20BDE8F08FE17C94F814C09F
:1054800041EA0C2179B994F8201094F823C094F8DB
:1054900021B041EA0C6194F822C04FEA0C4C4CEA6E
:1054A0000B2C41EA0C0194F80EC094F80FB04CEAB2
:1054B0000B2CBCF1000F08D00CEB0A0B5B4499429B
:1054C00007D205B00D20BDE8F08F05B00D20BDE876
:1054D000F08FC91AB1FBF7F161B3012740F6F67BF3
:1054E000594500D302274FF6F67B594500D30327D1
:1054F000891C6961EE61B444C5F820C03344AB62D5
:10550000032F1BD0B9F1000F32D00CEB0A036B62F2
:10551000022F31D001F0010301EB410103EB5101F6
:10552000491E1144B1FBF2F1814227D905B00D208B
:10553000BDE8F08F05B00D20BDE8F08FB9F1000F88
:1055400003D005B00D20BDE8F08F94F82C3094F80E
:105550002FC094F82D9043EA0C6394F82EC04FEAC4
:105560000C4C4CEA092C43EA0C036B628900D7E728
:1055700005B00D20BDE8F08F4900D1E74FF0FF30B6
:105580002861E86080206871032F56D194F83000BC
:1055900094F8311040EA012001284ED1711C2046B8
:1055A00000F02BFCE8BB85F8058094F8FE0194F828
:1055B000FF1140EA0120A0F52A4155393DD120785C
:1055C000E178627840EA0160A178090441EA0221A9
:1055D00008432149884230D194F8E40194F8E71156
:1055E00094F8E52140EA016094F8E611090441EAE3
:1055F00002210843194988421FD194F8E80194F820
:10560000EB1194F8E92140EA016094F8EA110904E9
:1056100041EA02210843286194F8EC0194F8EF1163
:1056200000E00AE040EA016094F8EE1194F8ED2100
:10563000090441EA02210843E8602F7008490888FC
:10564000401C0880E8802046FEF758FB05B000208B
:10565000BDE8F08FC4000020525261417272416176
:10566000C00000202DE9F0034B730F23CB72002301
:105670000B738B76CB76531E03EB830C0CEBC304BE
:1056800000239C46134D4FF6FF774E1CBB4203D0C0
:105690002346641C30F8133015F80C8001F80830EC
:1056A00015F80C904FEA132809F806800BB94FF64D
:1056B000FF730CF1010CBCF10D0FE7D3BB4202D01C
:1056C00030F8140008B942F040020A70BDE8F00357
:1056D000704700008A65000873B505460198017897
:1056E0002F2901D05C2901D1401C019005F580547F
:1056F0000026A66001980078202806D200212846BE
:10570000FEF79EFF666102B070BD01A92846FEF754
:1057100097FC0028F7D12846FEF7E8FDA169C97A71
:1057200038B10428EFD111F0040FECD1052002B0FC
:1057300070BD11F0040FFAD16169C87A10F0100F32
:1057400004D0206800F0EEF9A060DEE7052002B08A
:1057500070BD70B582B0054616461C460B22284621
:1057600000F038FB052C17D93088A8B136F8021B99
:10577000002320460C4660F35F044FEA510114F405
:10578000803F03D084F0210484F488345B1C102B08
:10579000EFD330880028E9D107216B4604F00F00D1
:1057A00000F13002392A01D9D01DC2B20846491E83
:1057B0001A542409002CF1D17E205854002200E014
:1057C000521C8A4202D2A85C2028F9D1082903D2AF
:1057D0000846491C185C00E020209446521C05F83D
:1057E0000C00082AF2D302B070BD2DE9F04707463D
:1057F0000D46022D04D307F580546069A84201D8F4
:10580000012609E04FF0FF362078012807D0022852
:1058100033D0032848D001263046BDE8F08705EB99
:1058200055086089216AB8FBF0F00144384600F061
:10583000E4FA0028F0D1608908F10109B8FBF0F121
:1058400000FB118117F80180B9FBF0F0216A0144D7
:10585000384600F0D2FA0028DED16089B9FBF0F1B9
:1058600000FB1190385C48EA002015F0010F01D0D0
:105870000609D1E7C0F30B06CEE76089216A40082C
:10588000B5FBF0F00144384600F0B7FA0028C3D168
:1058900061896800B0FBF1F201FB12003844017825
:1058A000407841EA0026B7E76089216A8008B5FBA5
:1058B000F0F00144384600F0A0FA0028ACD161892C
:1058C000A800B0FBF1F201FB120038440178C27865
:1058D00041EA026182784078120442EA00200843DB
:1058E00020F0704698E700207047000010B51021A6
:1058F0000948FBF7B7FA0949087020B148680A2837
:1059000003D2022010BD012010BD5A2801D9032066
:1059100010BD002010BD0000000801400000002064
:1059200010B404464FF0FF30D4F800C0BCF1000FB3
:105930000BD0614600E0491C0A78202A01D33A2A9C
:10594000F9D10A783A2A02D0002010BC70479CF89E
:1059500000300CF10102303B0A2BF6D28A42F4D11E
:10596000002BF2D11846491C216010BC7047000082
:105970007FB50CA5C11D3CCD8DE83C008DF80A001B
:105980008DF80C104FF0FF3423460D22694609486C
:10599000FCF764FE10B1204604B070BD0C2000F08E
:1059A0005FFBF9E7EF01FFFFFFFF010004020000CA
:1059B000000000008402002070B4002200F5805036
:1059C000284CD0F800C002EB420354F82350654540
:1059D00009D104EB830386685D68B54203D11B8956
:1059E000C588AB4202D0521C022AECD3022A1AD13B
:1059F000002200E0521C022A05D202EB420354F8B6
:105A00002330002BF6D1022A17D002EB420344F8D0
:105A100023C004EB8303D0F808C0C3F804C0C088D7
:105A200018810020588159B102EB420004EB80003C
:105A3000408928B170BC0020704770BC00207047BE
:105A400011B14FF4807005E002EB420004EB8000DE
:105A50004089401C02EB420104EB8101488170BC8B
:105A6000501C7047AC23002002220149FAF71CBFEA
:105A70000C00002010B5802000F014F80024202035
:105A800000F030F8641C462CF9DB10BD10B1012881
:105A900005D102E041F0800101E041F0C001C8B24F
:105AA000AFF300801CB500F0F00141F00C028DF85E
:105AB000042041F0080100018DF8051040F00C01B0
:105AC0008DF8061040F008008DF807006420009063
:105AD000042301AA4E210248FBF7A8FA1CBD0000CE
