:020000040800F2
:10000000A804002001010008D9120008B50F00085B
:10001000D71200086D01000821140008000000003C
:1000200000000000000000000000000001130008B4
:100030006F01000800000000DB1200080313000835
:100040001B0100081B0100081B0100081B01000820
:100050001B0100081B0100081B0100081B01000810
:100060001B0100081B0100081B0100081B01000800
:100070001B0100081B0100081B0100081B010008F0
:100080001B0100081B0100081B0100081B010008E0
:100090001B0100081B0100081B0100081B010008D0
:1000A0001B0100081B0100081B0100081B010008C0
:1000B0001B0100081B0100081B0100081B010008B0
:1000C0001B0100081B0100081B0100081B010008A0
:1000D0001B0100081B0100081B0100081B01000890
:1000E0001B0100081B0100081B010008DFF80CD0F1
:1000F00000F02AF8004800477D150008A8040020F9
:100100000648804706480047FEE7FEE7FEE7FEE7B1
:10011000FEE7FEE7FEE7FEE7FEE7FEE75513000811
:10012000ED000008D2B201E000F8012B491EFBD21D
:1001300070470022F6E710B513460A4604461946F2
:10014000FFF7F0FF204610BD064C074D06E0E068C3
:1001500040F0010394E8070098471034AC42F6D30E
:10016000FFF7C8FF4C1600086C160008FEE7704742
:1001700070B5044600F00EF90546B4F1FF3F02D019
:1001800004480078044400F005F9401BA042FAD36B
:1001900070BD0000000000202DE9F84F4FF0000C6A
:1001A00000230A68002A7DD0DFF8DC810F2708F1E0
:1001B000040909F1040A0AF1040B012202FA0CF6FF
:1001C0000A683240B2426ED1DFF8C0E14C68A4EB5D
:1001D0000E0574452BD00DDC032C34D005DC34B374
:1001E000012C19D0022C2FD11BE0112C16D0122C6F
:1001F0002AD119E0B5F5881F19D006DCB5F5803F86
:1002000015D0B5F5801F1FD111E0B5F5001F0ED038
:10021000B5F5041F18D10AE0CB6815E0CB681B1DAB
:1002200012E0CB6808330FE0CB680C330CE08B682E
:1002300023B1012B04D00823466105E0042303E029
:100240000823066100E00023B2F5807F01D2054655
:1002500001E000F1040502D24FEA8C0403E0ACF1A6
:1002600008044FEA84042E6807FA04FE26EA0E0604
:1002700003FA04F446EA04042C604C6814F0805F2E
:1002800079D0434CA56945F00105A561A46904F046
:10029000010400942CF0030404F1804404F580343C
:1002A000A66801E06EE066E04FEA8C754FEA1575CE
:1002B00007FA05FE26EA0E0EA0F18046B6F5843652
:1002C0001ED0A0F18046B6F586361BD0A0F1804640
:1002D000B6F5883618D0A0F18046B6F58A3615D026
:1002E000042606FA05F545EA0E05A5604C6814F4E7
:1002F000803F0DD0D8F800401443C8F800400CE00F
:100300000026EEE70126ECE70226EAE70326E8E707
:10031000D8F800409443C8F800404C6814F4003FFB
:1003200005D0D9F800401443C9F8004004E0D9F8DA
:1003300000409443C9F800404C6814F4801F05D075
:10034000DAF800401443CAF8004004E0DAF800404C
:100350009443CAF800404C6814F4001F05D0DBF841
:1003600000402243CBF8002005E0DBF8004024EAFF
:100370000202CBF800200CF1010C0A6832FA0CF2F0
:100380007FF41BAFBDE8F88F00040140000011109E
:100390000010024001488068704700000000002003
:1003A00070B50446002C04D094F83D00002510B12F
:1003B00006E0012070BD84F83C50204600F076F93C
:1003C000242084F83D002068016821F001010160CB
:1003D0002068016841F4004101602068016821F44F
:1003E0000041016000F0F6FA544B6168994203D86D
:1003F0005349884203D304E05249884201D2012084
:1004000070BD5149B0FBF1F12268D2F804C02CF064
:100410003F0C4CEA010CC2F804C062689A4201D851
:100420004A1C07E04FF4967251434FF47A72B1FBC5
:10043000F2F14A1C2168D1F820C02CF03F0C42EAAE
:100440000C020A626168994210D84900401EB0FB54
:10045000F1F2521CC2F30B02042A01D2042026E05E
:10046000B0FBF1F0401CC0F30B0020E0A268002AB2
:1004700050D001EBC10303EB0113A0F1010CBCFB55
:10048000F3F35B1C43F480431B051B0D4AD0002A89
:100490004AD001EBC10202EB0111401EB0FBF1F0AA
:1004A000401CC0F30B0040F4804040F40040216841
:1004B000CA6922F0FF0222F44F421043C861216A48
:1004C000E06901432068026822F0C0021143016024
:1004D000E168206901432068826822F0FF0222F46B
:1004E000034211438160A169606901432068C268C9
:1004F00022F0FF021143C1602068016841F0010150
:1005000001602564202084F83D00256384F83E5076
:10051000002070BD01EB4103A0F1010CBCFBF3F323
:100520005B1CB1E70120C2E701EB4101401EB0FBBB
:10053000F1F0401CC0F30B00B7E70000A0860100FB
:1005400080841E0000093D0040420F002DE9F84F55
:1005500004468A46904699460A9FFFF71BFF0646C7
:1005600094F83D00202802D00220BDE8F88F19231E
:1005700001224C492046009600F0BEFD10B1022039
:10058000BDE8F88F94F83C00012808D0012084F8D9
:100590003C002068016811F0010F03D006E0022042
:1005A000BDE8F88F016841F0010101602068016831
:1005B00021F400610160212084F83D00102084F8BE
:1005C0003E0000252564C4F82480A4F82A90608D9C
:1005D00020853548E06233463A465146204600F0D1
:1005E00003FD10B10120BDE8F88F206841698069E2
:1005F0000090208D002846D032463946204600F033
:100600003CFE50B1206C042804D12068016841F4FC
:10061000007101600120BDE8F88F606A21680078F0
:100620000861606A00F1010CC4F824C0608D401EAE
:100630006085208D401E80B220852268516911F0AE
:10064000040F0CD058B19CF800001061606A401C87
:100650006062608D401E6085208D401E2085324680
:100660003946204600F01AFD50B1206C042804D110
:100670002068016841F4007101600120BDE8F88F35
:10068000208D0028B8D12068016841F40071016014
:10069000202084F83D0084F83E5084F83C5000202F
:1006A000BDE8F88F020010000000FFFF10B586B013
:1006B0000021009101910291039100680F49884245
:1006C0001AD10F4CA06940F00800A061A0696946EA
:1006D00000F008000490C020009012200190032038
:1006E00003900848FFF758FDE06940F40010E0610E
:1006F000E06900F40010049006B010BD0054004002
:1007000000100240000C0140024881680278114448
:10071000816070470000002010B50748016841F073
:1007200010010160032000F07DF8002000F006F8C1
:1007300000F026F8002010BD0020024070B50446ED
:100740000D4D4FF47A712878B1FBF0F00B49096830
:10075000B1FBF0F000F0B0FB08B1012070BD102C2F
:1007600007D200222146501E00F028F86C600020BD
:1007700070BD012070BD0000000000200C000020B2
:100780000C4808B5816941F001018161816901F07E
:1007900001010091C16941F08051C161C06900F05F
:1007A000805000900448416821F0E06141F0007100
:1007B000416008BD001002400000014010B4184B19
:1007C0001B68C3F30223C3F1070CBCF1040F01D96A
:1007D0004FF0040C1C1D072C01D2002300E0DB1E8F
:1007E000012404FA0CFCACF1010C0CEA0101994063
:1007F00004FA03F35B1E1A401143002806DB00F1E4
:10080000E020090180F8001410BC704700F00F00D0
:1008100000F1E020090180F8141D10BC70470000B1
:100820000CED00E000F00700064A11684FF6FF03E8
:10083000194041EA002040F0FD7040F080601060F7
:10084000704700000CED00E02DE9F04704460D462E
:10085000002C17D0DFF85C81D8F8000000F007000A
:10086000A84212D2D8F8000020F007002843C8F8A8
:100870000000D8F8000000F00700A84205D00120D1
:10088000BDE8F0870120BDE8F08720684A4E10F0EF
:10089000020F14D010F0040F03D0706840F4E06031
:1008A0007060207810F0080F03D0706840F460503A
:1008B0007060706820F0F001A068084370602078D4
:1008C00010F0010F3AD06068012806D002280BD042
:1008D000316811F0020F27D00AE0316811F4003FAF
:1008E00006D10120BDE8F087316811F0007F18D0F3
:1008F000716821F0030108437060FFF74BFD074664
:100900007068616800F00C00B0EB810F16D041F206
:100910008839FFF73FFDC01B484508D90320BDE8D3
:10092000F0870120BDE8F0870120BDE8F0877068FE
:10093000616800F00C00B0EB810FEAD1D8F800003C
:1009400000F00700A8420FD9D8F8000020F00700F7
:100950002843C8F80000D8F8000000F00700A842BB
:1009600002D00120BDE8F087207810F0040F05D0F8
:100970007068E16820F4E06008437060207810F04F
:10098000080F06D07068216920F4605040EAC10069
:10099000706000F03FF87168084AC1F30311515CC0
:1009A000C8400749086007480068FFF7C7FE0020F5
:1009B000BDE8F08700200240001002403416000815
:1009C0000C0000200400002001480068704700006F
:1009D0000C00002000B5FFF7F7FF04494968044AFE
:1009E000C1F30221515CC84000BD0000001002406C
:1009F0004416000800B5FFF7E7FF04494968044AB8
:100A0000C1F3C221515CC84000BD0000001002408B
:100A10004416000885B015A0836842680168C06864
:100A2000039302920191049014A000680090144B6B
:100A30005968144801F00C02042A11D0082A0FD179
:100A400001A8C1F38342805C11F4803F0AD0596849
:100A5000C1F340411DF801100A4A5043B0FBF1F0C8
:100A600005B07047084905B04843704702030405C4
:100A7000060708090A0B0C0D0E0F101001020000EA
:100A80000010024000127A0000093D002DE9F84FE5
:100A90000446002C0FD02078F84D10F0010F6CD0D8
:100AA000686800F00C0004280CD0686800F00C00A6
:100AB000082803D010E00120BDE8F88F686810F422
:100AC000803F09D0286810F4003F56D060680028A5
:100AD00053D10120BDE8F88F6068B0F5803F15D094
:100AE000C8B1B0F5A02F1FD0286820F4803028604E
:100AF000286820F480202860606858B3FFF74AFC1B
:100B00000646286810F4003F17D036E0286840F405
:100B100080302860F0E7286820F48030286028685A
:100B200020F480202860E7E7286840F480202860CF
:100B3000286840F480302860DEE7FFF72BFC801B3C
:100B4000642802D90320BDE8F88F286810F4003F1C
:100B5000F3D012E0FFF71EFC0646286810F4003FB1
:100B60000BD0FFF717FC801B642802D90320BDE8D7
:100B7000F88F286810F4003FF3D12078C04F10F0B0
:100B8000020F4FF0010B4FF0000854D0686810F0CE
:100B90000C0F14D0686800F00C00082803D16868B6
:100BA00010F4803F0BD0206978B3C7F800B0FFF78E
:100BB000F1FB0646286810F0020F12D01DE02868ED
:100BC00010F0020F05D02069012802D00120BDE8F5
:100BD000F88F2868616920F0F80040EAC1002860B9
:100BE00029E0FFF7D7FB801B022802D90320BDE8CC
:100BF000F88F286810F0020FF3D02868616920F0A0
:100C0000F80040EAC100286015E0FFE7C7F800805F
:100C1000FFF7C0FB0646286810F0020F0BD0FFF765
:100C2000B9FB801B022802D90320BDE8F88F286891
:100C300010F0020FF3D1207810F0080F30D0914857
:100C4000A169C1B1C0F800B0FFF7A4FB0646686A0D
:100C500010F0020F0BD1FFF79DFB801B022802D979
:100C60000320BDE8F88F686A10F0020FF3D001206E
:100C700000F034FB14E0C0F80080FFF78BFB064661
:100C8000686A10F0020F0BD0FFF784FB801B02286C
:100C900002D90320BDE8F88F686A10F0020FF3D183
:100CA000207810F0040F6FD00026E86910F0805F04
:100CB00008D1E86940F08050E861E86900F08050B0
:100CC00000900126DFF8C0A1DAF8000010F4807F60
:100CD0001BD1DAF8000040F48070CAF80000FFF77A
:100CE00059FB8146DAF8000010F4807F0DD1FFF740
:100CF00051FBA0EB0900642802D90320BDE8F88F5E
:100D0000DAF8000010F4807FF1D0E068012816D0F6
:100D1000D0B1052821D0286A20F001002862286A75
:100D200020F004002862E06841F2883A68B3FFF7D7
:100D300031FB8146286A10F0020F17D03AE0286A8A
:100D400040F001002862EEE7286A20F001002862E6
:100D5000286A20F004002862E5E7286A40F00400D1
:100D60002862286A40F001002862DCE7FFF712FBE6
:100D7000A0EB0900504502D90320BDE8F88F286A8E
:100D800010F0020FF2D015E01AE0FFE7FFF702FBC8
:100D90008146286A10F0020F0CD0FFF7FBFAA0EB97
:100DA0000900504502D90320BDE8F88F286A10F0E9
:100DB000020FF2D1012E03D1E86920F08050E861E2
:100DC000E069E8B3696801F00C0108295ED00228E7
:100DD00010D0C7F86080FFF7DDFA0446286810F0ED
:100DE000007F66D0FFF7D6FA001B022841D9032006
:100DF000BDE8F88FC7F86080FFF7CCFA0646286890
:100E000010F0007F0BD0FFF7C5FA801B022802D933
:100E10000320BDE8F88F286810F0007FF3D1206A26
:100E2000B0F5803F05D16868A16820F40030084320
:100E30006860616A206A0843696821F4741100E0FF
:100E400037E008436860C7F860B0FFF7A3FA0446CC
:100E5000286810F0007F2CD1FFF79CFA001B0228B5
:100E600002D90320BDE8F88F286810F0007FF3D086
:100E70001FE0286810F0007FB4D11AE00010024093
:100E800000004242800442420070004001280DD020
:100E90006868226A00F48031914204D1616A00F4EA
:100EA0007010884205D00120BDE8F88F0120BDE810
:100EB000F88F0020BDE8F88F401EB0F1807F01D38D
:100EC000012070474FF0E0214861044AF020107083
:100ED00000208861072008610020704723ED00E0B2
:100EE00070B50446002C04D094F83D00002510B1E4
:100EF00006E0012070BD84F83C50204600F022F846
:100F0000242084F83D002068C16821F40051C160AC
:100F1000204600F021FA2068016921F49041016126
:100F20002068416921F02A0141612068C16841F4CB
:100F30000051C1602564202084F83D0084F83E0003
:100F4000002070BD30B585B0002400940194029457
:100F5000039400681449884224D11448816941F4FB
:100F600080418161816901F480410491816941F08E
:100F70000401816180690E4D00F0040004904FF47B
:100F800000700090022001900320039069462846DB
:100F9000FFF702F92815CDE90004694628460294B6
:100FA000FFF7FAF805B030BD0038014000100240EC
:100FB00000080140FEE701684A6912F4806F11D011
:100FC0006FF480624A6100210163202280F83D2095
:100FD00080F83E10026C42F00402026480F83C107B
:100FE0000120704700207047F8B504460D461746AB
:100FF0001E46E06A082808D0012806D010F5803F78
:1010000003D0206B122806D00AE02068016841F462
:101010008071016004E02068016841F48071016022
:101020003B4600224FF001112046009600F064F884
:1010300048B12068006810F4807F02D04FF400703F
:1010400020640320F8BD2069B0F5804F0FD005F46F
:101050004070F02141EAD0102168086133463A46D9
:101060000C49204600F0A2F830B10120F8BD2168FB
:1010700005F0FE00086102E02168E8B2086133462D
:101080003A460549204600F091F808B10120F8BD24
:101090000020F8BD080001000200010070B5044600
:1010A0000D4616462068406910F0040F13D1204603
:1010B000FFF781FF08B1012070BDB5F1FF3F05D0FA
:1010C000FFF768F9801BA84207D835B1206840694E
:1010D00010F0040FEBD0002070BD00202063202111
:1010E00084F83D1084F83E00216C41F02001216419
:1010F00084F83C00012070BD2DE9F0470446DDF87E
:1011000020900D4617461E46C5F307482068B8F1E3
:10111000010F22D0806925EA00000004000C26D0CF
:101120000020B84216D1B6F1FF3F06D0FFF732F9E2
:10113000A0EB0900B0421CD8DEB1B8F1010F28D0F5
:101140002068806925EA00000004000C2CD00020F3
:10115000B842E8D00020BDE8F087406925EA0000E9
:101160000004000C01D00020DBE70120D9E70120BA
:10117000D7E700202063202184F83D1084F83E004A
:10118000216C41F02001216484F83C000120BDE87D
:10119000F0872068406925EA00000004000C01D0B7
:1011A0000020D5E70120D3E70120D1E72DE9F04762
:1011B00004460D4616461F46C5F307482068B8F199
:1011C000010F26D0806925EA00000004000C3AD007
:1011D0004FF000094FF0200A2068406910F4806F3A
:1011E0001ED02068016841F40071016021686FF42D
:1011F00080604861C4F8309084F83DA084F83E9047
:10120000206C40F00400206484F83C900120BDE88C
:10121000F087406925EA00000004000C13D0D7E7EE
:10122000B6F1FF3F05D0FFF7B5F8C01BB0420DD8AF
:1012300066B1B8F1010F18D02068806925EA000076
:101240000004000CC8D10020BDE8F087C4F830903D
:1012500084F83DA084F83E90206C40F0200020648B
:1012600084F83C900120BDE8F0872068406925EAB9
:1012700000000004000CAFD1E5E770B504460D4650
:1012800016462068406910F0800F13D12046FFF702
:1012900092FE08B1012070BDB5F1FF3F05D0FFF708
:1012A00079F8801BA84207D835B12068406910F052
:1012B000800FEBD0002070BD00202063202184F837
:1012C0003D1084F83E00216C41F02001216484F837
:1012D0003C00012070BDFEE77047704781B00749B0
:1012E0004FF4FA520968B1FBF2F14843009000BF95
:1012F0000098411E0091FAD201B070470C00002006
:101300007047FFF701BA30B58FB028216846FEF765
:1013100010FF14210AA8FEF70CFF01210804CDE9F3
:1013200000100024029402250491CDE907504FF4E7
:10133000E01009906846FFF7A9FB0F20CDE90A05E8
:101340006802CDE90C4002210AA80E94FFF77CFA4E
:101350000FB030BD7047000070B5044620680169C9
:10136000E26821F44051114301612169A0680843FA
:10137000616901432068C26822F4037222F4A0521A
:101380001143C16020684169A26921F44071114391
:1013900041612068A0F18041B1F59C313AD0FFF75E
:1013A00019FB00EBC00101EB001061681B4A8900CA
:1013B000B0FBF1F3A2FB0353B0FBF1FC5B096FF050
:1013C00018056B430CEB83034FF0320C0CEB03134B
:1013D000A2FB03535B0903F0F005B0FBF1F3A2FBA2
:1013E00003635B0905EB0313B0FBF1F5B0FBF1F010
:1013F000A2FB001040096FF01801484305EB800084
:101400000CEB0010A2FB00102168C0F3431018443D
:10141000886070BDFFF7EEFAC3E700001F85EB514F
:10142000FEE702E008C8121F08C1002AFAD170477F
:101430007047002001E001C1121F002AFBD1704754
:1014400010B5802000F050F80024202000F06CF847
:10145000641C462CF9DB10BD10B53220FEF788FE67
:10146000302000F041F80520FEF782FE302000F029
:101470003BF80120FEF77CFE302000F035F80A2012
:10148000FEF776FE202000F02FF80A20FEF770FE0F
:10149000282000F029F80120FEF76AFE082000F05D
:1014A00023F80120FEF764FE012000F01DF8012062
:1014B000FEF75EFE0120FEF75BFE062000F014F84A
:1014C0000120FEF755FEBDE810400C2000F00CB8DE
:1014D00010B1012805D102E041F0800101E041F0A6
:1014E000C001C8B2AFF300801CB500F0F00141F0BC
:1014F0000C028DF8042041F0080100018DF8051060
:1015000040F00C018DF8061040F008008DF807003F
:1015100064200090042301AA4E210248FFF716F828
:101520001CBD0000100000201CB500F0F00141F0CF
:101530000D028DF8042041F0090100018DF805101D
:1015400040F00D018DF8061040F009008DF80700FD
:1015500064200090042301AA4E210248FEF7F6FF02
:101560001CBD00001000002010B5044602E0641C01
:10157000FFF7DAFF20780028F9D110BD08B5FFF792
:10158000CBF8FFF7C0FE2348816941F0200181615B
:10159000816901F020010091816941F004018161BC
:1015A000816901F004010091816941F008018161C4
:1015B0008069194900F00800009018480024016073
:1015C0001749C0E901144FF48041C0E90341446167
:1015D0008461C4610462FEF7E3FE1048114954308F
:1015E00001604FF4E131C0E901140C21C460C0E98D
:1015F00004418461C461FFF773FCFFF72DFF00BF56
:10160000FFF71EFF00210846FFF762FF06A0FFF765
:10161000ABFFF5E70010024000540040100000202E
:10162000A08601000038014054455354204C4344E7
:1016300000000000000000000000000001020304A0
:101640000607080900000000010203046C160008E8
:101650000000002010000000221400087C16000882
:10166000100000209804000032140008010000005F
:0C16700010000000000000000024F40046
:04000005080000ED02
:00000001FF
