:020000040800F2
:10000000E014002099010008A518000881150008D7
:10001000A3180008290200089D1A0008000000002B
:1000200000000000000000000000000001010008C6
:10003000390200080000000045010008D51800083A
:10004000B3010008B3010008B3010008B3010008C0
:10005000B3010008B3010008B3010008B3010008B0
:10006000B3010008B3010008B3010008B3010008A0
:10007000B3010008B3010008B30100082D02000815
:10008000B3010008B3010008B3010008B301000880
:10009000B3010008B3010008B3010008B301000870
:1000A000B301000851190008B3010008B3010008AA
:1000B000B3010008B3010008B3010008B301000850
:1000C000B3010008B3010008B3010008B301000840
:1000D000B3010008B3010008B3010008B301000830
:1000E000B3010008B3010008B3010008DFF80CD029
:1000F00000F088F800480047F91B0008E0140020D1
:10010000224B19680868B0E8F00F80F30988BFF344
:100110006F8F4FF0000080F311884EF00D0E704786
:100120000000000006480068006880F3088862B696
:1001300061B6BFF34F8FBFF36F8F00DF00BF00BF0B
:1001400008ED00E0EFF30980BFF36F8F0F4B1A68E3
:1001500020E9F00F106008B54FF0500080F31188CF
:10016000BFF34F8FBFF36F8F02F086F94FF000009F
:1001700080F31188BDE8084019680868B0E8F00FFE
:1001800080F30988BFF36F8F704700BF1400002011
:10019000EFF3058070470000064880470648004797
:1001A000FEE7FEE7FEE7FEE7FEE7FEE7FEE7FEE727
:1001B000FEE7FEE74F190008ED00000840EA0103E2
:1001C0009B0703D009E008C9121F08C0042AFAD20D
:1001D00003E011F8013B00F8013B521EF9D27047D1
:1001E000D2B201E000F8012B491EFBD27047002279
:1001F000F6E710B513460A4604461946FFF7F0FF26
:10020000204610BD064C074D06E0E06840F00103B3
:1002100094E8070098471034AC42F6D3FFF76AFF22
:100220003428000854280008FEE70000014800F0C8
:1002300005B800000C010020704770472DE9F05F01
:10024000C16B0A6801680B68D0F840C0042404FA46
:100250000CF414424E4C4F4D4F4E504FDFF840813E
:10026000DFF8409131D013F0040F2ED00A6812F05D
:10027000200F03D10A6822F004020A600168A1423B
:1002800001D1042119E0A94201D1402115E0B14278
:1002900002D14FF4806110E0B94202D14FF48041A5
:1002A0000BE0414502D14FF4802106E0494502D1DF
:1002B0004FF4800101E04FF080613B4A5160C16A18
:1002C000002962D0BDE8F05F08474FF0020A0AFA41
:1002D0000CFA1AEA020F4FF0000A4FF0010B35D06A
:1002E00013F0020F32D00A6812F0200F05D10A680D
:1002F00022F00A020A6080F821B00168A14201D10F
:10030000022119E0A94201D1202115E0B14202D118
:100310004FF4007110E0B94202D14FF400510BE0EC
:10032000414502D14FF4003106E0494502D14FF476
:10033000001101E04FF000711B4A516080F820A0CD
:10034000816A002921D0BDE8F05F0847082404FA3B
:100350000CFC1CEA020F18D013F0080F15D00A6825
:1003600022F00E020A6090F84010C26B0BFA01F105
:100370005160C0F838B080F821B080F820A0016B3F
:10038000002902D0BDE8F05F0847BDE8F09F0000FB
:10039000080002401C0002403000024044000240BD
:1003A000580002406C0002400000024010B40028D7
:1003B00034D01C4A01688B181B4AA2FB0332120975
:1003C00092000264194AC263022280F821200A685E
:1003D0006FF30D12D0F808C04368046943EA0C03B8
:1003E000D0F80CC04CEA040C43EA0C03D0F814C05B
:1003F00043EA0C03D0F818C043EA0C03D0F81CC041
:1004000043EA0C031A430A6000218163012280F849
:10041000212080F8201010BC0020704710BC012063
:1004200070470000F8FFFDBFCDCCCCCC00000240EF
:1004300070B5044600F00EF90546B4F1FF3F02D056
:1004400004480078044400F005F9401BA042FAD3A8
:1004500070BD0000040000202DE9F84F4FF0000CA3
:1004600000230A68002A7DD0DFF8DC810F2708F11D
:10047000040909F1040A0AF1040B012202FA0CF63C
:100480000A683240B2426ED1DFF8C0E14C68A4EB9A
:100490000E0574452BD00DDC032C34D005DC34B3B1
:1004A000012C19D0022C2FD11BE0112C16D0122CAC
:1004B0002AD119E0B5F5881F19D006DCB5F5803FC3
:1004C00015D0B5F5801F1FD111E0B5F5001F0ED076
:1004D000B5F5041F18D10AE0CB6815E0CB681B1DE9
:1004E00012E0CB6808330FE0CB680C330CE08B686C
:1004F00023B1012B04D00823466105E0042303E067
:100500000823066100E00023B2F5807F01D2054692
:1005100001E000F1040502D24FEA8C0403E0ACF1E3
:1005200008044FEA84042E6807FA04FE26EA0E0641
:1005300003FA04F446EA04042C604C6814F0805F6B
:1005400079D0434CA56945F00105A561A46904F083
:10055000010400942CF0030404F1804404F5803479
:10056000A66801E06EE066E04FEA8C754FEA15750B
:1005700007FA05FE26EA0E0EA0F18046B6F584368F
:100580001ED0A0F18046B6F586361BD0A0F180467D
:10059000B6F5883618D0A0F18046B6F58A3615D063
:1005A000042606FA05F545EA0E05A5604C6814F424
:1005B000803F0DD0D8F800401443C8F800400CE04C
:1005C0000026EEE70126ECE70226EAE70326E8E745
:1005D000D8F800409443C8F800404C6814F4003F39
:1005E00005D0D9F800401443C9F8004004E0D9F818
:1005F00000409443C9F800404C6814F4801F05D0B3
:10060000DAF800401443CAF8004004E0DAF8004089
:100610009443CAF800404C6814F4001F05D0DBF87E
:1006200000402243CBF8002005E0DBF8004024EA3C
:100630000202CBF800200CF1010C0A6832FA0CF22D
:100640007FF41BAFBDE8F88F0004014000001110DB
:10065000001002400148806870470000040000203C
:1006600070B50446002C04D094F83D00002510B16C
:1006700006E0012070BD84F83C50204600F076F979
:10068000242084F83D002068016821F00101016008
:100690002068016841F4004101602068016821F48C
:1006A0000041016000F04CFB544B6168994203D853
:1006B0005349884203D304E05249884201D20120C1
:1006C00070BD5149B0FBF1F12268D2F804C02CF0A2
:1006D0003F0C4CEA010CC2F804C062689A4201D88F
:1006E0004A1C07E04FF4967251434FF47A72B1FB03
:1006F000F2F14A1C2168D1F820C02CF03F0C42EAEC
:100700000C020A626168994210D84900401EB0FB91
:10071000F1F2521CC2F30B02042A01D2042026E09B
:10072000B0FBF1F0401CC0F30B0020E0A268002AEF
:1007300050D001EBC10303EB0113A0F1010CBCFB92
:10074000F3F35B1C43F480431B051B0D4AD0002AC6
:100750004AD001EBC10202EB0111401EB0FBF1F0E7
:10076000401CC0F30B0040F4804040F4004021687E
:10077000CA6922F0FF0222F44F421043C861216A85
:10078000E06901432068026822F0C0021143016061
:10079000E168206901432068826822F0FF0222F4A8
:1007A000034211438160A169606901432068C26806
:1007B00022F0FF021143C1602068016841F001018D
:1007C00001602564202084F83D00256384F83E50B4
:1007D000002070BD01EB4103A0F1010CBCFBF3F361
:1007E0005B1CB1E70120C2E701EB4101401EB0FBF9
:1007F000F1F0401CC0F30B00B7E70000A086010039
:1008000080841E0000093D0040420F002DE9F84F92
:1008100004468A46904699460A9FFFF71BFF064604
:1008200094F83D00202802D00220BDE8F88F19235B
:1008300001224C492046009600F044FF10B10220EE
:10084000BDE8F88F94F83C00012808D0012084F816
:100850003C002068016811F0010F03D006E002207F
:10086000BDE8F88F016841F001010160206801686E
:1008700021F400610160212084F83D00102084F8FB
:100880003E0000252564C4F82480A4F82A90608DD9
:1008900020853548E06233463A465146204600F00E
:1008A00089FE10B10120BDE8F88F20684169806998
:1008B0000090208D002846D032463946204600F070
:1008C000C2FF50B1206C042804D12068016841F4B3
:1008D000007101600120BDE8F88F606A216800782E
:1008E0000861606A00F1010CC4F824C0608D401EEC
:1008F0006085208D401E80B220852268516911F0EC
:10090000040F0CD058B19CF800001061606A401CC4
:100910006062608D401E6085208D401E20853246BD
:100920003946204600F0A0FE50B1206C042804D1C6
:100930002068016841F4007101600120BDE8F88F72
:10094000208D0028B8D12068016841F40071016051
:10095000202084F83D0084F83E5084F83C5000206C
:10096000BDE8F88F020010000000FFFF10B586B050
:100970000021009101910291039100680F49884282
:100980001AD10F4CA06940F00800A061A069694627
:1009900000F008000490C020009012200190032075
:1009A00003900848FFF758FDE06940F40010E0614B
:1009B000E06900F40010049006B010BD005400403F
:1009C00000100240000C0140024881680278114486
:1009D000816070470400002010B50748016841F0AD
:1009E00010010160032000F0B5F80F2000F006F8B8
:1009F00000F04AF8002010BD0020024030B5054646
:100A00001C4887B0816941F400618161806906A951
:100A100000F40060009001A800F06EF900F0A0F969
:100A20001549164AB0FBF1F11548491E02604160B4
:100A300040F2E7320021C0E903218160816100F0CA
:100A4000F3FB040012D10E4800F01DFC04000DD190
:100A5000192000F03DF8102D07D200222946192058
:100A600000F044F80748056000E0012407B0204684
:100A700030BD00000010024040420F00002C014039
:100A8000A4030020080000200F4808B5816941F048
:100A900001018161816901F001010091C16941F0A9
:100AA0008051C161C069002200F0805000900F2188
:100AB000901E00F01BF80548416821F0E06141F00C
:100AC0000071416008BD00000010024000000140BC
:100AD00000280ADB00F01F01012202FA01F140099F
:100AE000800000F1E020C0F80011704710B4184BEE
:100AF0001B68C3F30223C3F1070CBCF1040F01D937
:100B00004FF0040C1C1D072C01D2002300E0DB1E5B
:100B1000012404FA0CFCACF1010C0CEA010199402F
:100B200004FA03F35B1E1A401143002806DB00F1B0
:100B3000E020090180F8001410BC704700F00F009D
:100B400000F1E020090180F8141D10BC704700007E
:100B50000CED00E000F00700064A11684FF6FF03B5
:100B6000194041EA002040F0FD7040F080601060C4
:100B7000704700000CED00E02DE9F04704460D46FB
:100B8000002C17D0DFF85C81D8F8000000F00700D7
:100B9000A84212D2D8F8000020F007002843C8F875
:100BA0000000D8F8000000F00700A84205D001209E
:100BB000BDE8F0870120BDE8F08720684A4E10F0BC
:100BC000020F14D010F0040F03D0706840F4E060FE
:100BD0007060207810F0080F03D0706840F4605007
:100BE0007060706820F0F001A068084370602078A1
:100BF00010F0010F3AD06068012806D002280BD00F
:100C0000316811F0020F27D00AE0316811F4003F7B
:100C100006D10120BDE8F087316811F0007F18D0BF
:100C2000716821F0030108437060FFF713FD074668
:100C30007068616800F00C00B0EB810F16D041F2D3
:100C40008839FFF707FDC01B484508D90320BDE8D8
:100C5000F0870120BDE8F0870120BDE8F0877068CB
:100C6000616800F00C00B0EB810FEAD1D8F8000009
:100C700000F00700A8420FD9D8F8000020F00700C4
:100C80002843C8F80000D8F8000000F00700A84288
:100C900002D00120BDE8F087207810F0040F05D0C5
:100CA0007068E16820F4E06008437060207810F01C
:100CB000080F06D07068216920F4605040EAC10036
:100CC000706000F05DF87168084AC1F30311515C6F
:100CD000C8400749086007480068FFF78FFE0020FA
:100CE000BDE8F087002002400010024010280008F4
:100CF00010000020080000200F2202600B4A5368F9
:100D000003F003034360536803F0F0038360536808
:100D100003F4E063C360526802F46052D2080261D7
:100D20000348006800F007000860704700100240A8
:100D300000200240014800687047000010000020B9
:100D400000B5FFF7F7FF04494968044AC1F30221DF
:100D5000515CC84000BD000000100240202800087F
:100D600000B5FFF7E7FF04494968044AC1F3C2210F
:100D7000515CC84000BD000000100240202800085F
:100D800085B015A0836842680168C0680393029229
:100D90000191049014A000680090144B5968144805
:100DA00001F00C02042A11D0082A0FD101A8C1F3C6
:100DB0008342805C11F4803F0AD05968C1F34041FE
:100DC0001DF801100A4A5043B0FBF1F005B070471E
:100DD000084905B04843704702030405060708099F
:100DE0000A0B0C0D0E0F1010010200000010024043
:100DF00000127A0000093D002DE9F84F0446002C4E
:100E00000FD02078F84D10F0010F6CD0686800F01A
:100E10000C0004280CD0686800F00C00082803D0EF
:100E200010E00120BDE8F88F686810F4803F09D019
:100E3000286810F4003F56D06068002853D1012084
:100E4000BDE8F88F6068B0F5803F15D0C8B1B0F547
:100E5000A02F1FD0286820F480302860286820F454
:100E600080202860606858B3FFF7F4FB06462868C6
:100E700010F4003F17D036E0286840F48030286036
:100E8000F0E7286820F480302860286820F480206B
:100E90002860E7E7286840F480202860286840F44C
:100EA00080302860DEE7FFF7D5FB801B642802D97D
:100EB0000320BDE8F88F286810F4003FF3D012E05B
:100EC000FFF7C8FB0646286810F4003F0BD0FFF779
:100ED000C1FB801B642802D90320BDE8F88F286875
:100EE00010F4003FF3D12078C04F10F0020F4FF004
:100EF000010B4FF0000854D0686810F00C0F14D0AC
:100F0000686800F00C00082803D1686810F4803F7E
:100F10000BD0206978B3C7F800B0FFF79BFB0646FB
:100F2000286810F0020F12D01DE0286810F0020FA0
:100F300005D02069012802D00120BDE8F88F28687B
:100F4000616920F0F80040EAC100286029E0FFF75D
:100F500081FB801B022802D90320BDE8F88F286896
:100F600010F0020FF3D02868616920F0F80040EA21
:100F7000C100286015E0FFE7C7F80080FFF76AFBB3
:100F80000646286810F0020F0BD0FFF763FB801BAA
:100F9000022802D90320BDE8F88F286810F0020F5C
:100FA000F3D1207810F0080F30D09148A169C1B179
:100FB000C0F800B0FFF74EFB0646686A10F0020F5B
:100FC0000BD1FFF747FB801B022802D90320BDE8A5
:100FD000F88F686A10F0020FF3D0012000F064FC73
:100FE00014E0C0F80080FFF735FB0646686A10F091
:100FF000020F0BD0FFF72EFB801B022802D9032023
:10100000BDE8F88F686A10F0020FF3D1207810F075
:10101000040F6FD00026E86910F0805F08D1E869FE
:1010200040F08050E861E86900F0805000900126AF
:10103000DFF8C0A1DAF8000010F4807F1BD1DAF8E5
:10104000000040F48070CAF80000FFF703FB8146FF
:10105000DAF8000010F4807F0DD1FFF7FBFAA0EB67
:101060000900642802D90320BDE8F88FDAF80000EF
:1010700010F4807FF1D0E068012816D0D0B10528A7
:1010800021D0286A20F001002862286A20F004009C
:101090002862E06841F2883A68B3FFF7DBFA8146DC
:1010A000286A10F0020F17D03AE0286A40F00100D9
:1010B0002862EEE7286A20F001002862286A20F002
:1010C00004002862E5E7286A40F004002862286AE4
:1010D00040F001002862DCE7FFF7BCFAA0EB090052
:1010E000504502D90320BDE8F88F286A10F0020F9E
:1010F000F2D015E01AE0FFE7FFF7ACFA8146286A64
:1011000010F0020F0CD0FFF7A5FAA0EB0900504534
:1011100002D90320BDE8F88F286A10F0020FF2D13F
:10112000012E03D1E86920F08050E861E069E8B35E
:10113000696801F00C0108295ED0022810D0C7F8B8
:101140006080FFF787FA0446286810F0007F66D0B9
:10115000FFF780FA001B022841D90320BDE8F88F71
:10116000C7F86080FFF776FA0646286810F0007F1F
:101170000BD0FFF76FFA801B022802D90320BDE8CD
:10118000F88F286810F0007FF3D1206AB0F5803F17
:1011900005D16868A16820F4003008436860616A7E
:1011A000206A0843696821F4741100E037E00843BD
:1011B0006860C7F860B0FFF74DFA0446286810F081
:1011C000007F2CD1FFF746FA001B022802D903202A
:1011D000BDE8F88F286810F0007FF3D01FE0286882
:1011E00010F0007FB4D11AE000100240000042422B
:1011F000800442420070004001280DD06868226AD5
:1012000000F48031914204D1616A00F47010884288
:1012100005D00120BDE8F88F0120BDE8F88F00203F
:10122000BDE8F88F7047704710B50446002C03D016
:1012300094F83D0010B107E0012010BD002084F8B3
:101240003C00204600F01EF8022084F83D00211DDD
:10125000206800F083FB012084F8460084F83E00FB
:1012600084F83F0084F8400084F8410084F842008C
:1012700084F8430084F8440084F8450084F83D0075
:10128000002010BD704790F83D10012901D00120C9
:101290007047022180F83D100168CA6842F00102DF
:1012A000CA600068A0F18041B1F5963112D0B0F16A
:1012B000804F0FD0A0F18041B1F580610AD0A0F13C
:1012C0008041B1F5006105D0016841F00101016084
:1012D00000207047816801F007010629F8D00168F5
:1012E00041F001010160F3E7704770B504462068E2
:1012F00001694FF0000511F0020F17D0C16811F01D
:10130000020F13D0E91E0161012020772068806957
:1013100010F0030F03D02046FFF7E6FF05E020465C
:1013200000F09DF8204600F09BF8257720680169C1
:1013300011F0040F18D0C16811F0040F14D06FF031
:1013400004010161022020772068806910F4407F49
:1013500003D02046FFF7C8FF05E0204600F07FF8E5
:10136000204600F07DF825772068016911F0080F0C
:1013700018D0C16811F0080F14D06FF00801016196
:10138000042020772068C06910F0030F03D02046A6
:10139000FFF7AAFF05E0204600F061F8204600F0C4
:1013A0005FF825772068016911F0100F18D0C16827
:1013B00011F0100F14D06FF0100101610820207798
:1013C0002068C06910F4407F03D02046FFF78CFFEF
:1013D00005E0204600F043F8204600F041F825776C
:1013E0002068016911F0010F09D0C16811F0010FE7
:1013F00005D06FF001010161204600F033F820684C
:10140000016911F0800F09D0C16811F0800F05D07B
:101410006FF0800101612046FFF704FF2068016939
:1014200011F0400F09D0C16811F0400F05D06FF0E6
:1014300040010161204600F01FF82068016911F0A9
:10144000200F0BD0C16811F0200F07D06FF02001E2
:1014500001612046BDE87040FFF7E5BE70BD7047F2
:101460007047000000680349884201D1FFF7ACBA19
:1014700070470000002C0140704770B50446002CF6
:1014800004D094F83D00002510B106E0012070BDA5
:1014900084F83C50204600F023F8242084F83D00D6
:1014A0002068C16821F40051C160204600F092FA22
:1014B0002068016921F4904101612068416921F0AF
:1014C0002A0141612068C16841F40051C16025646E
:1014D000202084F83D0084F83E00002070BD00000C
:1014E00070B586B0002506460095019502950395D6
:1014F00000681E49884237D11D49886940F4804000
:101500008861886900F480400490886940F0040094
:1015100088618869174C00F0040004904815009019
:10152000022001900320039069462046FEF794FFB5
:101530002015CDE90005694620460295FEF78CFF8F
:101540000E4C0D48C4E900058020C4E9025020205B
:101550002561C4E905502046E561FEF727FF08B183
:10156000FEF76BFEB463666206B070BD00380140E2
:101570000010024000080140580002400C01002009
:10158000FEE701684A6912F4806F11D06FF480623F
:101590004A6100210163202280F83D2080F83E103E
:1015A000026C42F00402026480F83C100120704793
:1015B00000207047F8B504460D4617461E46E06AFF
:1015C000082808D0012806D010F5803F03D0206BF2
:1015D000122806D00AE02068016841F48071016099
:1015E00004E02068016841F4807101603B460022FC
:1015F0004FF001112046009600F064F848B12068D1
:10160000006810F4807F02D04FF400702064032043
:10161000F8BD2069B0F5804F0FD005F44070F0217F
:1016200041EAD0102168086133463A460C49204609
:1016300000F0A2F830B10120F8BD216805F0FE00ED
:10164000086102E02168E8B2086133463A4605497C
:10165000204600F091F808B10120F8BD0020F8BD47
:10166000080001000200010070B504460D46164650
:101670002068406910F0040F13D12046FFF781FF66
:1016800008B1012070BDB5F1FF3F05D0FEF7E2FFC4
:10169000801BA84207D835B12068406910F0040FBC
:1016A000EBD0002070BD00202063202184F83D1085
:1016B00084F83E00216C41F02001216484F83C0054
:1016C000012070BD2DE9F0470446DDF820900D465D
:1016D00017461E46C5F307482068B8F1010F22D00F
:1016E000806925EA00000004000C26D00020B842E2
:1016F00016D1B6F1FF3F06D0FEF7ACFFA0EB090014
:10170000B0421CD8DEB1B8F1010F28D02068806942
:1017100025EA00000004000C2CD00020B842E8D0DC
:101720000020BDE8F087406925EA00000004000CB5
:1017300001D00020DBE70120D9E70120D7E7002016
:101740002063202184F83D1084F83E00216C41F094
:101750002001216484F83C000120BDE8F087206866
:10176000406925EA00000004000C01D00020D5E704
:101770000120D3E70120D1E72DE9F04704460D46CB
:1017800016461F46C5F307482068B8F1010F26D05A
:10179000806925EA00000004000C3AD04FF00009EF
:1017A0004FF0200A2068406910F4806F1ED0206836
:1017B000016841F40071016021686FF48060486144
:1017C000C4F8309084F83DA084F83E90206C40F03E
:1017D0000400206484F83C900120BDE8F087406953
:1017E00025EA00000004000C13D0D7E7B6F1FF3F54
:1017F00005D0FEF72FFFC01BB0420DD866B1B8F17F
:10180000010F18D02068806925EA00000004000C50
:10181000C8D10020BDE8F087C4F8309084F83DA01E
:1018200084F83E90206C40F02000206484F83C90C6
:101830000120BDE8F0872068406925EA0000000427
:10184000000CAFD1E5E770B504460D46164620689A
:10185000406910F0800F13D12046FFF792FE08B1C7
:10186000012070BDB5F1FF3F05D0FEF7F3FE801BF0
:10187000A84207D835B12068406910F0800FEBD03E
:10188000002070BD00202063202184F83D1084F8E2
:101890003E00216C41F02001216484F83C000120CD
:1018A00070BDFEE77047000081B007494FF4FA525F
:1018B0000968B1FBF2F14843009000BF0098411E57
:1018C0000091FAD201B0704710000020012000F012
:1018D00017FAFBE710B5502080F31188BFF34F8F44
:1018E000BFF36F8F00F0B8FE18B104494FF080507D
:1018F0000860002080F3118810BD000004ED00E0B6
:1019000030B58FB028216846FEF771FC14210AA873
:10191000FEF76DFC01210804CDE9001000240294BB
:1019200002250491CDE907504FF4E0100990684674
:10193000FFF762FA0F20CDE90A056802CDE90C40F5
:1019400002210AA80E94FFF717F90FB030BD7047B7
:101950000148FFF7CABC0000A403002030B40268AD
:10196000194B1A4CDFF868C0984206D0B0F1804F8E
:1019700003D0A04201D0604503D122F070024D682F
:101980002A43984206D0B0F1804F03D0A04201D044
:10199000604505D122F44072D1F80CC04CEA020235
:1019A000D1F814C022F0800242EA0C0202608A6878
:1019B000C2620A688262984201D109690163012109
:1019C000416130BC70470000002C01400004004021
:1019D0000008004070B5044620680169E26821F4FF
:1019E0004051114301612169A068084361690143C5
:1019F0002068C26822F4037222F4A0521143C1602D
:101A000020684169A26921F4407111434161206855
:101A1000A0F18041B1F59C313AD0FFF791F900EB8C
:101A2000C00101EB001061681B4A8900B0FBF1F3B3
:101A3000A2FB0353B0FBF1FC5B096FF018056B438D
:101A40000CEB83034FF0320C0CEB0313A2FB03539C
:101A50005B0903F0F005B0FBF1F3A2FB03635B0944
:101A600005EB0313B0FBF1F5B0FBF1F0A2FB0010A6
:101A700040096FF01801484305EB80000CEB0010A3
:101A8000A2FB00102168C0F343101844886070BDA9
:101A9000FFF766F9C3E700001F85EB51FEE702E0A0
:101AA00008C8121F08C1002AFAD1704770470020E9
:101AB00001E001C1121F002AFBD1704710B5802040
:101AC00000F050F80024202000F06CF8641C462C34
:101AD000F9DB10BD10B53220FEF7AAFC302000F073
:101AE00041F80520FEF7A4FC302000F03BF801206F
:101AF000FEF79EFC302000F035F80A20FEF798FC37
:101B0000202000F02FF80A20FEF792FC282000F099
:101B100029F80120FEF78CFC082000F023F80120B2
:101B2000FEF786FC012000F01DF80120FEF780FC86
:101B30000120FEF77DFC062000F014F80120FEF7DE
:101B400077FCBDE810400C2000F00CB810B1012863
:101B500005D102E041F0800101E041F0C001C8B2CE
:101B6000AFF300801CB500F0F00141F00C028DF8DD
:101B7000042041F0080100018DF8051040F00C012F
:101B80008DF8061040F008008DF8070064200090E2
:101B9000042301AA4E210248FEF738FE1CBD0000B6
:101BA000740000201CB500F0F00141F00D028DF82A
:101BB000042041F0090100018DF8051040F00D01ED
:101BC0008DF8061040F009008DF8070064200090A1
:101BD000042301AA4E210248FEF718FE1CBD000096
:101BE0007400002010B5044602E0641CFFF7DAFF21
:101BF00020780028F9D110BD88B0FEF7EDFEFFF780
:101C00007FFE3148816941F020018161816901F0E5
:101C100020010791816941F004018161816901F02E
:101C200004010791816941F008018161816901F036
:101C300008010791416941F00101416140690022B9
:101C400000F00100079005210F20FEF74FFF0F2045
:101C5000FEF73EFF1E481D49002401601D49C0E9F2
:101C600001144FF48041C0E9034144618461C461BF
:101C70000462FEF7F5FC16481749543001604FF432
:101C8000E131C0E901140C21C460C0E90441846160
:101C9000C461FFF7F2FBFFF71DFF1C220F496846E6
:101CA000FEF78CFA0021684600F037F80C4908600E
:101CB00000F02EF8FFF702FF00210846FFF746FF6D
:101CC00008A0FFF78FFFF5E7001002400054004026
:101CD00074000020A086010000380140F4270008AD
:101CE00000000020544553542043414D20424945B3
:101CF0004E2000000021842800D0C11C08467047F7
:101D000010B5002800D1012000F042FB002010BDDA
:101D100010B500F065FB002010BD30B585B004465D
:101D20000D466169B4F90800002910D0A16971B1AC
:101D3000FFF7E0FF6269A1690192029100902B46D2
:101D400022692168606800F057FC049010E0FFF7FA
:101D5000D1FF04A901910090208A2B4682B221680C
:101D6000606800F013FC012802D005B0002030BDEF
:101D7000049805B030BD00002DE9F04104460F463F
:101D8000194E75693068001D00F038FA48B930689E
:101D9000012190F82C0001FA00F0B16921EA00005D
:101DA000B061B4F1FF3F07D137B13068BDE8F04111
:101DB000011D0E4800F069BA2C4430684460AC4202
:101DC00006D23068011DB068BDE8F04100F042BAAB
:101DD0003068011D706800F03DFA306B844200D21B
:101DE0003463BDE8F081000014000020C804002026
:101DF00070B5044600F056FA1C4D2869401C286155
:101E0000286810B1E86938B10CE02C602869012815
:101E100008D100F0E7F805E02868E16AC06A884266
:101E200000D82C60E86A401CE862E06A0121AA69D7
:101E300081401143A9610E4900EB800001EB800055
:101E4000211D00F022FA00F04DFAE86900280CD0BC
:101E50002868E16AC06A884207D206494FF080507C
:101E60000860BFF34F8FBFF36F8F70BD1400002069
:101E7000EC03002004ED00E070B50D4CE068002894
:101E800015D00C4E00F00EFAF068C568281D00F061
:101E9000B5F92069401E2061E068401EE06000F056
:101EA00021FA284600F008F8E0680028EAD170BD61
:101EB00014000020B404002010B5044694F851101A
:101EC00000290BD0012911D0022914D0502080F311
:101ED0001188BFF34F8FBFF36F8FFEE7206B00F0C9
:101EE00017FA2046BDE8104000F012BA2046BDE8BF
:101EF000104000F00DBA10BD4FF44061104810F0D2
:101F0000070F06D0C01D20F007000D49411AC1F58A
:101F100040610C4A1060002353600144083921F0ED
:101F20000701103A11604B600B600B1A43600160AF
:101F30004068906050604FF00040D06070470000F3
:101F4000DC04002060000020074E4FF08054074D55
:101F5000FFF792FF30680128FAD92C60BFF34F8F4A
:101F6000BFF36F8FF4E70000EC03002004ED00E006
:101F70002DE9F0478146099E089D0A9C9A46521E0B
:101F8000206B00EB820020F00708002700202318B8
:101F90000A5C83F834200A5C12B1401C1028F6D386
:101FA00084F84370072D00D30625E5626564A764B5
:101FB000201D00F04CF904F1180000F048F92461EC
:101FC000C5F10700A0616462E76484F8507052466E
:101FD0004946404600F000F92060002E00D03460F1
:101FE000BDE8F08770B500240F4D04EB840005EBCD
:101FF000800000F021F9641C072CF6D30B4800F098
:102000001BF90B4800F018F90A4800F015F90A48C6
:1020100000F012F9094800F00FF90948034941603E
:102020001431816070BD0000EC03002078040020B2
:102030008C040020A0040020B4040020C804002068
:102040001400002010B4144900E011460A688242CE
:10205000FBD34B6803EB010C844503D14068184463
:10206000486008460C68D0F804C00CEB0003A3429B
:102070000CD10A4B1B689A4206D0526862444260F7
:102080000A681268026002E0036000E002608142B8
:1020900000D0086010BC7047600000205000002095
:1020A000074948680068002805D04868C068C068CB
:1020B0004068086370474FF0FF30086370470000C6
:1020C000140000200A484068B0F1FF3F07D05020BC
:1020D00080F31188BFF34F8FBFF36F8FFEE750205F
:1020E00080F31188BFF34F8FBFF36F8FFEE70000BF
:1020F000680000202DE9F0410546002600F0B4F903
:10210000334F386808B9FFF7F7FEF86805424ED13B
:102110009DB1083515F0070F0FD005F00700C0F18D
:102120000800054415F0070F07D0502080F31188F0
:10213000BFF34F8FBFF36F8FFEE7002D37D0786866
:10214000854234D823490846046801E02146044604
:102150006068A84202D220680028F7D1386884421B
:1021600025D0086800F10806206808606068411BF7
:1021700010290FD9601910F0070F07D0502080F3F5
:102180001188BFF34F8FBFF36F8FFEE7416065602B
:10219000FFF758FF61687868401A7860BA68904223
:1021A00000D2B860F868084360600020206000F04A
:1021B000BBFA16F0070F07D0502080F31188BFF349
:1021C0004F8FBFF36F8FFEE73046BDE8F081000010
:1021D0005000002060000020001F4FF0807303605B
:1021E000001F21F001010160001F03490160143844
:1021F0000260203870470000C5200008016943686C
:1022000082689A60836842685A604A68824201D153
:1022100082684A60002202610868401E08600868FF
:1022200070470000034B036003F1540008608020F6
:10223000106070475001002000F1080141604FF02C
:10224000FF328260C160016100210160704700219E
:102250000161704710B4D1F800C0BCF1FF3F02D05B
:1022600000F1080202E0026904E01A4653681C68A3
:102270006445FAD953684B6099608A60516008617F
:102280000168491C016010BC704742684A6093684D
:102290008B6093685960916008610168491C016016
:1022A00070470000502080F31188BFF34F8FBFF3B9
:1022B0006F8F0A494868401C486001280CD10848C3
:1022C000006810F0FF0F07D0502080F31188BFF393
:1022D0004F8FBFF36F8FFEE770470000680000204C
:1022E00004ED00E009494868002806D0401E486017
:1022F000002801D180F311887047502080F31188A5
:10230000BFF34F8FBFF36F8FFEE700006800002020
:1023100070B5002827D0A0F10804134D6068E96863
:10232000084207D1502080F31188BFF34F8FBFF3CD
:102330006F8FFEE722683AB1502080F31188BFF317
:102340004F8FBFF36F8FFEE78843606000F08CF81B
:1023500060686968084468602046FFF773FEBDE85E
:10236000704000F0E1B970BD500000204FF0E02057
:1023700000210161816105494FF47A720968B1FB5E
:10238000F2F1491E416107210161704710000020F0
:1023900010B502460020002A12D00F48806B38B1D9
:1023A000502080F31188BFF34F8FBFF36F8FFEE78C
:1023B00000F05AF800211046FFF7DEFC00F0B4F9F7
:1023C000002807D105494FF080500860BFF34F8FB8
:1023D000BFF36F8F10BD00001400002004ED00E07B
:1023E00010B586B000240594049403AA04A905A896
:1023F000FFF718FF059804990191029000230094BB
:1024000015A11748039A00F0F7F81649486308B178
:10241000012000E0002001280AD0B0F1FF3F19D1CF
:10242000502080F31188BFF34F8FBFF36F8FFEE70B
:10243000502080F31188BFF34F8FBFF36F8F4FF0A1
:10244000FF3008630120C8614C6106B0BDE8104050
:1024500000F042B806B010BD49444C4500000000F1
:10246000491F0008140000200248816B491C816349
:102470007047000014000020154A906B002802D01D
:10248000012050627047002050629069B0FA80F0DD
:10249000C0F11F000F4900EB800051F8203073B1EC
:1024A00001EB800041684968416000F108039942EE
:1024B00001D1496841604068C06810607047502091
:1024C00080F31188BFF34F8FBFF36F8FFEE70000DB
:1024D00014000020EC03002000B583B028490878E0
:1024E0000290FF200870087801909DF804009DF884
:1024F000042000F0F000904207D0502080F31188B3
:10250000BFF34F8FBFF36F8FFEE79DF804001D4BA5
:1025100000F050001870072098609DF8040010F03B
:10252000800F0BD09868401E98609DF80400400012
:1025300001909DF8040010F0800FF3D198680328F3
:1025400007D0502080F31188BFF34F8FBFF36F8FF8
:10255000FEE74FF440709860029808700A480168DE
:1025600041F470010160016841F070410160FFF7C2
:10257000FDFE00205860FDF7D5FD03B0002000BD32
:1025800000E400E06800002020ED00E02DE9F04FBD
:1025900085B081460F9F0E9E8A4690469B464FEA25
:1025A0008800FFF7A7FD054628000AD05420FFF752
:1025B000A1FD04460CB1256304E02846FFF7A8FE00
:1025C00000E000249CB1002084F8510003905B4699
:1025D000424651460197009602944846FFF7C8FCD0
:1025E0002046FFF705FC05B00120BDE8F08F05B0DF
:1025F0004FF0FF30BDE8F08F70B586B00646DDF8CD
:1026000028C00C9C0B98002816D0ECB154250495DA
:102610002063022084F85100002005AD0390CDF81E
:1026200000C0019502943046FFF7A2FC2046FFF758
:10263000DFFB059806B070BD502080F31188BFF312
:102640004F8FBFF36F8FFEE7502080F31188BFF3E9
:102650004F8FBFF36F8FFEE72DE9F0470026304F15
:10266000B86B002808D0386A401C3862786A00B11C
:1026700001263046BDE8F0877869451C7D619DB92B
:102680007868006838B1502080F31188BFF34F8F0D
:10269000BFF36F8FFEE77868B9687960B860B86A91
:1026A000401CB862FFF7FCFC386BDFF8788085428D
:1026B0000FD34FF001097868006838B17868C068B6
:1026C000C468606885420ED2386302E04FF0FF3084
:1026D00038633868C06A00EB800058F82000012891
:1026E000C4D90126C2E7201DFFF788FDA06A18B1F2
:1026F00004F11800FFF782FDE16ABA6909FA01F0F6
:102700001043B86101EB810008EB8000211DFFF749
:10271000BCFDE06A3968C96A8842CCD30126CAE7A1
:1027200014000020EC0300202DE9F0470024A0460F
:102730002D4DA86B002807D0FFF7B4FDA86B401EF5
:10274000A863A86B40B149E0502080F31188BFF323
:102750004F8FBFF36F8FFEE7286900283ED0234FCD
:102760003868012600B3A7F1B409F868C46804F119
:102770001800FFF743FD201DFFF740FDE06AAA693E
:1027800006FA00F11143A96100EB800009EB80001B
:10279000211DFFF77AFDE06A2968C96A884200D3E3
:1027A0006E6238680028E0D10CB1FFF779FC2C6A22
:1027B00044B1FFF751FF00B16E62641E002CF8D1E6
:1027C00000202862686A48B14FF0010808494FF0BC
:1027D00080500860BFF34F8FBFF36F8FFFF782FD0C
:1027E0004046BDE8F087000014000020A00400204F
:1027F00004ED00E028280008CD18000800000000C3
:102800000000000080000000000000000000000048
:102810000000000000000000010203040607080990
:10282000000000000102030464656661756C745465
:1028300061736B0054280008000000207400000041
:102840009E1A0008C8280008740000206C140000BC
:10285000AE1A000800000000010000001000000097
:10286000000000000024F400000000000000000050
:102870000000000000000000000000000000000058
:102880000000000000000000000000000000000048
:102890000000000000000000000000000000000038
:1028A0000000000000000000000000000000000028
:1028B0000000000000000000000000000000000018
:0828C000AAAAAAAA0000000068
:04000005080000ED02
:00000001FF
