:020000040800F2
:100000008008002001010008632A00086F2400080E
:10001000612A000839030008AF2E00080000000024
:10002000000000000000000000000000912A00080D
:100030008D04000800000000652A0008952A0008C9
:100040001B0100081B0100081B0100081B01000820
:100050001B0100081B0100081B0100081B01000810
:100060001B0100081B0100081B0100083D030008DC
:100070001B0100081B0100081B0100081B010008F0
:100080001B0100081B0100081B0100081B010008E0
:100090001B0100081B0100081B0100081B010008D0
:1000A0001B0100081B0100081B0100081B010008C0
:1000B0001B0100081B0100081B0100081B010008B0
:1000C0001B0100081B0100081B0100081B010008A0
:1000D0001B0100081B0100081B0100081B01000890
:1000E0001B0100081B0100081B010008DFF80CD0F1
:1000F00000F062F800480047393700088008002007
:100100000648804706480047FEE7FEE7FEE7FEE7B1
:10011000FEE7FEE7FEE7FEE7FEE7FEE7112B00083D
:10012000ED00000840EA01039B0703D009E008C97D
:10013000121F08C0042AFAD203E011F8013B00F8AC
:10014000013B521EF9D27047D2B201E000F8012BF8
:10015000491EFBD270470022F6E710B513460A4647
:1001600004461946FFF7F0FF204610BD421C10F868
:10017000011B0029FBD1801A7047034611F8012B9F
:1001800000F8012B002AF9D11846704730B50B460C
:10019000014600202022012409E021FA02F59D42B7
:1001A00005D303FA02F5491B04FA02F52844151E8B
:1001B000A2F10102F1DC30BD064C074D06E0E0681B
:1001C00040F0010394E8070098471034AC42F6D39E
:1001D000FFF790FF083C0008283C000870B5044673
:1001E0002068816811F0010F24D0816821F001019D
:1001F000816000F0BBFD05462068806810F0010FAB
:1002000018D000F0B3FD401B02280ED9206880688A
:1002100010F0010F09D0A06A40F01000A062E06A5F
:1002200040F00100E062012070BD2068806810F09D
:10023000010FE6D1002070BD10B50246506A816AF8
:1002400011F0500F05D0006A016BBDE81040104658
:100250000847816A41F400718162016889684FF43E
:10026000602232EA01010DD1017B59B9816A21F482
:1002700080718162816A11F4805F03D1816A41F0EB
:100280000101816200F098F910BD10B5406A816AE1
:1002900041F040018162C16A41F00401C16200F095
:1002A000A6F910BD10B5406A00F0A0F910BD00001D
:1002B000F8B50446002600962068816811F0010F09
:1002C00028D1816841F0010181601948194900680D
:1002D000B0FBF1F00090009828B10098401E00900B
:1002E00000980028F9D100F041FD0546206880689B
:1002F00010F0010F0ED100F039FD401B022804D987
:100300002068806810F0010F06D02068806810F027
:10031000010FF0D00020F8BDA06A40F01000A062EC
:10032000E06A40F00100E06284F824600120F8BD3A
:100330008800002040420F00FEE70000014800F066
:10034000C7BA00003C02002010B490F840C001245D
:1003500004FA0CFCC46BC4F804C0D0F800C0CCF89C
:1003600004304368102B05D0036899600068C260B0
:1003700010BC704703689A600068C16010BC704789
:1003800000F00F01000900EB800001EB4000C0B25B
:10039000704710B5042000F01FF8BDE81040FFF7CB
:1003A000EFBF10B5022000F017F8BDE8104000F0D4
:1003B0003F00FFF7E5BF10B5012000F00DF8BDE8E4
:1003C0001040FFF7DDBF10B5052000F005F8BDE8CF
:1003D0001040FFF7D5BF000031B582B0094D4FF492
:1003E0007A740094012302AAD021286800F01AFF31
:1003F0000094012301AAD021286800F08DFD9DF80A
:1004000004003EBD0000002010B50020FFF7E4FF0F
:10041000BDE8104000F07F00FFF7B2BF10B510201C
:10042000FFF7DAFF642100FB01F40620FFF7D4FF99
:10043000FFF7A6FF204410BD02490860002000F02D
:1004400003B800000000002010B508B1802400E0CF
:1004500000240020FFF7C0FF00F07F012143BDE82A
:1004600010400020AFF300801CB502238DF804007B
:100470004FF47A70009004488DF8051001AAD0213D
:10048000006800F0CFFE1CBD0000002070477047E0
:1004900078B44FF0000C0024009490F82420012A36
:1004A00014D0012280F824204A681F25072A10D280
:1004B00003685E6B521E02EB8202954026EA050538
:1004C0000E6806FA02F22A435A631FE078BC022043
:1004D00070470D2A0DD203681E6BD21F02EB8202F9
:1004E000954026EA05050E6806FA02F22A431A63C9
:1004F0000CE00368DE6A0D3A02EB8202954026EAC0
:1005000005050E6806FA02F22A43DA620A68072530
:100510000A2A0DD30368DE680A3A02EB42029540CC
:1005200026EA05058E6806FA02F22A43DA600BE035
:1005300003681E6902EB4202954026EA05058E68B3
:1005400006FA02F22A431A610A68102A01D0112A17
:1005500028D10268A2F18043B3F592331CD193688D
:1005600013F4000F1ED1936843F4000393600968ED
:10057000102917D10E490F4A0968B1FBF2F101EBBE
:10058000810149000091009961B10099491E0091D3
:1005900000990029F9D105E0816A41F020018162CA
:1005A0004FF0010C80F8244078BC60467047000092
:1005B0008800002040420F00F8B50B4D64240094E1
:1005C00000234FF480573A461946286802F0ADF9E7
:1005D000A5F10C060023706000943A46194668683D
:1005E00002F0A3F9B060F8BD10000020704770471A
:1005F0002DE9F041044600270025002C04D0A06816
:10060000A06A002618B108E00120BDE8F081E6628A
:1006100084F82460204600F07DF82046FFF7DEFDD8
:100620000146A06A00F0100252EA010007D0A06A59
:1006300040F01000A06201210846BDE8F081A06AE8
:1006400020F4885040F00200A062E2696068237BD9
:10065000104347EA43020243A068B0F5807F08D008
:10066000012806D0002094F814C0BCF1010F03D07B
:100670000BE04FF48070F6E7F3B1A36A43F0200378
:10068000A362E36A43F00103E3622368D3F804C082
:100690002CF4694C4CEA0000586020688368DFF84D
:1006A0006CC003EA0C0313438360A068B0F5807F3D
:1006B00009D0012807D009E0A3695B1E40EA433056
:1006C00040F40060E1E7208A401E05052068C36A07
:1006D00023F470032B43C362206880680C4B1840DE
:1006E000904207D1E662A06A20F0020040F00100CB
:1006F000A062A1E7A06A20F0020040F01000A06212
:10070000E06A40F00100E062012195E7FDF7E1FFBA
:10071000FE0E1FFF70B586B00025064600950195B8
:10072000029503950068194988422DD118498869B6
:1007300040F400708861886900F400700490886952
:1007400040F0040088618869694600F00400049064
:100750000320009001900F4800F004FA0F4C0E485F
:10076000C4E900058020C4E90250800020618000B7
:1007700060612020C4E90605204600F061F908B157
:10078000FFF785FE3462666206B070BD002401404A
:100790000010024000080140080002403C02002016
:1007A0002DE9F0470446884691462068434F444E61
:1007B000A0F1804ABAF5923A01D0B84207D1306828
:1007C00010F4702F03D001252846BDE8F08794F877
:1007D000240001280BD0012084F824002046FFF7D4
:1007E00067FD054600212DB184F82410ECE70220B6
:1007F000BDE8F087A06A20F0010020F4606040F4BA
:100800008070A0622068B8421AD1326812F4702F4A
:1008100016D0A26A42F48012A262306810F4806F8F
:1008200005D0A06A20F4005040F48050A062A06A75
:1008300010F4805F13D0E06A20F00600E0620FE061
:10084000A26A22F48012A262406810F4806FEED097
:10085000A06A20F4005040F48050A062E7E7E16213
:1008600084F82410216A17488862216A1648C862F1
:10087000216A1648086321686FF00200086020684A
:10088000816841F48071816020684B4600F14C0121
:100890004246206A00F016F9206881684FF4602211
:1008A00032EA010104D0816841F4801181608BE754
:1008B000816841F4A001816086E7000000280140C2
:1008C0000424014039020008A50200088B02000838
:1008D0002DE9F05FC16B0A6801680B68D0F840C071
:1008E000042404FA0CF414424E4C4F4D4F4E504F1A
:1008F000DFF84081DFF8409131D013F0040F2ED0A3
:100900000A6812F0200F03D10A6822F004020A607C
:100910000168A14201D1042119E0A94201D140217D
:1009200015E0B14202D14FF4806110E0B94202D12A
:100930004FF480410BE0414502D14FF4802106E0A5
:10094000494502D14FF4800101E04FF080613B4AFC
:100950005160C16A002962D0BDE8F05F08474FF0DE
:10096000020A0AFA0CFA1AEA020F4FF0000A4FF0D4
:10097000010B35D013F0020F32D00A6812F0200FAD
:1009800005D10A6822F00A020A6080F821B00168E5
:10099000A14201D1022119E0A94201D1202115E093
:1009A000B14202D14FF4007110E0B94202D14FF4CC
:1009B00000510BE0414502D14FF4003106E04945BA
:1009C00002D14FF4001101E04FF000711B4A516059
:1009D00080F820A0816A002921D0BDE8F05F084797
:1009E000082404FA0CFC1CEA020F18D013F0080FBC
:1009F00015D00A6822F00E020A6090F84010C26B0F
:100A00000BFA01F15160C0F838B080F821B080F8DD
:100A100020A0016B002902D0BDE8F05F0847BDE8C7
:100A2000F09F0000080002401C000240300002401D
:100A300044000240580002406C00024000000240A6
:100A400010B4002834D01C4A01688B181B4AA2FB42
:100A50000332120992000264194AC263022280F82A
:100A600021200A686FF30D12D0F808C043680469AA
:100A700043EA0C03D0F80CC04CEA040C43EA0C0324
:100A8000D0F814C043EA0C03D0F818C043EA0C03B2
:100A9000D0F81CC043EA0C031A430A6000218163AA
:100AA000012280F8212080F8201010BC002070471F
:100AB00010BC012070470000F8FFFDBFCDCCCCCCAE
:100AC0000000024070B50446002594F8200001287B
:100AD0000DD0012084F8200094F821C00020BCF142
:100AE000010F06D084F820000225284670BD0220A0
:100AF00070BD4FF0020C84F821C0A0632068D0F8CC
:100B000000C02CF0010CC0F800C02046FFF71CFC10
:100B1000E06A28B12068016841F00E01016009E037
:100B20002068016821F0040101602068016841F03B
:100B30000A0101602068016841F001010160D4E709
:100B400070B5044600F012F90546601C02D0044856
:100B50000078044400F00AF9401BA042FAD370BDAB
:100B60007C0000202DE9F84F4FF0000C00230A68AC
:100B7000002A7DD0DFF8D8810F2708F1040909F198
:100B8000040A0AF1040B012202FA0CF60A68324048
:100B9000B2426ED1DFF8BCE14C68A4EB0E0574459F
:100BA0002BD00DDC032C34D005DC34B3012C19D050
:100BB000022C2FD11BE0112C16D0122C2AD119E0B7
:100BC000B5F5881F19D006DCB5F5803F15D0B5F511
:100BD000801F1FD111E0B5F5001F0ED0B5F5041F21
:100BE00018D10AE0CB6815E0CB681B1D12E0CB687A
:100BF00008330FE0CB680C330CE08B6823B1012B7A
:100C000004D00823466105E0042303E008230661BD
:100C100000E00023B2F5807F01D2054601E000F13B
:100C2000040502D24FEA8C0403E0ACF108044FEA59
:100C300084042E6807FA04FE26EA0E0603FA04F47A
:100C400046EA04042C604C6814F0805F77D0424C74
:100C5000A56945F00105A561A46904F001040094AB
:100C60002CF0030404F1804404F58034A66801E00C
:100C70006CE064E04FEA8C752D0F07FA05FE26EA5A
:100C80000E0EA0F18046B6F5843600D115E0A0F135
:100C90008046B6F5863601D101260EE0A0F18046E9
:100CA000B6F5883601D1022607E0A0F18046B6F5F8
:100CB0008A3601D1032600E0042606FA05F545EA46
:100CC0000E05A5604C6814F4803F05D0D8F80040AC
:100CD0001443C8F8004004E0D8F800409443C8F832
:100CE00000404C6814F4003F05D0D9F8004014438C
:100CF000C9F8004004E0D9F800409443C9F8004026
:100D00004C6814F4801F05D0DAF800401443CAF888
:100D1000004004E0DAF800409443CAF800404C6810
:100D200014F4001F05D0DBF800402243CBF800206C
:100D300005E0DBF8004024EA0202CBF800200CF1C9
:100D4000010C0A6832FA0CF27FF41DAFBDE8F88F8F
:100D500000040140000011100010024080680842A9
:100D600001D00120704700207047000001488068D2
:100D7000704700007C00002070B50446002C04D0B1
:100D800094F83D00002510B106E0012070BD84F804
:100D90003C50204600F0F6FA242084F83D002068FC
:100DA000016821F0010101602068016841F40041FF
:100DB00001602068016821F40041016000F03EFDFF
:100DC000514B6168994203D85049884203D304E0EB
:100DD0004F49884201D2012070BD4E49B0FBF1F16C
:100DE0002268D2F804C02CF03F0C4CEA010CC2F887
:100DF00004C062689A4201D84A1C07E04FF4967218
:100E000051434FF47A72B1FBF2F14A1C2168D1F8D8
:100E100020C02CF03F0C42EA0C020A626168994241
:100E20000AD84900401EB0FBF1F0401CC0F30B0093
:100E3000042822D2042020E0A268002A50D001EB2E
:100E4000C10303EB0113A0F1010CBCFBF3F35B1C2A
:100E500043F480431B051B0D4AD0002A4AD001EB06
:100E6000C10202EB0111401EB0FBF1F0401CC0F3C7
:100E70000B0040F4804040F400402168CA6922F031
:100E8000FF0222F44F421043C861216AE069014326
:100E90002068026822F0C00211430160E168206905
:100EA00001432068826822F0FF0222F403421143CA
:100EB0008160A169606901432068C26822F0FF0275
:100EC0001143C1602068016841F00101016025649F
:100ED000202084F83D00256384F83E50002070BD3A
:100EE00001EB4103A0F1010CBCFBF3F35B1CB1E788
:100EF0000120C2E701EB4101401EB0FBF1F0401CB4
:100F0000C0F30B00B7E70000A086010080841E003C
:100F100000093D0040420F002DE9F04F83B0044628
:100F2000DDF830A089461746984600260296FFF75E
:100F30001DFF054694F83D00202803D003B0022091
:100F4000BDE8F08F19230122B2492046009501F037
:100F5000C2FB18B103B00220BDE8F08F94F83C004A
:100F6000012808D0012084F83C002068016811F0B5
:100F7000010F04D007E003B00220BDE8F08F016844
:100F800041F0010101602068016821F40061016005
:100F9000222084F83D00102084F83E002664676219
:100FA000A4F82A80608D20859B48E0622B4652463B
:100FB0004946204601F076FA18B103B00120BDE899
:100FC000F08F208D60B3012833D0022841D02068F3
:100FD000016841F480610160206841698069019085
:100FE000208D2027002800F00B81DFF830B2DFF8D9
:100FF000308246F2A819208D032800F2D6800128FD
:1010000037D002284DD0534600225946204600953D
:1010100001F061FB002872D003B00120BDE8F08F21
:101020002068416981690191016841F400710160A2
:10103000D6E72068016821F48061016072B62068FB
:10104000416981690191016841F40071016062B6F2
:10105000C6E72068016841F40061016072B620684B
:10106000416981690191016821F48061016062B682
:10107000B6E72A465146204601F0ECFB18B103B012
:101080000120BDE8F08F20680069616A0870606A1D
:10109000401C6062208D401E2085608D401E608552
:1010A000AAE05346002259462046009501F013FB62
:1010B00018B103B00120BDE8F08F72B62068016856
:1010C00041F40071016020680069616A0870606A1B
:1010D000401C6062218D491E2185618D491E6185FC
:1010E00062B6216809690170606A401C6062208DE7
:1010F000401E2085608D401E60857DE0FFE72068F2
:10110000016821F48061016072B620680069616A3B
:101110000870606A401C6062208D401E2085608DD2
:10112000401E6085D8F80000B0FBF9F0C0EBC000AD
:1011300000EB800002900298401E0290029820B3BB
:101140002068406910F0040FF5D02068016841F470
:101150000071016020680069616A0870606A401C63
:101160006062218D491E2185618D491E618562B6AF
:10117000216809690170606A401C6062208D401E10
:101180002085608D401E608536E0266384F83D70C2
:1011900084F83E60206C40F02000206462B684F841
:1011A0003C6003B00120BDE8F08F2A46514620463E
:1011B00001F050FB18B103B00120BDE8F08F2068AA
:1011C0000069616A0870606A401C6062218D491E76
:1011D0002185618D491E618521684A6912F0040FDD
:1011E0000AD009690170606A401C6062208D401E4F
:1011F0002085608D401E6085208D00287FF4FBAE29
:1012000084F83D7084F83E6084F83C6003B00020B0
:10121000BDE8F08F020010000000FFFF0400010095
:10122000880000202DE9F84F04468A4690469946EA
:101230000A9FFFF79BFD064694F83D00202802D048
:101240000220BDE8F88F192301224C492046009660
:1012500001F041FA10B10220BDE8F88F94F83C008B
:10126000012808D0012084F83C002068016811F0B2
:10127000010F03D006E00220BDE8F88F016841F0BD
:10128000010101602068016821F4006101602120F2
:1012900084F83D00102084F83E0000252564C4F841
:1012A0002480A4F82A90608D20853548E06233467A
:1012B0003A465146204601F087F910B10120BDE8B9
:1012C000F88F2068416980690090208D002846D001
:1012D00032463946204601F0FBFA50B1206C042812
:1012E00004D12068016841F4007101600120BDE86B
:1012F000F88F606A216800780861606A00F1010C6B
:10130000C4F824C0608D401E6085208D401E80B2D0
:1013100020852268516911F0040F0CD058B19CF857
:1013200000001061606A401C6062608D401E608534
:10133000208D401E208532463946204601F09EF918
:1013400050B1206C042804D12068016841F4007178
:1013500001600120BDE8F88F208D0028B8D12068F9
:10136000016841F400710160202084F83D0084F898
:101370003E5084F83C500020BDE8F88F0200100079
:101380000000FFFF30B585B000210091019102916E
:1013900003911E4D03681E4C122103221D48AB42CF
:1013A00016D1A36943F00803A361A369039203F074
:1013B00008030493C023CDE900316946FFF7D2FB4F
:1013C000E06940F40010E061E06900F4001019E009
:1013D000114DAB4217D1A36943F00803A361A36980
:1013E000039203F0080304934FF44063CDE9003106
:1013F0006946FFF7B7FBE06940F48000E061E0690F
:1014000000F48000049005B030BD0000005400409E
:1014100000100240000C0140005800400248816862
:1014200002781144816070477C00002010B50748A5
:10143000016841F010010160032000F08FF80020E6
:1014400000F006F800F026F8002010BD0020024051
:1014500070B504460D4D4FF47A712878B1FBF0F069
:101460000B490968B1FBF0F000F05AFC08B101200B
:1014700070BD102C07D200222146501E00F038F813
:101480006C60002070BD012070BD00007C00002059
:10149000880000200C4808B5816941F00101816194
:1014A000816901F001010091C16941F08051C16180
:1014B000C06900F0805000900448416821F0E0616C
:1014C00041F00071416008BD001002400000014081
:1014D00000280BDB00F01F01012202FA01F1400994
:1014E0004FF0E02202EB8000C0F8001170470000CE
:1014F00010B4174B1B68C3F30223C3F1070CBCF1F4
:10150000040F01D94FF0040C1C1D072C01D200233D
:1015100000E0DB1E012404FA0CFCACF1010C0CEA27
:10152000010101FA03FC04FA03F1491E11404CEADF
:101530000101002804DB074A0901815410BC7047EF
:10154000054A00F00F000901815410BC70470000EB
:101550000CED00E000E400E014ED00E000F0070016
:10156000064A11684FF6FF03194041EA002040F097
:10157000FD7040F080601060704700000CED00E0EE
:101580002DE9F8430446DFF81C81207810F0010FA4
:101590006CD00027D8F81C0010F0805F0BD1D8F871
:1015A0001C0040F08050C8F81C00D8F81C0000F067
:1015B0008050009001273C4D286810F4807F16D1A0
:1015C000286840F480702860FFF7D0FB0646286842
:1015D00010F4807F0BD1FFF7C9FB801B642802D970
:1015E0000320BDE8F883286810F4807FF3D0D8F892
:1015F000200000F4407048B3A18801F4407181429A
:1016000024D0D8F8200020F44070284901220A6034
:1016100000220A60C8F8200010F0010F16D0FFF772
:10162000A5FB0546D8F8200010F0020F0ED141F2BC
:101630008836FFF79BFB401BB04202D90320BDE870
:10164000F883D8F8200010F0020FF2D0D8F820006C
:10165000616820F440700843C8F82000012F05D1CC
:10166000D8F81C0020F08050C8F81C00207810F03A
:10167000020F07D0D8F80400A16820F440400843C6
:10168000C8F80400207810F0100F07D0D8F8040034
:10169000E16820F480000843C8F804000020BDE899
:1016A000F8830000001002400070004040044242F5
:1016B0002DE9F04704460D46002C17D0DFF85C8179
:1016C000D8F8000000F00700A84212D2D8F80000B5
:1016D00020F007002843C8F80000D8F8000000F008
:1016E0000700A84205D00120BDE8F0870120BDE831
:1016F000F08720684A4E10F0020F14D010F0040F4B
:1017000003D0706840F4E0607060207810F0080F3B
:1017100003D0706840F460507060706820F0F00191
:10172000A06808437060207810F0010F3AD060681C
:10173000012806D002280BD0316811F0020F27D003
:101740000AE0316811F4003F06D10120BDE8F087BE
:10175000316811F0007F18D0716821F0030108434F
:101760007060FFF703FB07467068616800F00C00CB
:10177000B0EB810F16D041F28839FFF7F7FAC01BA2
:10178000484508D90320BDE8F0870120BDE8F0876F
:101790000120BDE8F0877068616800F00C00B0EBD4
:1017A000810FEAD1D8F8000000F00700A8420FD955
:1017B000D8F8000020F007002843C8F80000D8F847
:1017C000000000F00700A84202D00120BDE8F08729
:1017D000207810F0040F05D07068E16820F4E06014
:1017E00008437060207810F0080F06D070682169F7
:1017F00020F4605040EAC100706000F03FF871686A
:10180000084AC1F30311515CC84007490860074802
:101810000068FFF71DFE0020BDE8F08700200240B1
:1018200000100240EE3B00088800002080000020ED
:1018300001480068704700008800002000B5FFF7ED
:10184000F7FF04494968044AC1F30221515CC840CA
:1018500000BD000000100240FE3B000800B5FFF78D
:10186000E7FF04494968044AC1F3C221515CC840FA
:1018700000BD000000100240FE3B000885B015A02E
:10188000836842680168C0680393029201910490E2
:1018900014A000680090144B5968144801F00C0221
:1018A000042A11D0082A0FD101A8C1F38342805C19
:1018B00011F4803F0AD05968C1F340411DF801106E
:1018C0000A4A5043B0FBF1F005B07047084905B033
:1018D0004843704702030405060708090A0B0C0D6C
:1018E0000E0F1010010200000010024000127A00DA
:1018F00000093D002DE9F84F0446002C0FD0207858
:10190000F84D10F0010F6CD0686800F00C0004284E
:101910000CD0686800F00C00082803D010E001200B
:10192000BDE8F88F686810F4803F09D0286810F48B
:10193000003F56D06068002853D10120BDE8F88FE1
:101940006068B0F5803F15D0C8B1B0F5A02F1FD0AA
:10195000286820F480302860286820F480202860DF
:10196000606858B3FFF702FA0646286810F4003F93
:1019700017D036E0286840F480302860F0E7286807
:1019800020F480302860286820F480202860E7E771
:10199000286840F480202860286840F4803028605F
:1019A000DEE7FFF7E3F9801B642802D90320BDE8D6
:1019B000F88F286810F4003FF3D012E0FFF7D6F953
:1019C0000646286810F4003F0BD0FFF7CFF9801BC4
:1019D000642802D90320BDE8F88F286810F4003F7E
:1019E000F3D12078C04F10F0020F4FF0010B4FF0F1
:1019F000000854D0686810F00C0F14D0686800F02C
:101A00000C00082803D1686810F4803F0BD02069CF
:101A100078B3C7F800B0FFF7A9F90646286810F0B8
:101A2000020F12D01DE0286810F0020F05D02069C7
:101A3000012802D00120BDE8F88F2868616920F0F4
:101A4000F80040EAC100286029E0FFF78FF9801B09
:101A5000022802D90320BDE8F88F286810F0020F91
:101A6000F3D02868616920F0F80040EAC1002860DE
:101A700015E0FFE7C7F80080FFF778F90646286809
:101A800010F0020F0BD0FFF771F9801B022802D96A
:101A90000320BDE8F88F286810F0020FF3D12078FA
:101AA00010F0080F30D09148A169C1B1C0F800B062
:101AB000FFF75CF90646686A10F0020F0BD1FFF7DA
:101AC00055F9801B022802D90320BDE8F88F686A07
:101AD00010F0020FF3D0012000F0C6FF14E0C0F8B0
:101AE0000080FFF743F90646686A10F0020F0BD03A
:101AF000FFF73CF9801B022802D90320BDE8F88FCC
:101B0000686A10F0020FF3D1207810F0040F6FD044
:101B10000026E86910F0805F08D1E86940F0805045
:101B2000E861E86900F0805000900126DFF8C0A16C
:101B3000DAF8000010F4807F1BD1DAF8000040F4DE
:101B40008070CAF80000FFF711F98146DAF800004A
:101B500010F4807F0DD1FFF709F9A0EB090064288C
:101B600002D90320BDE8F88FDAF8000010F4807F76
:101B7000F1D0E068012816D0D0B1052821D0286A1C
:101B800020F001002862286A20F004002862E06842
:101B900041F2883A68B3FFF7E9F88146286A10F005
:101BA000020F17D03AE0286A40F001002862EEE701
:101BB000286A20F001002862286A20F004002862C8
:101BC000E5E7286A40F004002862286A40F0010036
:101BD0002862DCE7FFF7CAF8A0EB0900504502D9FC
:101BE0000320BDE8F88F286A10F0020FF2D015E04C
:101BF0001AE0FFE7FFF7BAF88146286A10F0020FF3
:101C00000CD0FFF7B3F8A0EB0900504502D9032030
:101C1000BDE8F88F286A10F0020FF2D1012E03D12F
:101C2000E86920F08050E861E069E8B3696801F094
:101C30000C0108295ED0022810D0C7F86080FFF799
:101C400095F80446286810F0007F66D0FFF78EF8FC
:101C5000001B022841D90320BDE8F88FC7F8608037
:101C6000FFF784F80646286810F0007F0BD0FFF7D6
:101C70007DF8801B022802D90320BDE8F88F286870
:101C800010F0007FF3D1206AB0F5803F05D168687D
:101C9000A16820F4003008436860616A206A084344
:101CA000696821F4741100E037E008436860C7F800
:101CB00060B0FFF75BF80446286810F0007F2CD175
:101CC000FFF754F8001B022802D90320BDE8F88F63
:101CD000286810F0007FF3D01FE0286810F0007F24
:101CE000B4D11AE000100240000042428004424297
:101CF0000070004001280DD06868226A00F480312D
:101D0000914204D1616A00F47010884205D001202C
:101D1000BDE8F88F0120BDE8F88F0020BDE8F88FFE
:101D2000401EB0F1807F01D3012070474FF0E021C9
:101D30004861044AF0201070002088610720086183
:101D40000020704723ED00E030B490F83C20012AD9
:101D50002CD0012480F83C40022280F83D2002680B
:101D6000D2F804C093682CF0700C0D6845EA0C0C96
:101D7000C2F804C00268A2F1804CBCF5963C08D0C1
:101D8000B2F1804F05D01CF5943C02D0BCF5806CBC
:101D900004D123F0800349681943916080F83D40E5
:101DA000002180F83C1030BC0020704730BC02207D
:101DB000704710B50446002C03D094F83D0010B1D4
:101DC00007E0012010BD002084F83C00204600F010
:101DD0001FF8022084F83D00211D206800F09AFEC3
:101DE000012084F8460084F83E0084F83F0084F81F
:101DF000400084F8410084F8420084F8430084F8ED
:101E0000440084F8450084F83D00002010BD000027
:101E100008B50068B0F1804F08D10548C16941F0AC
:101E20000101C161C06900F00100009008BD00001F
:101E30000010024070B5044694F83C00012818D008
:101E4000012584F83C50022084F83D002068826817
:101E500022F0770222F47F4282600868502832D054
:101E60000EDC20284DD006DC00284AD010284DD1A9
:101E700047E0022070BD302843D0402846D136E0EC
:101E800060282AD0702806D0B0F5805F3ED0B0F52B
:101E9000005F3BD10BE0CB684A688968206800F09E
:101EA00084FE2068816841F0770181602EE0CB6874
:101EB0004A688968206800F078FE2068816841F4EB
:101EC0008041816022E0CA684968206800F043FFD1
:101ED0005021206800F074FE18E0CA684968206844
:101EE00000F04CFF6021206800F06AFE0EE0CA6836
:101EF0004968206800F02FFF4021206800F060FE54
:101F000004E022680146104600F05AFE84F83D5075
:101F1000002084F83C0070BD00B585B00021009120
:101F20000191029103910068B0F1804F1AD10E48DF
:101F3000816941F0080181618069694600F008000B
:101F40000490082000900220019003900748FEF7BB
:101F500009FE0748416821F4407141F0E06141F415
:101F60008071416005B000BD00100240000C0140CE
:101F70000000014070B504460D4694F83C0001286D
:101F80000AD0012084F83C0042B1042A1AD0082A61
:101F90002DD00C2A53D13EE0022070BD2946206886
:101FA00000F016FE2068816941F008018161206817
:101FB000816921F004018161206881692A691143E6
:101FC00081613CE02946206800F036FE2068816986
:101FD00041F4006181612068816921F4806181613F
:101FE000206881692A6941EA0221816127E0294646
:101FF000206800F055FE2068C16941F00801C16108
:102000002068C16921F00401C1612068C1692A69A1
:102010001143C16113E02946206800F075FE206875
:10202000C16941F40061C1612068C16921F4806126
:10203000C1612068C1692A6941EA0221C1610020A9
:1020400084F83C0070BD10B50446002C03D094F811
:102050003D0010B107E0012010BD002084F83C00D5
:10206000204600F01EF8022084F83D00211D206863
:1020700000F050FD012084F8460084F83E0084F80A
:102080003F0084F8400084F8410084F8420084F85E
:10209000430084F8440084F8450084F83D000020A3
:1020A00010BD704710B50446002909D004290AD094
:1020B00008290BD094F8410001280AD0012010BD56
:1020C00094F83E00F8E794F83F00F5E794F84000F4
:1020D000F2E7022049B304292AD008292BD084F83A
:1020E00041000122206800F051FD17492068884214
:1020F00003D1426C42F400424264206888420AD014
:10210000B0F1804F07D0A0F18041B1F5806102D0DD
:10211000B1F5806112D1816801F00701062911D063
:10212000016841F0010101600CE084F83E00D8E74D
:1021300084F83F00D5E784F84000D2E7016841F019
:1021400001010160002010BD002C014030B50446A3
:102150000D4600222946206800F018FD206841F253
:1021600011129110A0F18043B3F5963309D1036A9F
:10217000134206D1036A0B4203D1436C23F400439C
:1021800043642068036A134206D1026A0A4203D1FB
:10219000016821F00101016001203DB1042D08D04A
:1021A000082D09D084F84100002030BD84F83E009D
:1021B000FAE784F83F00F7E784F84000F4E770B5E9
:1021C0000446002C04D094F83D00002510B106E030
:1021D000012070BD84F83C50204600F023F82420F4
:1021E00084F83D002068C16821F40051C160204698
:1021F00000F0D6FD2068016921F49041016120685A
:10220000416921F02A0141612068C16841F400510F
:10221000C1602564202084F83D0084F83E00002041
:1022200070BD000070B586B0002400940194029443
:102230000394234E0368234902200322224DB34214
:1022400019D18B6943F480438B618B6903F480431C
:1022500004938B6943F004038B618969039201F055
:10226000040104910102CDE9001069462846FEF7F9
:1022700079FC28151BE0154EB3421FD1CB6943F4FE
:102280000033CB61CB6903F4003304938B6943F0D3
:1022900004038B618969039201F004010491042114
:1022A000CDE9001069462846FEF75CFC0820CDE920
:1022B0000004694628460294FEF754FC06B070BD3F
:1022C0000038014000100240000801400044004076
:1022D0002DE9F84304460E4615461F4694F83E0085
:1022E000202802D00220BDE8F883D6B1CDB194F801
:1022F0003C00012818D0012084F83C004FF0000970
:10230000C4F84090222084F83E00C4F83090FEF7D4
:102310002DFD8046A585E585A068B0F5805F06D0D7
:1023200007E00120BDE8F8830220BDE8F8832069BA
:1023300080B13546002684F83C90E08D40B343469A
:10234000002220212046009700F076FD20B10320D6
:10235000BDE8F8830025EEE72DB1A068B0F5805FF9
:102360001CD038B108E020684068C0F30800308015
:10237000B61C07E0206988B12068406800F07F0043
:1023800028706D1CE08D401EE085E08D0028D6D1C0
:10239000202084F83E000020BDE8F88320684068D3
:1023A0002870EEE72DE9F84304460E4615461F4611
:1023B00094F83D00202802D00220BDE8F883C6B181
:1023C000BDB194F83C00012816D0012084F83C00EF
:1023D0004FF00009C4F84090212084F83D00FEF73A
:1023E000C5FC8046A584E584A068B0F5805F06D072
:1023F00007E00120BDE8F8830220BDE8F8832069EA
:1024000080B13546002684F83C90E08CB8B1434654
:10241000002280212046009700F00EFD20B103200D
:10242000BDE8F8830025EEE7A5B12168287848606B
:102430006D1CE08C401EE084E08C0028E7D1434610
:10244000002240212046009700F0F6FC48B103200E
:10245000BDE8F88330882168C0F308004860B61CE6
:10246000E7E7202084F83D000020BDE8F883FEE780
:1024700001684A6912F4806F11D06FF480624A617A
:1024800000210163202280F83D2080F83E10026C7C
:1024900042F00402026480F83C10012070470020E2
:1024A000704700002DE9F84F04460D4691461E4640
:1024B000E06A21680A6842F480620A60082808D04D
:1024C000012806D010F5803F03D0206B112806D0DC
:1024D0000AE02068016841F48071016004E020682E
:1024E000016841F4807101604B4600224FF00111F8
:1024F0002046009600F0EFF84FF4007848B12068CD
:10250000006810F4807F01D0C4F840800320BDE84B
:10251000F88F2069DFF8ACA0B0F5804F11D02168AA
:1025200005F44077F02040EAD710086133464A4668
:102530000AF10601204600F027F940B10120BDE86C
:10254000F88F2168E8B240F0010008612CE02168B2
:10255000E8B2086133464A465146204600F014F975
:1025600010B10120BDE8F88F2068416981690091B0
:10257000016841F4807101604B4600224FF0011167
:102580002046009600F0A7F848B12068006810F4D3
:10259000807F01D0C4F840800320BDE8F88F216817
:1025A000F12040EAD710086133464A46514620469A
:1025B00000F0EAF810B10120BDE8F88F0020BDE876
:1025C000F88F000002000100F8B504460D461746DA
:1025D0001E46E06A082808D0012806D010F5803F82
:1025E00003D0206B122806D00AE02068016841F46D
:1025F0008071016004E02068016841F4807101602D
:102600003B4600224FF001112046009600F063F88F
:1026100048B12068006810F4807F02D04FF4007049
:1026200020640320F8BD2069B0F5804F0FD005F479
:102630004070F02141EAD0102168086133463A46E3
:102640000C49204600F0A0F830B10120F8BD216807
:1026500005F0FE00086102E02168E8B20861334637
:102660003A460549204600F08FF808B10120F8BD30
:102670000020F8BD080001000200010070B504460A
:102680000D4616462068406910F0040F12D120460E
:10269000FFF7EEFE08B1012070BD681C05D0FEF703
:1026A00065FB801BA84207D835B12068406910F04F
:1026B000040FECD0002070BD00202063202184F89E
:1026C0003D1084F83E00216C41F02001216484F823
:1026D0003C00012070BD2DE9F0470446DDF8209054
:1026E0000D4617461E46C5F307482068B8F1010F8E
:1026F00021D0806925EA00000004000C25D00020CC
:10270000B84215D1701C06D0FEF730FBA0EB0900D3
:10271000B0421CD8DEB1B8F1010F28D02068806922
:1027200025EA00000004000C2CD00020B842E9D0BB
:102730000020BDE8F087406925EA00000004000C95
:1027400001D00020DCE70120DAE70120D8E70020F3
:102750002063202184F83D1084F83E00216C41F074
:102760002001216484F83C000120BDE8F087206846
:10277000406925EA00000004000C01D00020D5E7E4
:102780000120D3E70120D1E72DE9F04704460D46AB
:1027900016461F46C5F307482068B8F1010F26D03A
:1027A000806925EA00000004000C39D04FF00009D0
:1027B0004FF0200A2068406910F4806F1ED0206816
:1027C000016841F40071016021686FF48060486124
:1027D000C4F8309084F83DA084F83E90206C40F01E
:1027E0000400206484F83C900120BDE8F087406933
:1027F00025EA00000004000C12D0D7E7701C05D0B9
:10280000FEF7B4FAC01BB0420DD866B1B8F1010FA3
:1028100018D02068806925EA00000004000CC9D1A6
:102820000020BDE8F087C4F8309084F83DA084F81B
:102830003E90206C40F02000206484F83C90012001
:10284000BDE8F0872068406925EA00000004000C1C
:10285000B0D1E5E72DE9F04104460D461646206863
:10286000406910F0400F22D100274FF02008206867
:10287000406910F0100F0FD021686FF01000486110
:10288000276384F83D8084F83E70206C206484F8CF
:102890003C700120BDE8F081FEF768FA801BA84279
:1028A00008D83DB12068406910F0400FDFD000200B
:1028B000BDE8F081276384F83D8084F83E70206C89
:1028C00040F02000206484F83C700120BDE8F081D5
:1028D00070B504460D4616462068406910F0800F1A
:1028E00012D12046FFF7C4FD08B1012070BD681C5D
:1028F00005D0FEF73BFA801BA84207D835B1206807
:10290000406910F0800FECD0002070BD00202063E3
:10291000202184F83D1084F83E00216C41F0200114
:10292000216484F83C00012070BD10B5401A029C5F
:10293000E41A6043511AB0FBF1F0184410BD0000D6
:10294000FEB500241148009401940F4902940160DF
:1029500089158160012505730475022606614FF40F
:1029600060214460C161FDF743FE07200094CDE97A
:10297000015069460548FDF78BFDCDE900566946D3
:102980000248FDF785FDFEBD0024014094000020B3
:1029900000B585B00020019003901148816941F095
:1029A00020018161816901F020010491816941F078
:1029B00004018161816901F004010491816941F0A0
:1029C000080181618069694600F0080004901020C8
:1029D0000090012002900348FEF7C4F805B000BD46
:1029E000001002400008014010B58EB0002407948A
:1029F000089409940A940B941C2168460C94FDF7E2
:102A0000AAFB16484FF0804101604FF47A71C0E98B
:102A100001146421C0E903148461FFF7CAF94FF47B
:102A20008050079007A90D48FFF704FA0B48FFF7FD
:102A30000AFB0B940BA909480C94FFF785F9602059
:102A4000CDE9000402940422694604480494FFF787
:102A500091FA0248FFF760FA0EB010BD6C01002039
:102A6000FEE770477047000081B008494FF4FA5202
:102A70000968B1FBF2F14843009000BF0098411E85
:102A800000910028F9D101B07047000088000020B3
:102A9000704700000549088808B1401E0880488832
:102AA00008B1401E4880FEF7B9BC00007800002045
:102AB00030B593B028216846FDF74DFB14210AA8D4
:102AC000FDF749FB002401200F9410941194010498
:102AD00012948DE8130004904FF4E010CDE9081033
:102AE000022507956846FEF705FF0F20CDE90A0588
:102AF0006802CDE90C4002210AA80E94FEF7D8FD29
:102B0000A80311900F950FA8FEF73AFD13B030BD42
:102B10007047000030B40268194B1A4CDFF868C0E7
:102B2000984206D0B0F1804F03D0A04201D060455A
:102B300003D122F070024D682A43984206D0B0F1CA
:102B4000804F03D0A04201D0604505D122F44072ED
:102B5000D1F80CC04CEA0202D1F814C022F0800275
:102B600042EA0C0202608A68C2620A688262984283
:102B700001D1096901630121416130BC7047000046
:102B8000002C0140000400400008004001F01F013B
:102B900001238B40D0F820C02CEA03030362036AB0
:102BA00002FA01F1194301627047D0F808C02CF411
:102BB0007F4C42EA0322114341EA0C0181607047D5
:102BC000826822F07002114341F007018160704772
:102BD00010B4026A22F001020262036A4268D0F86D
:102BE00018C02CF0700C2CF0030C0C6844EA0C0C90
:102BF00023F002038C6823430E4CA04206D123F03D
:102C00000803CC6844EA030323F0040309D122F447
:102C1000807222F400724C6944EA02028C6944EA30
:102C200002024260C0F818C049684163036210BCE8
:102C300070470000002C014010B4026A22F010021C
:102C40000262036A4268D0F818C02CF4E04C2CF4FD
:102C5000407C0C684CEA042C23F020038C6843EA87
:102C600004130E4CA04206D123F08003CC6843EA43
:102C7000041323F0400309D122F4806222F400629D
:102C80004C6942EA84028C6942EA84024260C0F8DC
:102C900018C049688163036210BC7047002C014072
:102CA00010B4026A22F480720262036A4268D0F8A9
:102CB0001CC02CF0700C2CF0030C0C6844EA0C0CBB
:102CC00023F400738C6843EA04230E4CA04206D11F
:102CD00023F40063CC6843EA042323F4806309D11E
:102CE00022F4805222F400524C6942EA04128C69A8
:102CF00042EA04124260C0F81CC04968C163036222
:102D000010BC7047002C014010B4026A22F48052BB
:102D10000262036A4268D0F81CC02CF4E04C2CF428
:102D2000407C0C684CEA042C23F400538C6843EA82
:102D30000433A0F18044B4F5963404D122F48042E7
:102D40004C6942EA84124260C0F81CC049680164C0
:102D5000036210BC7047036AD0F820C02CF0010C4D
:102D6000C0F820C0D0F818C02CF0F00C4CEA0212C9
:102D700023F00A031943826101627047036A23F05A
:102D800010030362D0F818C0036A2CF4704C4CEAAC
:102D9000023223F0A00343EA01118261016270470D
:102DA00010B5044620680169E26821F440511143DE
:102DB00001612169A0680843616901432068C26814
:102DC00022F4037222F4A0521143C16020684169C9
:102DD000A26921F44071114341612068A0F1804152
:102DE000B1F59C3102D1FEF739FD01E0FEF726FD79
:102DF00000EBC00101EB001061680E4A8900B0FBD6
:102E0000F1F1A2FB013040096FF01803434301EBDD
:102E10008303322101EB0311A2FB0121490901F0D7
:102E2000F00202EB001001F00F01084421688860F5
:102E300010BD00001F85EB512DE9F0410446069DB1
:102E4000884617461E462068006838EA00001FD0F2
:102E50000020B84226D1681C1CD025B1FDF786FFA2
:102E6000801BA84216D92068C16821F4D071C160C6
:102E70002068416921F001014161202084F83D0072
:102E800084F83E00002084F83C000320BDE8F08177
:102E90000120DEE72068006838EA000005D0002045
:102EA000B842D8D00020BDE8F0810120F8E7FEE765
:102EB0000FB41CB50246002007AC00290BD0491EF8
:102EC000CDE90021054B6A462146069800F02CF812
:102ED000009A002111701CBC5DF814FB6B320008D5
:102EE0000FB4084B10B504A902AA039800F01CF80F
:102EF000044602A9002000F0C3F9204610BC5DF88A
:102F000014FB00008132000802E008C8121F08C14B
:102F1000002AFAD170477047002001E001C1121F5A
:102F2000002AFBD1704700002DE9FF4F8BB0884687
:102F30000546002606E025280BD0DDE90D12904756
:102F40006D1C761C28780028F5D10FB03046BDE8FE
:102F5000F08F0024A146A2460122AE4900E00443BE
:102F600015F8013F203B02FA03F00842F7D1287818
:102F70002A2810D06FF02F022878A0F130010929FB
:102F800015D809EB890102EB410144F0020400EB82
:102F900001096D1CF0E758F8041B5FEA010903D52D
:102FA00044F40054C9F1000944F002046D1C28786F
:102FB0002E2817D115F8010F44F004042A280ED04A
:102FC0006FF02F022878A0F1300109290AD80AEB06
:102FD0008A0102EB410100EB010A6D1CF2E758F88F
:102FE00004AB6D1C28786C280FD006DC4C2817D059
:102FF00068280DD06A2814D104E0742810D07A28EB
:103000000FD10DE044F400140AE044F4801401E010
:1030100044F440146978814202D104F580146D1C97
:103020006D1C2878692865D006DC00288DD06328BF
:1030300027D0642806D15DE06E2808D073282AD0F6
:10304000752877D0DDE90D129047761CE0E0C4F3D7
:103050000250022809D003280DD0D8F80010042807
:103060000DD00E6008F10408D2E0D8F80010F21775
:10307000C1E90062F6E7D8F800100E80F2E70E70A2
:10308000F0E718F8041B8DF8001000208DF80100FF
:10309000EB46012003E058F804BB4FF0FF30610716
:1030A0004FF0000701D40AE07F1C57450DDA874234
:1030B000FADB1BF807100029F6D106E07F1C8742D7
:1030C000FCDB1BF807100029F8D1DDE90D23A9EB83
:1030D00007008146214600F0B1F83044C61904E0EB
:1030E000DDE90D121BF8010B90477F1EF8D2214637
:1030F000484688E058F8040BC4F302514FF00A0B1D
:10310000032900D100B2042900D140B2002802DA1C
:1031100040422D2102E0210505D52B218DF82410F8
:10312000012104E006E0E10710D02021F6E708AF16
:10313000089113E058F8040BC4F302514FF00A0B46
:10314000032900D180B2042900D1C0B20021EEE7EA
:103150005946FDF71BF8303107F8011D0028F7D15B
:10316000ADEB070000F1200B600702D524F480349A
:1031700001E04FF0010ADA4502DDAAEB0B0000E0A6
:103180000020824600EB0B0108980144A9EB0100E6
:103190000A90E00306D4DDE90D2321460A9800F0E9
:1031A0004DF806444FF0000908E009A911F809009C
:1031B000DDE90D12904709F10109761C089989454E
:1031C000F3DBE0030CD5DDE90D2321460A9800F07E
:1031D00035F8064404E0DDE90D1230209047761CF6
:1031E000BAF10001AAF1010AF5DC05E0DDE90D12F2
:1031F00017F8010B9047761CBBF10001ABF1010BF6
:10320000F4DC0A982146DDE90D2300F005F80644B8
:103210006D1C97E6092801002DE9F04104460025C0
:103220001E461746880404D405E039462020B047DE
:103230006D1C641EF9D52846BDE8F0812DE9F041EA
:10324000044600251E469046C80301D5302700E0FD
:103250002027880404D505E041463846B0476D1C58
:10326000641EF9D52846BDE8F0814A68002A06D0D8
:103270000A68531C0B6010704868401E4860704715
:103280000A68531C0B6010707047000070B505464B
:1032900000F052F80E4CFF262670E8B200F01EFC3B
:1032A00020706420FDF74CFC207800F009FC2078A9
:1032B0000028F2D107A000F0E1FB0221322000F04B
:1032C0000FF84FF47A70FDF73BFC267070BD0000DC
:1032D0001800002053544F524520444F4E450000E3
:1032E0002DE9F04700240E4681461E27114D4FF070
:1032F0000F0816E02868C762EF602968C1F83880B7
:103300004846FDF71DFC04210A48FEF71FFF48460A
:10331000FDF716FCB44203D004210648FEF7C2FEB6
:10332000641CB442E6DDBDE8F04704210148FEF725
:103330000DBF00006C01002070B5324CFF2532A09B
:1033400000F09CFB01213220FFF7CAFF03E000BF21
:1033500000F09EF8207000F09BF80028F8D12DA016
:1033600000F08CFB2570012000F05AF910F0FF00EE
:103370002070F8D12CA000F081FB257000F088F8B7
:1033800010F0FF002070F9D12CA000F077FB257021
:10339000022000F045F910F0FF002070F8D12DA0B8
:1033A00000F06CFB84F8005000F0C4FA2070642038
:1033B000FDF7C6FB207808281BD0012819D000F0A3
:1033C0007FFB20780028EFD127A000F057FB257065
:1033D00000F01CFB20706420FDF7B2FB207800F0A9
:1033E0006FFB20780028F3D122A000F047FB0120DA
:1033F00070BD24A000F042FB4FF47A70FDF7A0FBF3
:103400009DE70000180000204441542054415920F9
:1034100056414F00434F4C4C4543542046494E477C
:10342000455220444F4E4500494D4732545A2830AA
:103430007830312920444F4E45000000434F4C4C1A
:103440004543542046494E47455220444F4E45651A
:1034500065000000494D4732545A283078303229EF
:1034600020444F4E450000004D4154434820444FF6
:103470004E4500005245474D4F44454C20444F4E69
:10348000450000004C4F492C4C414D204C41490017
:103490003EB509A24FF0FF3407CA8DE80700234666
:1034A0000C2269460748FEF77DFF08B120463EBD65
:1034B0000C2000F05DFA3EBDEF01FFFFFFFF0100B1
:1034C00003010005B401002010B500F011F802213D
:1034D0004FF4FA70FFF704FFBDE8104001A000F0C0
:1034E000CDBA0000586F6120746F616E20626F006A
:1034F0000EB507A24FF0FF3307CA8DE807000C2274
:1035000069460648FEF74EFF0C2000F031FA0EBD6A
:10351000EF01FFFFFFFF0100030D0011B4010020C8
:1035200010B5002821D0114B0022001F196803E0BC
:10353000814203D80A4649680029F9D152B113687B
:10354000841A9C4204D1006818441060104602E0BE
:10355000506000E0186039B102680B1A934203D141
:103560000B681A4402604968416010BD8C0000205D
:103570002DE9F04389B0FCF75FFFFCF70AFF8146B5
:10358000FCF721FF8046FCF749FF0646FCF709FFE0
:103590000546FCF710FF0446FCF736FF07461421EA
:1035A00004A8FCF7D8FD6420B6FBF0F100FB116124
:1035B000CDE90015CDE9024743464A4604A104A8D7
:1035C000FFF78EFC04A800F0ABFA09B0BDE8F08369
:1035D0002530327525303275253032752025303250
:1035E000753A253032753A253032750010B5102104
:1035F0000948FDF7B3FB0949087020B148680A285B
:1036000003D2022010BD012010BD5A2801D9032089
:1036100010BD002010BD0000000801400400002083
:103620007FB50CA5C11D3CCD8DE83C008DF80A008E
:103630008DF80C104FF0FF3423460D2269460948DF
:10364000FEF7B0FE10B1204604B070BD0C2000F0B3
:103650008FF9F9E7EF01FFFFFFFF0100040200000F
:1036600000000000B401002002220149FDF798B8D3
:103670001000002010B5802000F014F80024202055
:1036800000F030F8641C462CF9DB10BD10B10128A5
:1036900005D102E041F0800101E041F0C001C8B273
:1036A000AFF300801CB500F0F00141F00C028DF882
:1036B000042041F0080100018DF8051040F00C01D4
:1036C0008DF8061040F008008DF807006420009087
:1036D000042301AA4E210248FDF7A4FD1CBD0000F1
:1036E000C40000201CB500F0F00141F00D028DF87F
:1036F000042041F0090100018DF8051040F00D0192
:103700008DF8061040F009008DF807006420009045
:10371000042301AA4E210248FDF784FD1CBD0000D0
:10372000C400002010B5044602E0641CFFF7DAFF75
:1037300020780028F9D110BD08B5FDF777FEFFF716
:10374000B7F9FFF725F95748416941F00101416197
:103750004069002200F00100009011460B20FDF7A7
:10376000C7FE0B20FDF7B4FE50484F49504D0024D2
:103770000160C0E901540E14C0E90346446184614C
:10378000C4610462FDF7F8FA48484A49F0300C2752
:1037900001604FF46141C0E90114C460C0E904470D
:1037A0008461C461FEF70BFD404843495430016019
:1037B000C0E90154C0E9034644618461C461046204
:1037C000FDF7DAFA3E483D4901604FF4E131C0E9C6
:1037D0000114C460C0E904478461C461FEF7EFFCD2
:1037E000FFF702F9FFF7ACF830483038FFF73CFF3D
:1037F000344E4FF49677A6F10C05286800EB800054
:1038000006EB800000F03AF9C820FDF799F9FFF7C0
:10381000EDFE01280ED0022839D00328EDD1012178
:103820006420FFF75DFD2868401C28600428E4DB65
:103830002C60E2E701216420FFF752FD286860B1A7
:10384000012811D002281AD00328D6D101213846E8
:10385000FFF746FD00F09CF9CFE701213846FFF75E
:103860003FFD00F06BF9C8E701213846FFF738FD4E
:103870006868FFF70BFD6868401C6860BDE70121C0
:103880003846FFF72DFDFFF71FFE6C60B5E70121FD
:103890006420FFF725FD2868401E2860ADD5032071
:1038A0002860AAE70010024000540040C400002035
:1038B000A08601000038014000580040004400404C
:1038C000F801002028000020F0B50B30154D20F045
:1038D00007010024144A0FE003688B420BD38B428C
:1038E00005D95E1A43184768C3E9006700E04368DA
:1038F000136002C004E0021D10680028ECD12046CD
:10390000002802D1286808B10020F0BD064A074807
:103910001060074A121A22F00702C0E900240120B1
:103920002860D7E7900000208C000020840200204F
:10393000800400201FB50C484FF0FF34D0E900137D
:10394000D0E90220CDE90013CDE9022023460E2262
:1039500069460648FEF726FD10B1204604B010BDAA
:103960000E2000F01DF8F9E7E03B0008B40100204C
:10397000F0B585B0002405466E46671E07E0311994
:103980003B4601220548FEF7A3FC00B9641CAC428B
:10399000F5DB701910F8030C05B0F0BDB401002080
:1039A000F0B585B0002405466E46671E07E0311964
:1039B0003B4601220548FEF78BFC00B9641CAC4273
:1039C000F5DB701910F8050C05B0F0BDB40100204E
:1039D000F0B585B0002405466E46671E07E0311934
:1039E0003B4601220748FEF773FC00B9641CAC4259
:1039F000F5DB7019044A10F8070C9DF80B10517094
:103A000005B0F0BDB4010020180000200EB507A2DB
:103A10004FF0FF3307CA8DE807000C2269460648BD
:103A2000FEF7C0FC0C20FFF7A3FF0EBDEF01FFFF68
:103A3000FFFF010003050009B401002000B585B0B7
:103A4000142208A16846FCF76DFB4FF0FF331122EA
:103A500069460948FEF7A6FC1020FFF7B9FF05B03C
:103A600000BD0000EF01FFFFFFFF0100080401009F
:103A70000000FF010D000000B40100202DE9F0411D
:103A80008046FFF7F7FD4046FCF770FB002607462F
:103A9000344635460FE021463046FFF7F7FD18F86B
:103AA0000500FFF71FFE641C102C03D10024761CB8
:103AB000022E02D06D1CBD42EDDBBDE8F08100009E
:103AC0001FB5034604A210216846FFF7F1F96846C6
:103AD000FFF7D4FF1FBD0000256400007FB50BA5D4
:103AE00000F10E013CCD8DE83C008DF80C008DF806
:103AF0000E104FF0FF330F2269460848FEF752FCC4
:103B00000C20FFF735FF04B070BD0000EF01FFFF90
:103B1000FFFF01000606010000000000B4010020C4
:103B200070B50546FCF722FB401CFFF7CDFE0400F4
:103B300002D02946FCF721FB204670BD70B5FFF787
:103B4000FBFBFFF77BFF4FF4FA6560B10CA0FFF7BA
:103B500095FF2846FCF7F4FF0221A810FFF7C0FBF1
:103B60004FF0FF3070BD094C6078FFF7A9FF284681
:103B7000FCF7E6FF03214B20FFF7B2FB607870BD36
:103B80006E6F7420666F756E640000001800002070
:103B900070B5114C4FF47A7604F10C05FFF726FD51
:103BA000002818D1206800EB800005EB8000FFF7AB
:103BB00065FF0A48FFF7DCFCA06000210120FFF749
:103BC00065FDA068FFF7AEFDA068FFF7A9FC3046D1
:103BD000FCF7B6FFE2E770BD1C00002018010020D2
:103BE000EF01FFFFFFFF01000303000700000000DB
:103BF000000000000000010203040607080900009D
:103C00000000010203040000283C0008000000201E
:103C100094000000082F0008BC3C0008940000201D
:103C2000EC070000182F0008000000000000000052
:103C30000000000000000000000000000000000084
:103C4000FF00000000000000000000000000000075
:103C50004348414D20434F4E470000000000000004
:103C6000000000005448454D2056414E2054415913
:103C70000000000000000000584F4120544F414E0A
:103C800020424F00000000000000000058454D2079
:103C900047494F0000000000000000000000000045
:103CA0000000000001000000100000000000000003
:0C3CB0000024F4000000000000000000F0
:04000005080000ED02
:00000001FF
