:020000040800F2
:10000000E005002001010008CB190008F5150008E3
:10001000C9190008A1010008A11D00080000000086
:10002000000000000000000000000000F5190008BA
:10003000A301000800000000CD190008F71900080E
:100040001B0100081B0100081B0100081B01000820
:100050001B0100081B0100081B0100081B01000810
:100060001B0100081B0100081B0100081B01000800
:100070001B0100081B0100081B0100081B010008F0
:100080001B0100081B0100081B0100081B010008E0
:100090001B0100081B0100081B0100081B010008D0
:1000A0001B0100081B0100081B0100081B010008C0
:1000B0001B0100081B0100081B0100081B010008B0
:1000C0001B0100081B0100081B0100081B010008A0
:1000D0001B0100081B0100081B0100081B01000890
:1000E0001B0100081B0100081B010008DFF80CD0F1
:1000F00000F044F800480047C91E0008E005002051
:100100000648804706480047FEE7FEE7FEE7FEE7B1
:10011000FEE7FEE7FEE7FEE7FEE7FEE7491A000816
:10012000ED00000840EA01039B0703D009E008C97D
:10013000121F08C0042AFAD203E011F8013B00F8AC
:10014000013B521EF9D27047D2B201E000F8012BF8
:10015000491EFBD270470022F6E710B513460A4647
:1001600004461946FFF7F0FF204610BD421C10F868
:10017000011B0029FBD1801A70470000064C074D77
:1001800006E0E06840F0010394E807009847103467
:10019000AC42F6D3FFF7AEFF7C2200089C22000899
:1001A000FEE7704770B5044600F00EF90546B4F15D
:1001B000FF3F02D004480078044400F005F9401BDA
:1001C000A042FAD370BD0000000000202DE9F84FD6
:1001D0004FF0000C00230A68002A7DD0DFF8DC8194
:1001E0000F2708F1040909F1040A0AF1040B01229E
:1001F00002FA0CF60A683240B2426ED1DFF8C0E172
:100200004C68A4EB0E0574452BD00DDC032C34D0C8
:1002100005DC34B3012C19D0022C2FD11BE0112C9A
:1002200016D0122C2AD119E0B5F5881F19D006DC9A
:10023000B5F5803F15D0B5F5801F1FD111E0B5F59C
:10024000001F0ED0B5F5041F18D10AE0CB6815E0E9
:10025000CB681B1D12E0CB6808330FE0CB680C3372
:100260000CE08B6823B1012B04D00823466105E024
:10027000042303E00823066100E00023B2F5807F39
:1002800001D2054601E000F1040502D24FEA8C04D8
:1002900003E0ACF108044FEA84042E6807FA04FE78
:1002A00026EA0E0603FA04F446EA04042C604C68BD
:1002B00014F0805F79D0434CA56945F00105A56134
:1002C000A46904F0010400942CF0030404F18044B8
:1002D00004F58034A66801E06EE066E04FEA8C75B4
:1002E0004FEA157507FA05FE26EA0E0EA0F18046C4
:1002F000B6F584361ED0A0F18046B6F586361BD002
:10030000A0F18046B6F5883618D0A0F18046B6F543
:100310008A3615D0042606FA05F545EA0E05A560CD
:100320004C6814F4803F0DD0D8F800401443C8F84E
:1003300000400CE00026EEE70126ECE70226EAE7A3
:100340000326E8E7D8F800409443C8F800404C681A
:1003500014F4003F05D0D9F800401443C9F8004018
:1003600004E0D9F800409443C9F800404C6814F404
:10037000801F05D0DAF800401443CAF8004004E0BA
:10038000DAF800409443CAF800404C6814F4001FA7
:1003900005D0DBF800402243CBF8002005E0DBF875
:1003A000004024EA0202CBF800200CF1010C0A689C
:1003B00032FA0CF27FF41BAFBDE8F88F0004014065
:1003C00000001110001002400148806870470000D2
:1003D0000000002070B50446002C04D094F83D00C5
:1003E000002510B106E0012070BD84F83C50204685
:1003F00000F076F9242084F83D002068016821F09F
:10040000010101602068016841F400410160206839
:10041000016821F40041016000F014FB544B616855
:10042000994203D85349884203D304E05249884291
:1004300001D2012070BD5149B0FBF1F12268D2F820
:1004400004C02CF03F0C4CEA010CC2F804C06268F6
:100450009A4201D84A1C07E04FF4967251434FF478
:100460007A72B1FBF2F14A1C2168D1F820C02CF05D
:100470003F0C42EA0C020A626168994210D84900B6
:10048000401EB0FBF1F2521CC2F30B02042A01D24F
:10049000042026E0B0FBF1F0401CC0F30B0020E08C
:1004A000A268002A50D001EBC10303EB0113A0F1B5
:1004B000010CBCFBF3F35B1C43F480431B051B0DD9
:1004C0004AD0002A4AD001EBC10202EB0111401EC2
:1004D000B0FBF1F0401CC0F30B0040F4804040F44E
:1004E00000402168CA6922F0FF0222F44F42104303
:1004F000C861216AE06901432068026822F0C002F5
:1005000011430160E168206901432068826822F09C
:10051000FF0222F4034211438160A1696069014333
:100520002068C26822F0FF021143C16020680168A0
:1005300041F0010101602564202084F83D0025631D
:1005400084F83E50002070BD01EB4103A0F1010C86
:10055000BCFBF3F35B1CB1E70120C2E701EB4101F7
:10056000401EB0FBF1F0401CC0F30B00B7E70000E9
:10057000A086010080841E0000093D0040420F005B
:100580002DE9F84F04468A46904699460A9FFFF7A0
:100590001BFF064694F83D00202802D00220BDE84B
:1005A000F88F192301224C492046009601F0C4F827
:1005B00010B10220BDE8F88F94F83C00012808D063
:1005C000012084F83C002068016811F0010F03D07D
:1005D00006E00220BDE8F88F016841F001010160EA
:1005E0002068016821F400610160212084F83D0049
:1005F000102084F83E0000252564C4F82480A4F867
:100600002A90608D20853548E06233463A4651464F
:10061000204601F009F810B10120BDE8F88F2068EC
:10062000416980690090208D002846D032463946C5
:10063000204601F042F950B1206C042804D1206812
:10064000016841F4007101600120BDE8F88F606A23
:10065000216800780861606A00F1010CC4F824C0C8
:10066000608D401E6085208D401E80B220852268EE
:10067000516911F0040F0CD058B19CF800001061C2
:10068000606A401C6062608D401E6085208D401E47
:10069000208532463946204601F020F850B1206CC2
:1006A000042804D12068016841F400710160012030
:1006B000BDE8F88F208D0028B8D12068016841F48A
:1006C00000710160202084F83D0084F83E5084F8D9
:1006D0003C500020BDE8F88F020010000000FFFF32
:1006E00030B585B0002100910191029103911E4D1A
:1006F00003681E4C122103221D48AB4216D1A36988
:1007000043F00803A361A369039203F00803049371
:10071000C023CDE900316946FFF758FDE06940F498
:100720000010E061E06900F4001019E0114DAB42E7
:1007300017D1A36943F00803A361A369039203F0EF
:10074000080304934FF44063CDE900316946FFF795
:100750003DFDE06940F48000E061E06900F4800064
:10076000049005B030BD000000540040001002406D
:10077000000C014000580040024881680278114492
:10078000816070470000002010B50748016841F003
:1007900010010160032000F07DF8002000F006F851
:1007A00000F026F8002010BD0020024070B504467D
:1007B0000D4D4FF47A712878B1FBF0F00B490968C0
:1007C000B1FBF0F000F042FC08B1012070BD102C2C
:1007D00007D200222146501E00F028F86C6000204D
:1007E00070BD012070BD0000000000200C00002042
:1007F0000C4808B5816941F001018161816901F00E
:1008000001010091C16941F08051C161C06900F0EE
:10081000805000900448416821F0E06141F000718F
:10082000416008BD001002400000014010B4184BA8
:100830001B68C3F30223C3F1070CBCF1040F01D9F9
:100840004FF0040C1C1D072C01D2002300E0DB1E1E
:10085000012404FA0CFCACF1010C0CEA01019940F2
:1008600004FA03F35B1E1A401143002806DB00F173
:10087000E020090180F8001410BC704700F00F0060
:1008800000F1E020090180F8141D10BC7047000041
:100890000CED00E000F00700064A11684FF6FF0378
:1008A000194041EA002040F0FD7040F08060106087
:1008B000704700000CED00E02DE9F04704460D46BE
:1008C000002C17D0DFF85C81D8F8000000F007009A
:1008D000A84212D2D8F8000020F007002843C8F838
:1008E0000000D8F8000000F00700A84205D0012061
:1008F000BDE8F0870120BDE8F08720684A4E10F07F
:10090000020F14D010F0040F03D0706840F4E060C0
:100910007060207810F0080F03D0706840F46050C9
:100920007060706820F0F001A06808437060207863
:1009300010F0010F3AD06068012806D002280BD0D1
:10094000316811F0020F27D00AE0316811F4003F3E
:1009500006D10120BDE8F087316811F0007F18D082
:10096000716821F0030108437060FFF72DFD074611
:100970007068616800F00C00B0EB810F16D041F296
:100980008839FFF721FDC01B484508D90320BDE881
:10099000F0870120BDE8F0870120BDE8F08770688E
:1009A000616800F00C00B0EB810FEAD1D8F80000CC
:1009B00000F00700A8420FD9D8F8000020F0070087
:1009C0002843C8F80000D8F8000000F00700A8424B
:1009D00002D00120BDE8F087207810F0040F05D088
:1009E0007068E16820F4E06008437060207810F0DF
:1009F000080F06D07068216920F4605040EAC100F9
:100A0000706000F03FF87168084AC1F30311515C4F
:100A1000C8400749086007480068FFF7C7FE002084
:100A2000BDE8F08700200240001002406422000868
:100A30000C000020040000200148006870470000FE
:100A40000C00002000B5FFF7F7FF04494968044A8D
:100A5000C1F30221515CC84000BD000000100240FB
:100A60007422000800B5FFF7E7FF04494968044A0B
:100A7000C1F3C221515CC84000BD0000001002401B
:100A80007422000885B015A0836842680168C068B8
:100A9000039302920191049014A000680090144BFB
:100AA0005968144801F00C02042A11D0082A0FD109
:100AB00001A8C1F38342805C11F4803F0AD05968D9
:100AC000C1F340411DF801100A4A5043B0FBF1F058
:100AD00005B07047084905B0484370470203040554
:100AE000060708090A0B0C0D0E0F1010010200007A
:100AF0000010024000127A0000093D002DE9F84F75
:100B00000446002C0FD02078F84D10F0010F6CD067
:100B1000686800F00C0004280CD0686800F00C0035
:100B2000082803D010E00120BDE8F88F686810F4B1
:100B3000803F09D0286810F4003F56D06068002834
:100B400053D10120BDE8F88F6068B0F5803F15D023
:100B5000C8B1B0F5A02F1FD0286820F480302860DD
:100B6000286820F480202860606858B3FFF72CFCC8
:100B70000646286810F4003F17D036E0286840F495
:100B800080302860F0E7286820F4803028602868EA
:100B900020F480202860E7E7286840F4802028605F
:100BA000286840F480302860DEE7FFF70DFC801BEA
:100BB000642802D90320BDE8F88F286810F4003FAC
:100BC000F3D012E0FFF700FC0646286810F4003F5F
:100BD0000BD0FFF7F9FB801B642802D90320BDE886
:100BE000F88F286810F4003FF3D12078C04F10F040
:100BF000020F4FF0010B4FF0000854D0686810F05E
:100C00000C0F14D0686800F00C00082803D1686845
:100C100010F4803F0BD0206978B3C7F800B0FFF71D
:100C2000D3FB0646286810F0020F12D01DE028689A
:100C300010F0020F05D02069012802D00120BDE884
:100C4000F88F2868616920F0F80040EAC100286048
:100C500029E0FFF7B9FB801B022802D90320BDE879
:100C6000F88F286810F0020FF3D02868616920F02F
:100C7000F80040EAC100286015E0FFE7C7F80080EF
:100C8000FFF7A2FB0646286810F0020F0BD0FFF713
:100C90009BFB801B022802D90320BDE8F88F28683F
:100CA00010F0020FF3D1207810F0080F30D09148E7
:100CB000A169C1B1C0F800B0FFF786FB0646686ABB
:100CC00010F0020F0BD1FFF77FFB801B022802D927
:100CD0000320BDE8F88F686A10F0020FF3D00120FE
:100CE00000F076FE14E0C0F80080FFF76DFB0646CA
:100CF000686A10F0020F0BD0FFF766FB801B02281A
:100D000002D90320BDE8F88F686A10F0020FF3D112
:100D1000207810F0040F6FD00026E86910F0805F93
:100D200008D1E86940F08050E861E86900F080503F
:100D300000900126DFF8C0A1DAF8000010F4807FEF
:100D40001BD1DAF8000040F48070CAF80000FFF709
:100D50003BFB8146DAF8000010F4807F0DD1FFF7ED
:100D600033FBA0EB0900642802D90320BDE8F88F0B
:100D7000DAF8000010F4807FF1D0E068012816D086
:100D8000D0B1052821D0286A20F001002862286A05
:100D900020F004002862E06841F2883A68B3FFF767
:100DA00013FB8146286A10F0020F17D03AE0286A38
:100DB00040F001002862EEE7286A20F00100286276
:100DC000286A20F004002862E5E7286A40F0040061
:100DD0002862286A40F001002862DCE7FFF7F4FA95
:100DE000A0EB0900504502D90320BDE8F88F286A1E
:100DF00010F0020FF2D015E01AE0FFE7FFF7E4FA77
:100E00008146286A10F0020F0CD0FFF7DDFAA0EB44
:100E10000900504502D90320BDE8F88F286A10F078
:100E2000020FF2D1012E03D1E86920F08050E86171
:100E3000E069E8B3696801F00C0108295ED0022876
:100E400010D0C7F86080FFF7BFFA0446286810F09A
:100E5000007F66D0FFF7B8FA001B022841D90320B3
:100E6000BDE8F88FC7F86080FFF7AEFA064628683D
:100E700010F0007F0BD0FFF7A7FA801B022802D9E1
:100E80000320BDE8F88F286810F0007FF3D1206AB6
:100E9000B0F5803F05D16868A16820F400300843B0
:100EA0006860616A206A0843696821F4741100E08F
:100EB00037E008436860C7F860B0FFF785FA04467A
:100EC000286810F0007F2CD1FFF77EFA001B022863
:100ED00002D90320BDE8F88F286810F0007FF3D016
:100EE0001FE0286810F0007FB4D11AE00010024023
:100EF00000004242800442420070004001280DD0B0
:100F00006868226A00F48031914204D1616A00F479
:100F10007010884205D00120BDE8F88F0120BDE89F
:100F2000F88F0020BDE8F88F70B50446002C09D07A
:100F3000606A002540B125616561A56294F85100A1
:100F400040B10CE0012070BD6068B0F5827FF4D044
:100F5000E561F2E784F85050204600F03FF80220A7
:100F600084F851002068016821F040010160A088E8
:100F7000218900F4827001F404410843A18901F43D
:100F800000610843217C01F002010843217D01F04A
:100F900001010843218B01F400710843217F01F016
:100FA0003801084394F8201001F080010843218D96
:100FB00001F40051084321680860A169042000EA97
:100FC0001140216848602068C16921F40061C16155
:100FD0006565012084F85100002070BD30B585B0F2
:100FE00000240094019402940394006814498842F8
:100FF00023D11448816941F480518161816901F4F0
:1010000080510491816941F00401816180690E4D34
:1010100000F004000490A020009002200190032022
:10102000039069462846FFF7D1F84020CDE9000437
:10103000694628460294FFF7C9F805B030BD0000A4
:10104000003001400010024000080140401EB0F195
:10105000807F01D3012070474FF0E0214861044AAE
:10106000F020107000208861072008610020704780
:1010700023ED00E030B490F83C20012A30D0012468
:1010800080F83C40022280F83D200268D2F804C07B
:1010900093682CF0700C0D6845EA0C0CC2F804C083
:1010A0000268A2F1804CBCF5963C0CD0B2F1804FA6
:1010B00009D0A2F1804CBCF5806C04D0A2F1804C28
:1010C000BCF5006C04D123F080034968194391609A
:1010D00080F83D40002180F83C1030BC0020704773
:1010E00030BC0220704710B50446002C03D094F8A1
:1010F0003D0010B107E0012010BD002084F83C0045
:10110000204600F01FF8022084F83D00211D2068D1
:1011100000F09CFC012084F8460084F83E0084F82E
:101120003F0084F8400084F8410084F8420084F8CD
:10113000430084F8440084F8450084F83D00002012
:1011400010BD000008B50068B0F1804F08D1054817
:10115000C16941F00101C161C06900F00100009066
:1011600008BD00000010024070B5044694F83C0031
:10117000012818D0012584F83C50022084F83D0055
:101180002068826822F0770222F47F428260086839
:10119000502832D00EDC20284DD006DC00284AD062
:1011A00010284DD147E0022070BD302843D04028A0
:1011B00046D136E060282AD0702806D0B0F5805F8E
:1011C0003ED0B0F5005F3BD10BE0CB684A68896840
:1011D000206800F086FC2068816841F0770181601A
:1011E0002EE0CB684A688968206800F07AFC2068A5
:1011F000816841F48041816022E0CA6849682068C2
:1012000000F045FD5021206800F076FC18E0CA6827
:101210004968206800F04EFD6021206800F06CFCF9
:101220000EE0CA684968206800F031FD402120685E
:1012300000F062FC04E022680146104600F05CFC0D
:1012400084F83D50002084F83C0070BD00B585B0A6
:10125000002100910191029103910068B0F1804F4B
:1012600010D10948816941F00401816180696946B2
:1012700000F00400049002200090019003900348C5
:10128000FEF7A4FF05B000BD0010024000080140B9
:1012900070B504460D4694F83C0001280AD00120A0
:1012A00084F83C0042B1042A1AD0082A2DD00C2A16
:1012B00053D13EE0022070BD2946206800F024FC96
:1012C0002068816941F0080181612068816921F00D
:1012D00004018161206881692A69114381613CE0D0
:1012E0002946206800F044FC2068816941F40061CF
:1012F00081612068816921F4806181612068816950
:101300002A6941EA0221816127E02946206800F02C
:1013100063FC2068C16941F00801C1612068C169AE
:1013200021F00401C1612068C1692A691143C161CA
:1013300013E02946206800F083FC2068C16941F46D
:101340000061C1612068C16921F48061C1612068C8
:10135000C1692A6941EA0221C161002084F83C0088
:1013600070BD10B50446002C03D094F83D0010B1B8
:1013700007E0012010BD002084F83C00204600F06A
:101380001EF8022084F83D00211D206800F05EFB5D
:10139000012084F8460084F83E0084F83F0084F879
:1013A000400084F8410084F8420084F8430084F847
:1013B000440084F8450084F83D00002010BD7047CB
:1013C00010B50446002909D004290AD008290BD0F9
:1013D00094F8410001280AD0012010BD94F83E0085
:1013E000F8E794F83F00F5E794F84000F2E70220B0
:1013F00089B3042933D0082934D084F8410001226C
:10140000206800F05FFB19492068884203D1426CD4
:1014100042F4004242642068884212D0B0F1804F0A
:101420000FD0A0F18041B1F580610AD0A0F18041D8
:10143000B1F5006105D0016841F0010101600020B3
:1014400010BD816801F007010629F8D0016841F05C
:1014500001010160F3E7FFE784F83E00CFE784F87D
:101460003F00CCE784F84000C9E70000002C0140B1
:1014700030B504460D4600222946206800F022FBC4
:10148000206841F211129110A0F18043B3F5963318
:1014900009D1036A134206D1036A0B4203D1436C9C
:1014A00023F4004343642068036A134206D1026AAE
:1014B0000A4203D1016821F00101016001203DB120
:1014C000042D08D0082D09D084F84100002030BD3B
:1014D00084F83E00FAE784F83F00F7E784F840001C
:1014E000F4E770B50446002C04D094F83D000025C4
:1014F00010B106E0012070BD84F83C50204600F099
:1015000023F8242084F83D002068C16821F40051AC
:10151000C160204600F0E0FB2068016921F49041A1
:1015200001612068416921F02A0141612068C16898
:1015300041F40051C1602564202084F83D0084F806
:101540003E00002070BD000070B586B000240094FD
:10155000019402940394234E03682349022003223A
:10156000224DB34219D18B6943F480438B618B695F
:1015700003F4804304938B6943F004038B6189690E
:10158000039201F0040104910102CDE900106946C3
:101590002846FEF71BFE28151BE0154EB3421FD14F
:1015A000CB6943F40033CB61CB6903F4003304937C
:1015B0008B6943F004038B618969039201F0040194
:1015C00004910421CDE9001069462846FEF7FEFD8E
:1015D0000820CDE90004694628460294FEF7F6FD8E
:1015E00006B070BD00380140001002400008014004
:1015F00000440040FEE701684A6912F4806F11D090
:101600006FF480624A6100210163202280F83D204E
:1016100080F83E10026C42F00402026480F83C1034
:101620000120704700207047F8B504460D46174664
:101630001E46E06A082808D0012806D010F5803F31
:1016400003D0206B122806D00AE02068016841F41C
:101650008071016004E02068016841F480710160DC
:101660003B4600224FF001112046009600F064F83E
:1016700048B12068006810F4807F02D04FF40070F9
:1016800020640320F8BD2069B0F5804F0FD005F429
:101690004070F02141EAD0102168086133463A4693
:1016A0000C49204600F0A2F830B10120F8BD2168B5
:1016B00005F0FE00086102E02168E8B208613346E7
:1016C0003A460549204600F091F808B10120F8BDDE
:1016D0000020F8BD080001000200010070B50446BA
:1016E0000D4616462068406910F0040F13D12046BD
:1016F000FFF781FF08B1012070BDB5F1FF3F05D0B4
:10170000FEF762FE801BA84207D835B12068406909
:1017100010F0040FEBD0002070BD002020632021CA
:1017200084F83D1084F83E00216C41F020012164D2
:1017300084F83C00012070BD2DE9F0470446DDF837
:1017400020900D4617461E46C5F307482068B8F19D
:10175000010F22D0806925EA00000004000C26D089
:101760000020B84216D1B6F1FF3F06D0FEF72CFE9E
:10177000A0EB0900B0421CD8DEB1B8F1010F28D0AF
:101780002068806925EA00000004000C2CD00020AD
:10179000B842E8D00020BDE8F087406925EA0000A3
:1017A0000004000C01D00020DBE70120D9E7012074
:1017B000D7E700202063202184F83D1084F83E0004
:1017C000216C41F02001216484F83C000120BDE837
:1017D000F0872068406925EA00000004000C01D071
:1017E0000020D5E70120D3E70120D1E72DE9F0471C
:1017F00004460D4616461F46C5F307482068B8F153
:10180000010F26D0806925EA00000004000C3AD0C0
:101810004FF000094FF0200A2068406910F4806FF3
:101820001ED02068016841F40071016021686FF4E6
:1018300080604861C4F8309084F83DA084F83E9000
:10184000206C40F00400206484F83C900120BDE846
:10185000F087406925EA00000004000C13D0D7E7A8
:10186000B6F1FF3F05D0FEF7AFFDC01BB0420DD86B
:1018700066B1B8F1010F18D02068806925EA000030
:101880000004000CC8D10020BDE8F087C4F83090F7
:1018900084F83DA084F83E90206C40F02000206445
:1018A00084F83C900120BDE8F0872068406925EA73
:1018B00000000004000CAFD1E5E770B504460D460A
:1018C00016462068406910F0800F13D12046FFF7BC
:1018D00092FE08B1012070BDB5F1FF3F05D0FEF7C3
:1018E00073FD801BA84207D835B12068406910F00D
:1018F000800FEBD0002070BD00202063202184F8F1
:101900003D1084F83E00216C41F02001216484F8F0
:101910003C00012070BD00000C480B494FF40072E0
:1019200001604FF48271416000218160C1600161FA
:10193000C0E905121022C0E90721416281620A2133
:10194000C162FFF7F1BA000000300140B80000208A
:1019500010B58EB000240794089409940A940B944F
:101960001C2168460C94FEF7F6FB16484FF08041A8
:1019700001604FF47A71C0E901146421C0E90314D5
:101980008461FFF7B0FB4FF48050079007A90D4822
:10199000FFF7EAFB0B48FFF7E4FC0B940BA909489F
:1019A0000C94FFF767FB6020CDE900040294042249
:1019B000694604480494FFF76BFC0248FFF746FCB5
:1019C0000EB010BD10010020FEE770477047000008
:1019D00081B007494FF4FA520968B1FBF2F148436C
:1019E000009000BF0098411E0091FAD201B07047EC
:1019F0000C0000207047FEF7BFBE30B58FB0282125
:101A00006846FEF7A8FB14210AA8FEF7A4FB0121F3
:101A10000804CDE900100024029402250491CDE9C8
:101A200007504FF4E01009906846FFF767F80F2061
:101A3000CDE90A056802CDE90C4002210AA80E94FE
:101A4000FEF73AFF0FB030BD7047000030B40268B7
:101A5000194B1A4CDFF868C0984206D0B0F1804F9D
:101A600003D0A04201D0604503D122F070024D683E
:101A70002A43984206D0B0F1804F03D0A04201D053
:101A8000604505D122F44072D1F80CC04CEA020244
:101A9000D1F814C022F0800242EA0C0202608A6887
:101AA000C2620A688262984201D109690163012118
:101AB000416130BC70470000002C01400004004030
:101AC0000008004001F01F0101238B40D0F820C026
:101AD0002CEA03030362036A02FA01F1194301626B
:101AE0007047D0F808C02CF47F4C42EA032211431F
:101AF00041EA0C0181607047826822F07002114354
:101B000041F007018160704710B4026A22F00102BF
:101B10000262036A4268D0F818C02CF0700C2CF0F6
:101B2000030C0C6844EA0C0C23F002038C6823437A
:101B30000E4CA04206D123F00803CC6844EA03030C
:101B400023F0040309D122F4807222F400724C695C
:101B500044EA02028C6944EA02024260C0F818C0FA
:101B600049684163036210BC70470000002C0140CB
:101B700010B4026A22F010020262036A4268D0F8CE
:101B800018C02CF4E04C2CF4407C0C684CEA042C7B
:101B900023F020038C6843EA04130E4CA04206D1C4
:101BA00023F08003CC6843EA041323F0400309D1F7
:101BB00022F4806222F400624C6942EA84028C6959
:101BC00042EA84024260C0F818C049688163036237
:101BD00010BC7047002C014010B4026A22F48072DD
:101BE0000262036A4268D0F81CC02CF0700C2CF022
:101BF000030C0C6844EA0C0C23F400738C6843EA71
:101C000004230E4CA04206D123F40063CC6843EABF
:101C1000042323F4806309D122F4805222F4005279
:101C20004C6942EA04128C6942EA04124260C0F82C
:101C30001CC04968C163036210BC7047002C01409E
:101C400010B4026A22F480520262036A4268D0F839
:101C50001CC02CF4E04C2CF4407C0C684CEA042CA6
:101C600023F400538C6843EA0433A0F18044B4F5B4
:101C7000963404D122F480424C6942EA84124260D4
:101C8000C0F81CC049680164036210BC7047036A55
:101C9000D0F820C02CF0010CC0F820C0D0F818C03B
:101CA0002CF0F00C4CEA021223F00A031943826173
:101CB00001627047036A23F010030362D0F818C072
:101CC000036A2CF4704C4CEA023223F0A00343EA7E
:101CD000011182610162704770B504462068016994
:101CE000E26821F44051114301612169A068084371
:101CF000616901432068C26822F4037222F4A05291
:101D00001143C16020684169A26921F44071114307
:101D100041612068A0F18041B1F59C313AD0FEF7D5
:101D200091FE00EBC00101EB001061681B4A8900C5
:101D3000B0FBF1F3A2FB0353B0FBF1FC5B096FF0C6
:101D400018056B430CEB83034FF0320C0CEB0313C1
:101D5000A2FB03535B0903F0F005B0FBF1F3A2FB18
:101D600003635B0905EB0313B0FBF1F5B0FBF1F086
:101D7000A2FB001040096FF01801484305EB8000FA
:101D80000CEB0010A2FB00102168C0F343101844B4
:101D9000886070BDFEF766FEC3E700001F85EB514B
:101DA000FEE702E008C8121F08C1002AFAD17047F6
:101DB0007047002001E001C1121F002AFBD17047CB
:101DC0002DE9F04700240E4681461E27114D4FF0A5
:101DD0000F0816E02868C762EF602968C1F83880EC
:101DE0004846FEF7DFF904210A48FFF741FB484661
:101DF000FEF7D8F9B44203D004210648FFF7E0FA11
:101E0000641CB442E6DDBDE8F04704210148FFF759
:101E10002FBB00001001002010B5802000F014F846
:101E20000024202000F030F8641C462CF9DB10BDA3
:101E300010B1012805D102E041F0800101E041F03C
:101E4000C001C8B2AFF300801CB500F0F00141F052
:101E50000C028DF8042041F0080100018DF80510F6
:101E600040F00C018DF8061040F008008DF80700D6
:101E700064200090042301AA4E210248FEF780FB53
:101E80001CBD0000100000201CB500F0F00141F066
:101E90000D028DF8042041F0090100018DF80510B4
:101EA00040F00D018DF8061040F009008DF8070094
:101EB00064200090042301AA4E210248FEF760FB33
:101EC0001CBD00001000002008B5FEF75DFCFFF708
:101ED00094FD3248816941F020018161816901F0FE
:101EE00020010091816941F004018161816901F063
:101EF00004010091816941F00801816180692849EC
:101F000000F0080000902748274D00240160C0E938
:101F100001540E14C0E9034644618461C461046243
:101F2000FEF758FA224821494FF4E1370160C0E931
:101F300001744FF00C08C460C0E904488461C461B6
:101F4000FFF7CFFA17481B4954300160C0E901542C
:101F5000C0E9034644618461C4610462FEF73AFA51
:101F60001348154944300160C0E90174C460C0E9F8
:101F700004488461C461FFF7B4FAFFF7CDFCFFF7B2
:101F8000E7FC0EA000F072F804214FF4FA70FFF79E
:101F900017FF052000F01AF8FEE7000000100240CD
:101FA0000054004010000020A086010000380140CD
:101FB000580100200058004000440040746574201F
:101FC00062757420322C356B687A00002DE9F04F71
:101FD000EDB08146E02221496846FEF7A3F81F498B
:101FE000D422E03138A8FEF79DF8382700266D4648
:101FF0002BE0DFF86CA0DFF86CB000240DF1E008F6
:1020000055F8240088B19AFBF0F2DBF80030DA6270
:1020100055F824209AFBF2F1CBF80C101249DBF8AA
:10202000000091FBF2F1816303E004210D48FFF70A
:102030001FFA58F8240000EB4001C1EBC010FEF776
:10204000B1F8641CBC42DBDB761C4E45D1DB0421BD
:102050000448FFF70DFA6DB0BDE8F08FB02000081E
:1020600040420F001001002020A107002DE9F0419F
:102070008046FFF7D1FE4046FEF778F80026074677
:10208000344635460FE021463046FFF7D1FE18F8BA
:102090000500FFF7F9FE641C102C03D10024761C08
:1020A000022E02D06D1CBD42EDDBBDE8F0810000C8
:1020B0009302000093020000000000009302000061
:1020C000000000000B02000093020000000000006E
:1020D00010030000880100000B0200000000000057
:1020E00088010000000000004A010000000000001C
:1020F000B801000000000000EE0100000000000038
:10210000D201000000000000B80100000000000043
:10211000880100000000000093020000100300008E
:1021200070030000000000004B02000000000000EF
:1021300093020000000000000B02000000000000FD
:102140004B02000000000000EE0100000000000053
:102150000B020000000000008801000000000000E9
:102160000B02000000000000B801000000000000A9
:10217000EE01000000000000D2010000000000009D
:10218000B80100000000000088010000000000000D
:102190000800000008000000040000000800000023
:1021A000040000000400000008000000040000001B
:1021B000040000000400000004000000040000000F
:1021C00004000000040000000400000004000000FF
:1021D00004000000040000000400000004000000EF
:1021E00004000000040000000400000004000000DF
:1021F00004000000040000000400000004000000CF
:1022000004000000040000000400000004000000BE
:1022100004000000040000000400000004000000AE
:10222000040000000400000004000000040000009E
:10223000040000000400000004000000040000008E
:10224000040000000400000004000000040000007E
:10225000040000000400000004000000040000006E
:102260000400000000000000000000000102030460
:102270000607080900000000010203049C22000870
:102280000000002010000000A21D0008AC22000881
:1022900010000020D0050000B21D00080100000061
:0C22A00010000000000000000024F4000A
:04000005080000ED02
:00000001FF
