:020000040800F2
:1000000098060020010100086B2600089B210008CB
:1000100069260008FD020008C92A00080000000047
:100020000000000000000000000000009926000809
:1000300045030008000000006D2600089B2600080C
:100040001B0100081B0100081B0100081B01000820
:100050001B0100081B0100081B0100081B01000810
:100060001B0100081B0100081B0100080103000818
:100070001B0100081B0100081B0100081B010008F0
:100080001B0100081B0100081B0100081B010008E0
:100090001B0100081B0100081B0100081B010008D0
:1000A0001B0100081B0100081B0100081B010008C0
:1000B0001B0100081B0100081B0100081B010008B0
:1000C0001B0100081B0100081B0100081B010008A0
:1000D0001B0100081B0100081B0100081B01000890
:1000E0001B0100081B0100081B010008DFF80CD0F1
:1000F00000F044F800480047192D00089806002039
:100100000648804706480047FEE7FEE7FEE7FEE7B1
:10011000FEE7FEE7FEE7FEE7FEE7FEE7FF26000854
:10012000ED00000840EA01039B0703D009E008C97D
:10013000121F08C0042AFAD203E011F8013B00F8AC
:10014000013B521EF9D27047D2B201E000F8012BF8
:10015000491EFBD270470022F6E710B513460A4647
:1001600004461946FFF7F0FF204610BD421C10F868
:10017000011B0029FBD1801A70470000064C074D77
:1001800006E0E06840F0010394E807009847103467
:10019000AC42F6D3FFF7AEFFF02F00081030000896
:1001A00070B504462068816811F0010F24D0816881
:1001B00021F00101816000F063FD05462068806840
:1001C00010F0010F18D000F05BFD401B02280ED983
:1001D0002068806810F0010F09D0A06A40F010007C
:1001E000A062E06A40F00100E062012070BD20687A
:1001F000806810F0010FE6D1002070BD10B50246F6
:10020000506A816A11F0500F05D0006A016BBDE899
:10021000104010460847816A41F40071816201680C
:1002200089684FF4602232EA01010DD1017B59B98E
:10023000816A21F480718162816A11F4805F03D147
:10024000816A41F00101816200F03AF910BD10B5F8
:10025000406A816A41F040018162C16A41F0040153
:10026000C16200F048F910BD10B5406A00F042F9D3
:1002700010BD0000F8B5044600260096206881688D
:1002800011F0010F28D1816841F001018160194806
:1002900019490068B0FBF1F00090009828B100986F
:1002A000401E009000980028F9D100F0E9FC0546B6
:1002B0002068806810F0010F0ED100F0E1FC401BB7
:1002C000022804D92068806810F0010F06D0206849
:1002D000806810F0010FF0D00020F8BDA06A40F057
:1002E0001000A062E06A40F00100E06284F824603F
:1002F0000120F8BD2400002040420F00FEE700006E
:10030000014800F069BA00004802002010B490F8DB
:1003100040C0012404FA0CFCC46BC4F804C0D0F83B
:1003200000C0CCF804304368102B05D003689960F6
:100330000068C26010BC704703689A600068C160C2
:1003400010BC704770477047002200F001B80000F1
:1003500010B4844601200F4B5C7A012C17D8587AD0
:1003600000241C54587A03EB8000C0F804C0587A6B
:1003700003F1080C00F80C20587A421C5A723030F5
:1003800008703A2048702F208870CC70002010BC74
:10039000704700008C02002078B44FF0000C00245D
:1003A000009490F82420012A14D0012280F82420FF
:1003B0004A681F25072A10D203685E6B521E02EBA3
:1003C0008202954026EA05050E6806FA02F22A43E3
:1003D0005A631FE078BC022070470D2A0DD20368D3
:1003E0001E6BD21F02EB8202954026EA05050E68BD
:1003F00006FA02F22A431A630CE00368DE6A0D3A39
:1004000002EB8202954026EA05050E6806FA02F222
:100410002A43DA620A6807250A2A0DD30368DE68D0
:100420000A3A02EB4202954026EA05058E6806FA72
:1004300002F22A43DA600BE003681E6902EB420213
:10044000954026EA05058E6806FA02F22A431A61EB
:100450000A68102A01D0112A28D10268A2F180432B
:10046000B3F592331CD1936813F4000F1ED1936837
:1004700043F4000393600968102917D10E490F4A0D
:100480000968B1FBF2F101EB81014900009100998B
:1004900061B10099491E009100990029F9D105E048
:1004A000816A41F0200181624FF0010C80F8244004
:1004B00078BC6046704700002400002040420F00D6
:1004C000F8B50B4D6424009400234FF480573A464E
:1004D0001946286801F0EFFFA5F10C0600237060B3
:1004E00000943A461946686801F0E5FFB060F8BD2F
:1004F0000C000020704770472DE9F04104460027AA
:100500000025002C04D0A068A06A002618B108E0DD
:100510000120BDE8F081E66284F82460204600F006
:100520007DF82046FFF73CFE0146A06A00F010026D
:1005300052EA010007D0A06A40F01000A062012139
:100540000846BDE8F081A06A20F4885040F002001F
:10055000A062E2696068237B104347EA43020243DA
:10056000A068B0F5807F08D0012806D0002094F85C
:1005700014C0BCF1010F03D00BE04FF48070F6E71C
:10058000F3B1A36A43F02003A362E36A43F00103DB
:10059000E3622368D3F804C02CF4694C4CEA0000F1
:1005A000586020688368DFF86CC003EA0C031343CB
:1005B0008360A068B0F5807F09D0012807D009E0EA
:1005C000A3695B1E40EA433040F40060E1E7208A03
:1005D000401E05052068C36A23F470032B43C362E1
:1005E000206880680C4B1840904207D1E662A06AF0
:1005F00020F0020040F00100A062A1E7A06A20F014
:10060000020040F01000A062E06A40F00100E062E9
:10061000012195E7FDF7E1FFFE0E1FFF70B586B0E3
:100620000025064600950195029503950068194935
:1006300088422DD11849886940F400708861886922
:1006400000F400700490886940F0040088618869B3
:10065000694600F0040004900320009001900F48C8
:1006600000F004FA0F4C0E48C4E900058020C4E9EC
:10067000025080002061800060612020C4E90605EE
:10068000204600F061F908B1FFF75DFE3462666252
:1006900006B070BD00240140001002400008014077
:1006A00008000240480200202DE9F0470446884631
:1006B00091462068434F444EA0F1804ABAF5923AE1
:1006C00001D0B84207D1306810F4702F03D0012553
:1006D0002846BDE8F08794F8240001280BD00120BB
:1006E00084F824002046FFF7C5FD054600212DB102
:1006F00084F82410ECE70220BDE8F087A06A20F01F
:10070000010020F4606040F48070A0622068B8426C
:100710001AD1326812F4702F16D0A26A42F48012F5
:10072000A262306810F4806F05D0A06A20F40050F7
:1007300040F48050A062A06A10F4805F13D0E06A99
:1007400020F00600E0620FE0A26A22F48012A262AA
:10075000406810F4806FEED0A06A20F4005040F49E
:100760008050A062E7E7E16284F82410216A17480C
:100770008862216A1648C862216A1648086321689F
:100780006FF0020008602068816841F48071816028
:1007900020684B4600F14C014246206A00F016F9F1
:1007A000206881684FF4602232EA010104D0816838
:1007B00041F4801181608BE7816841F4A001816080
:1007C00086E700000028014004240140FD010008E4
:1007D000690200084F0200082DE9F05FC16B0A684A
:1007E00001680B68D0F840C0042404FA0CF41442E9
:1007F0004E4C4F4D4F4E504FDFF84081DFF8409147
:1008000031D013F0040F2ED00A6812F0200F03D15C
:100810000A6822F004020A600168A14201D10421A1
:1008200019E0A94201D1402115E0B14202D14FF4B3
:10083000806110E0B94202D14FF480410BE04145A4
:1008400002D14FF4802106E0494502D14FF48001E6
:1008500001E04FF080613B4A5160C16A002962D0DB
:10086000BDE8F05F08474FF0020A0AFA0CFA1AEAEC
:10087000020F4FF0000A4FF0010B35D013F0020FBA
:1008800032D00A6812F0200F05D10A6822F00A025D
:100890000A6080F821B00168A14201D1022119E06B
:1008A000A94201D1202115E0B14202D14FF40071DB
:1008B00010E0B94202D14FF400510BE0414502D1A2
:1008C0004FF4003106E0494502D14FF4001101E038
:1008D0004FF000711B4A516080F820A0816A002906
:1008E00021D0BDE8F05F0847082404FA0CFC1CEA9C
:1008F000020F18D013F0080F15D00A6822F00E026C
:100900000A6090F84010C26B0BFA01F15160C0F818
:1009100038B080F821B080F820A0016B002902D007
:10092000BDE8F05F0847BDE8F09F00000800024006
:100930001C000240300002404400024058000240C7
:100940006C0002400000024010B4002834D01C4A61
:1009500001688B181B4AA2FB033212099200026441
:10096000194AC263022280F821200A686FF30D122F
:10097000D0F808C04368046943EA0C03D0F80CC0FF
:100980004CEA040C43EA0C03D0F814C043EA0C030D
:10099000D0F818C043EA0C03D0F81CC043EA0C039B
:1009A0001A430A6000218163012280F8212080F827
:1009B000201010BC0020704710BC012070470000C0
:1009C000F8FFFDBFCDCCCCCC0000024070B5044692
:1009D000002594F8200001280DD0012084F8200083
:1009E00094F821C00020BCF1010F06D084F820004B
:1009F0000225284670BD022070BD4FF0020C84F81D
:100A000021C0A0632068D0F800C02CF0010CC0F811
:100A100000C02046FFF77AFCE06A28B12068016830
:100A200041F00E01016009E02068016821F0040135
:100A300001602068016841F00A01016020680168D6
:100A400041F001010160D4E770B5044600F018F9E7
:100A50000546601C02D004480078044400F010F9F8
:100A6000401BA042FAD370BD180000202DE9F84FBA
:100A70004FF0000C00230A68002A7DD0DFF8D881EF
:100A80000F2708F1040909F1040A0AF1040B0122F5
:100A900002FA0CF60A683240B2426ED1DFF8BCE1CD
:100AA0004C68A4EB0E0574452BD00DDC032C34D020
:100AB00005DC34B3012C19D0022C2FD11BE0112CF2
:100AC00016D0122C2AD119E0B5F5881F19D006DCF2
:100AD000B5F5803F15D0B5F5801F1FD111E0B5F5F4
:100AE000001F0ED0B5F5041F18D10AE0CB6815E041
:100AF000CB681B1D12E0CB6808330FE0CB680C33CA
:100B00000CE08B6823B1012B04D00823466105E07B
:100B1000042303E00823066100E00023B2F5807F90
:100B200001D2054601E000F1040502D24FEA8C042F
:100B300003E0ACF108044FEA84042E6807FA04FECF
:100B400026EA0E0603FA04F446EA04042C604C6814
:100B500014F0805F77D0424CA56945F00105A5618E
:100B6000A46904F0010400942CF0030404F180440F
:100B700004F58034A66801E06CE064E04FEA8C750F
:100B80002D0F07FA05FE26EA0E0EA0F18046B6F5F7
:100B9000843600D115E0A0F18046B6F5863601D145
:100BA00001260EE0A0F18046B6F5883601D1022676
:100BB00007E0A0F18046B6F58A3601D1032600E0B1
:100BC000042606FA05F545EA0E05A5604C6814F4FE
:100BD000803F05D0D8F800401443C8F8004004E036
:100BE000D8F800409443C8F800404C6814F4003F23
:100BF00005D0D9F800401443C9F8004004E0D9F802
:100C000000409443C9F800404C6814F4801F05D09C
:100C1000DAF800401443CAF8004004E0DAF8004073
:100C20009443CAF800404C6814F4001F05D0DBF868
:100C300000402243CBF8002005E0DBF8004024EA26
:100C40000202CBF800200CF1010C0A6832FA0CF217
:100C50007FF41DAFBDE8F88F0004014000001110C3
:100C6000001002408068084201D001207047002037
:100C70007047002A01D00161704709040161704783
:100C800001488068704700001800002070B50446D5
:100C9000002C04D094F83D00002510B106E001209E
:100CA00070BD84F83C50204600F070F9242084F890
:100CB0003D002068016821F00101016020680168A1
:100CC00041F4004101602068016821F400410160A5
:100CD00000F0B8FB514B6168994203D850498842F3
:100CE00003D304E04F49884201D2012070BD4E4930
:100CF000B0FBF1F12268D2F804C02CF03F0C4CEAB2
:100D0000010CC2F804C062689A4201D84A1C07E08C
:100D10004FF4967251434FF47A72B1FBF2F14A1CD0
:100D20002168D1F820C02CF03F0C42EA0C020A6284
:100D3000616899420AD84900401EB0FBF1F0401C9E
:100D4000C0F30B00042822D2042020E0A268002A6D
:100D500050D001EBC10303EB0113A0F1010CBCFB6C
:100D6000F3F35B1C43F480431B051B0D4AD0002AA0
:100D70004AD001EBC10202EB0111401EB0FBF1F0C1
:100D8000401CC0F30B0040F4804040F40040216858
:100D9000CA6922F0FF0222F44F421043C861216A5F
:100DA000E06901432068026822F0C002114301603B
:100DB000E168206901432068826822F0FF0222F482
:100DC000034211438160A169606901432068C268E0
:100DD00022F0FF021143C1602068016841F0010167
:100DE00001602564202084F83D00256384F83E508E
:100DF000002070BD01EB4103A0F1010CBCFBF3F33B
:100E00005B1CB1E70120C2E701EB4101401EB0FBD2
:100E1000F1F0401CC0F30B00B7E70000A086010012
:100E200080841E0000093D0040420F002DE9F84F6C
:100E300004468A46904699460A9FFFF721FF0646D8
:100E400094F83D00202802D00220BDE8F88F192335
:100E500001224C492046009601F041FA10B10220CF
:100E6000BDE8F88F94F83C00012808D0012084F8F0
:100E70003C002068016811F0010F03D006E0022059
:100E8000BDE8F88F016841F0010101602068016848
:100E900021F400610160212084F83D00102084F8D5
:100EA0003E0000252564C4F82480A4F82A90608DB3
:100EB00020853548E06233463A465146204601F0E7
:100EC00087F910B10120BDE8F88F20684169806979
:100ED0000090208D002846D032463946204601F049
:100EE000BDFA50B1206C042804D12068016841F497
:100EF000007101600120BDE8F88F606A2168007808
:100F00000861606A00F1010CC4F824C0608D401EC5
:100F10006085208D401E80B220852268516911F0C5
:100F2000040F0CD058B19CF800001061606A401C9E
:100F30006062608D401E6085208D401E2085324697
:100F40003946204601F09EF950B1206C042804D1A6
:100F50002068016841F4007101600120BDE8F88F4C
:100F6000208D0028B8D12068016841F4007101602B
:100F7000202084F83D0084F83E5084F83C50002046
:100F8000BDE8F88F020010000000FFFF30B585B00B
:100F9000002100910191029103911E4D03681E4CA6
:100FA000122103221D48AB4216D1A36943F0080366
:100FB000A361A369039203F008030493C023CDE95E
:100FC00000316946FFF752FDE06940F40010E0612E
:100FD000E06900F4001019E0114DAB4217D1A3698C
:100FE00043F00803A361A369039203F00803049389
:100FF0004FF44063CDE900316946FFF737FDE06902
:1010000040F48000E061E06900F48000049005B0E5
:1010100030BD00000054004000100240000C0140B0
:10102000005800400248816802781144816070478E
:101030001800002010B50748016841F01001016058
:10104000032000F08FF8002000F006F800F026F8EA
:10105000002010BD0020024070B504460D4D4FF435
:101060007A712878B1FBF0F00B490968B1FBF0F018
:1010700000F0ECFC08B1012070BD102C07D200225A
:101080002146501E00F038F86C60002070BD012031
:1010900070BD000018000020240000200C4808B596
:1010A000816941F001018161816901F001010091D3
:1010B000C16941F08051C161C06900F08050009069
:1010C0000448416821F0E06141F00071416008BDD1
:1010D000001002400000014000280BDB00F01F015F
:1010E000012202FA01F140094FF0E02202EB8000F8
:1010F000C0F800117047000010B4174B1B68C3F311
:101100000223C3F1070CBCF1040F01D94FF0040C0A
:101110001C1D072C01D2002300E0DB1E012404FA71
:101120000CFCACF1010C0CEA010101FA03FC04FA1D
:1011300003F1491E11404CEA0101002804DB074A73
:101140000901815410BC7047054A00F00F000901E5
:10115000815410BC704700000CED00E000E400E09A
:1011600014ED00E000F00700064A11684FF6FF0397
:10117000194041EA002040F0FD7040F080601060AE
:10118000704700000CED00E02DE9F8430446DFF85D
:101190001C81207810F0010F6CD00027D8F81C00BB
:1011A00010F0805F0BD1D8F81C0040F08050C8F8D8
:1011B0001C00D8F81C0000F08050009001273C4D26
:1011C000286810F4807F16D1286840F48070286069
:1011D000FFF756FD0646286810F4807F0BD1FFF715
:1011E0004FFD801B642802D90320BDE8F8832868DE
:1011F00010F4807FF3D0D8F8200000F4407048B39A
:10120000A18801F44071814224D0D8F8200020F454
:101210004070284901220A6000220A60C8F82000B4
:1012200010F0010F16D0FFF72BFD0546D8F820006F
:1012300010F0020F0ED141F28836FFF721FD401B5E
:10124000B04202D90320BDE8F883D8F8200010F09E
:10125000020FF2D0D8F82000616820F440700843F3
:10126000C8F82000012F05D1D8F81C0020F08050CC
:10127000C8F81C00207810F0020F07D0D8F804003E
:10128000A16820F440400843C8F80400207810F01A
:10129000100F07D0D8F80400E16820F4800008435C
:1012A000C8F804000020BDE8F883000000100240E8
:1012B00000700040400442422DE9F04704460D46CC
:1012C000002C17D0DFF85C81D8F8000000F0070090
:1012D000A84212D2D8F8000020F007002843C8F82E
:1012E0000000D8F8000000F00700A84205D0012057
:1012F000BDE8F0870120BDE8F08720684A4E10F075
:10130000020F14D010F0040F03D0706840F4E060B6
:101310007060207810F0080F03D0706840F46050BF
:101320007060706820F0F001A06808437060207859
:1013300010F0010F3AD06068012806D002280BD0C7
:10134000316811F0020F27D00AE0316811F4003F34
:1013500006D10120BDE8F087316811F0007F18D078
:10136000716821F0030108437060FFF789FC0746AC
:101370007068616800F00C00B0EB810F16D041F28C
:101380008839FFF77DFCC01B484508D90320BDE81C
:10139000F0870120BDE8F0870120BDE8F087706884
:1013A000616800F00C00B0EB810FEAD1D8F80000C2
:1013B00000F00700A8420FD9D8F8000020F007007D
:1013C0002843C8F80000D8F8000000F00700A84241
:1013D00002D00120BDE8F087207810F0040F05D07E
:1013E0007068E16820F4E06008437060207810F0D5
:1013F000080F06D07068216920F4605040EAC100EF
:10140000706000F03FF87168084AC1F30311515C45
:10141000C8400749086007480068FFF71DFE002024
:10142000BDE8F0870020024000100240D52F0008E0
:10143000240000201C0000200148006870470000C4
:101440002400002000B5FFF7F7FF04494968044A6B
:10145000C1F30221515CC84000BD000000100240F1
:10146000E52F000800B5FFF7E7FF04494968044A83
:10147000C1F3C221515CC84000BD00000010024011
:10148000E52F000885B015A0836842680168C06830
:10149000039302920191049014A000680090144BF1
:1014A0005968144801F00C02042A11D0082A0FD1FF
:1014B00001A8C1F38342805C11F4803F0AD05968CF
:1014C000C1F340411DF801100A4A5043B0FBF1F04E
:1014D00005B07047084905B048437047020304054A
:1014E000060708090A0B0C0D0E0F10100102000070
:1014F0000010024000127A0000093D002DE9F84F6B
:101500000446002C0FD02078F84D10F0010F6CD05D
:10151000686800F00C0004280CD0686800F00C002B
:10152000082803D010E00120BDE8F88F686810F4A7
:10153000803F09D0286810F4003F56D0606800282A
:1015400053D10120BDE8F88F6068B0F5803F15D019
:10155000C8B1B0F5A02F1FD0286820F480302860D3
:10156000286820F480202860606858B3FFF788FB63
:101570000646286810F4003F17D036E0286840F48B
:1015800080302860F0E7286820F4803028602868E0
:1015900020F480202860E7E7286840F48020286055
:1015A000286840F480302860DEE7FFF769FB801B85
:1015B000642802D90320BDE8F88F286810F4003FA2
:1015C000F3D012E0FFF75CFB0646286810F4003FFA
:1015D0000BD0FFF755FB801B642802D90320BDE820
:1015E000F88F286810F4003FF3D12078C04F10F036
:1015F000020F4FF0010B4FF0000854D0686810F054
:101600000C0F14D0686800F00C00082803D168683B
:1016100010F4803F0BD0206978B3C7F800B0FFF713
:101620002FFB0646286810F0020F12D01DE0286834
:1016300010F0020F05D02069012802D00120BDE87A
:10164000F88F2868616920F0F80040EAC10028603E
:1016500029E0FFF715FB801B022802D90320BDE813
:10166000F88F286810F0020FF3D02868616920F025
:10167000F80040EAC100286015E0FFE7C7F80080E5
:10168000FFF7FEFA0646286810F0020F0BD0FFF7AE
:10169000F7FA801B022802D90320BDE8F88F2868DA
:1016A00010F0020FF3D1207810F0080F30D09148DD
:1016B000A169C1B1C0F800B0FFF7E2FA0646686A56
:1016C00010F0020F0BD1FFF7DBFA801B022802D9C2
:1016D0000320BDE8F88F686A10F0020FF3D00120F4
:1016E00000F0C6FF14E0C0F80080FFF7C9FA064614
:1016F000686A10F0020F0BD0FFF7C2FA801B0228B5
:1017000002D90320BDE8F88F686A10F0020FF3D108
:10171000207810F0040F6FD00026E86910F0805F89
:1017200008D1E86940F08050E861E86900F0805035
:1017300000900126DFF8C0A1DAF8000010F4807FE5
:101740001BD1DAF8000040F48070CAF80000FFF7FF
:1017500097FA8146DAF8000010F4807F0DD1FFF788
:101760008FFAA0EB0900642802D90320BDE8F88FA6
:10177000DAF8000010F4807FF1D0E068012816D07C
:10178000D0B1052821D0286A20F001002862286AFB
:1017900020F004002862E06841F2883A68B3FFF75D
:1017A0006FFA8146286A10F0020F17D03AE0286AD3
:1017B00040F001002862EEE7286A20F0010028626C
:1017C000286A20F004002862E5E7286A40F0040057
:1017D0002862286A40F001002862DCE7FFF750FA2F
:1017E000A0EB0900504502D90320BDE8F88F286A14
:1017F00010F0020FF2D015E01AE0FFE7FFF740FA11
:101800008146286A10F0020F0CD0FFF739FAA0EBDE
:101810000900504502D90320BDE8F88F286A10F06E
:10182000020FF2D1012E03D1E86920F08050E86167
:10183000E069E8B3696801F00C0108295ED002286C
:1018400010D0C7F86080FFF71BFA0446286810F034
:10185000007F66D0FFF714FA001B022841D903204D
:10186000BDE8F88FC7F86080FFF70AFA06462868D7
:1018700010F0007F0BD0FFF703FA801B022802D97B
:101880000320BDE8F88F286810F0007FF3D1206AAC
:10189000B0F5803F05D16868A16820F400300843A6
:1018A0006860616A206A0843696821F4741100E085
:1018B00037E008436860C7F860B0FFF7E1F9044615
:1018C000286810F0007F2CD1FFF7DAF9001B0228FE
:1018D00002D90320BDE8F88F286810F0007FF3D00C
:1018E0001FE0286810F0007FB4D11AE00010024019
:1018F00000004242800442420070004001280DD0A6
:101900006868226A00F48031914204D1616A00F46F
:101910007010884205D00120BDE8F88F0120BDE895
:10192000F88F0020BDE8F88F70B50446002C09D070
:10193000606A002540B125616561A56294F8510097
:1019400040B10CE0012070BD6068B0F5827FF4D03A
:10195000E561F2E784F85050204600F03FF802209D
:1019600084F851002068016821F040010160A088DE
:10197000218900F4827001F404410843A18901F433
:1019800000610843217C01F002010843217D01F040
:1019900001010843218B01F400710843217F01F00C
:1019A0003801084394F8201001F080010843218D8C
:1019B00001F40051084321680860A169042000EA8D
:1019C0001140216848602068C16921F40061C1614B
:1019D0006565012084F85100002070BD30B585B0E8
:1019E00000240094019402940394006814498842EE
:1019F00023D11448816941F480518161816901F4E6
:101A000080510491816941F00401816180690E4D2A
:101A100000F004000490A020009002200190032018
:101A2000039069462846FFF721F84020CDE90004DD
:101A3000694628460294FFF719F805B030BD00004A
:101A4000003001400010024000080140401EB0F18B
:101A5000807F01D3012070474FF0E0214861044AA4
:101A6000F020107000208861072008610020704776
:101A700023ED00E030B490F83C20012A2CD0012462
:101A800080F83C40022280F83D200268D2F804C071
:101A900093682CF0700C0D6845EA0C0CC2F804C079
:101AA0000268A2F1804CBCF5963C08D0B2F1804FA0
:101AB00005D01CF5943C02D0BCF5806C04D123F019
:101AC000800349681943916080F83D40002180F807
:101AD0003C1030BC0020704730BC0220704710B56D
:101AE0000446002C03D094F83D0010B107E001201B
:101AF00010BD002084F83C00204600F01FF80220B2
:101B000084F83D00211D206800F0FAFD012084F8D2
:101B1000460084F83E0084F83F0084F8400084F8D2
:101B2000410084F8420084F8430084F8440084F8BB
:101B3000450084F83D00002010BD000008B5006895
:101B4000B0F1804F08D10548C16941F00101C16180
:101B5000C06900F00100009008BD000000100240C4
:101B600070B5044694F83C00012818D0012584F88B
:101B70003C50022084F83D002068826822F0770201
:101B800022F47F4282600868502832D00EDC202880
:101B90004DD006DC00284AD010284DD147E0022065
:101BA00070BD302843D0402846D136E060282AD086
:101BB000702806D0B0F5805F3ED0B0F5005F3BD115
:101BC0000BE0CB684A688968206800F0E4FD206873
:101BD000816841F0770181602EE0CB684A688968AE
:101BE000206800F0D8FD2068816841F48041816060
:101BF00022E0CA684968206800F0A3FE50212068EE
:101C000000F0D4FD18E0CA684968206800F0ACFE16
:101C10006021206800F0CAFD0EE0CA6849682068AB
:101C200000F08FFE4021206800F0C0FD04E0226833
:101C30000146104600F0BAFD84F83D50002084F8BB
:101C40003C0070BD00B585B000210091019102916A
:101C500003910068B0F1804F1AD10E48816941F0BC
:101C6000080181618069694600F00800049008203D
:101C700000900220019003900748FEF7F7FE074806
:101C8000416821F4407141F0E06141F480714160AC
:101C900005B000BD00100240000C014000000140F2
:101CA00070B504460D4694F83C0001280AD0012086
:101CB00084F83C0042B1042A1AD0082A2DD00C2AFC
:101CC00053D13EE0022070BD2946206800F076FD29
:101CD0002068816941F0080181612068816921F0F3
:101CE00004018161206881692A69114381613CE0B6
:101CF0002946206800F096FD2068816941F4006162
:101D000081612068816921F4806181612068816935
:101D10002A6941EA0221816127E02946206800F012
:101D2000B5FD2068C16941F00801C1612068C16941
:101D300021F00401C1612068C1692A691143C161B0
:101D400013E02946206800F0D5FD2068C16941F400
:101D50000061C1612068C16921F48061C1612068AE
:101D6000C1692A6941EA0221C161002084F83C006E
:101D700070BD10B50446002C03D094F83D0010B19E
:101D800007E0012010BD002084F83C00204600F050
:101D90001EF8022084F83D00211D206800F0B0FCF0
:101DA000012084F8460084F83E0084F83F0084F85F
:101DB000400084F8410084F8420084F8430084F82D
:101DC000440084F8450084F83D00002010BD7047B1
:101DD00010B50446002909D004290AD008290BD0DF
:101DE00094F8410001280AD0012010BD94F83E006B
:101DF000F8E794F83F00F5E794F84000F2E7022096
:101E000049B304292AD008292BD084F841000122A3
:101E1000206800F0B1FC17492068884203D1426C69
:101E200042F400424264206888420AD0B0F1804FF8
:101E300007D0A0F18041B1F5806102D0B1F5806199
:101E400012D1816801F00701062911D0016841F023
:101E5000010101600CE084F83E00D8E784F83F00FF
:101E6000D5E784F84000D2E7016841F00101016044
:101E7000002010BD002C014030B504460D46002264
:101E80002946206800F078FC206841F21112911078
:101E9000A0F18043B3F5963309D1036A134206D10A
:101EA000036A0B4203D1436C23F40043436420686C
:101EB000036A134206D1026A0A4203D1016821F083
:101EC0000101016001203DB1042D08D0082D09D089
:101ED00084F84100002030BD84F83E00FAE784F821
:101EE0003F00F7E784F84000F4E770B50446002CA3
:101EF00004D094F83D00002510B106E0012070BD2B
:101F000084F83C50204600F023F8242084F83D005B
:101F10002068C16821F40051C160204600F036FD00
:101F20002068016921F4904101612068416921F034
:101F30002A0141612068C16841F40051C1602564F3
:101F4000202084F83D0084F83E00002070BD000091
:101F500070B586B000240094019402940394234E3B
:101F60000368234902200322224DB34219D18B6911
:101F700043F480438B618B6903F4804304938B6942
:101F800043F004038B618969039201F00401049119
:101F90000102CDE9001069462846FEF767FD2815C5
:101FA0001BE0154EB3421FD1CB6943F40033CB6124
:101FB000CB6903F4003304938B6943F004038B6112
:101FC0008969039201F0040104910421CDE9001014
:101FD00069462846FEF74AFD0820CDE90004694617
:101FE00028460294FEF742FD06B070BD003801405D
:101FF0000010024000080140004400402DE9F84371
:1020000004460E4615461F4694F83E00202802D08E
:102010000220BDE8F883D6B1CDB194F83C00012888
:1020200018D0012084F83C004FF00009C4F840901B
:10203000222084F83E00C4F83090FEF721FE80464E
:10204000A585E585A068B0F5805F06D007E0012092
:10205000BDE8F8830220BDE8F883206980B13546E9
:10206000002684F83C90E08D40B3434600222021B6
:102070002046009700F0D6FC20B10320BDE8F8838D
:102080000025EEE72DB1A068B0F5805F1CD038B117
:1020900008E020684068C0F308003080B61C07E004
:1020A000206988B12068406800F07F0028706D1CAE
:1020B000E08D401EE085E08D0028D6D1202084F8F8
:1020C0003E000020BDE8F883206840682870EEE7F5
:1020D0002DE9F84304460E4615461F4694F83D0088
:1020E000202802D00220BDE8F883C6B1BDB194F823
:1020F0003C00012816D0012084F83C004FF0000974
:10210000C4F84090212084F83D00FEF7B9FD8046D8
:10211000A584E584A068B0F5805F06D007E00120C3
:10212000BDE8F8830220BDE8F883206980B1354618
:10213000002684F83C90E08CB8B143460022802110
:102140002046009700F06EFC20B10320BDE8F88324
:102150000025EEE7A5B12168287848606D1CE08C69
:10216000401EE084E08C0028E7D143460022402155
:102170002046009700F056FC48B10320BDE8F883E4
:1021800030882168C0F308004860B61CE7E72020CB
:1021900084F83D000020BDE8F883FEE701684A6945
:1021A00012F4806F11D06FF480624A6100210163E4
:1021B000202280F83D2080F83E10026C42F004029C
:1021C000026480F83C100120704700207047000036
:1021D000F8B504460D4617461E46E06A082808D0A2
:1021E000012806D010F5803F03D0206B122806D0BE
:1021F0000AE02068016841F48071016004E0206811
:10220000016841F4807101603B4600224FF00111EA
:102210002046009600F063F848B12068006810F48A
:10222000807F02D04FF4007020640320F8BD206945
:10223000B0F5804F0FD005F44070F02141EAD01086
:102240002168086133463A460C49204600F0A0F860
:1022500030B10120F8BD216805F0FE00086102E000
:102260002168E8B2086133463A460549204600F045
:102270008FF808B10120F8BD0020F8BD080001006A
:102280000200010070B504460D46164620684069FC
:1022900010F0040F12D12046FFF780FF08B1012093
:1022A00070BD681C05D0FEF7EBFC801BA84207D868
:1022B00035B12068406910F0040FECD0002070BDEB
:1022C00000202063202184F83D1084F83E00216C1A
:1022D00041F02001216484F83C00012070BD2DE90B
:1022E000F0470446DDF820900D4617461E46C5F31C
:1022F00007482068B8F1010F21D0806925EA000065
:102300000004000C25D00020B84215D1701C06D066
:10231000FEF7B6FCA0EB0900B0421CD8DEB1B8F164
:10232000010F28D02068806925EA00000004000C15
:102330002CD00020B842E9D00020BDE8F0874069E9
:1023400025EA00000004000C01D00020DCE7012099
:10235000DAE70120D8E700202063202184F83D102F
:1023600084F83E00216C41F02001216484F83C0097
:102370000120BDE8F0872068406925EA00000004DC
:10238000000C01D00020D5E70120D3E70120D1E7E0
:102390002DE9F04704460D4616461F46C5F307488B
:1023A0002068B8F1010F26D0806925EA00000004FA
:1023B000000C39D04FF000094FF0200A2068406926
:1023C00010F4806F1ED02068016841F40071016034
:1023D00021686FF480604861C4F8309084F83DA0B3
:1023E00084F83E90206C40F00400206484F83C9017
:1023F0000120BDE8F087406925EA00000004000CD8
:1024000012D0D7E7701C05D0FEF73AFCC01BB042D3
:102410000DD866B1B8F1010F18D02068806925EA9F
:1024200000000004000CC9D10020BDE8F087C4F80A
:10243000309084F83DA084F83E90206C40F020005D
:10244000206484F83C900120BDE8F0872068406952
:1024500025EA00000004000CB0D1E5E770B50446A1
:102460000D4616462068406910F0800F12D12046B4
:10247000FFF794FE08B1012070BD681C05D0FEF77F
:10248000FFFB801BA84207D835B12068406910F0D7
:10249000800FECD0002070BD00202063202184F844
:1024A0003D1084F83E00216C41F02001216484F845
:1024B0003C00012070BD10B5401A029CE41A604334
:1024C000511AB0FBF1F0184410BD0000FEB5002415
:1024D0001148009401940F490294016089158160AC
:1024E000012505730475022606614FF460214460DE
:1024F000C161FEF701F807200094CDE9015069465B
:102500000548FDF749FFCDE9005669460248FDF749
:1025100043FFFEBD002401404800002010B50349E0
:102520000348FDF711FF0349087010BD410000206A
:102530002C0000204000002070B586B000241B480D
:102540000094019402940394816941F02001816117
:10255000816901F020010491816941F004018161E8
:10256000816901F004010491816941F008018161F0
:1025700080690F4E00F008000490002201213046CF
:10258000FEF777FB102001258DE8310069460948E8
:10259000FEF76CFA0220CDE90240009569460195EC
:1025A0003046FEF763FA06B070BD0000001002402E
:1025B000000C0140000801400C480B494FF4007228
:1025C00001604FF48271416000218160C16001614E
:1025D000C0E905121022C0E90721416281620A2187
:1025E000C162FFF7A1B900000030014020010020C6
:1025F00010B58EB000240794089409940A940B94A3
:102600001C2168460C94FDF7A6FD16484FF080414A
:1026100001604FF47A71C0E901146421C0E9031428
:102620008461FFF75CFA4FF48050079007A90D48CA
:10263000FFF796FA0B48FFF79CFB0B940BA9094890
:102640000C94FFF717FA6020CDE9000402940422ED
:10265000694604480494FFF723FB0248FFF7F2FAA7
:102660000EB010BD78010020FEE7704770470000F3
:1026700081B008494FF4FA520968B1FBF2F14843BE
:10268000009000BF0098411E00910028F9D101B0D0
:1026900070470000240000207047FEF7C3BC30B52F
:1026A00093B028216846FDF756FD14210AA8FDF7CE
:1026B00052FD002401200F941094119401041294EF
:1026C0008DE8130004904FF4E010CDE908100225C6
:1026D00007956846FEF712FF0F20CDE90A0568024C
:1026E000CDE90C4002210AA80E94FEF7E5FDA803EF
:1026F00011900F950FA8FEF747FD13B030BD70473E
:1027000030B40268194B1A4CDFF868C0984206D002
:10271000B0F1804F03D0A04201D0604503D122F038
:1027200070024D682A43984206D0B0F1804F03D022
:10273000A04201D0604505D122F44072D1F80CC00E
:102740004CEA0202D1F814C022F0800242EA0C02E4
:1027500002608A68C2620A688262984201D109698D
:1027600001630121416130BC70470000002C014031
:10277000000400400008004001F01F0101238B40CD
:10278000D0F820C02CEA03030362036A02FA01F1C5
:10279000194301627047D0F808C02CF47F4C42EA1C
:1027A0000322114341EA0C0181607047826822F0E4
:1027B0007002114341F007018160704710B4026A52
:1027C00022F001020262036A4268D0F818C02CF0BD
:1027D000700C2CF0030C0C6844EA0C0C23F0020380
:1027E0008C6823430E4CA04206D123F00803CC682A
:1027F00044EA030323F0040309D122F4807222F493
:1028000000724C6944EA02028C6944EA02024260A6
:10281000C0F818C049684163036210BC70470000EB
:10282000002C014010B4026A22F010020262036A16
:102830004268D0F818C02CF4E04C2CF4407C0C68B2
:102840004CEA042C23F020038C6843EA04130E4C5A
:10285000A04206D123F08003CC6843EA041323F09E
:10286000400309D122F4806222F400624C6942EAFA
:1028700084028C6942EA84024260C0F818C0496848
:102880008163036210BC7047002C014010B4026ADF
:1028900022F480720262036A4268D0F81CC02CF0F5
:1028A000700C2CF0030C0C6844EA0C0C23F400733D
:1028B0008C6843EA04230E4CA04206D123F4006343
:1028C000CC6843EA042323F4806309D122F48052C4
:1028D00022F400524C6942EA04128C6942EA041262
:1028E0004260C0F81CC04968C163036210BC7047F5
:1028F000002C014010B4026A22F480520262036A82
:102900004268D0F81CC02CF4E04C2CF4407C0C68DD
:102910004CEA042C23F400538C6843EA0433A0F1FE
:102920008044B4F5963404D122F480424C6942EAE2
:1029300084124260C0F81CC049680164036210BC84
:102940007047036AD0F820C02CF0010CC0F820C0FA
:10295000D0F818C02CF0F00C4CEA021223F00A0355
:102960001943826101627047036A23F01003036216
:10297000D0F818C0036A2CF4704C4CEA023223F0F1
:10298000A00343EA011182610162704710B5044659
:1029900020680169E26821F4405111430161216915
:1029A000A0680843616901432068C26822F4037289
:1029B00022F4A0521143C16020684169A26921F448
:1029C0004071114341612068A0F18041B1F59C3113
:1029D00002D1FEF747FD01E0FEF734FD00EBC00138
:1029E00001EB001061680E4A8900B0FBF1F1A2FB17
:1029F000013040096FF01803434301EB8303322198
:102A000001EB0311A2FB0121490901F0F00202EBE5
:102A1000001001F00F0108442168886010BD00001B
:102A20001F85EB512DE9F0410446069D8846174667
:102A30001E462068006838EA00001FD00020B84217
:102A400026D1681C1CD025B1FEF71AF9801BA842BC
:102A500016D92068C16821F4D071C160206841692D
:102A600021F001014161202084F83D0084F83E00FE
:102A7000002084F83C000320BDE8F0810120DEE75F
:102A80002068006838EA000005D00020B842D8D09D
:102A90000020BDE8F0810120F8E700000248012194
:102AA0000170007870470000280000200120704766
:102AB0000020704702480121017000787047000033
:102AC0002800002000207047FEE702E008C8121F1F
:102AD00008C1002AFAD170477047002001E001C107
:102AE000121F002AFBD1704710B5044600F058F8B9
:102AF000002827D1012000F089F8002822D100F019
:102B0000E5F900281ED100F0F9F9C8B1092819D15A
:102B100000F046F8002815D1022000F077F80028D0
:102B200010D100F0D3F900280CD100F0E7F900280B
:102B3000EED0092806D12046BDE8104000F018BAB2
:102B40004FF0FF3010BD00002DE9F04700240E4685
:102B500081461E27114D4FF00F0816E02868C76206
:102B6000EF602968C1F838804846FDF76DFF042101
:102B70000A48FFF781F94846FDF766FFB44203D0E3
:102B800004210648FFF724F9641CB442E6DDBDE8E1
:102B9000F04704210148FFF76FB9000078010020D9
:102BA0003EB509A24FF0FF3407CA8DE8070023465F
:102BB0000C2269460748FFF78BFA08B120463EBD54
:102BC0000C2000F04DF93EBDEF01FFFFFFFF0100BB
:102BD00003010005C001002010B510210948FEF7CF
:102BE00041F80949087020B148680A2803D2022038
:102BF00010BD012010BD5A2801D9032010BD0020AE
:102C000010BD000000080140000000203EB50FA4E8
:102C100000211CCC8DE81C008DF80A0008466A468D
:102C2000135C401C19440C28FADB8DF80B104FF094
:102C3000FF3423460C2269460748FFF749FA08B1DA
:102C400020463EBD0C2000F00BF93EBDEF01FFFF1A
:102C5000FFFF010004020000C00100200222014920
:102C6000FDF722BD0C00002010B5802000F014F804
:102C70000024202000F030F8641C462CF9DB10BD45
:102C800010B1012805D102E041F0800101E041F0DE
:102C9000C001C8B2AFF300801CB500F0F00141F0F4
:102CA0000C028DF8042041F0080100018DF8051098
:102CB00040F00C018DF8061040F008008DF8070078
:102CC00064200090042301AA4E210248FEF7AEF8CA
:102CD0001CBD0000780000201CB500F0F00141F0A0
:102CE0000D028DF8042041F0090100018DF8051056
:102CF00040F00D018DF8061040F009008DF8070036
:102D000064200090042301AA4E210248FEF78EF8A9
:102D10001CBD00007800002008B5FEF78BF9FFF716
:102D2000BEFCFFF709FC3E48416941F001014161E9
:102D30004069002200F00100009011460B20FEF7D0
:102D4000DBF90B20FEF7C8F937483649374D002428
:102D50000160C0E901540E14C0E903464461846176
:102D6000C4610462FDF792FF324831490C270160CB
:102D70004FF46141C0E90114C460C0E904478461B3
:102D8000C461FFF7B2F828482B4954300160C0E90C
:102D90000154C0E9034644618461C4610462FDF7E3
:102DA00075FF24482549443001604FF4E131C0E902
:102DB0000114C460C0E904478461C461FFF795F859
:102DC000FFF7FAFBFFF714FCFFF780FBFFF7A6FB0A
:102DD00015483038FFF742FF19A000F0A7F800BFF0
:102DE000FFF7FAFE012808D0022811D00328F7D1F6
:102DF00003216420FFF7A8FEF2E701216420FFF71A
:102E0000A3FE0120FFF770FE11A000F08FF803E091
:102E100002216420FFF798FE03213220EAE7000038
:102E2000001002400054004078000020A0860100FD
:102E300000380140C001002000580040004400401C
:102E4000636F6C6C6563742066696E676572000001
:102E50004C4159205448414E4820434F4E470000B2
:102E6000F0B585B0002405466E46671E07E03119AF
:102E70003B4601220548FFF7C1F800B9641CAC428B
:102E8000F5DB701910F8030C05B0F0BDC00100208F
:102E9000F0B585B0002405466E46671E07E031197F
:102EA0003B4601220748FFF7A9F800B9641CAC4271
:102EB000F5DB7019044A10F8070C9DF80B1011701F
:102EC00005B0F0BDC0010020140000200EB507A21F
:102ED0004FF0FF3307CA8DE807000C226946064809
:102EE000FFF7F6F80C20FFF7BBFF0EBDEF01FFFF69
:102EF000FFFF010003050009C001002000B585B0F7
:102F0000142208496846FDF70DF94FF0FF331122EE
:102F100069460548FFF7DCF81020FFF7B9FF05B058
:102F200000BD0000C42F0008C00100202DE9F041C1
:102F30008046FFF799FE4046FDF718F90026074640
:102F4000344635460FE021463046FFF799FE18F823
:102F50000500FFF7C1FE641C102C03D10024761C71
:102F6000022E02D06D1CBD42EDDBBDE8F0810000F9
:102F70007FB50BA500F10E013CCD8DE83C008DF82E
:102F80000C008DF80E104FF0FF330F2269460848F1
:102F9000FFF79EF80C20FFF763FF04B070BD000040
:102FA000EF01FFFFFFFF0100060601000000000027
:102FB000C0010020EF01FFFFFFFF01000303000736
:102FC00000000000EF01FFFFFFFF01000804010007
:102FD0000000FF000D0000000000000000010203DF
:102FE00004060708090000000001020304000000B5
:102FF000103000080000002048000000CA2A000825
:10300000583000084800002050060000DA2A000866
:1030100000000000000000000000000000000000B0
:10302000000000000000000001000000100000008F
:10303000000000000024F400010000009D2A0008A8
:10304000B52A0008B12A0008C52A0008AD2A0008E0
:08305000000000000000000078
:04000005080000ED02
:00000001FF
